{
  "_format": "hh-sol-artifact-1",
  "contractName": "Loot",
  "sourceName": "contracts/fakeloot.sol",
  "abi": [
    {
      "inputs": [],
      "stateMutability": "nonpayable",
      "type": "constructor"
    },
    {
      "anonymous": false,
      "inputs": [
        {
          "indexed": true,
          "internalType": "address",
          "name": "owner",
          "type": "address"
        },
        {
          "indexed": true,
          "internalType": "address",
          "name": "approved",
          "type": "address"
        },
        {
          "indexed": true,
          "internalType": "uint256",
          "name": "tokenId",
          "type": "uint256"
        }
      ],
      "name": "Approval",
      "type": "event"
    },
    {
      "anonymous": false,
      "inputs": [
        {
          "indexed": true,
          "internalType": "address",
          "name": "owner",
          "type": "address"
        },
        {
          "indexed": true,
          "internalType": "address",
          "name": "operator",
          "type": "address"
        },
        {
          "indexed": false,
          "internalType": "bool",
          "name": "approved",
          "type": "bool"
        }
      ],
      "name": "ApprovalForAll",
      "type": "event"
    },
    {
      "anonymous": false,
      "inputs": [
        {
          "indexed": true,
          "internalType": "address",
          "name": "previousOwner",
          "type": "address"
        },
        {
          "indexed": true,
          "internalType": "address",
          "name": "newOwner",
          "type": "address"
        }
      ],
      "name": "OwnershipTransferred",
      "type": "event"
    },
    {
      "anonymous": false,
      "inputs": [
        {
          "indexed": true,
          "internalType": "address",
          "name": "from",
          "type": "address"
        },
        {
          "indexed": true,
          "internalType": "address",
          "name": "to",
          "type": "address"
        },
        {
          "indexed": true,
          "internalType": "uint256",
          "name": "tokenId",
          "type": "uint256"
        }
      ],
      "name": "Transfer",
      "type": "event"
    },
    {
      "inputs": [
        {
          "internalType": "address",
          "name": "to",
          "type": "address"
        },
        {
          "internalType": "uint256",
          "name": "tokenId",
          "type": "uint256"
        }
      ],
      "name": "approve",
      "outputs": [],
      "stateMutability": "nonpayable",
      "type": "function"
    },
    {
      "inputs": [
        {
          "internalType": "address",
          "name": "owner",
          "type": "address"
        }
      ],
      "name": "balanceOf",
      "outputs": [
        {
          "internalType": "uint256",
          "name": "",
          "type": "uint256"
        }
      ],
      "stateMutability": "view",
      "type": "function"
    },
    {
      "inputs": [
        {
          "internalType": "uint256",
          "name": "tokenId",
          "type": "uint256"
        }
      ],
      "name": "claim",
      "outputs": [],
      "stateMutability": "nonpayable",
      "type": "function"
    },
    {
      "inputs": [
        {
          "internalType": "uint256",
          "name": "tokenId",
          "type": "uint256"
        }
      ],
      "name": "getApproved",
      "outputs": [
        {
          "internalType": "address",
          "name": "",
          "type": "address"
        }
      ],
      "stateMutability": "view",
      "type": "function"
    },
    {
      "inputs": [
        {
          "internalType": "uint256",
          "name": "tokenId",
          "type": "uint256"
        }
      ],
      "name": "getChest",
      "outputs": [
        {
          "internalType": "string",
          "name": "",
          "type": "string"
        }
      ],
      "stateMutability": "view",
      "type": "function"
    },
    {
      "inputs": [
        {
          "internalType": "uint256",
          "name": "tokenId",
          "type": "uint256"
        }
      ],
      "name": "getFoot",
      "outputs": [
        {
          "internalType": "string",
          "name": "",
          "type": "string"
        }
      ],
      "stateMutability": "view",
      "type": "function"
    },
    {
      "inputs": [
        {
          "internalType": "uint256",
          "name": "tokenId",
          "type": "uint256"
        }
      ],
      "name": "getHand",
      "outputs": [
        {
          "internalType": "string",
          "name": "",
          "type": "string"
        }
      ],
      "stateMutability": "view",
      "type": "function"
    },
    {
      "inputs": [
        {
          "internalType": "uint256",
          "name": "tokenId",
          "type": "uint256"
        }
      ],
      "name": "getHead",
      "outputs": [
        {
          "internalType": "string",
          "name": "",
          "type": "string"
        }
      ],
      "stateMutability": "view",
      "type": "function"
    },
    {
      "inputs": [
        {
          "internalType": "uint256",
          "name": "tokenId",
          "type": "uint256"
        }
      ],
      "name": "getNeck",
      "outputs": [
        {
          "internalType": "string",
          "name": "",
          "type": "string"
        }
      ],
      "stateMutability": "view",
      "type": "function"
    },
    {
      "inputs": [
        {
          "internalType": "uint256",
          "name": "tokenId",
          "type": "uint256"
        }
      ],
      "name": "getRing",
      "outputs": [
        {
          "internalType": "string",
          "name": "",
          "type": "string"
        }
      ],
      "stateMutability": "view",
      "type": "function"
    },
    {
      "inputs": [
        {
          "internalType": "uint256",
          "name": "tokenId",
          "type": "uint256"
        }
      ],
      "name": "getWaist",
      "outputs": [
        {
          "internalType": "string",
          "name": "",
          "type": "string"
        }
      ],
      "stateMutability": "view",
      "type": "function"
    },
    {
      "inputs": [
        {
          "internalType": "uint256",
          "name": "tokenId",
          "type": "uint256"
        }
      ],
      "name": "getWeapon",
      "outputs": [
        {
          "internalType": "string",
          "name": "",
          "type": "string"
        }
      ],
      "stateMutability": "view",
      "type": "function"
    },
    {
      "inputs": [
        {
          "internalType": "address",
          "name": "owner",
          "type": "address"
        },
        {
          "internalType": "address",
          "name": "operator",
          "type": "address"
        }
      ],
      "name": "isApprovedForAll",
      "outputs": [
        {
          "internalType": "bool",
          "name": "",
          "type": "bool"
        }
      ],
      "stateMutability": "view",
      "type": "function"
    },
    {
      "inputs": [],
      "name": "name",
      "outputs": [
        {
          "internalType": "string",
          "name": "",
          "type": "string"
        }
      ],
      "stateMutability": "view",
      "type": "function"
    },
    {
      "inputs": [],
      "name": "owner",
      "outputs": [
        {
          "internalType": "address",
          "name": "",
          "type": "address"
        }
      ],
      "stateMutability": "view",
      "type": "function"
    },
    {
      "inputs": [
        {
          "internalType": "uint256",
          "name": "tokenId",
          "type": "uint256"
        }
      ],
      "name": "ownerClaim",
      "outputs": [],
      "stateMutability": "nonpayable",
      "type": "function"
    },
    {
      "inputs": [
        {
          "internalType": "uint256",
          "name": "tokenId",
          "type": "uint256"
        }
      ],
      "name": "ownerOf",
      "outputs": [
        {
          "internalType": "address",
          "name": "",
          "type": "address"
        }
      ],
      "stateMutability": "view",
      "type": "function"
    },
    {
      "inputs": [],
      "name": "renounceOwnership",
      "outputs": [],
      "stateMutability": "nonpayable",
      "type": "function"
    },
    {
      "inputs": [
        {
          "internalType": "address",
          "name": "from",
          "type": "address"
        },
        {
          "internalType": "address",
          "name": "to",
          "type": "address"
        },
        {
          "internalType": "uint256",
          "name": "tokenId",
          "type": "uint256"
        }
      ],
      "name": "safeTransferFrom",
      "outputs": [],
      "stateMutability": "nonpayable",
      "type": "function"
    },
    {
      "inputs": [
        {
          "internalType": "address",
          "name": "from",
          "type": "address"
        },
        {
          "internalType": "address",
          "name": "to",
          "type": "address"
        },
        {
          "internalType": "uint256",
          "name": "tokenId",
          "type": "uint256"
        },
        {
          "internalType": "bytes",
          "name": "_data",
          "type": "bytes"
        }
      ],
      "name": "safeTransferFrom",
      "outputs": [],
      "stateMutability": "nonpayable",
      "type": "function"
    },
    {
      "inputs": [
        {
          "internalType": "address",
          "name": "operator",
          "type": "address"
        },
        {
          "internalType": "bool",
          "name": "approved",
          "type": "bool"
        }
      ],
      "name": "setApprovalForAll",
      "outputs": [],
      "stateMutability": "nonpayable",
      "type": "function"
    },
    {
      "inputs": [
        {
          "internalType": "bytes4",
          "name": "interfaceId",
          "type": "bytes4"
        }
      ],
      "name": "supportsInterface",
      "outputs": [
        {
          "internalType": "bool",
          "name": "",
          "type": "bool"
        }
      ],
      "stateMutability": "view",
      "type": "function"
    },
    {
      "inputs": [],
      "name": "symbol",
      "outputs": [
        {
          "internalType": "string",
          "name": "",
          "type": "string"
        }
      ],
      "stateMutability": "view",
      "type": "function"
    },
    {
      "inputs": [
        {
          "internalType": "uint256",
          "name": "index",
          "type": "uint256"
        }
      ],
      "name": "tokenByIndex",
      "outputs": [
        {
          "internalType": "uint256",
          "name": "",
          "type": "uint256"
        }
      ],
      "stateMutability": "view",
      "type": "function"
    },
    {
      "inputs": [
        {
          "internalType": "address",
          "name": "owner",
          "type": "address"
        },
        {
          "internalType": "uint256",
          "name": "index",
          "type": "uint256"
        }
      ],
      "name": "tokenOfOwnerByIndex",
      "outputs": [
        {
          "internalType": "uint256",
          "name": "",
          "type": "uint256"
        }
      ],
      "stateMutability": "view",
      "type": "function"
    },
    {
      "inputs": [
        {
          "internalType": "uint256",
          "name": "tokenId",
          "type": "uint256"
        }
      ],
      "name": "tokenURI",
      "outputs": [
        {
          "internalType": "string",
          "name": "",
          "type": "string"
        }
      ],
      "stateMutability": "view",
      "type": "function"
    },
    {
      "inputs": [],
      "name": "totalSupply",
      "outputs": [
        {
          "internalType": "uint256",
          "name": "",
          "type": "uint256"
        }
      ],
      "stateMutability": "view",
      "type": "function"
    },
    {
      "inputs": [
        {
          "internalType": "address",
          "name": "from",
          "type": "address"
        },
        {
          "internalType": "address",
          "name": "to",
          "type": "address"
        },
        {
          "internalType": "uint256",
          "name": "tokenId",
          "type": "uint256"
        }
      ],
      "name": "transferFrom",
      "outputs": [],
      "stateMutability": "nonpayable",
      "type": "function"
    },
    {
      "inputs": [
        {
          "internalType": "address",
          "name": "newOwner",
          "type": "address"
        }
      ],
      "name": "transferOwnership",
      "outputs": [],
      "stateMutability": "nonpayable",
      "type": "function"
    }
  ],
  "bytecode": "0x60096102c0818152682bb0b93430b6b6b2b960b91b6102e0526080908152600c6103008181526b28bab0b93a32b939ba30b33360a11b6103205260a05260046103408181526313585d5b60e21b6103605260c052610380818152634d61636560e01b6103a05260e0526103c08181526321b63ab160e11b6103e052610100526006610400908152654b6174616e6160d01b61042052610120526008610440818152672330b631b434b7b760c11b61046052610140526104808181526729b1b4b6b4ba30b960c11b6104a05261016052600a6104c081815269131bdb99c814dddbdc9960b21b6104e05261018052600b6105009081526a14da1bdc9d0814dddbdc9960aa1b610520526101a0526105408181526911da1bdcdd0815d85b9960b21b610560526101c0526105809081526911dc985d994815d85b9960b21b6105a0526101e0526105c085815268109bdb994815d85b9960ba1b6105e052610200526106008281526315d85b9960e21b6106205261022052610640908152674772696d6f69726560c01b6106605261024052610680938452684368726f6e69636c6560b81b6106a052610260939093526106c083815263546f6d6560e01b6106e0526102805261074060405261070092835263426f6f6b60e01b610720526102a092909252620001ef9190601262001d2d565b506040805161022081018252600b6101e082019081526a446976696e6520526f626560a81b61020083015281528151808301835260098082526853696c6b20526f626560b81b6020838101919091528084019290925283518085018552600a808252694c696e656e20526f626560b01b8285015284860191909152845180860186526004815263526f626560e01b81850152606085015284518086018652600581526414da1a5c9d60da1b818501526080850152845180860186528181526944656d6f6e204875736b60b01b8185015260a085015284518086018652601081526f223930b3b7b739b5b4b71020b936b7b960811b8185015260c085015284518086018652601581527f53747564646564204c6561746865722041726d6f7200000000000000000000008185015260e08501528451808601865260128152712430b932102632b0ba3432b91020b936b7b960711b8185015261010085015284518086018652600d8082526c2632b0ba3432b91020b936b7b960991b8286015261012086019190915285518087018752600f8082526e486f6c79204368657374706c61746560881b828701526101408701919091528651808801885260118152704f726e617465204368657374706c61746560781b818701526101608701528651808801885283815269141b185d194813585a5b60b21b81870152610180870152865180880188529283526910da185a5b8813585a5b60b21b838601526101a0860192909252855180870190965291855268149a5b99c813585a5b60ba1b928501929092526101c08301939093526200044892919062001d91565b50604051806101e001604052806040518060400160405280600c81526020016b416e6369656e742048656c6d60a01b81525081526020016040518060400160405280600b81526020016a4f726e6174652048656c6d60a81b81525081526020016040518060400160405280600a81526020016947726561742048656c6d60b01b81525081526020016040518060400160405280600981526020016846756c6c2048656c6d60b81b81525081526020016040518060400160405280600481526020016348656c6d60e01b81525081526020016040518060400160405280600b81526020016a2232b6b7b71021b937bbb760a91b81525081526020016040518060400160405280600e81526020016d223930b3b7b713b99021b937bbb760911b8152508152602001604051806040016040528060078152602001660576172204361760cc1b81525081526020016040518060400160405280600b81526020016a04c656174686572204361760ac1b81525081526020016040518060400160405280600381526020016204361760ec1b81525081526020016040518060400160405280600581526020016421b937bbb760d91b81525081526020016040518060400160405280600b81526020016a111a5d9a5b9948121bdbd960aa1b81525081526020016040518060400160405280600981526020016814da5b1ac8121bdbd960ba1b81525081526020016040518060400160405280600a815260200169131a5b995b88121bdbd960b21b815250815260200160405180604001604052806004815260200163121bdbd960e21b815250815250600e90600f620006aa92919062001d91565b506040805161022081018252600b6101e082018181526a13dc9b985d194810995b1d60aa1b610200840152825282518084018452600881526715d85c8810995b1d60c21b60208281019190915280840191909152835180850185529182526a141b185d19590810995b1d60aa1b82820152828401919091528251808401845260098082526813595cda0810995b1d60ba1b82840152606084019190915283518085018552600a808252691219585d9e4810995b1d60b21b82850152608085019190915284518086018652600e81526d11195b5bdb9a1a59194810995b1d60921b8185015260a085015284518086018652600f8082526e111c9859dbdb9cdada5b8810995b1d608a1b8286015260c086019190915285518087018752601481527f53747564646564204c6561746865722042656c740000000000000000000000008186015260e086015285518087018752601181527012185c99081319585d1a195c8810995b1d607a1b8186015261010086015285518087018752600c81526b1319585d1a195c8810995b1d60a21b81860152610120860152855180870187528181526e084e4d2ced0e8e6d2d8d640a6c2e6d608b1b8186015261014086015285518087018752838152680a6d2d8d640a6c2e6d60bb1b8186015261016086015285518087018752928352680aededed840a6c2e6d60bb1b838501526101808501929092528451808601865290815269098d2dccadc40a6c2e6d60b31b818401526101a0840152835180850190945260048452630a6c2e6d60e31b918401919091526101c08201929092526200090191908162001d91565b506040805161022081018252600c6101e082019081526b486f6c79204772656176657360a01b610200830152815281518083018352600e81526d4f726e617465204772656176657360901b602082810191909152808301919091528251808401845260078152664772656176657360c81b818301528284015282518084018452600b8082526a436861696e20426f6f747360a81b828401526060840191909152835180850185528181526a486561767920426f6f747360a81b81840152608084015283518085018552600f8082526e44656d6f6e6869646520426f6f747360881b8285015260a08501919091528451808601865260108082526f447261676f6e736b696e20426f6f747360801b8286015260c086019190915285518087018752601581527f53747564646564204c65617468657220426f6f747300000000000000000000008186015260e086015285518087018752601281527148617264204c65617468657220426f6f747360701b8186015261010086015285518087018752600d8082526c4c65617468657220426f6f747360981b82870152610120870191909152865180880188528381526e446976696e6520536c69707065727360881b81870152610140870152865180880188529081526c53696c6b20536c69707065727360981b8186015261016086015285518087018752600a815269576f6f6c2053686f657360b01b81860152610180860152855180870187529283526a4c696e656e2053686f657360a81b838501526101a08501929092528451808601909552600585526453686f657360d81b928501929092526101c083019390935262000b6b92919062001d91565b506040805161022081018252600e6101e082018181526d486f6c79204761756e746c65747360901b610200840152825282518084018452601081526f4f726e617465204761756e746c65747360801b602082810191909152808401919091528351808501855260098152684761756e746c65747360b81b818301528385015283518085018552600c8082526b436861696e20476c6f76657360a01b828401526060850191909152845180860186528181526b486561767920476c6f76657360a01b81840152608085015284518086018652600d8082526c44656d6f6e27732048616e647360981b8285015260a086019190915285518087018752601180825270447261676f6e736b696e20476c6f76657360781b8286015260c087019190915286518088018852601681527f53747564646564204c65617468657220476c6f766573000000000000000000008186015260e087015286518088018852601381527f48617264204c65617468657220476c6f7665730000000000000000000000000081860152610100870152865180880188529485526d4c65617468657220476c6f76657360901b85850152610120860194909452855180870187529081526c446976696e6520476c6f76657360981b8184015261014085015284518086018652600b8082526a53696c6b20476c6f76657360a81b82850152610160860191909152855180870187529081526a576f6f6c20476c6f76657360a81b81840152610180850152845180860186529081526b4c696e656e20476c6f76657360a01b818301526101a084015283518085019094526006845265476c6f76657360d01b908401526101c082019290925262000de49190600f62001d91565b506040518060600160405280604051806040016040528060088152602001674e65636b6c61636560c01b815250815260200160405180604001604052806006815260200165105b5d5b195d60d21b81525081526020016040518060400160405280600781526020016614195b99185b9d60ca1b815250815250601290600362000e6f92919062001de3565b506040805160e081018252600960a0820190815268476f6c642052696e6760b81b60c0830152815281518083018352600b8082526a53696c7665722052696e6760a81b60208381019190915280840192909252835180850185529081526a42726f6e7a652052696e6760a81b818301528284015282518084018452600d8082526c506c6174696e756d2052696e6760981b828401526060840191909152835180850190945283526c546974616e69756d2052696e6760981b90830152608081019190915262000f4390601390600562001e35565b506040805161024081018252600861020082018181526737b3102837bbb2b960c11b6102208401528252825180840184526009808252686f66204769616e747360b81b6020838101919091528085019290925284518086018652908152686f6620546974616e7360b81b818301528385015283518085018552828152671bd98814dada5b1b60c21b81830152606084015283518085018552600d8082526c37b3102832b93332b1ba34b7b760991b828401526080850191909152845180860186528181526c6f66204272696c6c69616e636560981b8184015260a08501528451808601865260108082526f1bd988115b9b1a59da1d195b9b595b9d60821b8285015260c0860191909152855180870187528281526c37b310283937ba32b1ba34b7b760991b8185015260e0860152855180870187529384526737b31020b733b2b960c11b84840152610100850193909352845180860186526007808252666f66205261676560c81b8285015261012086019190915285518087018752908152666f66204675727960c81b8184015261014085015284518086018652600a808252691bd988159a5d1c9a5bdb60b21b8285015261016086019190915285518087018752908152690decc40e8d0ca408cdef60b31b8184015261018085015284518086018652600c8082526b37b3102232ba32b1ba34b7b760a11b828501526101a0860191909152855180870187529182526c37b3102932b33632b1ba34b7b760991b828401526101c0850191909152845180860190955284526b6f6620746865205477696e7360a01b908401526101e0820192909252620011a7916014919062001e87565b50604080516108e08101825260056108a082018181526441676f6e7960d81b6108c0840152825282518084018452600a8082526941706f63616c7970736560b01b60208381019190915280850192909252845180860186528181526920b936b0b3b2b23237b760b11b818401528486015284518086018652838152641099585cdd60da1b81840152606085015284518086018652600880825267084cad0cadadee8d60c31b82850152608086019190915285518087018752600680825265109b1a59da1d60d21b8286015260a08701919091528651808801885285815264109b1bdbd960da1b8186015260c0870152865180880188526007808252664272616d626c6560c81b8287015260e0880191909152875180890189526009808252684272696d73746f6e6560b81b828801526101008901919091528851808a018a5287815264109c9bdbd960da1b818801526101208901528851808a018a528281526621b0b93934b7b760c91b818801526101408901528851808a018a528181526843617461636c79736d60b81b818801526101608901528851808a018a52848152674368696d6572696360c01b818801526101808901528851808a018a5283815265436f7270736560d01b818801526101a08901528851808a018a528581526921b7b9393ab83a34b7b760b11b818801526101c08901528851808a018a52818152682230b6b730ba34b7b760b91b818801526101e08901528851808a018a5287815264088cac2e8d60db1b818801526102008901528851808a018a52878152642232b6b7b760d91b818801526102208901528851808a018a526004808252634469726560e01b828901526102408a01919091528951808b018b5284815265223930b3b7b760d11b818901526102608a01528951808b018b5288815264111c99585960da1b818901526102808a01528951808b018b5281815263446f6f6d60e01b818901526102a08a01528951808b018b52818152634475736b60e01b818901526102c08a01528951808b018b52888152644561676c6560d81b818901526102e08a01528951808b018b528581526722b6b83cb932b0b760c11b818901526103008a01528951808b018b52818152634661746560e01b818901526103208a01528951808b018b52600380825262466f6560e81b828a01526103408b01919091528a51808c018c528281526347616c6560e01b818a01526103608b01528a51808c018c528981526411da1bdd5b60da1b818a01526103808b01528a51808c018c5289815264476c6f6f6d60d81b818a01526103a08b01528a51808c018c528981526408ed8f2e0d60db1b818a01526103c08b01528a51808c018c5289815264476f6c656d60d81b818a01526103e08b01528a51808c018c52828152634772696d60e01b818a01526104008b01528a51808c018c52828152634861746560e01b818a01526104208b01528a51808c018c52898152644861766f6360d81b818a01526104408b01528a51808c018c52858152652437b737bab960d11b818a01526104608b01528a51808c018c52858152652437b93937b960d11b818a01526104808b01528a51808c018c52868152674879706e6f74696360c01b818a01526104a08b01528a51808c018c528581526525b930b5b2b760d11b818a01526104c08b01528a51808c018c5289815264098dec2e8d60db1b818a01526104e08b01528a51808c018c52838152684d61656c7374726f6d60b81b818a01526105008b01528a51808c018c5282815263135a5b9960e21b818a01526105208b01528a51808c018c52848152664d697261636c6560c81b818a01526105408b01528a51808c018c5285815265135bdc989a5960d21b818a01526105608b01528a51808c018c529586526727b13634bb34b7b760c11b868901526105808a01959095528951808b018b528281526813db9cdb185d59da1d60ba1b818901526105a08a01528951808b018b52818152632830b4b760e11b818901526105c08a01528951808b018b52600b81526a50616e64656d6f6e69756d60a81b818901526105e08a01528951808b018b52838152660a0d0decadcd2f60cb1b818901526106008a01528951808b018b5284815265506c6167756560d01b818901526106208a01528951808b018b52818152635261676560e01b818901526106408a01528951808b018b52838152665261707475726560c81b818901526106608a01528951808b018b528181526352756e6560e01b818901526106808a01528951808b018b528881526414dadd5b1b60da1b818901526106a08a01528951808b018b528581526214dbdb60ea1b818901526106c08a01528951808b018b529081526314dbdd5b60e21b818801526106e08901528851808a018a5283815265536f72726f7760d01b818801526107008901528851808a018a528381526514dc1a5c9a5d60d21b818801526107208901528851808a018a528781526453746f726d60d81b818801526107408901528851808a018a528281526615195b5c195cdd60ca1b818801526107608901528851808a018a5282815266151bdc9b595b9d60ca1b818801526107808901528851808a018a529081526856656e6765616e636560b81b818701526107a08801528751808901895281815266566963746f727960c81b818701526107c088015287518089018952868152642b34b832b960d91b818701526107e088015287518089018952918252650acdee4e8caf60d31b828601526108008701919091528651808801885291825262576f6560e81b8285015261082086019190915285518087018752938452640aee4c2e8d60db1b8484015261084085019390935284518086018652928352664c69676874277360c81b838301526108608401929092528351808501909452908352695368696d6d6572696e6760b01b9083015261088081019190915262001a1190601590604562001ed9565b506040805161028081018252600461024082018181526342616e6560e01b61026084015282528251808401845281815263149bdbdd60e21b6020828101919091528084019190915283518085018552828152634269746560e01b81830152838501528351808501855282815263536f6e6760e01b81830152606084015283518085018552828152632937b0b960e11b81830152608084015283518085018552600580825264047726173760dc1b8284015260a085019190915284518086018652600a815269125b9cdd1c9d5b595b9d60b21b8184015260c08501528451808601865283815263476c6f7760e01b8184015260e0850152845180860186526006808252652132b73232b960d11b828501526101008601919091528551808701875290815265536861646f7760d01b818401526101208501528451808601865260078152662bb434b9b832b960c91b81840152610140850152845180860186528181526414da1bdd5d60da1b81840152610160850152845180860186529081526411dc9bdddb60da1b8183015261018084015283518085018552828152632a32b0b960e11b818301526101a084015283518085018552828152635065616b60e01b818301526101c08401528351808501855282815263466f726d60e01b818301526101e084015283518085018552600381526229bab760e91b8183015261020084015283518085019094529083526326b7b7b760e11b9083015261022081019190915262001c4290601690601262001d2d565b5034801562001c5057600080fd5b50604080518082018252600981526811985ad948131bdbdd60ba1b602080830191825283518085019094526005845264119313d3d560da1b90840152815191929162001c9f9160009162001f2b565b50805162001cb590600190602084019062001f2b565b50506001600a555062001cd162001ccb62001cd7565b62001cdb565b6200207a565b3390565b600b80546001600160a01b038381166001600160a01b0319831681179093556040519116919082907f8be0079c531659141344cd1fd0a4f28419497f9722a3daafe3b4186f6b6457e090600090a35050565b82805482825590600052602060002090810192821562001d7f579160200282015b8281111562001d7f578251805162001d6e91849160209091019062001f2b565b509160200191906001019062001d4e565b5062001d8d92915062001fb6565b5090565b82805482825590600052602060002090810192821562001d7f579160200282015b8281111562001d7f578251805162001dd291849160209091019062001f2b565b509160200191906001019062001db2565b82805482825590600052602060002090810192821562001d7f579160200282015b8281111562001d7f578251805162001e2491849160209091019062001f2b565b509160200191906001019062001e04565b82805482825590600052602060002090810192821562001d7f579160200282015b8281111562001d7f578251805162001e7691849160209091019062001f2b565b509160200191906001019062001e56565b82805482825590600052602060002090810192821562001d7f579160200282015b8281111562001d7f578251805162001ec891849160209091019062001f2b565b509160200191906001019062001ea8565b82805482825590600052602060002090810192821562001d7f579160200282015b8281111562001d7f578251805162001f1a91849160209091019062001f2b565b509160200191906001019062001efa565b82805462001f399062002033565b90600052602060002090601f01602090048101928262001f5d576000855562001fa8565b82601f1062001f7857805160ff191683800117855562001fa8565b8280016001018555821562001fa8579182015b8281111562001fa857825182559160200191906001019062001f8b565b5062001d8d92915062001fd7565b8082111562001d8d57600062001fcd828262001fee565b5060010162001fb6565b5b8082111562001d8d576000815560010162001fd8565b50805462001ffc9062002033565b6000825580601f1062002010575062002030565b601f01602090049060005260206000209081019062002030919062001fd7565b50565b6002810460018216806200204857607f821691505b602082108114156200205e576200205e62002064565b50919050565b634e487b7160e01b600052602260045260246000fd5b613622806200208a6000396000f3fe608060405234801561001057600080fd5b50600436106101cf5760003560e01c806370a0823111610104578063a22cb465116100a2578063d47f269e11610071578063d47f269e146103b7578063e985e9c5146103ca578063ef68075a146103dd578063f2fde38b146103f0576101cf565b8063a22cb4651461036b578063b88d4fde1461037e578063c08a5dd514610391578063c87b56dd146103a4576101cf565b806395d89b41116100de57806395d89b411461032a5780639720c969146103325780639bdc1b69146103455780639e41b73f14610358576101cf565b806370a0823114610307578063715018a61461031a5780638da5cb5b14610322576101cf565b80632f745c5911610171578063434f48c41161014b578063434f48c4146102bb5780634f6ccce7146102ce5780636352211e146102e157806367209aa8146102f4576101cf565b80632f745c5914610282578063379607f51461029557806342842e0e146102a8576101cf565b8063095ea7b3116101ad578063095ea7b3146102325780630e99990d1461024757806318160ddd1461025a57806323b872dd1461026f576101cf565b806301ffc9a7146101d457806306fdde03146101fd578063081812fc14610212575b600080fd5b6101e76101e23660046124c0565b610403565b6040516101f49190612f9c565b60405180910390f35b610205610430565b6040516101f49190612faa565b6102256102203660046124fc565b6104c2565b6040516101f49190612f4a565b610245610240366004612490565b61050e565b005b6102056102553660046124fc565b6105a6565b6102626106a0565b6040516101f491906130eb565b61024561027d36600461239a565b6106a6565b610262610290366004612490565b6106de565b6102456102a33660046124fc565b610733565b6102456102b636600461239a565b6107a0565b6102456102c93660046124fc565b6107bb565b6102626102dc3660046124fc565b61085b565b6102256102ef3660046124fc565b6108b6565b6102056103023660046124fc565b6108eb565b610262610315366004612342565b6109dc565b610245610a20565b610225610a6b565b610205610a7a565b6102056103403660046124fc565b610a89565b6102056103533660046124fc565b610b7a565b6102056103663660046124fc565b610c6c565b610245610379366004612460565b610d5f565b61024561038c3660046123e7565b610e2d565b61020561039f3660046124fc565b610e6c565b6102056103b23660046124fc565b610f5d565b6102056103c53660046124fc565b611205565b6101e76103d8366004612360565b6112f6565b6102056103eb3660046124fc565b611324565b6102456103fe366004612342565b611416565b60006001600160e01b0319821663780e9d6360e01b1480610428575061042882611487565b90505b919050565b60606000805461043f90613285565b80601f016020809104026020016040519081016040528092919081815260200182805461046b90613285565b80156104b85780601f1061048d576101008083540402835291602001916104b8565b820191906000526020600020905b81548152906001019060200180831161049b57829003601f168201915b5050505050905090565b60006104cd826114c7565b6104f25760405162461bcd60e51b81526004016104e99061306b565b60405180910390fd5b506000908152600460205260409020546001600160a01b031690565b6000610519826108b6565b9050806001600160a01b0316836001600160a01b0316141561054d5760405162461bcd60e51b81526004016104e9906130ab565b806001600160a01b031661055f6114e4565b6001600160a01b0316148061057b575061057b816103d86114e4565b6105975760405162461bcd60e51b81526004016104e99061302b565b6105a183836114e8565b505050565b606061042882604051806040016040528060048152602001631193d3d560e21b8152506010805480602002602001604051908101604052809291908181526020016000905b8282101561069757838290600052602060002001805461060a90613285565b80601f016020809104026020016040519081016040528092919081815260200182805461063690613285565b80156106835780601f1061065857610100808354040283529160200191610683565b820191906000526020600020905b81548152906001019060200180831161066657829003601f168201915b5050505050815260200190600101906105eb565b50505050611556565b60085490565b6106b76106b16114e4565b82611883565b6106d35760405162461bcd60e51b81526004016104e9906130bb565b6105a1838383611908565b60006106e9836109dc565b82106107075760405162461bcd60e51b81526004016104e990612fbb565b506001600160a01b03821660009081526006602090815260408083208484529091529020545b92915050565b6002600a5414156107565760405162461bcd60e51b81526004016104e9906130db565b6002600a55801580159061076b5750611e6281105b6107875760405162461bcd60e51b81526004016104e99061308b565b6107986107926114e4565b82611a35565b506001600a55565b6105a183838360405180602001604052806000815250610e2d565b6002600a5414156107de5760405162461bcd60e51b81526004016104e9906130db565b6002600a556107eb6114e4565b6001600160a01b03166107fc610a6b565b6001600160a01b0316146108225760405162461bcd60e51b81526004016104e99061307b565b611e61811180156108345750611f4181105b6108505760405162461bcd60e51b81526004016104e99061308b565b610798610792610a6b565b60006108656106a0565b82106108835760405162461bcd60e51b81526004016104e9906130cb565b600882815481106108a457634e487b7160e01b600052603260045260246000fd5b90600052602060002001549050919050565b6000818152600260205260408120546001600160a01b0316806104285760405162461bcd60e51b81526004016104e99061304b565b606061042882604051806040016040528060048152602001634e45434b60e01b8152506012805480602002602001604051908101604052809291908181526020016000905b8282101561069757838290600052602060002001805461094f90613285565b80601f016020809104026020016040519081016040528092919081815260200182805461097b90613285565b80156109c85780601f1061099d576101008083540402835291602001916109c8565b820191906000526020600020905b8154815290600101906020018083116109ab57829003601f168201915b505050505081526020019060010190610930565b60006001600160a01b038216610a045760405162461bcd60e51b81526004016104e99061303b565b506001600160a01b031660009081526003602052604090205490565b610a286114e4565b6001600160a01b0316610a39610a6b565b6001600160a01b031614610a5f5760405162461bcd60e51b81526004016104e99061307b565b610a696000611a53565b565b600b546001600160a01b031690565b60606001805461043f90613285565b606061042882604051806040016040528060048152602001631211505160e21b815250600e805480602002602001604051908101604052809291908181526020016000905b82821015610697578382906000526020600020018054610aed90613285565b80601f0160208091040260200160405190810160405280929190818152602001828054610b1990613285565b8015610b665780601f10610b3b57610100808354040283529160200191610b66565b820191906000526020600020905b815481529060010190602001808311610b4957829003601f168201915b505050505081526020019060010190610ace565b6060610428826040518060400160405280600581526020016415d05254d560da1b815250600f805480602002602001604051908101604052809291908181526020016000905b82821015610697578382906000526020600020018054610bdf90613285565b80601f0160208091040260200160405190810160405280929190818152602001828054610c0b90613285565b8015610c585780601f10610c2d57610100808354040283529160200191610c58565b820191906000526020600020905b815481529060010190602001808311610c3b57829003601f168201915b505050505081526020019060010190610bc0565b606061042882604051806040016040528060068152602001652ba2a0a827a760d11b815250600c805480602002602001604051908101604052809291908181526020016000905b82821015610697578382906000526020600020018054610cd290613285565b80601f0160208091040260200160405190810160405280929190818152602001828054610cfe90613285565b8015610d4b5780601f10610d2057610100808354040283529160200191610d4b565b820191906000526020600020905b815481529060010190602001808311610d2e57829003601f168201915b505050505081526020019060010190610cb3565b610d676114e4565b6001600160a01b0316826001600160a01b03161415610d985760405162461bcd60e51b81526004016104e99061300b565b8060056000610da56114e4565b6001600160a01b03908116825260208083019390935260409182016000908120918716808252919093529120805460ff191692151592909217909155610de96114e4565b6001600160a01b03167f17307eab39ab6107e8899845ad3d59bd9653f200f220920489ca2b5937696c3183604051610e219190612f9c565b60405180910390a35050565b610e3e610e386114e4565b83611883565b610e5a5760405162461bcd60e51b81526004016104e9906130bb565b610e6684848484611aa5565b50505050565b6060610428826040518060400160405280600481526020016352494e4760e01b8152506013805480602002602001604051908101604052809291908181526020016000905b82821015610697578382906000526020600020018054610ed090613285565b80601f0160208091040260200160405190810160405280929190818152602001828054610efc90613285565b8015610f495780601f10610f1e57610100808354040283529160200191610f49565b820191906000526020600020905b815481529060010190602001808311610f2c57829003601f168201915b505050505081526020019060010190610eb1565b6060610f6761226b565b60405180610120016040528060fd815260200161345f60fd91398152610f8c83610c6c565b81600160200201819052506040518060600160405280602881526020016135c5602891396040820152610fbe83611324565b606080830191909152604080519182019052602880825261339460208301396080820152610feb83610a89565b60a08201526040805160608101909152602880825261340e602083013960c082015261101683610b7a565b60e0820152604080516060810190915260298082526134366020830139610100820152611042836105a6565b610120820152604080516060810190915260298082526133e5602083013961014082015261106f83611205565b6101608201526040805160608101909152602980825261355c602083013961018082015261109c836108eb565b6101a0820152604080516060810190915260298082526133bc60208301396101c08201526110c983610e6c565b6101e0820152604080518082018252600d81526c1e17ba32bc3a1f1e17b9bb339f60991b602080830191909152610200840191909152825181840151838501516060860151608087015160a088015160c089015160e08a01516101008b0151995160009a6111399a909101612dbe565b60408051808303601f19018152908290526101208401516101408501516101608601516101808701516101a08801516101c08901516101e08a01516102008b015197995061118c988a9890602001612dbe565b604051602081830303815290604052905060006111d96111ab86611ad8565b6111b484611bf3565b6040516020016111c5929190612efa565b604051602081830303815290604052611bf3565b9050806040516020016111ec9190612f33565b60408051808303601f1901815291905295945050505050565b606061042882604051806040016040528060048152602001631210539160e21b8152506011805480602002602001604051908101604052809291908181526020016000905b8282101561069757838290600052602060002001805461126990613285565b80601f016020809104026020016040519081016040528092919081815260200182805461129590613285565b80156112e25780601f106112b7576101008083540402835291602001916112e2565b820191906000526020600020905b8154815290600101906020018083116112c557829003601f168201915b50505050508152602001906001019061124a565b6001600160a01b03918216600090815260056020908152604080832093909416825291909152205460ff1690565b6060610428826040518060400160405280600581526020016410d21154d560da1b815250600d805480602002602001604051908101604052809291908181526020016000905b8282101561069757838290600052602060002001805461138990613285565b80601f01602080910402602001604051908101604052809291908181526020018280546113b590613285565b80156114025780601f106113d757610100808354040283529160200191611402565b820191906000526020600020905b8154815290600101906020018083116113e557829003601f168201915b50505050508152602001906001019061136a565b61141e6114e4565b6001600160a01b031661142f610a6b565b6001600160a01b0316146114555760405162461bcd60e51b81526004016104e99061307b565b6001600160a01b03811661147b5760405162461bcd60e51b81526004016104e990612fdb565b61148481611a53565b50565b60006001600160e01b031982166380ac58cd60e01b14806114b857506001600160e01b03198216635b5e139f60e01b145b80610428575061042882611d67565b6000908152600260205260409020546001600160a01b0316151590565b3390565b600081815260046020526040902080546001600160a01b0319166001600160a01b038416908117909155819061151d826108b6565b6001600160a01b03167f8c5be1e5ebec7d5bd14f71427d1e84f3dd0314c0f7b2291e5b200ac8c7c3b92560405160405180910390a45050565b6060600061158c8461156787611ad8565b604051602001611578929190612da6565b604051602081830303815290604052611d80565b905060008384518361159e91906132d8565b815181106115bc57634e487b7160e01b600052603260045260246000fd5b6020026020010151905060006015836115d591906132d8565b9050600e81111561163c57601480548391906115f190866132d8565b8154811061160f57634e487b7160e01b600052603260045260246000fd5b9060005260206000200160405160200161162a929190612e39565b60405160208183030381529060405291505b601381106118795761164c612293565b6015805461165a90866132d8565b8154811061167857634e487b7160e01b600052603260045260246000fd5b90600052602060002001805461168d90613285565b80601f01602080910402602001604051908101604052809291908181526020018280546116b990613285565b80156117065780601f106116db57610100808354040283529160200191611706565b820191906000526020600020905b8154815290600101906020018083116116e957829003601f168201915b50505050508160006002811061172c57634e487b7160e01b600052603260045260246000fd5b60200201526016805461173f90866132d8565b8154811061175d57634e487b7160e01b600052603260045260246000fd5b90600052602060002001805461177290613285565b80601f016020809104026020016040519081016040528092919081815260200182805461179e90613285565b80156117eb5780601f106117c0576101008083540402835291602001916117eb565b820191906000526020600020905b8154815290600101906020018083116117ce57829003601f168201915b50505050508160016002811061181157634e487b7160e01b600052603260045260246000fd5b6020020152601382141561184d5780516020808301516040516118379392879101612e5c565b6040516020818303038152906040529250611877565b80516020808301516040516118659392879101612eaa565b60405160208183030381529060405292505b505b5095945050505050565b600061188e826114c7565b6118aa5760405162461bcd60e51b81526004016104e99061301b565b60006118b5836108b6565b9050806001600160a01b0316846001600160a01b031614806118f05750836001600160a01b03166118e5846104c2565b6001600160a01b0316145b80611900575061190081856112f6565b949350505050565b826001600160a01b031661191b826108b6565b6001600160a01b0316146119415760405162461bcd60e51b81526004016104e99061309b565b6001600160a01b0382166119675760405162461bcd60e51b81526004016104e990612ffb565b611972838383611db1565b61197d6000826114e8565b6001600160a01b03831660009081526003602052604081208054600192906119a69084906131f4565b90915550506001600160a01b03821660009081526003602052604081208054600192906119d4908490613167565b909155505060008181526002602052604080822080546001600160a01b0319166001600160a01b0386811691821790925591518493918716917fddf252ad1be2c89b69c2b068fc378daa952ba7f163c4a11628f55a4df523b3ef91a4505050565b611a4f828260405180602001604052806000815250611e3a565b5050565b600b80546001600160a01b038381166001600160a01b0319831681179093556040519116919082907f8be0079c531659141344cd1fd0a4f28419497f9722a3daafe3b4186f6b6457e090600090a35050565b611ab0848484611908565b611abc84848484611e6d565b610e665760405162461bcd60e51b81526004016104e990612fcb565b606081611afd57506040805180820190915260018152600360fc1b602082015261042b565b8160005b8115611b275780611b11816132b2565b9150611b209050600a83613195565b9150611b01565b60008167ffffffffffffffff811115611b5057634e487b7160e01b600052604160045260246000fd5b6040519080825280601f01601f191660200182016040528015611b7a576020820181803683370190505b5090505b841561190057611b8f6001836131f4565b9150611b9c600a866132d8565b611ba7906030613167565b60f81b818381518110611bca57634e487b7160e01b600052603260045260246000fd5b60200101906001600160f81b031916908160001a905350611bec600a86613195565b9450611b7e565b805160609080611c1357505060408051602081019091526000815261042b565b60006003611c22836002613167565b611c2c9190613195565b611c379060046131bf565b90506000611c46826020613167565b67ffffffffffffffff811115611c6c57634e487b7160e01b600052604160045260246000fd5b6040519080825280601f01601f191660200182016040528015611c96576020820181803683370190505b5090506000604051806060016040528060408152602001613585604091399050600181016020830160005b86811015611d22576003818a01810151603f601282901c8116860151600c83901c8216870151600684901c831688015192909316870151600891821b60ff94851601821b92841692909201901b91160160e01b835260049092019101611cc1565b506003860660018114611d3c5760028114611d4d57611d59565b613d3d60f01b600119830152611d59565b603d60f81b6000198301525b505050918152949350505050565b6001600160e01b031981166301ffc9a760e01b14919050565b600081604051602001611d939190612d93565b60408051601f19818403018152919052805160209091012092915050565b611dbc8383836105a1565b6001600160a01b038316611dd857611dd381611f88565b611dfb565b816001600160a01b0316836001600160a01b031614611dfb57611dfb8382611fcc565b6001600160a01b038216611e1757611e1281612069565b6105a1565b826001600160a01b0316826001600160a01b0316146105a1576105a18282612142565b611e448383612186565b611e516000848484611e6d565b6105a15760405162461bcd60e51b81526004016104e990612fcb565b6000611e81846001600160a01b0316612265565b15611f7d57836001600160a01b031663150b7a02611e9d6114e4565b8786866040518563ffffffff1660e01b8152600401611ebf9493929190612f58565b602060405180830381600087803b158015611ed957600080fd5b505af1925050508015611f09575060408051601f3d908101601f19168201909252611f06918101906124de565b60015b611f63573d808015611f37576040519150601f19603f3d011682016040523d82523d6000602084013e611f3c565b606091505b508051611f5b5760405162461bcd60e51b81526004016104e990612fcb565b805181602001fd5b6001600160e01b031916630a85bd0160e11b149050611900565b506001949350505050565b600880546000838152600960205260408120829055600182018355919091527ff3f7a9fe364faab93b216da50a3214154f22a0a2b415b23a84c8169e8b636ee30155565b60006001611fd9846109dc565b611fe391906131f4565b600083815260076020526040902054909150808214612036576001600160a01b03841660009081526006602090815260408083208584528252808320548484528184208190558352600790915290208190555b5060009182526007602090815260408084208490556001600160a01b039094168352600681528383209183525290812055565b60085460009061207b906001906131f4565b600083815260096020526040812054600880549394509092849081106120b157634e487b7160e01b600052603260045260246000fd5b9060005260206000200154905080600883815481106120e057634e487b7160e01b600052603260045260246000fd5b600091825260208083209091019290925582815260099091526040808220849055858252812055600880548061212657634e487b7160e01b600052603160045260246000fd5b6001900381819060005260206000200160009055905550505050565b600061214d836109dc565b6001600160a01b039093166000908152600660209081526040808320868452825280832085905593825260079052919091209190915550565b6001600160a01b0382166121ac5760405162461bcd60e51b81526004016104e99061305b565b6121b5816114c7565b156121d25760405162461bcd60e51b81526004016104e990612feb565b6121de60008383611db1565b6001600160a01b0382166000908152600360205260408120805460019290612207908490613167565b909155505060008181526002602052604080822080546001600160a01b0319166001600160a01b03861690811790915590518392907fddf252ad1be2c89b69c2b068fc378daa952ba7f163c4a11628f55a4df523b3ef908290a45050565b3b151590565b6040518061022001604052806011905b606081526020019060019003908161227b5790505090565b604080518082019091526060815260016020820161227b565b60006122bf6122ba84613123565b6130f9565b9050828152602081018484840111156122d757600080fd5b6122e284828561324d565b509392505050565b803561072d81613364565b803561072d81613378565b803561072d81613381565b805161072d81613381565b600082601f83011261232757600080fd5b81356119008482602086016122ac565b803561072d8161338a565b60006020828403121561235457600080fd5b600061190084846122ea565b6000806040838503121561237357600080fd5b600061237f85856122ea565b9250506020612390858286016122ea565b9150509250929050565b6000806000606084860312156123af57600080fd5b60006123bb86866122ea565b93505060206123cc868287016122ea565b92505060406123dd86828701612337565b9150509250925092565b600080600080608085870312156123fd57600080fd5b600061240987876122ea565b945050602061241a878288016122ea565b935050604061242b87828801612337565b925050606085013567ffffffffffffffff81111561244857600080fd5b61245487828801612316565b91505092959194509250565b6000806040838503121561247357600080fd5b600061247f85856122ea565b9250506020612390858286016122f5565b600080604083850312156124a357600080fd5b60006124af85856122ea565b925050602061239085828601612337565b6000602082840312156124d257600080fd5b60006119008484612300565b6000602082840312156124f057600080fd5b6000611900848461230b565b60006020828403121561250e57600080fd5b60006119008484612337565b61252381613221565b82525050565b6125238161322c565b600061253d8261315a565b612547818561315e565b9350612557818560208601613259565b6125608161335a565b9093019392505050565b60006125758261315a565b61257f818561042b565b935061258f818560208601613259565b9290920192915050565b600081546125a681613285565b6125b0818661042b565b94506001821680156125c957600181146125da5761260a565b60ff1983168652818601935061260a565b6125e38561314e565b60005b83811015612602578154888201526001909101906020016125e6565b838801955050505b50505092915050565b6000612620602b8361315e565b7f455243373231456e756d657261626c653a206f776e657220696e646578206f7581526a74206f6620626f756e647360a81b602082015260400192915050565b600061266d60328361315e565b7f4552433732313a207472616e7366657220746f206e6f6e20455243373231526581527131b2b4bb32b91034b6b83632b6b2b73a32b960711b602082015260400192915050565b60006126c160268361315e565b7f4f776e61626c653a206e6577206f776e657220697320746865207a65726f206181526564647265737360d01b602082015260400192915050565b6000612709601c8361315e565b7f4552433732313a20746f6b656e20616c7265616479206d696e74656400000000815260200192915050565b600061274260248361315e565b7f4552433732313a207472616e7366657220746f20746865207a65726f206164648152637265737360e01b602082015260400192915050565b600061278860198361315e565b7f4552433732313a20617070726f766520746f2063616c6c657200000000000000815260200192915050565b60006127c160028361042b565b61011160f51b815260020192915050565b60006127df602c8361315e565b7f4552433732313a206f70657261746f7220717565727920666f72206e6f6e657881526b34b9ba32b73a103a37b5b2b760a11b602082015260400192915050565b600061282d60018361042b565b600160fd1b815260010192915050565b600061284a60388361315e565b7f4552433732313a20617070726f76652063616c6c6572206973206e6f74206f7781527f6e6572206e6f7220617070726f76656420666f7220616c6c0000000000000000602082015260400192915050565b60006128a960018361042b565b601160f91b815260010192915050565b60006128c6602a8361315e565b7f4552433732313a2062616c616e636520717565727920666f7220746865207a65815269726f206164647265737360b01b602082015260400192915050565b600061291260298361315e565b7f4552433732313a206f776e657220717565727920666f72206e6f6e657869737481526832b73a103a37b5b2b760b91b602082015260400192915050565b600061295d60028361042b565b61227d60f01b815260020192915050565b600061297b600f8361042b565b6e7b226e616d65223a2022426167202360881b8152600f0192915050565b60006129a660208361315e565b7f4552433732313a206d696e7420746f20746865207a65726f2061646472657373815260200192915050565b60006129df602c8361315e565b7f4552433732313a20617070726f76656420717565727920666f72206e6f6e657881526b34b9ba32b73a103a37b5b2b760a11b602082015260400192915050565b6000612a2d60208361315e565b7f4f776e61626c653a2063616c6c6572206973206e6f7420746865206f776e6572815260200192915050565b6000612a6660108361315e565b6f151bdad95b881251081a5b9d985b1a5960821b815260200192915050565b6000612a9260298361315e565b7f4552433732313a207472616e73666572206f6620746f6b656e2074686174206981526839903737ba1037bbb760b91b602082015260400192915050565b6000612ade6101008361042b565b7f222c20226465736372697074696f6e223a20224c6f6f742069732072616e646f81527f6d697a656420616476656e747572657220676561722067656e6572617465642060208201527f616e642073746f726564206f6e20636861696e2e2053746174732c20696d616760408201527f65732c20616e64206f746865722066756e6374696f6e616c697479206172652060608201527f696e74656e74696f6e616c6c79206f6d697474656420666f72206f746865727360808201527f20746f20696e746572707265742e204665656c206672656520746f207573652060a08201527f4c6f6f7420696e20616e792077617920796f752077616e742e222c2022696d6160c08201527f6765223a2022646174613a696d6167652f7376672b786d6c3b6261736536342c60e08201526101000192915050565b6000612c2260218361315e565b7f4552433732313a20617070726f76616c20746f2063757272656e74206f776e658152603960f91b602082015260400192915050565b6000612c65601d8361042b565b7f646174613a6170706c69636174696f6e2f6a736f6e3b6261736536342c0000008152601d0192915050565b6000612c9e60038361042b565b62202b3160e81b815260030192915050565b6000612cbd60318361315e565b7f4552433732313a207472616e736665722063616c6c6572206973206e6f74206f8152701ddb995c881b9bdc88185c1c1c9bdd9959607a1b602082015260400192915050565b6000612d10602c8361315e565b7f455243373231456e756d657261626c653a20676c6f62616c20696e646578206f81526b7574206f6620626f756e647360a01b602082015260400192915050565b6000612d5e601f8361315e565b7f5265656e7472616e637947756172643a207265656e7472616e742063616c6c00815260200192915050565b6125238161324a565b6000612d9f828461256a565b9392505050565b6000612db2828561256a565b9150611900828461256a565b6000612dca828c61256a565b9150612dd6828b61256a565b9150612de2828a61256a565b9150612dee828961256a565b9150612dfa828861256a565b9150612e06828761256a565b9150612e12828661256a565b9150612e1e828561256a565b9150612e2a828461256a565b9b9a5050505050505050505050565b6000612e45828561256a565b9150612e5082612820565b91506119008284612599565b6000612e678261289c565b9150612e73828661256a565b9150612e7e82612820565b9150612e8a828561256a565b9150612e95826127b4565b9150612ea1828461256a565b95945050505050565b6000612eb58261289c565b9150612ec1828661256a565b9150612ecc82612820565b9150612ed8828561256a565b9150612ee3826127b4565b9150612eef828461256a565b9150612ea182612c91565b6000612f058261296e565b9150612f11828561256a565b9150612f1c82612ad0565b9150612f28828461256a565b915061190082612950565b6000612f3e82612c58565b9150612d9f828461256a565b6020810161072d828461251a565b60808101612f66828761251a565b612f73602083018661251a565b612f806040830185612d8a565b8181036060830152612f928184612532565b9695505050505050565b6020810161072d8284612529565b60208082528101612d9f8184612532565b6020808252810161042881612613565b6020808252810161042881612660565b60208082528101610428816126b4565b60208082528101610428816126fc565b6020808252810161042881612735565b602080825281016104288161277b565b60208082528101610428816127d2565b602080825281016104288161283d565b60208082528101610428816128b9565b6020808252810161042881612905565b6020808252810161042881612999565b60208082528101610428816129d2565b6020808252810161042881612a20565b6020808252810161042881612a59565b6020808252810161042881612a85565b6020808252810161042881612c15565b6020808252810161042881612cb0565b6020808252810161042881612d03565b6020808252810161042881612d51565b6020810161072d8284612d8a565b60405181810167ffffffffffffffff8111828210171561311b5761311b613344565b604052919050565b600067ffffffffffffffff82111561313d5761313d613344565b506020601f91909101601f19160190565b60009081526020902090565b5190565b90815260200190565b60006131728261324a565b915061317d8361324a565b9250821982111561319057613190613302565b500190565b60006131a08261324a565b91506131ab8361324a565b9250826131ba576131ba613318565b500490565b60006131ca8261324a565b91506131d58361324a565b92508160001904831182151516156131ef576131ef613302565b500290565b60006131ff8261324a565b915061320a8361324a565b92508282101561321c5761321c613302565b500390565b60006104288261323e565b151590565b6001600160e01b03191690565b6001600160a01b031690565b90565b82818337506000910152565b60005b8381101561327457818101518382015260200161325c565b83811115610e665750506000910152565b60028104600182168061329957607f821691505b602082108114156132ac576132ac61332e565b50919050565b60006132bd8261324a565b91506000198214156132d1576132d1613302565b5060010190565b60006132e38261324a565b91506132ee8361324a565b9250826132fd576132fd613318565b500690565b634e487b7160e01b600052601160045260246000fd5b634e487b7160e01b600052601260045260246000fd5b634e487b7160e01b600052602260045260246000fd5b634e487b7160e01b600052604160045260246000fd5b601f01601f191690565b61336d81613221565b811461148457600080fd5b61336d8161322c565b61336d81613231565b61336d8161324a56fe3c2f746578743e3c7465787420783d2231302220793d2236302220636c6173733d2262617365223e3c2f746578743e3c7465787420783d2231302220793d223136302220636c6173733d2262617365223e3c2f746578743e3c7465787420783d2231302220793d223132302220636c6173733d2262617365223e3c2f746578743e3c7465787420783d2231302220793d2238302220636c6173733d2262617365223e3c2f746578743e3c7465787420783d2231302220793d223130302220636c6173733d2262617365223e3c73766720786d6c6e733d22687474703a2f2f7777772e77332e6f72672f323030302f73766722207072657365727665417370656374526174696f3d22784d696e594d696e206d656574222076696577426f783d223020302033353020333530223e3c7374796c653e2e62617365207b2066696c6c3a2077686974653b20666f6e742d66616d696c793a2073657269663b20666f6e742d73697a653a20313470783b207d3c2f7374796c653e3c726563742077696474683d223130302522206865696768743d2231303025222066696c6c3d22626c61636b22202f3e3c7465787420783d2231302220793d2232302220636c6173733d2262617365223e3c2f746578743e3c7465787420783d2231302220793d223134302220636c6173733d2262617365223e4142434445464748494a4b4c4d4e4f505152535455565758595a6162636465666768696a6b6c6d6e6f707172737475767778797a303132333435363738392b2f3c2f746578743e3c7465787420783d2231302220793d2234302220636c6173733d2262617365223ea2646970667358221220e5ae0831b14ab63b8dc6286576ab06f670862dd1c70a4a44da040470a9eded4564736f6c63430008000033",
  "linkReferences": {},
  "deployedLinkReferences": {}
}