{
  "_format": "hh-sol-artifact-1",
  "contractName": "dungeonsGenerator",
  "sourceName": "contracts/dungeonsGenerator.sol",
  "abi": [
    {
      "inputs": [
        {
          "internalType": "uint8[]",
          "name": "entities",
          "type": "uint8[]"
        }
      ],
      "name": "countEntities",
      "outputs": [
        {
          "internalType": "uint256",
          "name": "",
          "type": "uint256"
        },
        {
          "internalType": "uint256",
          "name": "",
          "type": "uint256"
        }
      ],
      "stateMutability": "pure",
      "type": "function"
    },
    {
      "inputs": [
        {
          "internalType": "uint256",
          "name": "numerator",
          "type": "uint256"
        },
        {
          "internalType": "uint256",
          "name": "denominator",
          "type": "uint256"
        }
      ],
      "name": "getDivided",
      "outputs": [
        {
          "internalType": "uint256",
          "name": "quotient",
          "type": "uint256"
        },
        {
          "internalType": "uint256",
          "name": "remainder",
          "type": "uint256"
        }
      ],
      "stateMutability": "pure",
      "type": "function"
    },
    {
      "inputs": [
        {
          "internalType": "uint256",
          "name": "seed",
          "type": "uint256"
        },
        {
          "internalType": "uint256",
          "name": "size",
          "type": "uint256"
        }
      ],
      "name": "getDoors",
      "outputs": [
        {
          "internalType": "bytes",
          "name": "",
          "type": "bytes"
        },
        {
          "internalType": "uint256",
          "name": "numDoors",
          "type": "uint256"
        }
      ],
      "stateMutability": "view",
      "type": "function"
    },
    {
      "inputs": [
        {
          "internalType": "uint256",
          "name": "seed",
          "type": "uint256"
        },
        {
          "internalType": "uint256",
          "name": "size",
          "type": "uint256"
        }
      ],
      "name": "getEntities",
      "outputs": [
        {
          "internalType": "uint8[]",
          "name": "",
          "type": "uint8[]"
        },
        {
          "internalType": "uint8[]",
          "name": "",
          "type": "uint8[]"
        },
        {
          "internalType": "uint8[]",
          "name": "",
          "type": "uint8[]"
        }
      ],
      "stateMutability": "view",
      "type": "function"
    },
    {
      "inputs": [
        {
          "internalType": "uint256",
          "name": "seed",
          "type": "uint256"
        },
        {
          "internalType": "uint256",
          "name": "size",
          "type": "uint256"
        }
      ],
      "name": "getEntitiesBytes",
      "outputs": [
        {
          "internalType": "bytes",
          "name": "",
          "type": "bytes"
        },
        {
          "internalType": "bytes",
          "name": "",
          "type": "bytes"
        }
      ],
      "stateMutability": "view",
      "type": "function"
    },
    {
      "inputs": [
        {
          "internalType": "uint256",
          "name": "seed",
          "type": "uint256"
        },
        {
          "internalType": "uint256",
          "name": "size",
          "type": "uint256"
        }
      ],
      "name": "getLayout",
      "outputs": [
        {
          "internalType": "bytes",
          "name": "",
          "type": "bytes"
        },
        {
          "internalType": "uint8",
          "name": "",
          "type": "uint8"
        }
      ],
      "stateMutability": "view",
      "type": "function"
    },
    {
      "inputs": [
        {
          "internalType": "uint256",
          "name": "size",
          "type": "uint256"
        }
      ],
      "name": "getLength",
      "outputs": [
        {
          "internalType": "uint256",
          "name": "",
          "type": "uint256"
        }
      ],
      "stateMutability": "pure",
      "type": "function"
    },
    {
      "inputs": [
        {
          "internalType": "uint256",
          "name": "seed",
          "type": "uint256"
        },
        {
          "internalType": "uint256",
          "name": "size",
          "type": "uint256"
        }
      ],
      "name": "getPoints",
      "outputs": [
        {
          "internalType": "bytes",
          "name": "",
          "type": "bytes"
        },
        {
          "internalType": "uint256",
          "name": "numPoints",
          "type": "uint256"
        }
      ],
      "stateMutability": "view",
      "type": "function"
    }
  ],
  "bytecode": "0x6101006040526000196080908152600060a0819052600160c05260e08190526200002b91600462000073565b506040805160808101825260008082526001602083018190529282015260001960608201526200005e9190600462000073565b503480156200006c57600080fd5b506200013a565b82805482825590600052602060002090601f01602090048101928215620001115791602002820160005b83821115620000e057835183826101000a81548160ff021916908360000b60ff16021790555092602001926001016020816000010492830192600103026200009d565b80156200010f5782816101000a81549060ff0219169055600101602081600001049283019260010302620000e0565b505b506200011f92915062000123565b5090565b5b808211156200011f576000815560010162000124565b6120c9806200014a6000396000f3fe608060405234801561001057600080fd5b50600436106100885760003560e01c80634dda058b1161005b5780634dda058b1461011a57806397155f4f1461013b578063cd7acca61461014e578063ff8f8c181461016157610088565b80630986e6471461008d578063194d02d7146100b657806340070627146100d75780634d4c71a3146100f9575b600080fd5b6100a061009b366004611acd565b610182565b6040516100ad9190611d00565b60405180910390f35b6100c96100c4366004611aeb565b6101ad565b6040516100ad929190611d0e565b6100ea6100e5366004611aeb565b6101e6565b6040516100ad93929190611c59565b61010c610107366004611aeb565b610216565b6040516100ad929190611cc0565b61012d610128366004611aeb565b610247565b6040516100ad929190611c9b565b6100c9610149366004611a98565b61027a565b61010c61015c366004611aeb565b6102fc565b61017461016f366004611aeb565b610317565b6040516100ad929190611ce0565b6000610100610192600284611e2e565b61019c9190611dbd565b6101a7906001611d8f565b92915050565b600080600083116101bd57600080fd5b6101c78385611dbd565b91506101d38284611f14565b6101dd9085611f49565b90509250929050565b60608060606000806101f887876103e0565b91509150610207868383610590565b94509450945050509250925092565b606060008061022585856103e0565b509050610231816108be565b61023a82610932565b92509250505b9250929050565b60608060008061025786866103e0565b91509150610264826108be565b61026d826108be565b9350935050509250929050565b60008060008060005b85518110156102f1578581815181106102ac57634e487b7160e01b600052603260045260246000fd5b602002602001015160ff16600014156102d157826102c981611fd1565b9350506102df565b816102db81611fd1565b9250505b806102e981611fd1565b915050610283565b509092509050915091565b606060008061030b85856103e0565b915050610231816108be565b6060600080604051806080016040528085815260200161033686610182565b8152602001868152602001600081525090506000601e61037383606001805180919061036190611fd1565b90526040850151901b600060646109ae565b11156103ba57506000808061038784610a1b565b9150915060006103978584610f6e565b90506103ab6103a6838361127d565b6108be565b84965096505050505050610240565b50600160006103c88361132f565b90506103d3816108be565b8294509450505050610240565b606080600060405180608001604052808581526020016103ff86610182565b815260200186815260200160008152509050601e61044282606001805180919061042890611fd1565b905260408401516104399190611d8f565b600060646109ae565b11156105345760008061045483610a1b565b9150915060006104648484610f6e565b90506104708183611574565b905060008061047e83610932565b116104da57815167ffffffffffffffff8111156104ab57634e487b7160e01b600052604160045260246000fd5b6040519080825280602002602001820160405280156104d4578160200160208202803683370190505b50610500565b61050085836104f06104eb86610932565b61161f565b6104fb906028611dbd565b61166f565b9050610526858461051b600689600001516104eb9190611f49565b6104fb90600c611dbd565b965094506102409350505050565b600061053f8261132f565b9050600061054c82610932565b90506000610563848461051b6104eb600687611f49565b9050600061057585856104f08661161f565b90506105818282611574565b50909550935061024092505050565b606080606060006105a086610932565b6105a986610932565b6105b39190611d8f565b905060008167ffffffffffffffff8111156105de57634e487b7160e01b600052604160045260246000fd5b604051908082528060200260200182016040528015610607578160200160208202803683370190505b50905060008267ffffffffffffffff81111561063357634e487b7160e01b600052604160045260246000fd5b60405190808252806020026020018201604052801561065c578160200160208202803683370190505b50905060008367ffffffffffffffff81111561068857634e487b7160e01b600052604160045260246000fd5b6040519080825280602002602001820160405280156106b1578160200160208202803683370190505b5090506000805b8b8110156108ad5760005b8c81101561089a576106d58b8461178c565b600114156107a35780866106ea60018a611f49565b8151811061070857634e487b7160e01b600052603260045260246000fd5b60ff90921660209283029190910190910152818561072760018a611f49565b8151811061074557634e487b7160e01b600052603260045260246000fd5b60ff9092166020928302919091019091015260008461076560018a611f49565b8151811061078357634e487b7160e01b600052603260045260246000fd5b60ff909216602092830291909101909101528661079f81611faf565b9750505b6107ad8c8461178c565b6001141561087a5780866107c260018a611f49565b815181106107e057634e487b7160e01b600052603260045260246000fd5b60ff9092166020928302919091019091015281856107ff60018a611f49565b8151811061081d57634e487b7160e01b600052603260045260246000fd5b60ff9092166020928302919091019091015260018461083c828a611f49565b8151811061085a57634e487b7160e01b600052603260045260246000fd5b60ff909216602092830291909101909101528661087681611faf565b9750505b8261088481611fd1565b935050808061089290611fd1565b9150506106c3565b50806108a581611fd1565b9150506106b8565b50929a919950975095505050505050565b60608060005b835181101561092b57818482815181106108ee57634e487b7160e01b600052603260045260246000fd5b6020026020010151604051602001610907929190611c22565b6040516020818303038152906040529150808061092390611fd1565b9150506108c4565b5092915050565b6000806000805b84518110156109a65784818151811061096257634e487b7160e01b600052603260045260246000fd5b602002602001015192505b82156109945761097e600184611f49565b909216918161098c81611fd1565b92505061096d565b8061099e81611fd1565b915050610939565b509392505050565b6000808383146109c9576109c28484611f49565b90506109cd565b5060015b60008482876040516020016109e29190611c44565b6040516020818303038152906040528051906020012060001c610a059190611ff7565b610a0f9190611d8f565b925050505b9392505050565b6060806000604051806080016040528060038660000151610a3c9190611dbd565b815260200160018660000151610a529190611dbd565b81526020016002815260200160038660000151610a6f9190611dbd565b81525090506000846020015167ffffffffffffffff811115610aa157634e487b7160e01b600052604160045260246000fd5b604051908082528060200260200182016040528015610aca578160200160208202803683370190505b5090506000610b01866060018051809190610ae490611fd1565b90526040880151610af59190611d8f565b845160208601516109ae565b905060008167ffffffffffffffff811115610b2c57634e487b7160e01b600052604160045260246000fd5b604051908082528060200260200182016040528015610b6557816020015b610b526119d3565b815260200190600190039081610b4a5790505b5090506101005b8215610f6157600060019050600060405180608001604052806000815260200160008152602001610bc88c6060018051809190610ba890611fd1565b905260408e0151610bb99190611d8f565b8a604001518b606001516109ae565b8152602001610be28c6060018051809190610ba890611fd1565b60ff16905260608b018051919250610c369190610bfe82611fd1565b905260408c0151610c0f9190611d8f565b6001836040015160018e60000151610c279190611f49565b610c319190611f49565b6109ae565b815260608a018051610c7491610c4b82611fd1565b905260408c0151610c5c9190611d8f565b6001836060015160018e60000151610c279190611f49565b602082015283518490600090610c9a57634e487b7160e01b600052603260045260246000fd5b602002602001015160000151600014610e695760005b858551610cbd9190611f49565b811015610e675760408201518251610cd59190611d8f565b6001868381518110610cf757634e487b7160e01b600052603260045260246000fd5b602002602001015160000151610d0d9190611f49565b108015610d8957508160000151858281518110610d3a57634e487b7160e01b600052603260045260246000fd5b602002602001015160400151868381518110610d6657634e487b7160e01b600052603260045260246000fd5b602002602001015160000151610d7c9190611d8f565b610d87906001611d8f565b115b8015610ddb575060608201518251610da19190611d8f565b6001868381518110610dc357634e487b7160e01b600052603260045260246000fd5b602002602001015160200151610dd99190611f49565b105b8015610e4b57508160200151858281518110610e0757634e487b7160e01b600052603260045260246000fd5b602002602001015160600151868381518110610e3357634e487b7160e01b600052603260045260246000fd5b602002602001015160200151610e499190611d8f565b115b15610e5557600092505b80610e5f81611fd1565b915050610cb0565b505b8115610f41578084868651610e7e9190611f49565b81518110610e9c57634e487b7160e01b600052603260045260246000fd5b60200260200101819052506000816020015190505b81606001518260200151610ec59190611d8f565b811015610f325781515b60408301518351610ee09190611d8f565b811015610f1f57610f0b88828e6000015185610efc9190611f14565b610f069190611d8f565b611807565b975080610f1781611fd1565b915050610ecf565b5080610f2a81611fd1565b915050610eb1565b5084610f3d81611faf565b9550505b82610f4d575050610f61565b82610f5781611faf565b9350505050610b6c565b5094509092505050915091565b60606000836020015167ffffffffffffffff811115610f9d57634e487b7160e01b600052604160045260246000fd5b604051908082528060200260200182016040528015610fc6578160200160208202803683370190505b509050600183511115610a14576000600284600081518110610ff857634e487b7160e01b600052603260045260246000fd5b60200260200101516040015161100e9190611dbd565b8460008151811061102f57634e487b7160e01b600052603260045260246000fd5b6020026020010151600001516110459190611d8f565b9050600060028560008151811061106c57634e487b7160e01b600052603260045260246000fd5b6020026020010151606001516110829190611dbd565b856000815181106110a357634e487b7160e01b600052603260045260246000fd5b6020026020010151602001516110b99190611d8f565b905060015b855181101561127357600060028783815181106110eb57634e487b7160e01b600052603260045260246000fd5b6020026020010151604001516111019190611dbd565b87838151811061112157634e487b7160e01b600052603260045260246000fd5b6020026020010151600001516111379190611d8f565b90506000600288848151811061115d57634e487b7160e01b600052603260045260246000fd5b6020026020010151606001516111739190611dbd565b88848151811061119357634e487b7160e01b600052603260045260246000fd5b6020026020010151602001516111a99190611d8f565b9050848214156111c95788516111c2908286888a6118ac565b955061125c565b838114156111e05788516111c2908387878a611904565b60608901805161120d916111f382611fd1565b905260408b01516112049190611d8f565b600160026109ae565b60021415611237578851611224908387878a611904565b95506111c289600001518583858a6118ac565b8851611246908286888a6118ac565b955061125989600001518684848a611904565b95505b90935091508061126b81611fd1565b9150506110be565b5050509392505050565b6060815183511461128d57600080fd5b60005b8351811015611327578281815181106112b957634e487b7160e01b600052603260045260246000fd5b60200260200101518482815181106112e157634e487b7160e01b600052603260045260246000fd5b60200260200101511784828151811061130a57634e487b7160e01b600052603260045260246000fd5b60209081029190910101528061131f81611fd1565b915050611290565b509192915050565b60606000826020015167ffffffffffffffff81111561135e57634e487b7160e01b600052604160045260246000fd5b604051908082528060200260200182016040528015611387578160200160208202803683370190505b5090506000806000806000600288600001516113a39190611dbd565b905060005b81811015611567576060890180516113d7916113c382611fd1565b905260408b01518b51911b906000906109ae565b93506113ee8960600180518091906113c390611fd1565b92505b61140687858b6000015186610efc9190611f14565b508561143b576060890180516114319161141f82611fd1565b905260408b0151901b600160046109ae565b94508495506114ba565b60006114648a606001805180919061145290611fd1565b905260408c0151901b600060646109ae565b905060198111611493578660031415611480576000955061148e565b61148b876001611d8f565b95505b6114b8565b603281116114b457866114a9576003955061148e565b61148b600188611f49565b8695505b505b61150084600087815481106114df57634e487b7160e01b600052603260045260246000fd5b600091825260208083209082040154601f9091166101000a9004900b61194f565b935061152783600187815481106114df57634e487b7160e01b600052603260045260246000fd5b92506000841180156115395750600083115b80156115455750885184105b80156115515750885183105b6113f1578061155f81611fd1565b9150506113a8565b5094979650505050505050565b6060815183511461158457600080fd5b60005b8351811015611327578281815181106115b057634e487b7160e01b600052603260045260246000fd5b6020026020010151198482815181106115d957634e487b7160e01b600052603260045260246000fd5b60200260200101511684828151811061160257634e487b7160e01b600052603260045260246000fd5b60209081029190910101528061161781611fd1565b915050611587565b600080600261162f846001611d8f565b6116399190611dbd565b9050825b80821015610a145750806002816116548187611dbd565b61165e9190611d8f565b6116689190611dbd565b915061163d565b60606000846020015167ffffffffffffffff81111561169e57634e487b7160e01b600052604160045260246000fd5b6040519080825280602002602001820160405280156116c7578160200160208202803683370190505b50905060006116fa8660600180518091906116e190611fd1565b905260408801516116f29190611d8f565b6000866109ae565b905080611705575060015b60005b865161171690600290611e2e565b81101561178157611727868261178c565b6001141561176f57600061175788606001805180919061174690611fd1565b905260408a01516104399190611d8f565b905082811161176d5761176a8483611807565b93505b505b8061177981611fd1565b915050611708565b509095945050505050565b600080600061179d846101006101ad565b90925090506117ae82610100611f14565b6117b99060ff611d8f565b8411156117c557600080fd5b6117d08160ff611f49565b8583815181106117f057634e487b7160e01b600052603260045260246000fd5b6020026020010151901c6001169250505092915050565b6060600080611818846101006101ad565b909250905061182982610100611f14565b6118349060ff611d8f565b84111561184057600080fd5b61184b8160ff611f49565b6001901b85838151811061186f57634e487b7160e01b600052603260045260246000fd5b60200260200101511785838151811061189857634e487b7160e01b600052603260045260246000fd5b602090810291909101015250929392505050565b606060006118ba8686611995565b905060006118c887876119b4565b9050815b818110156118f7576118e38587610efc8c85611f14565b9450806118ef81611fd1565b9150506118cc565b5092979650505050505050565b606060006119128686611995565b9050600061192087876119b4565b9050815b818110156118f75761193b8582610efc8c8a611f14565b94508061194781611fd1565b915050611924565b600081810b61195f5750816101a7565b8160000b6001141561197d57611976836001611d8f565b90506101a7565b8261198a575060006101a7565b611976600184611f49565b6000818311156119a65750806101a7565b8183116101a75750816101a7565b6000818311156119c55750816101a7565b8183116101a75750806101a7565b6040518060800160405280600081526020016000815260200160008152602001600081525090565b6000611a0e611a0984611d53565b611d29565b90508083825260208201905082856020860282011115611a2d57600080fd5b60005b858110156112735781611a438882611a8d565b8452506020928301929190910190600101611a30565b600082601f830112611a6a57600080fd5b8135611a7a8482602086016119fb565b949350505050565b80356101a781612073565b80356101a78161208a565b600060208284031215611aaa57600080fd5b813567ffffffffffffffff811115611ac157600080fd5b611a7a84828501611a59565b600060208284031215611adf57600080fd5b6000611a7a8484611a82565b60008060408385031215611afe57600080fd5b6000611b0a8585611a82565b9250506020611b1b85828601611a82565b9150509250929050565b6000611b318383611c19565b505060200190565b6000611b4482611d7d565b611b4e8185611d81565b9350611b5983611d77565b8060005b83811015611b87578151611b718882611b25565b9750611b7c83611d77565b925050600101611b5d565b509495945050505050565b6000611b9d82611d7d565b611ba78185611d81565b9350611bb7818560208601611f7f565b611bc081612063565b9093019392505050565b6000611bd582611d7d565b611bdf8185611d8a565b9350611bef818560208601611f7f565b9290920192915050565b611c0281611f76565b82525050565b611c02611c1482611f76565b611f76565b611c0281611f79565b6000611c2e8285611bca565b9150611c3a8284611c08565b5060200192915050565b6000611c508284611c08565b50602001919050565b60608082528101611c6a8186611b39565b90508181036020830152611c7e8185611b39565b90508181036040830152611c928184611b39565b95945050505050565b60408082528101611cac8185611b92565b90508181036020830152611a7a8184611b92565b60408082528101611cd18185611b92565b9050610a146020830184611bf9565b60408082528101611cf18185611b92565b9050610a146020830184611c19565b602081016101a78284611bf9565b60408101611d1c8285611bf9565b610a146020830184611bf9565b60405181810167ffffffffffffffff81118282101715611d4b57611d4b61204d565b604052919050565b600067ffffffffffffffff821115611d6d57611d6d61204d565b5060209081020190565b60200190565b5190565b90815260200190565b919050565b6000611d9a82611f76565b9150611da583611f76565b92508219821115611db857611db8612021565b500190565b6000611dc882611f76565b9150611dd383611f76565b925082611de257611de2612037565b500490565b80825b6001851115611e2557808604811115611e0557611e05612021565b6001851615611e1357908102905b8002611e1e8561206d565b9450611dea565b94509492505050565b6000611e3982611f76565b9150611e4483611f79565b9250610a146000198484600082611e5d57506001610a14565b81611e6a57506000610a14565b8160018114611e805760028114611e8a57611eb7565b6001915050610a14565b60ff841115611e9b57611e9b612021565b8360020a915084821115611eb157611eb1612021565b50610a14565b5060208310610133831016604e8410600b8410161715611eea575081810a83811115611ee557611ee5612021565b610a14565b611ef78484846001611de7565b92509050818404811115611f0d57611f0d612021565b0292915050565b6000611f1f82611f76565b9150611f2a83611f76565b9250816000190483118215151615611f4457611f44612021565b500290565b6000611f5482611f76565b9150611f5f83611f76565b925082821015611f7157611f71612021565b500390565b90565b60ff1690565b60005b83811015611f9a578181015183820152602001611f82565b83811115611fa9576000848401525b50505050565b6000611fba82611f76565b915081611fc957611fc9612021565b506000190190565b6000611fdc82611f76565b9150600019821415611ff057611ff0612021565b5060010190565b600061200282611f76565b915061200d83611f76565b92508261201c5761201c612037565b500690565b634e487b7160e01b600052601160045260246000fd5b634e487b7160e01b600052601260045260246000fd5b634e487b7160e01b600052604160045260246000fd5b601f01601f191690565b60011c90565b61207c81611f76565b811461208757600080fd5b50565b61207c81611f7956fea2646970667358221220aff8474b53d9d3ab1a9bfde913ea2b12e60810ecaa7fa73673984652d63e4b7f64736f6c63430008000033",
  "linkReferences": {},
  "deployedLinkReferences": {}
}