{
  "_format": "hh-sol-artifact-1",
  "contractName": "dungeonsSeeder",
  "sourceName": "contracts/dungeonsSeeder.sol",
  "abi": [
    {
      "inputs": [
        {
          "internalType": "uint256",
          "name": "seed",
          "type": "uint256"
        }
      ],
      "name": "getEnvironment",
      "outputs": [
        {
          "internalType": "uint8",
          "name": "",
          "type": "uint8"
        }
      ],
      "stateMutability": "pure",
      "type": "function"
    },
    {
      "inputs": [
        {
          "internalType": "uint256",
          "name": "seed",
          "type": "uint256"
        }
      ],
      "name": "getName",
      "outputs": [
        {
          "internalType": "string",
          "name": "",
          "type": "string"
        },
        {
          "internalType": "string",
          "name": "",
          "type": "string"
        },
        {
          "internalType": "uint8",
          "name": "",
          "type": "uint8"
        }
      ],
      "stateMutability": "view",
      "type": "function"
    },
    {
      "inputs": [
        {
          "internalType": "uint256",
          "name": "tokenId",
          "type": "uint256"
        }
      ],
      "name": "getSeed",
      "outputs": [
        {
          "internalType": "uint256",
          "name": "",
          "type": "uint256"
        }
      ],
      "stateMutability": "view",
      "type": "function"
    },
    {
      "inputs": [
        {
          "internalType": "uint256",
          "name": "seed",
          "type": "uint256"
        }
      ],
      "name": "getSize",
      "outputs": [
        {
          "internalType": "uint8",
          "name": "",
          "type": "uint8"
        }
      ],
      "stateMutability": "pure",
      "type": "function"
    }
  ],
  "bytecode": "0x60076104208181526610589e5cdcd85b60ca1b61044052608090815261046082815266105b98da595b9d60ca1b6104805260a05260056104a081815264426c65616b60d81b6104c05260c05260066104e081815265109c9a59da1d60d21b6105005260e052610520848152664275726e696e6760c81b610540526101005260096105608181526810dbdb1b185c1cd95960ba1b61058052610120526105a09081526810dbdc9c9d5c1d195960ba1b6105c0526101405260046105e0818152634461726b60e01b6106005261016052600861062081815267111958dc995c1a5960c21b6106405261018052610660818152674465736f6c61746560c01b610680526101a0526106a0828152634469726560e01b6106c0526101c0526106e083815265446976696e6560d01b610700526101e05261072086815266115b595c985b1960ca1b61074052610200526107608181526722b6b83cb932b0b760c11b61078052610220526107a0838152652330b63632b760d11b6107c052610240526107e086815266476c6f77696e6760c81b6108005261026052610820828152634772696d60e01b61084052610280526108609081526748656176656e277360c01b610880526102a0526108a0828152652434b23232b760d11b6108c0526102c0526108e090815263486f6c7960e01b610900526102e05261092084815266486f776c696e6760c81b61094052610300526109608281526424b73732b960d91b61098052610320526109a081815265135bdc989a5960d21b6109c052610340526109e0828152644d75726b7960d81b610a005261036052610a209182526427baba32b960d91b610a405261038091909152600a610a60818152695368696d6d6572696e6760b01b610a80526103a052610aa093845266536972656e277360c81b610ac0526103c093909352610ae09081526529bab735b2b760d11b610b00526103e052610b60604052610b209182526957686973706572696e6760b01b610b405261040091909152620002f390600090601d62001379565b50604080516105008101825260066104c082018181526521b0b73cb7b760d11b6104e084015282528251808401845260098082526843617461636f6d627360b81b60208381019190915280850192909252845180860186528381526521b0bb32b93760d11b81840152848601528451808601865260078082526621b430b6b132b960c91b8285015260608601919091528551808701875260088082526721b637b4b9ba32b960c11b8286015260808701919091528651808801885260058082526410dc9e5c1d60da1b8287015260a08801919091528751808901895260038152622232b760e91b8187015260c0880152875180890189528181526444756e657360d81b8187015260e08801528751808901895281815264119a595b1960da1b818701526101008801528751808901895286815265119bdc995cdd60d21b818701526101208801528751808901895281815264476c61646560d81b818701526101408801528751808901895281815264476f72676560d81b81870152610160880152875180890189528481526811dc985d995e585c9960ba1b81870152610180880152875180890189528681526547726f74746f60d01b818701526101a0880152875180890189528181526447726f766560d81b818701526101c0880152875180890189528181526448616c6c7360d81b818701526101e08801528751808901895260048082526304b6565760e41b828801526102008901919091528851808a018a52818152632630b4b960e11b818801526102208901528851808a018a5285815268098c2c4f2e4d2dce8d60bb1b818801526102408901528851808a018a52848152664c616e64696e6760c81b818801526102608901528851808a018a52818152634d617a6560e01b818801526102808901528851808a018a529283526726b7bab73a30b4b760c11b838701526102a088019290925287518089018952600a8152694e6563726f706f6c697360b01b818701526102c088015287518089018952818152644f6173697360d81b818701526102e088015287518089018952838152665061737361676560c81b8187015261030088015287518089018952828152635065616b60e01b818701526103208801528751808901895286815265283934b9b7b760d11b81870152610340880152875180890189529182526329b1b0b960e11b82860152610360870191909152865180880188528581526553657765727360d01b818601526103808701528651808801885285815265536872696e6560d01b818601526103a0870152865180880188528181526414dbdd5b9960da1b818601526103c087015286518088018852918252665374657070657360c81b828501526103e0860191909152855180870187528481526554656d706c6560d01b81850152610400860152855180870187528481526554756e64726160d01b818501526104208601528551808701875284815265151d5b9b995b60d21b81850152610440860152855180870187529384526556616c6c657960d01b84840152610460850193909352845180860186529081526815d85d195c99985b1b60ba1b81830152610480840152835180850190945290835264576f6f647360d81b908301526104a0810191909152620007a990601d906026620013d0565b50604080516107c081018252600561078082018181526441676f6e7960d81b6107a08401528252825180840184528181526420b733b2b960d91b6020828101919091528084019190915283518085018552600680825265109b1a59da1d60d21b828401528486019190915284518086018652600480825263426f6e6560e01b82850152606086019190915285518087018752600a808252694272696c6c69616e636560b01b828601526080870191909152865180880188526009808252684272696d73746f6e6560b81b8287015260a0880191909152875180890189528281526921b7b9393ab83a34b7b760b11b8187015260c0880152875180890189526007808252662232b9b830b4b960c91b8288015260e08901919091528851808a018a5287815264111c99585960da1b818801526101008901528851808a018a52848152634475736b60e01b818801526101208901528851808a018a52600d81526c115b9b1a59da1d195b9b595b9d609a1b818801526101408901528851808a018a52848152634675727960e01b818801526101608901528851808a018a52848152634669726560e01b818801526101808901528851808a018a52858152654769616e747360d01b818801526101a08901528851808a018a5287815264476c6f6f6d60d81b818801526101c08901528851808a018a52848152634861746560e01b818801526101e08901528851808a018a52878152644861766f6360d81b818801526102008901528851808a018a52858152652437b737bab960d11b818801526102208901528851808a018a52858152652437b93937b960d11b818801526102408901528851808a018a526008808252674c6f617468696e6760c01b828901526102608a01919091528951808b018b52858152634d69726560e01b818901526102808a01528951808b018b5285815263135a5cdd60e21b818901526102a08a01528951808b018b52828152664e6565646c657360c81b818901526102c08a01528951808b018b52858152632830b4b760e11b818901526102e08a01528951808b018b52600b8082526a50616e64656d6f6e69756d60a81b828a01526103008b01919091528a51808c018c528681526350696e6560e01b818a01526103208b01528a51808c018c52868152635261676560e01b818a01526103408b01528a51808c018c52838152665261707475726560c81b818a01526103608b01528a51808c018c529586526314d85b9960e21b868901526103808a01959095528951808b018b5286815265536f72726f7760d01b818901526103a08a01528951808b018b52600e81526d7468652041706f63616c7970736560901b818901526103c08a01528951808b018b52838152681d1a19481099585cdd60ba1b818901526103e08a01528951808b018b52600c81526b0e8d0ca4084cad0cadadee8d60a31b818901526104008a01528951808b018b52838152681d1a1948109c9bdbd960ba1b818901526104208a01528951808b018b52828152660e8d0ca408cdef60cb1b818901526104408a01528951808b018b52818152677468652047616c6560c01b818901526104608a01528951808b018b528381526874686520476f6c656d60b81b818901526104808a01528951808b018b52848152693a34329025b930b5b2b760b11b818901526104a08a01528951808b018b52838152680e8d0ca4098cacac6d60bb1b818901526104c08a01528951808b018b52818152673a34329026b7b7b760c11b818901526104e08a01528951808b018b528581526a0e8d0ca40a0d0decadcd2f60ab1b818901526105008a01528951808b018b528481526974686520506c6167756560b01b818901526105208a01528951808b018b52818152671d1a1948149bdbdd60c21b818901526105408a01528951808b018b528181526774686520536f6e6760c01b818901526105608a01528951808b018b528381526874686520537461727360b81b818901526105808a01528951808b018b52838152687468652053746f726d60b81b818901526105a08a01528951808b018b52828152663a34329029bab760c91b818901526105c08a01528951808b018b52818152673a3432902a32b0b960c11b818901526105e08a01528951808b018b528481526974686520546974616e7360b01b818901526106008a01528951808b018b5283815268746865205477696e7360b81b818901526106208a01528951808b018b529485526a7468652057696c6c6f777360a81b858801526106408901949094528851808a018a5293845267074686520576973760c41b8487015261066088019390935287518089018952818152683a3432902b34b832b960b91b8187015261068088015287518089018952918252690e8d0ca40acdee4e8caf60b31b828601526106a08701919091528651808801885282815266151bdc9b595b9d60ca1b818601526106c0870152865180880188529081526856656e6765616e636560b81b818501526106e08601528551808701875290815266566963746f727960c81b81840152610700850152845180860186526003815262576f6560e81b818401526107208501528451808601865290815265576973646f6d60d01b818301526107408401528351808501909452908352640aee4c2e8d60db1b9083015261076081019190915262000f5190604390603c62001415565b506040805161026081018252600c61022082018181526b2741726d61676564646f6e2760a01b6102408401528252825180840184528181526b274d696e642773204579652760a01b6020828101919091528084019190915283518085018552600a80825269274e6f7374726f6d6f2760b01b82840152848601919091528451808601865281815269274f626c6976696f6e2760b01b81840152606085015284518086018652600b8082526a2754686520436861736d2760a81b828501526080860191909152855180870187528181526a275468652043727970742760a81b8185015260a0860152855180870187529384526b27546865204465707468732760a01b8484015260c08501939093528451808601865260098152682754686520456e642760b81b8184015260e085015284518086018652600d81526c2754686520457870616e73652760981b818401526101008501528451808601865281815269275468652047616c652760b01b8184015261012085015284518086018652818152692754686520486f6f6b2760b01b8184015261014085015284518086018652600f81526e27546865204d61656c7374726f6d2760881b81840152610160850152845180860186528381526a27546865204d6f7574682760a81b81840152610180850152845180860186528181526927546865204d75636b2760b01b818401526101a0850152845180860186528381526a27546865205368656c662760a81b818401526101c08501528451808601865290815269275468652056616c652760b01b818301526101e084015283518085019094529083526a275468652056656c64742760a81b90830152610200810191909152620011d290607f9060116200145a565b50604080516101c081018252600661018082018181526546617465277360d01b6101a084015282528251808401845281815265466f6864277360d01b60208281019190915280840191909152835180850185526007808252664772656d70277360c81b8284015284860191909152845180860186528381526548617465277360d01b81840152606085015284518086018652838152654b616c69277360d01b818401526080850152845180860186526005808252644b6976277360d81b8285015260a086019190915285518087018752828152664c69676874277360c81b8185015260c0860152855180870187528481526553687562277360d01b8185015260e08601528551808701875281815264536f6c277360d81b81850152610100860152855180870187529384526554697368277360d01b8484015261012085019390935284518086018652908152665669706572277360c81b81830152610140840152835180850190945290835264576f65277360d81b908301526101608101919091526200136490609090600c6200149f565b503480156200137257600080fd5b5062001633565b82601d8101928215620013be579160200282015b82811115620013be5782518051620013ad918491602090910190620014e4565b50916020019190600101906200138d565b50620013cc9291506200156f565b5090565b8260268101928215620013be579160200282015b82811115620013be578251805162001404918491602090910190620014e4565b5091602001919060010190620013e4565b82603c8101928215620013be579160200282015b82811115620013be578251805162001449918491602090910190620014e4565b509160200191906001019062001429565b8260118101928215620013be579160200282015b82811115620013be57825180516200148e918491602090910190620014e4565b50916020019190600101906200146e565b82600c8101928215620013be579160200282015b82811115620013be5782518051620014d3918491602090910190620014e4565b5091602001919060010190620014b3565b828054620014f290620015ec565b90600052602060002090601f01602090048101928262001516576000855562001561565b82601f106200153157805160ff191683800117855562001561565b8280016001018555821562001561579182015b828111156200156157825182559160200191906001019062001544565b50620013cc92915062001590565b80821115620013cc576000620015868282620015a7565b506001016200156f565b5b80821115620013cc576000815560010162001591565b508054620015b590620015ec565b6000825580601f10620015c95750620015e9565b601f016020900490600052602060002090810190620015e9919062001590565b50565b6002810460018216806200160157607f821691505b602082108114156200161757620016176200161d565b50919050565b634e487b7160e01b600052602260045260246000fd5b610f8e80620016436000396000f3fe608060405234801561001057600080fd5b506004361061004c5760003560e01c8063023c23db146100515780636b8ff5741461007a5780636db408001461009c578063e0d4ea37146100af575b600080fd5b61006461005f366004610c46565b6100cf565b6040516100719190610df5565b60405180910390f35b61008d610088366004610c46565b6100ea565b60405161007193929190610db3565b6100646100aa366004610c46565b610af7565b6100c26100bd366004610c46565b610b77565b6040516100719190610de7565b60006100e2600483901b60086019610bb9565b90505b919050565b6060806000606080600080610107600f89901b6000612710610bb9565b905060118110156101e75760019150604051806040016040528060048152602001636e6f6e6560e01b8152509250607f816011811061015657634e487b7160e01b600052603260045260246000fd5b01805461016290610ea4565b80601f016020809104026020016040519081016040528092919081815260200182805461018e90610ea4565b80156101db5780601f106101b0576101008083540402835291602001916101db565b820191906000526020600020905b8154815290600101906020018083116101be57829003601f168201915b50505050509350610ae9565b6101ef610c0e565b600061020260108b901b60006026610bb9565b905061012c831161045b5760009350604051806040016040528060048152602001636e6f6e6560e01b8152509450609061024360178c901b6000600c610bb9565b600c811061026157634e487b7160e01b600052603260045260246000fd5b01805461026d90610ea4565b80601f016020809104026020016040519081016040528092919081815260200182805461029990610ea4565b80156102e65780601f106102bb576101008083540402835291602001916102e6565b820191906000526020600020905b8154815290600101906020018083116102c957829003601f168201915b50505050508260006005811061030c57634e487b7160e01b600052603260045260246000fd5b6020020181905250604051806040016040528060018152602001600160fd1b8152508260016005811061034f57634e487b7160e01b600052603260045260246000fd5b6020020152601d816026811061037557634e487b7160e01b600052603260045260246000fd5b01805461038190610ea4565b80601f01602080910402602001604051908101604052809291908181526020018280546103ad90610ea4565b80156103fa5780601f106103cf576101008083540402835291602001916103fa565b820191906000526020600020905b8154815290600101906020018083116103dd57829003601f168201915b50505050508260026005811061042057634e487b7160e01b600052603260045260246000fd5b6020908102919091019190915282518382015160408086015190516104459401610d33565b6040516020818303038152906040529550610ae6565b61070883116107b55760009350600061047b602a8c901b6000601d610bb9565b601d811061049957634e487b7160e01b600052603260045260246000fd5b0180546104a590610ea4565b80601f01602080910402602001604051908101604052809291908181526020018280546104d190610ea4565b801561051e5780601f106104f35761010080835404028352916020019161051e565b820191906000526020600020905b81548152906001019060200180831161050157829003601f168201915b50505050508260006005811061054457634e487b7160e01b600052603260045260246000fd5b6020020181905250604051806040016040528060018152602001600160fd1b8152508260016005811061058757634e487b7160e01b600052603260045260246000fd5b6020020152601d81602681106105ad57634e487b7160e01b600052603260045260246000fd5b0180546105b990610ea4565b80601f01602080910402602001604051908101604052809291908181526020018280546105e590610ea4565b80156106325780601f1061060757610100808354040283529160200191610632565b820191906000526020600020905b81548152906001019060200180831161061557829003601f168201915b50505050508260026005811061065857634e487b7160e01b600052603260045260246000fd5b60200201819052506040518060400160405280600481526020016301037b3160e51b8152508260036005811061069e57634e487b7160e01b600052603260045260246000fd5b602002015260436106b6601b8c901b6000603b610bb9565b603c81106106d457634e487b7160e01b600052603260045260246000fd5b0180546106e090610ea4565b80601f016020809104026020016040519081016040528092919081815260200182805461070c90610ea4565b80156107595780601f1061072e57610100808354040283529160200191610759565b820191906000526020600020905b81548152906001019060200180831161073c57829003601f168201915b50505050509450848260046005811061078257634e487b7160e01b600052603260045260246000fd5b60209081029190910191909152825183820151604080860151606087015160808801519251610445969293919201610d57565b610fa083116109b85760009350601d81602681106107e357634e487b7160e01b600052603260045260246000fd5b0180546107ef90610ea4565b80601f016020809104026020016040519081016040528092919081815260200182805461081b90610ea4565b80156108685780601f1061083d57610100808354040283529160200191610868565b820191906000526020600020905b81548152906001019060200180831161084b57829003601f168201915b50505050508260006005811061088e57634e487b7160e01b600052603260045260246000fd5b60200201819052506040518060400160405280600481526020016301037b3160e51b815250826001600581106108d457634e487b7160e01b600052603260045260246000fd5b602002015260436108ec60338c901b6000603b610bb9565b603c811061090a57634e487b7160e01b600052603260045260246000fd5b01805461091690610ea4565b80601f016020809104026020016040519081016040528092919081815260200182805461094290610ea4565b801561098f5780601f106109645761010080835404028352916020019161098f565b820191906000526020600020905b81548152906001019060200180831161097257829003601f168201915b50505050509450848260026005811061042057634e487b7160e01b600052603260045260246000fd5b6119648311610a155760009350604051806040016040528060048152602001636e6f6e6560e01b815250945060006109f7603b8c901b6000601d610bb9565b601d811061026157634e487b7160e01b600052603260045260246000fd5b60009350604051806040016040528060048152602001636e6f6e6560e01b8152509450601d8160268110610a5957634e487b7160e01b600052603260045260246000fd5b018054610a6590610ea4565b80601f0160208091040260200160405190810160405280929190818152602001828054610a9190610ea4565b8015610ade5780601f10610ab357610100808354040283529160200191610ade565b820191906000526020600020905b815481529060010190602001808311610ac157829003601f168201915b505050505095505b50505b509196909550909350915050565b600080610b0b600884901b60006064610bb9565b905060468110610b1f5760009150506100e5565b602d8110610b315760019150506100e5565b60198110610b435760029150506100e5565b600d8110610b555760039150506100e5565b60048110610b675760049150506100e5565b60059150506100e5565b50919050565b600080610b85600143610e3e565b40833a604051602001610b9a93929190610cfc565b60408051808303601f1901815291905280516020909101209392505050565b60008083610bc78185610e3e565b86604051602001610bd89190610d9e565b6040516020818303038152906040528051906020012060001c610bfb9190610ecb565b610c059190610e10565b95945050505050565b6040518060a001604052806005905b6060815260200190600190039081610c1d5790505090565b8035610c4081610f41565b92915050565b600060208284031215610c5857600080fd5b6000610c648484610c35565b949350505050565b610c7d610c7882610e6b565b610e6b565b82525050565b6000610c8e82610e03565b610c988185610e07565b9350610ca8818560208601610e74565b610cb181610f37565b9093019392505050565b6000610cc682610e03565b610cd081856100e5565b9350610ce0818560208601610e74565b9290920192915050565b610c7d81610e6b565b610c7d81610e6e565b6000610d088286610c6c565b602082019150610d188285610c6c565b602082019150610d288284610c6c565b506020019392505050565b6000610d3f8286610cbb565b9150610d4b8285610cbb565b9150610c058284610cbb565b6000610d638288610cbb565b9150610d6f8287610cbb565b9150610d7b8286610cbb565b9150610d878285610cbb565b9150610d938284610cbb565b979650505050505050565b6000610daa8284610c6c565b50602001919050565b60608082528101610dc48186610c83565b90508181036020830152610dd88185610c83565b9050610c646040830184610cf3565b60208101610c408284610cea565b60208101610c408284610cf3565b5190565b90815260200190565b6000610e1b82610e6b565b9150610e2683610e6b565b92508219821115610e3957610e39610ef5565b500190565b6000610e4982610e6b565b9150610e5483610e6b565b925082821015610e6657610e66610ef5565b500390565b90565b60ff1690565b60005b83811015610e8f578181015183820152602001610e77565b83811115610e9e576000848401525b50505050565b600281046001821680610eb857607f821691505b60208210811415610b7157610b71610f21565b6000610ed682610e6b565b9150610ee183610e6b565b925082610ef057610ef0610f0b565b500690565b634e487b7160e01b600052601160045260246000fd5b634e487b7160e01b600052601260045260246000fd5b634e487b7160e01b600052602260045260246000fd5b601f01601f191690565b610f4a81610e6b565b8114610f5557600080fd5b5056fea2646970667358221220f6ccf250bfc73d88a1ad57397024243486e1a25b1dd306b58da7fbb4bc8becb064736f6c63430008000033",
  "linkReferences": {},
  "deployedLinkReferences": {}
}