{
  "_format": "hh-sol-artifact-1",
  "contractName": "Dungeons",
  "sourceName": "contracts/dungeons.sol",
  "abi": [
    {
      "inputs": [
        {
          "internalType": "contract Loot",
          "name": "_lootContract",
          "type": "address"
        },
        {
          "internalType": "contract IDungeonsRender",
          "name": "_render",
          "type": "address"
        },
        {
          "internalType": "contract IDungeonsGenerator",
          "name": "_generator",
          "type": "address"
        },
        {
          "internalType": "contract IDungeonsSeeder",
          "name": "_seeder",
          "type": "address"
        }
      ],
      "stateMutability": "nonpayable",
      "type": "constructor"
    },
    {
      "anonymous": false,
      "inputs": [
        {
          "indexed": true,
          "internalType": "address",
          "name": "owner",
          "type": "address"
        },
        {
          "indexed": true,
          "internalType": "address",
          "name": "approved",
          "type": "address"
        },
        {
          "indexed": true,
          "internalType": "uint256",
          "name": "tokenId",
          "type": "uint256"
        }
      ],
      "name": "Approval",
      "type": "event"
    },
    {
      "anonymous": false,
      "inputs": [
        {
          "indexed": true,
          "internalType": "address",
          "name": "owner",
          "type": "address"
        },
        {
          "indexed": true,
          "internalType": "address",
          "name": "operator",
          "type": "address"
        },
        {
          "indexed": false,
          "internalType": "bool",
          "name": "approved",
          "type": "bool"
        }
      ],
      "name": "ApprovalForAll",
      "type": "event"
    },
    {
      "anonymous": false,
      "inputs": [
        {
          "indexed": true,
          "internalType": "address",
          "name": "account",
          "type": "address"
        },
        {
          "indexed": false,
          "internalType": "uint256",
          "name": "tokenId",
          "type": "uint256"
        }
      ],
      "name": "Claimed",
      "type": "event"
    },
    {
      "anonymous": false,
      "inputs": [
        {
          "indexed": true,
          "internalType": "address",
          "name": "account",
          "type": "address"
        },
        {
          "indexed": false,
          "internalType": "uint256",
          "name": "tokenId",
          "type": "uint256"
        }
      ],
      "name": "Minted",
      "type": "event"
    },
    {
      "anonymous": false,
      "inputs": [
        {
          "indexed": true,
          "internalType": "address",
          "name": "previousOwner",
          "type": "address"
        },
        {
          "indexed": true,
          "internalType": "address",
          "name": "newOwner",
          "type": "address"
        }
      ],
      "name": "OwnershipTransferred",
      "type": "event"
    },
    {
      "anonymous": false,
      "inputs": [
        {
          "indexed": true,
          "internalType": "address",
          "name": "from",
          "type": "address"
        },
        {
          "indexed": true,
          "internalType": "address",
          "name": "to",
          "type": "address"
        },
        {
          "indexed": true,
          "internalType": "uint256",
          "name": "tokenId",
          "type": "uint256"
        }
      ],
      "name": "Transfer",
      "type": "event"
    },
    {
      "inputs": [
        {
          "internalType": "address",
          "name": "to",
          "type": "address"
        },
        {
          "internalType": "uint256",
          "name": "tokenId",
          "type": "uint256"
        }
      ],
      "name": "approve",
      "outputs": [],
      "stateMutability": "nonpayable",
      "type": "function"
    },
    {
      "inputs": [
        {
          "internalType": "address",
          "name": "owner",
          "type": "address"
        }
      ],
      "name": "balanceOf",
      "outputs": [
        {
          "internalType": "uint256",
          "name": "",
          "type": "uint256"
        }
      ],
      "stateMutability": "view",
      "type": "function"
    },
    {
      "inputs": [
        {
          "internalType": "uint256",
          "name": "tokenId",
          "type": "uint256"
        }
      ],
      "name": "claim",
      "outputs": [],
      "stateMutability": "payable",
      "type": "function"
    },
    {
      "inputs": [
        {
          "internalType": "uint256[]",
          "name": "tokenArray",
          "type": "uint256[]"
        }
      ],
      "name": "claimMany",
      "outputs": [],
      "stateMutability": "payable",
      "type": "function"
    },
    {
      "inputs": [],
      "name": "claimed",
      "outputs": [
        {
          "internalType": "uint256",
          "name": "",
          "type": "uint256"
        }
      ],
      "stateMutability": "view",
      "type": "function"
    },
    {
      "inputs": [],
      "name": "generator",
      "outputs": [
        {
          "internalType": "contract IDungeonsGenerator",
          "name": "",
          "type": "address"
        }
      ],
      "stateMutability": "view",
      "type": "function"
    },
    {
      "inputs": [
        {
          "internalType": "uint256",
          "name": "tokenId",
          "type": "uint256"
        }
      ],
      "name": "getApproved",
      "outputs": [
        {
          "internalType": "address",
          "name": "",
          "type": "address"
        }
      ],
      "stateMutability": "view",
      "type": "function"
    },
    {
      "inputs": [
        {
          "internalType": "uint256",
          "name": "tokenId",
          "type": "uint256"
        }
      ],
      "name": "getEntities",
      "outputs": [
        {
          "internalType": "uint8[]",
          "name": "",
          "type": "uint8[]"
        },
        {
          "internalType": "uint8[]",
          "name": "",
          "type": "uint8[]"
        },
        {
          "internalType": "uint8[]",
          "name": "",
          "type": "uint8[]"
        }
      ],
      "stateMutability": "view",
      "type": "function"
    },
    {
      "inputs": [
        {
          "internalType": "uint256",
          "name": "tokenId",
          "type": "uint256"
        }
      ],
      "name": "getEnvironment",
      "outputs": [
        {
          "internalType": "uint8",
          "name": "",
          "type": "uint8"
        }
      ],
      "stateMutability": "view",
      "type": "function"
    },
    {
      "inputs": [
        {
          "internalType": "uint256",
          "name": "tokenId",
          "type": "uint256"
        }
      ],
      "name": "getLayout",
      "outputs": [
        {
          "internalType": "bytes",
          "name": "",
          "type": "bytes"
        }
      ],
      "stateMutability": "view",
      "type": "function"
    },
    {
      "inputs": [
        {
          "internalType": "uint256",
          "name": "tokenId",
          "type": "uint256"
        }
      ],
      "name": "getName",
      "outputs": [
        {
          "internalType": "string",
          "name": "",
          "type": "string"
        }
      ],
      "stateMutability": "view",
      "type": "function"
    },
    {
      "inputs": [
        {
          "internalType": "uint256",
          "name": "tokenId",
          "type": "uint256"
        }
      ],
      "name": "getNumDoors",
      "outputs": [
        {
          "internalType": "uint256",
          "name": "",
          "type": "uint256"
        }
      ],
      "stateMutability": "view",
      "type": "function"
    },
    {
      "inputs": [
        {
          "internalType": "uint256",
          "name": "tokenId",
          "type": "uint256"
        }
      ],
      "name": "getNumPoints",
      "outputs": [
        {
          "internalType": "uint256",
          "name": "",
          "type": "uint256"
        }
      ],
      "stateMutability": "view",
      "type": "function"
    },
    {
      "inputs": [
        {
          "internalType": "uint256",
          "name": "tokenId",
          "type": "uint256"
        }
      ],
      "name": "getSize",
      "outputs": [
        {
          "internalType": "uint8",
          "name": "",
          "type": "uint8"
        }
      ],
      "stateMutability": "view",
      "type": "function"
    },
    {
      "inputs": [
        {
          "internalType": "uint256",
          "name": "tokenId",
          "type": "uint256"
        }
      ],
      "name": "getSvg",
      "outputs": [
        {
          "internalType": "string",
          "name": "",
          "type": "string"
        }
      ],
      "stateMutability": "view",
      "type": "function"
    },
    {
      "inputs": [
        {
          "internalType": "address",
          "name": "owner",
          "type": "address"
        },
        {
          "internalType": "address",
          "name": "operator",
          "type": "address"
        }
      ],
      "name": "isApprovedForAll",
      "outputs": [
        {
          "internalType": "bool",
          "name": "",
          "type": "bool"
        }
      ],
      "stateMutability": "view",
      "type": "function"
    },
    {
      "inputs": [],
      "name": "lastMint",
      "outputs": [
        {
          "internalType": "uint256",
          "name": "",
          "type": "uint256"
        }
      ],
      "stateMutability": "view",
      "type": "function"
    },
    {
      "inputs": [],
      "name": "mint",
      "outputs": [],
      "stateMutability": "payable",
      "type": "function"
    },
    {
      "inputs": [],
      "name": "name",
      "outputs": [
        {
          "internalType": "string",
          "name": "",
          "type": "string"
        }
      ],
      "stateMutability": "view",
      "type": "function"
    },
    {
      "inputs": [],
      "name": "openClaim",
      "outputs": [],
      "stateMutability": "nonpayable",
      "type": "function"
    },
    {
      "inputs": [],
      "name": "owner",
      "outputs": [
        {
          "internalType": "address",
          "name": "",
          "type": "address"
        }
      ],
      "stateMutability": "view",
      "type": "function"
    },
    {
      "inputs": [
        {
          "internalType": "uint256",
          "name": "tokenId",
          "type": "uint256"
        }
      ],
      "name": "ownerClaim",
      "outputs": [],
      "stateMutability": "payable",
      "type": "function"
    },
    {
      "inputs": [
        {
          "internalType": "uint256",
          "name": "tokenId",
          "type": "uint256"
        }
      ],
      "name": "ownerOf",
      "outputs": [
        {
          "internalType": "address",
          "name": "",
          "type": "address"
        }
      ],
      "stateMutability": "view",
      "type": "function"
    },
    {
      "inputs": [],
      "name": "price",
      "outputs": [
        {
          "internalType": "uint256",
          "name": "",
          "type": "uint256"
        }
      ],
      "stateMutability": "view",
      "type": "function"
    },
    {
      "inputs": [],
      "name": "render",
      "outputs": [
        {
          "internalType": "contract IDungeonsRender",
          "name": "",
          "type": "address"
        }
      ],
      "stateMutability": "view",
      "type": "function"
    },
    {
      "inputs": [],
      "name": "renounceOwnership",
      "outputs": [],
      "stateMutability": "nonpayable",
      "type": "function"
    },
    {
      "inputs": [],
      "name": "restricted",
      "outputs": [
        {
          "internalType": "bool",
          "name": "",
          "type": "bool"
        }
      ],
      "stateMutability": "view",
      "type": "function"
    },
    {
      "inputs": [
        {
          "internalType": "address",
          "name": "from",
          "type": "address"
        },
        {
          "internalType": "address",
          "name": "to",
          "type": "address"
        },
        {
          "internalType": "uint256",
          "name": "tokenId",
          "type": "uint256"
        }
      ],
      "name": "safeTransferFrom",
      "outputs": [],
      "stateMutability": "nonpayable",
      "type": "function"
    },
    {
      "inputs": [
        {
          "internalType": "address",
          "name": "from",
          "type": "address"
        },
        {
          "internalType": "address",
          "name": "to",
          "type": "address"
        },
        {
          "internalType": "uint256",
          "name": "tokenId",
          "type": "uint256"
        },
        {
          "internalType": "bytes",
          "name": "_data",
          "type": "bytes"
        }
      ],
      "name": "safeTransferFrom",
      "outputs": [],
      "stateMutability": "nonpayable",
      "type": "function"
    },
    {
      "inputs": [],
      "name": "seeder",
      "outputs": [
        {
          "internalType": "contract IDungeonsSeeder",
          "name": "",
          "type": "address"
        }
      ],
      "stateMutability": "view",
      "type": "function"
    },
    {
      "inputs": [
        {
          "internalType": "uint256",
          "name": "",
          "type": "uint256"
        }
      ],
      "name": "seeds",
      "outputs": [
        {
          "internalType": "uint256",
          "name": "",
          "type": "uint256"
        }
      ],
      "stateMutability": "view",
      "type": "function"
    },
    {
      "inputs": [
        {
          "internalType": "address",
          "name": "operator",
          "type": "address"
        },
        {
          "internalType": "bool",
          "name": "approved",
          "type": "bool"
        }
      ],
      "name": "setApprovalForAll",
      "outputs": [],
      "stateMutability": "nonpayable",
      "type": "function"
    },
    {
      "inputs": [
        {
          "internalType": "bytes4",
          "name": "interfaceId",
          "type": "bytes4"
        }
      ],
      "name": "supportsInterface",
      "outputs": [
        {
          "internalType": "bool",
          "name": "",
          "type": "bool"
        }
      ],
      "stateMutability": "view",
      "type": "function"
    },
    {
      "inputs": [],
      "name": "symbol",
      "outputs": [
        {
          "internalType": "string",
          "name": "",
          "type": "string"
        }
      ],
      "stateMutability": "view",
      "type": "function"
    },
    {
      "inputs": [
        {
          "internalType": "uint256",
          "name": "index",
          "type": "uint256"
        }
      ],
      "name": "tokenByIndex",
      "outputs": [
        {
          "internalType": "uint256",
          "name": "",
          "type": "uint256"
        }
      ],
      "stateMutability": "view",
      "type": "function"
    },
    {
      "inputs": [
        {
          "internalType": "address",
          "name": "owner",
          "type": "address"
        },
        {
          "internalType": "uint256",
          "name": "index",
          "type": "uint256"
        }
      ],
      "name": "tokenOfOwnerByIndex",
      "outputs": [
        {
          "internalType": "uint256",
          "name": "",
          "type": "uint256"
        }
      ],
      "stateMutability": "view",
      "type": "function"
    },
    {
      "inputs": [
        {
          "internalType": "uint256",
          "name": "tokenId",
          "type": "uint256"
        }
      ],
      "name": "tokenURI",
      "outputs": [
        {
          "internalType": "string",
          "name": "",
          "type": "string"
        }
      ],
      "stateMutability": "view",
      "type": "function"
    },
    {
      "inputs": [],
      "name": "totalSupply",
      "outputs": [
        {
          "internalType": "uint256",
          "name": "",
          "type": "uint256"
        }
      ],
      "stateMutability": "view",
      "type": "function"
    },
    {
      "inputs": [
        {
          "internalType": "address",
          "name": "from",
          "type": "address"
        },
        {
          "internalType": "address",
          "name": "to",
          "type": "address"
        },
        {
          "internalType": "uint256",
          "name": "tokenId",
          "type": "uint256"
        }
      ],
      "name": "transferFrom",
      "outputs": [],
      "stateMutability": "nonpayable",
      "type": "function"
    },
    {
      "inputs": [
        {
          "internalType": "address",
          "name": "newOwner",
          "type": "address"
        }
      ],
      "name": "transferOwnership",
      "outputs": [],
      "stateMutability": "nonpayable",
      "type": "function"
    },
    {
      "inputs": [
        {
          "internalType": "address payable",
          "name": "recipient",
          "type": "address"
        },
        {
          "internalType": "uint256",
          "name": "amount",
          "type": "uint256"
        }
      ],
      "name": "withdraw",
      "outputs": [],
      "stateMutability": "nonpayable",
      "type": "function"
    }
  ],
  "bytecode": "0x6080604052611f4060115560006012556013805460ff1916600117905566b1a2bc2ec500006014553480156200003457600080fd5b5060405162003f5438038062003f54833981016040819052620000579162000245565b604080518082018252601281527143727970747320616e642043617665726e7360701b60208083019182528351808501909452600784526643415645524e5360c81b908401528151919291620000b0916000916200018c565b508051620000c69060019060208401906200018c565b50506001600a5550620000e2620000dc62000136565b6200013a565b601080546001600160a01b039586166001600160a01b031991821617909155600c805494861694821694909417909355600d805492851692841692909217909155600e805491909316911617905562000336565b3390565b600b80546001600160a01b038381166001600160a01b0319831681179093556040519116919082907f8be0079c531659141344cd1fd0a4f28419497f9722a3daafe3b4186f6b6457e090600090a35050565b8280546200019a90620002d5565b90600052602060002090601f016020900481019282620001be576000855562000209565b82601f10620001d957805160ff191683800117855562000209565b8280016001018555821562000209579182015b8281111562000209578251825591602001919060010190620001ec565b50620002179291506200021b565b5090565b5b808211156200021757600081556001016200021c565b80516200023f816200031c565b92915050565b600080600080608085870312156200025c57600080fd5b60006200026a878762000232565b94505060206200027d8782880162000232565b9350506040620002908782880162000232565b9250506060620002a38782880162000232565b91505092959194509250565b60006200023f82620002c9565b60006200023f82620002af565b6001600160a01b031690565b600281046001821680620002ea57607f821691505b6020821081141562000300576200030062000306565b50919050565b634e487b7160e01b600052602260045260246000fd5b6200032781620002bc565b81146200033357600080fd5b50565b613c0e80620003466000396000f3fe6080604052600436106102465760003560e01c80636db4080011610139578063b0dc78fa116100b6578063db9ee4451161007a578063db9ee44514610650578063e834a83414610670578063e985e9c514610685578063f0503e80146106a5578063f2fde38b146106c5578063f3fef3a3146106e557610246565b8063b0dc78fa146105ac578063b88d4fde146105cc578063c87b56dd146105ec578063cc6dd9471461060c578063d607497a1461063b57610246565b80638da5cb5b116100fd5780638da5cb5b1461053a578063925489a81461054f57806395d89b4114610562578063a035b1fe14610577578063a22cb4651461058c57610246565b80636db40800146104bb5780637072c6b1146104db57806370a08231146104f0578063715018a6146105105780637afa1eed1461052557610246565b80632f745c59116101c75780634f6ccce71161018b5780634f6ccce714610424578063586fc5b5146104445780636352211e14610459578063684931ed146104795780636b8ff5741461049b57610246565b80632f745c591461039e578063379607f5146103be5780633bb31416146103d157806342842e0e146103f1578063434f48c41461041157610246565b8063095ea7b31161020e578063095ea7b31461031d5780631249c58b1461033f57806318160ddd1461034757806323b872dd14610369578063293cdbf11461038957610246565b8063012921351461024b57806301ffc9a714610281578063023c23db146102ae57806306fdde03146102db578063081812fc146102f0575b600080fd5b34801561025757600080fd5b5061026b610266366004612ce3565b610705565b60405161027891906136fc565b60405180910390f35b34801561028d57600080fd5b506102a161029c366004612b77565b6107b6565b60405161027891906136ee565b3480156102ba57600080fd5b506102ce6102c9366004612ce3565b6107e1565b6040516102789190613955565b3480156102e757600080fd5b5061026b61087a565b3480156102fc57600080fd5b5061031061030b366004612ce3565b61090c565b6040516102789190613652565b34801561032957600080fd5b5061033d61033836600461295d565b610958565b005b61033d6109f0565b34801561035357600080fd5b5061035c610b64565b60405161027891906138f8565b34801561037557600080fd5b5061033d6103843660046129c7565b610b6a565b34801561039557600080fd5b5061033d610ba2565b3480156103aa57600080fd5b5061035c6103b936600461295d565b610c22565b61033d6103cc366004612ce3565b610c74565b3480156103dd57600080fd5b5061035c6103ec366004612ce3565b610e8d565b3480156103fd57600080fd5b5061033d61040c3660046129c7565b610f3e565b61033d61041f366004612ce3565b610f59565b34801561043057600080fd5b5061035c61043f366004612ce3565b611088565b34801561045057600080fd5b5061035c6110e3565b34801561046557600080fd5b50610310610474366004612ce3565b6110e9565b34801561048557600080fd5b5061048e61111e565b604051610278919061370d565b3480156104a757600080fd5b5061026b6104b6366004612ce3565b61112d565b3480156104c757600080fd5b506102ce6104d6366004612ce3565b6111d3565b3480156104e757600080fd5b506102a161121b565b3480156104fc57600080fd5b5061035c61050b366004612921565b611224565b34801561051c57600080fd5b5061033d611268565b34801561053157600080fd5b5061048e6112b3565b34801561054657600080fd5b506103106112c2565b61033d61055d366004612abc565b6112d1565b34801561056e57600080fd5b5061026b61164d565b34801561058357600080fd5b5061035c61165c565b34801561059857600080fd5b5061033d6105a7366004612a8c565b611662565b3480156105b857600080fd5b5061026b6105c7366004612ce3565b611730565b3480156105d857600080fd5b5061033d6105e7366004612a14565b6117dd565b3480156105f857600080fd5b5061026b610607366004612ce3565b61181c565b34801561061857600080fd5b5061062c610627366004612ce3565b6119c0565b604051610278939291906136b5565b34801561064757600080fd5b5061048e611a80565b34801561065c57600080fd5b5061035c61066b366004612ce3565b611a8f565b34801561067c57600080fd5b5061035c611ac7565b34801561069157600080fd5b506102a16106a0366004612997565b611acd565b3480156106b157600080fd5b5061035c6106c0366004612ce3565b611afb565b3480156106d157600080fd5b5061033d6106e0366004612921565b611b0d565b3480156106f157600080fd5b5061033d61070036600461295d565b611b7e565b606061071082611c8b565b600d546000838152600f602052604081205490916001600160a01b03169063ff8f8c189061073d866107e1565b6040518363ffffffff1660e01b815260040161075a92919061393a565b60006040518083038186803b15801561077257600080fd5b505afa158015610786573d6000803e3d6000fd5b505050506040513d6000823e601f3d908101601f191682016040526107ae9190810190612bf9565b509392505050565b60006001600160e01b0319821663780e9d6360e01b14806107db57506107db82611cdd565b92915050565b60006107ec82611c8b565b600e546000838152600f60205260409081902054905163023c23db60e01b81526001600160a01b039092169163023c23db9161082a916004016138f8565b60206040518083038186803b15801561084257600080fd5b505afa158015610856573d6000803e3d6000fd5b505050506040513d601f19601f820116820180604052508101906107db9190612d3e565b60606000805461088990613b01565b80601f01602080910402602001604051908101604052809291908181526020018280546108b590613b01565b80156109025780601f106108d757610100808354040283529160200191610902565b820191906000526020600020905b8154815290600101906020018083116108e557829003601f168201915b5050505050905090565b600061091782611d1d565b61093c5760405162461bcd60e51b81526004016109339061380b565b60405180910390fd5b506000908152600460205260409020546001600160a01b031690565b6000610963826110e9565b9050806001600160a01b0316836001600160a01b031614156109975760405162461bcd60e51b81526004016109339061384b565b806001600160a01b03166109a9611d3a565b6001600160a01b031614806109c557506109c5816106a0611d3a565b6109e15760405162461bcd60e51b8152600401610933906137cb565b6109eb8383611d3e565b505050565b6002600a541415610a135760405162461bcd60e51b81526004016109339061389b565b6002600a5560115461232811610a3b5760405162461bcd60e51b81526004016109339061385b565b601454341015610a5d5760405162461bcd60e51b81526004016109339061371b565b6000601160008154610a6e90613b2e565b9182905550600e5460405163e0d4ea3760e01b81529192506001600160a01b03169063e0d4ea3790610aa49084906004016138f8565b60206040518083038186803b158015610abc57600080fd5b505afa158015610ad0573d6000803e3d6000fd5b505050506040513d601f19601f82011682018060405250810190610af49190612d01565b6000828152600f6020526040902055610b14610b0e611d3a565b82611dac565b610b1c611d3a565b6001600160a01b03167f30385c845b448a36257a6a1716e6ad2e1bc2cbe333cde1e69fe849ad6511adfe82604051610b5491906138f8565b60405180910390a2506001600a55565b60085490565b610b7b610b75611d3a565b82611dca565b610b975760405162461bcd60e51b81526004016109339061386b565b6109eb838383611e47565b6002600a541415610bc55760405162461bcd60e51b81526004016109339061389b565b6002600a55610bd2611d3a565b6001600160a01b0316610be36112c2565b6001600160a01b031614610c095760405162461bcd60e51b81526004016109339061381b565b6013805460ff19811660ff909116151790556001600a55565b6000610c2d83611224565b8210610c4b5760405162461bcd60e51b81526004016109339061372b565b506001600160a01b03919091166000908152600660209081526040808320938352929052205490565b6002600a541415610c975760405162461bcd60e51b81526004016109339061389b565b6002600a558015801590610cac5750611e6281105b610cc85760405162461bcd60e51b81526004016109339061382b565b60135460ff161580610d6057506010546040516331a9108f60e11b815233916001600160a01b031690636352211e90610d059085906004016138f8565b60206040518083038186803b158015610d1d57600080fd5b505afa158015610d31573d6000803e3d6000fd5b505050506040513d601f19601f82011682018060405250810190610d55919061293f565b6001600160a01b0316145b610d7c5760405162461bcd60e51b81526004016109339061388b565b346014541115610d9e5760405162461bcd60e51b81526004016109339061371b565b60128054906000610dae83613b2e565b9091555050600e5460405163e0d4ea3760e01b81526001600160a01b039091169063e0d4ea3790610de39084906004016138f8565b60206040518083038186803b158015610dfb57600080fd5b505afa158015610e0f573d6000803e3d6000fd5b505050506040513d601f19601f82011682018060405250810190610e339190612d01565b6000828152600f6020526040902055610e4d610b0e611d3a565b610e55611d3a565b6001600160a01b03167fd8138f8a3f377c5259ca548e70e4c2de94f129f5a11036a15b69513cba2b426a82604051610b5491906138f8565b6000610e9882611c8b565b600d546000838152600f602052604081205490916001600160a01b031690634d4c71a390610ec5866107e1565b6040518363ffffffff1660e01b8152600401610ee292919061393a565b60006040518083038186803b158015610efa57600080fd5b505afa158015610f0e573d6000803e3d6000fd5b505050506040513d6000823e601f3d908101601f19168201604052610f369190810190612bb3565b949350505050565b6109eb838383604051806020016040528060008152506117dd565b6002600a541415610f7c5760405162461bcd60e51b81526004016109339061389b565b6002600a55610f89611d3a565b6001600160a01b0316610f9a6112c2565b6001600160a01b031614610fc05760405162461bcd60e51b81526004016109339061381b565b611e6181118015610fd25750611f4181105b610fee5760405162461bcd60e51b81526004016109339061382b565b600e5460405163e0d4ea3760e01b81526001600160a01b039091169063e0d4ea379061101e9084906004016138f8565b60206040518083038186803b15801561103657600080fd5b505afa15801561104a573d6000803e3d6000fd5b505050506040513d601f19601f8201168201806040525081019061106e9190612d01565b6000828152600f6020526040902055610e4d610b0e6112c2565b6000611092610b64565b82106110b05760405162461bcd60e51b81526004016109339061387b565b600882815481106110d157634e487b7160e01b600052603260045260246000fd5b90600052602060002001549050919050565b60115481565b6000818152600260205260408120546001600160a01b0316806107db5760405162461bcd60e51b8152600401610933906137eb565b600e546001600160a01b031681565b606061113882611c8b565b600e546000838152600f6020526040808220549051631ae3fd5d60e21b815291926001600160a01b031691636b8ff57491611175916004016138f8565b60006040518083038186803b15801561118d57600080fd5b505afa1580156111a1573d6000803e3d6000fd5b505050506040513d6000823e601f3d908101601f191682016040526111c99190810190612c73565b5090949350505050565b60006111de82611c8b565b600e546000838152600f602052604090819020549051620db68160eb1b81526001600160a01b0390921691636db408009161082a916004016138f8565b60135460ff1681565b60006001600160a01b03821661124c5760405162461bcd60e51b8152600401610933906137db565b506001600160a01b031660009081526003602052604090205490565b611270611d3a565b6001600160a01b03166112816112c2565b6001600160a01b0316146112a75760405162461bcd60e51b81526004016109339061381b565b6112b16000611f74565b565b600d546001600160a01b031681565b600b546001600160a01b031690565b6002600a5414156112f45760405162461bcd60e51b81526004016109339061389b565b6002600a5560005b815181101561164457600082828151811061132757634e487b7160e01b600052603260045260246000fd5b60200260200101511180156113645750611e6282828151811061135a57634e487b7160e01b600052603260045260246000fd5b6020026020010151105b6113805760405162461bcd60e51b81526004016109339061382b565b60135460ff1615806114435750601054825133916001600160a01b031690636352211e908590859081106113c457634e487b7160e01b600052603260045260246000fd5b60200260200101516040518263ffffffff1660e01b81526004016113e891906138f8565b60206040518083038186803b15801561140057600080fd5b505afa158015611414573d6000803e3d6000fd5b505050506040513d601f19601f82011682018060405250810190611438919061293f565b6001600160a01b0316145b61145f5760405162461bcd60e51b81526004016109339061388b565b34825160145461146f9190613a1f565b111561148d5760405162461bcd60e51b81526004016109339061371b565b6012805490600061149d83613b2e565b9091555050600e5482516001600160a01b039091169063e0d4ea37908490849081106114d957634e487b7160e01b600052603260045260246000fd5b60200260200101516040518263ffffffff1660e01b81526004016114fd91906138f8565b60206040518083038186803b15801561151557600080fd5b505afa158015611529573d6000803e3d6000fd5b505050506040513d601f19601f8201168201806040525081019061154d9190612d01565b600f600084848151811061157157634e487b7160e01b600052603260045260246000fd5b60200260200101518152602001908152602001600020819055506115c3611596611d3a565b8383815181106115b657634e487b7160e01b600052603260045260246000fd5b6020026020010151611dac565b6115cb611d3a565b6001600160a01b03167fd8138f8a3f377c5259ca548e70e4c2de94f129f5a11036a15b69513cba2b426a83838151811061161557634e487b7160e01b600052603260045260246000fd5b602002602001015160405161162a91906138f8565b60405180910390a28061163c81613b2e565b9150506112fc565b50506001600a55565b60606001805461088990613b01565b60145481565b61166a611d3a565b6001600160a01b0316826001600160a01b0316141561169b5760405162461bcd60e51b81526004016109339061379b565b80600560006116a8611d3a565b6001600160a01b03908116825260208083019390935260409182016000908120918716808252919093529120805460ff1916921515929092179091556116ec611d3a565b6001600160a01b03167f17307eab39ab6107e8899845ad3d59bd9653f200f220920489ca2b5937696c318360405161172491906136ee565b60405180910390a35050565b6060600061173d83611fc6565b600c5460a08201518051602082015160409283015192516329010f4360e01b81529495506001600160a01b03909316936329010f4393611782938793926004016138ab565b60006040518083038186803b15801561179a57600080fd5b505afa1580156117ae573d6000803e3d6000fd5b505050506040513d6000823e601f3d908101601f191682016040526117d69190810190612c3f565b9392505050565b6117ee6117e8611d3a565b83611dca565b61180a5760405162461bcd60e51b81526004016109339061386b565b611816848484846121a4565b50505050565b606061182782611c8b565b600061183283611fc6565b604080516002808252606082018352929350600092909160208301908036833701905050600d5460a084015160409081015190516397155f4f60e01b81529293506001600160a01b03909116916397155f4f91611891916004016136a4565b604080518083038186803b1580156118a857600080fd5b505afa1580156118bc573d6000803e3d6000fd5b505050506040513d601f19601f820116820180604052508101906118e09190612d1f565b8260008151811061190157634e487b7160e01b600052603260045260246000fd5b602002602001018360018151811061192957634e487b7160e01b600052603260045260246000fd5b602090810291909101019190915252600c546040516319db2b2f60e01b81526001600160a01b03909116906319db2b2f9061196c90879086908690600401613906565b60006040518083038186803b15801561198457600080fd5b505afa158015611998573d6000803e3d6000fd5b505050506040513d6000823e601f3d908101601f19168201604052610f369190810190612c3f565b60608060606119ce84611c8b565b600d546000858152600f60205260408120549091829182916001600160a01b0316906340070627906119ff8a6107e1565b6040518363ffffffff1660e01b8152600401611a1c92919061393a565b60006040518083038186803b158015611a3457600080fd5b505afa158015611a48573d6000803e3d6000fd5b505050506040513d6000823e601f3d908101601f19168201604052611a709190810190612af0565b9199909850909650945050505050565b600c546001600160a01b031681565b6000611a9a82611c8b565b600d546000838152600f602052604081205490916001600160a01b03169063cd7acca690610ec5866107e1565b60125481565b6001600160a01b03918216600090815260056020908152604080832093909416825291909152205460ff1690565b600f6020526000908152604090205481565b611b15611d3a565b6001600160a01b0316611b266112c2565b6001600160a01b031614611b4c5760405162461bcd60e51b81526004016109339061381b565b6001600160a01b038116611b725760405162461bcd60e51b81526004016109339061375b565b611b7b81611f74565b50565b6002600a541415611ba15760405162461bcd60e51b81526004016109339061389b565b6002600a55611bae611d3a565b6001600160a01b0316611bbf6112c2565b6001600160a01b031614611be55760405162461bcd60e51b81526004016109339061381b565b80471015611c055760405162461bcd60e51b8152600401610933906137ab565b6000826001600160a01b031682604051611c1e90613647565b60006040518083038185875af1925050503d8060008114611c5b576040519150601f19603f3d011682016040523d82523d6000602084013e611c60565b606091505b5050905080611c815760405162461bcd60e51b81526004016109339061377b565b50506001600a5550565b600081118015611c9c575061232981105b611cb85760405162461bcd60e51b81526004016109339061382b565b611cc181611d1d565b611b7b5760405162461bcd60e51b81526004016109339061374b565b60006001600160e01b031982166380ac58cd60e01b1480611d0e57506001600160e01b03198216635b5e139f60e01b145b806107db57506107db826121d7565b6000908152600260205260409020546001600160a01b0316151590565b3390565b600081815260046020526040902080546001600160a01b0319166001600160a01b0384169081179091558190611d73826110e9565b6001600160a01b03167f8c5be1e5ebec7d5bd14f71427d1e84f3dd0314c0f7b2291e5b200ac8c7c3b92560405160405180910390a45050565b611dc68282604051806020016040528060008152506121f0565b5050565b6000611dd582611d1d565b611df15760405162461bcd60e51b8152600401610933906137bb565b6000611dfc836110e9565b9050806001600160a01b0316846001600160a01b03161480611e375750836001600160a01b0316611e2c8461090c565b6001600160a01b0316145b80610f365750610f368185611acd565b826001600160a01b0316611e5a826110e9565b6001600160a01b031614611e805760405162461bcd60e51b81526004016109339061383b565b6001600160a01b038216611ea65760405162461bcd60e51b81526004016109339061378b565b611eb1838383612223565b611ebc600082611d3e565b6001600160a01b0383166000908152600360205260408120805460019290611ee5908490613a54565b90915550506001600160a01b0382166000908152600360205260408120805460019290611f139084906139f1565b909155505060008181526002602052604080822080546001600160a01b0319166001600160a01b0386811691821790925591518493918716917fddf252ad1be2c89b69c2b068fc378daa952ba7f163c4a11628f55a4df523b3ef91a4505050565b600b80546001600160a01b038381166001600160a01b0319831681179093556040519116919082907f8be0079c531659141344cd1fd0a4f28419497f9722a3daafe3b4186f6b6457e090600090a35050565b611fce6126aa565b6000806000611fdc856119c0565b600d546000898152600f6020526040812054949750929550909350909182916001600160a01b03169063ff8f8c18906120148a6107e1565b6040518363ffffffff1660e01b815260040161203192919061393a565b60006040518083038186803b15801561204957600080fd5b505afa15801561205d573d6000803e3d6000fd5b505050506040513d6000823e601f3d908101601f191682016040526120859190810190612bf9565b600e5460008a8152600f6020526040808220549051631ae3fd5d60e21b815294965092945092839283926001600160a01b031691636b8ff574916120cb916004016138f8565b60006040518083038186803b1580156120e357600080fd5b505afa1580156120f7573d6000803e3d6000fd5b505050506040513d6000823e601f3d908101601f1916820160405261211f9190810190612c73565b92509250925060405180610100016040528061213a8c6107e1565b60ff16815260200161214b8c6111d3565b60ff1681526020018560ff1681526020018260ff16815260200186815260200160405180606001604052808b81526020018a81526020018981525081526020018381526020018481525098505050505050505050919050565b6121af848484611e47565b6121bb848484846122ac565b6118165760405162461bcd60e51b81526004016109339061373b565b6001600160e01b031981166301ffc9a760e01b14919050565b6121fa83836123c7565b61220760008484846122ac565b6109eb5760405162461bcd60e51b81526004016109339061373b565b61222e8383836109eb565b6001600160a01b03831661224a57612245816124a6565b61226d565b816001600160a01b0316836001600160a01b03161461226d5761226d83826124ea565b6001600160a01b0382166122895761228481612587565b6109eb565b826001600160a01b0316826001600160a01b0316146109eb576109eb8282612660565b60006122c0846001600160a01b03166126a4565b156123bc57836001600160a01b031663150b7a026122dc611d3a565b8786866040518563ffffffff1660e01b81526004016122fe9493929190613660565b602060405180830381600087803b15801561231857600080fd5b505af1925050508015612348575060408051601f3d908101601f1916820190925261234591810190612b95565b60015b6123a2573d808015612376576040519150601f19603f3d011682016040523d82523d6000602084013e61237b565b606091505b50805161239a5760405162461bcd60e51b81526004016109339061373b565b805181602001fd5b6001600160e01b031916630a85bd0160e11b149050610f36565b506001949350505050565b6001600160a01b0382166123ed5760405162461bcd60e51b8152600401610933906137fb565b6123f681611d1d565b156124135760405162461bcd60e51b81526004016109339061376b565b61241f60008383612223565b6001600160a01b03821660009081526003602052604081208054600192906124489084906139f1565b909155505060008181526002602052604080822080546001600160a01b0319166001600160a01b03861690811790915590518392907fddf252ad1be2c89b69c2b068fc378daa952ba7f163c4a11628f55a4df523b3ef908290a45050565b600880546000838152600960205260408120829055600182018355919091527ff3f7a9fe364faab93b216da50a3214154f22a0a2b415b23a84c8169e8b636ee30155565b600060016124f784611224565b6125019190613a54565b600083815260076020526040902054909150808214612554576001600160a01b03841660009081526006602090815260408083208584528252808320548484528184208190558352600790915290208190555b5060009182526007602090815260408084208490556001600160a01b039094168352600681528383209183525290812055565b60085460009061259990600190613a54565b600083815260096020526040812054600880549394509092849081106125cf57634e487b7160e01b600052603260045260246000fd5b9060005260206000200154905080600883815481106125fe57634e487b7160e01b600052603260045260246000fd5b600091825260208083209091019290925582815260099091526040808220849055858252812055600880548061264457634e487b7160e01b600052603160045260246000fd5b6001900381819060005260206000200160009055905550505050565b600061266b83611224565b6001600160a01b039093166000908152600660209081526040808320868452825280832085905593825260079052919091209190915550565b3b151590565b604051806101000160405280600060ff168152602001600060ff168152602001600060ff168152602001600060ff168152602001606081526020016126ed612701565b815260200160608152602001606081525090565b60405180606001604052806060815260200160608152602001606081525090565b60006127356127308461398c565b613963565b9050808382526020820190508285602086028201111561275457600080fd5b60005b85811015612780578161276a8882612900565b8452506020928301929190910190600101612757565b5050509392505050565b60006127986127308461398c565b905080838252602082019050828560208602820111156127b757600080fd5b60005b8581101561278057816127cd8882612916565b84525060209283019291909101906001016127ba565b60006127f1612730846139af565b90508281526020810184848401111561280957600080fd5b6107ae848285613ac9565b6000612822612730846139af565b90508281526020810184848401111561283a57600080fd5b6107ae848285613ad5565b80356107db81613ba0565b80516107db81613ba0565b600082601f83011261286c57600080fd5b8135610f36848260208601612722565b600082601f83011261288d57600080fd5b8151610f3684826020860161278a565b80356107db81613bb4565b80356107db81613bbd565b80516107db81613bbd565b600082601f8301126128cf57600080fd5b8135610f368482602086016127e3565b600082601f8301126128f057600080fd5b8151610f36848260208601612814565b80356107db81613bc6565b80516107db81613bc6565b80516107db81613bcf565b60006020828403121561293357600080fd5b6000610f368484612845565b60006020828403121561295157600080fd5b6000610f368484612850565b6000806040838503121561297057600080fd5b600061297c8585612845565b925050602061298d85828601612900565b9150509250929050565b600080604083850312156129aa57600080fd5b60006129b68585612845565b925050602061298d85828601612845565b6000806000606084860312156129dc57600080fd5b60006129e88686612845565b93505060206129f986828701612845565b9250506040612a0a86828701612900565b9150509250925092565b60008060008060808587031215612a2a57600080fd5b6000612a368787612845565b9450506020612a4787828801612845565b9350506040612a5887828801612900565b92505060608501356001600160401b03811115612a7457600080fd5b612a80878288016128be565b91505092959194509250565b60008060408385031215612a9f57600080fd5b6000612aab8585612845565b925050602061298d8582860161289d565b600060208284031215612ace57600080fd5b81356001600160401b03811115612ae457600080fd5b610f368482850161285b565b600080600060608486031215612b0557600080fd5b83516001600160401b03811115612b1b57600080fd5b612b278682870161287c565b93505060208401516001600160401b03811115612b4357600080fd5b612b4f8682870161287c565b92505060408401516001600160401b03811115612b6b57600080fd5b612a0a8682870161287c565b600060208284031215612b8957600080fd5b6000610f3684846128a8565b600060208284031215612ba757600080fd5b6000610f3684846128b3565b60008060408385031215612bc657600080fd5b82516001600160401b03811115612bdc57600080fd5b612be8858286016128df565b925050602061298d8582860161290b565b60008060408385031215612c0c57600080fd5b82516001600160401b03811115612c2257600080fd5b612c2e858286016128df565b925050602061298d85828601612916565b600060208284031215612c5157600080fd5b81516001600160401b03811115612c6757600080fd5b610f36848285016128df565b600080600060608486031215612c8857600080fd5b83516001600160401b03811115612c9e57600080fd5b612caa868287016128df565b93505060208401516001600160401b03811115612cc657600080fd5b612cd2868287016128df565b9250506040612a0a86828701612916565b600060208284031215612cf557600080fd5b6000610f368484612900565b600060208284031215612d1357600080fd5b6000610f36848461290b565b60008060408385031215612d3257600080fd5b6000612be8858561290b565b600060208284031215612d5057600080fd5b6000610f368484612916565b6000612d68838361362c565b505060200190565b6000612d68838361363e565b612d8581613a81565b82525050565b6000612d96826139df565b612da081856139e3565b9350612dab836139d9565b8060005b83811015612dd9578151612dc38882612d5c565b9750612dce836139d9565b925050600101612daf565b509495945050505050565b6000612def826139df565b612df981856139e3565b9350612e04836139d9565b8060005b83811015612dd9578151612e1c8882612d70565b9750612e27836139d9565b925050600101612e08565b6000612e3d826139df565b612e4781856139e3565b9350612e52836139d9565b8060005b83811015612dd9578151612e6a8882612d70565b9750612e75836139d9565b925050600101612e56565b612d8581613a8c565b6000612e94826139df565b612e9e81856139e3565b9350612eae818560208601613ad5565b612eb781613b96565b9093019392505050565b612d8581613ab3565b6000612ed76010836139e3565b6f092dce6eaccccd2c6d2cadce8408aa8960831b815260200192915050565b6000612f03602b836139e3565b7f455243373231456e756d657261626c653a206f776e657220696e646578206f7581526a74206f6620626f756e647360a81b602082015260400192915050565b6000612f506032836139e3565b7f4552433732313a207472616e7366657220746f206e6f6e20455243373231526581527131b2b4bb32b91034b6b83632b6b2b73a32b960711b602082015260400192915050565b6000612fa46017836139e3565b7f546f6b656e206973206e6f74206d696e74656420796574000000000000000000815260200192915050565b6000612fdd6026836139e3565b7f4f776e61626c653a206e6577206f776e657220697320746865207a65726f206181526564647265737360d01b602082015260400192915050565b6000613025601c836139e3565b7f4552433732313a20746f6b656e20616c7265616479206d696e74656400000000815260200192915050565b600061305e600f836139e3565b6e15da5d1a191c985dc819985a5b1959608a1b815260200192915050565b60006130896024836139e3565b7f4552433732313a207472616e7366657220746f20746865207a65726f206164648152637265737360e01b602082015260400192915050565b60006130cf6019836139e3565b7f4552433732313a20617070726f766520746f2063616c6c657200000000000000815260200192915050565b60006131086014836139e3565b73496e73756666696369656e742062616c616e636560601b815260200192915050565b6000613138602c836139e3565b7f4552433732313a206f70657261746f7220717565727920666f72206e6f6e657881526b34b9ba32b73a103a37b5b2b760a11b602082015260400192915050565b60006131866038836139e3565b7f4552433732313a20617070726f76652063616c6c6572206973206e6f74206f7781527f6e6572206e6f7220617070726f76656420666f7220616c6c0000000000000000602082015260400192915050565b60006131e5602a836139e3565b7f4552433732313a2062616c616e636520717565727920666f7220746865207a65815269726f206164647265737360b01b602082015260400192915050565b60006132316029836139e3565b7f4552433732313a206f776e657220717565727920666f72206e6f6e657869737481526832b73a103a37b5b2b760b91b602082015260400192915050565b600061327c6020836139e3565b7f4552433732313a206d696e7420746f20746865207a65726f2061646472657373815260200192915050565b60006132b5602c836139e3565b7f4552433732313a20617070726f76656420717565727920666f72206e6f6e657881526b34b9ba32b73a103a37b5b2b760a11b602082015260400192915050565b60006133036020836139e3565b7f4f776e61626c653a2063616c6c6572206973206e6f7420746865206f776e6572815260200192915050565b600061333c6010836139e3565b6f151bdad95b881251081a5b9d985b1a5960821b815260200192915050565b60006133686029836139e3565b7f4552433732313a207472616e73666572206f6620746f6b656e2074686174206981526839903737ba1037bbb760b91b602082015260400192915050565b60006133b36021836139e3565b7f4552433732313a20617070726f76616c20746f2063757272656e74206f776e658152603960f91b602082015260400192915050565b60006107db6000836139ec565b6000613403600e836139e3565b6d151bdad95b881cdbdb19081bdd5d60921b815260200192915050565b600061342d6031836139e3565b7f4552433732313a207472616e736665722063616c6c6572206973206e6f74206f8152701ddb995c881b9bdc88185c1c1c9bdd9959607a1b602082015260400192915050565b6000613480602c836139e3565b7f455243373231456e756d657261626c653a20676c6f62616c20696e646578206f81526b7574206f6620626f756e647360a01b602082015260400192915050565b60006134ce600d836139e3565b6c139bdd081e5bdd5c881313d3d5609a1b815260200192915050565b60006134f7601f836139e3565b7f5265656e7472616e637947756172643a207265656e7472616e742063616c6c00815260200192915050565b8051600090610100840190613538858261363e565b50602083015161354b602086018261363e565b50604083015161355e604086018261363e565b506060830151613571606086018261363e565b50608083015184820360808601526135898282612e89565b91505060a083015184820360a08601526135a382826135e0565b91505060c083015184820360c08601526135bd8282612e89565b91505060e083015184820360e08601526135d78282612e89565b95945050505050565b80516060808452600091908401906135f88282612de4565b915050602083015184820360208601526136128282612de4565b915050604083015184820360408601526135d78282612de4565b612d8581613aaa565b612d8581613abe565b612d8581613aad565b60006107db826133e9565b602081016107db8284612d7c565b6080810161366e8287612d7c565b61367b6020830186612d7c565b613688604083018561362c565b818103606083015261369a8184612e89565b9695505050505050565b602080825281016117d68184612e32565b606080825281016136c68186612e32565b905081810360208301526136da8185612e32565b905081810360408301526135d78184612e32565b602081016107db8284612e80565b602080825281016117d68184612e89565b602081016107db8284612ec1565b602080825281016107db81612eca565b602080825281016107db81612ef6565b602080825281016107db81612f43565b602080825281016107db81612f97565b602080825281016107db81612fd0565b602080825281016107db81613018565b602080825281016107db81613051565b602080825281016107db8161307c565b602080825281016107db816130c2565b602080825281016107db816130fb565b602080825281016107db8161312b565b602080825281016107db81613179565b602080825281016107db816131d8565b602080825281016107db81613224565b602080825281016107db8161326f565b602080825281016107db816132a8565b602080825281016107db816132f6565b602080825281016107db8161332f565b602080825281016107db8161335b565b602080825281016107db816133a6565b602080825281016107db816133f6565b602080825281016107db81613420565b602080825281016107db81613473565b602080825281016107db816134c1565b602080825281016107db816134ea565b608080825281016138bc8187613523565b905081810360208301526138d08186612e32565b905081810360408301526138e48185612e32565b9050818103606083015261369a8184612e32565b602081016107db828461362c565b60608101613914828661362c565b81810360208301526139268185613523565b905081810360408301526135d78184612d8b565b60408101613948828561362c565b6117d66020830184613635565b602081016107db828461363e565b6040518181016001600160401b038111828210171561398457613984613b80565b604052919050565b60006001600160401b038211156139a5576139a5613b80565b5060209081020190565b60006001600160401b038211156139c8576139c8613b80565b506020601f91909101601f19160190565b60200190565b5190565b90815260200190565b919050565b60006139fc82613aaa565b9150613a0783613aaa565b92508219821115613a1a57613a1a613b54565b500190565b6000613a2a82613aaa565b9150613a3583613aaa565b9250816000190483118215151615613a4f57613a4f613b54565b500290565b6000613a5f82613aaa565b9150613a6a83613aaa565b925082821015613a7c57613a7c613b54565b500390565b60006107db82613a9e565b151590565b6001600160e01b03191690565b6001600160a01b031690565b90565b60ff1690565b60006107db82613a81565b60006107db82613aad565b82818337506000910152565b60005b83811015613af0578181015183820152602001613ad8565b838111156118165750506000910152565b600281046001821680613b1557607f821691505b60208210811415613b2857613b28613b6a565b50919050565b6000613b3982613aaa565b9150600019821415613b4d57613b4d613b54565b5060010190565b634e487b7160e01b600052601160045260246000fd5b634e487b7160e01b600052602260045260246000fd5b634e487b7160e01b600052604160045260246000fd5b601f01601f191690565b613ba981613a81565b8114611b7b57600080fd5b613ba981613a8c565b613ba981613a91565b613ba981613aaa565b613ba981613aad56fea26469706673582212205140078392d8e692c46b04d46c0cce0ddda9b4a353b070322ed4f1512f5d6ec464736f6c63430008000033",
  "linkReferences": {},
  "deployedLinkReferences": {}
}