{
  "contracts/fakeloot.sol": {
    "Loot": {
      "abi": [
        {
          "inputs": [],
          "stateMutability": "nonpayable",
          "type": "constructor"
        },
        {
          "anonymous": false,
          "inputs": [
            {
              "indexed": true,
              "internalType": "address",
              "name": "owner",
              "type": "address"
            },
            {
              "indexed": true,
              "internalType": "address",
              "name": "approved",
              "type": "address"
            },
            {
              "indexed": true,
              "internalType": "uint256",
              "name": "tokenId",
              "type": "uint256"
            }
          ],
          "name": "Approval",
          "type": "event"
        },
        {
          "anonymous": false,
          "inputs": [
            {
              "indexed": true,
              "internalType": "address",
              "name": "owner",
              "type": "address"
            },
            {
              "indexed": true,
              "internalType": "address",
              "name": "operator",
              "type": "address"
            },
            {
              "indexed": false,
              "internalType": "bool",
              "name": "approved",
              "type": "bool"
            }
          ],
          "name": "ApprovalForAll",
          "type": "event"
        },
        {
          "anonymous": false,
          "inputs": [
            {
              "indexed": true,
              "internalType": "address",
              "name": "previousOwner",
              "type": "address"
            },
            {
              "indexed": true,
              "internalType": "address",
              "name": "newOwner",
              "type": "address"
            }
          ],
          "name": "OwnershipTransferred",
          "type": "event"
        },
        {
          "anonymous": false,
          "inputs": [
            {
              "indexed": true,
              "internalType": "address",
              "name": "from",
              "type": "address"
            },
            {
              "indexed": true,
              "internalType": "address",
              "name": "to",
              "type": "address"
            },
            {
              "indexed": true,
              "internalType": "uint256",
              "name": "tokenId",
              "type": "uint256"
            }
          ],
          "name": "Transfer",
          "type": "event"
        },
        {
          "inputs": [
            {
              "internalType": "address",
              "name": "to",
              "type": "address"
            },
            {
              "internalType": "uint256",
              "name": "tokenId",
              "type": "uint256"
            }
          ],
          "name": "approve",
          "outputs": [],
          "stateMutability": "nonpayable",
          "type": "function"
        },
        {
          "inputs": [
            {
              "internalType": "address",
              "name": "owner",
              "type": "address"
            }
          ],
          "name": "balanceOf",
          "outputs": [
            {
              "internalType": "uint256",
              "name": "",
              "type": "uint256"
            }
          ],
          "stateMutability": "view",
          "type": "function"
        },
        {
          "inputs": [
            {
              "internalType": "uint256",
              "name": "tokenId",
              "type": "uint256"
            }
          ],
          "name": "claim",
          "outputs": [],
          "stateMutability": "nonpayable",
          "type": "function"
        },
        {
          "inputs": [
            {
              "internalType": "uint256",
              "name": "tokenId",
              "type": "uint256"
            }
          ],
          "name": "getApproved",
          "outputs": [
            {
              "internalType": "address",
              "name": "",
              "type": "address"
            }
          ],
          "stateMutability": "view",
          "type": "function"
        },
        {
          "inputs": [
            {
              "internalType": "uint256",
              "name": "tokenId",
              "type": "uint256"
            }
          ],
          "name": "getChest",
          "outputs": [
            {
              "internalType": "string",
              "name": "",
              "type": "string"
            }
          ],
          "stateMutability": "view",
          "type": "function"
        },
        {
          "inputs": [
            {
              "internalType": "uint256",
              "name": "tokenId",
              "type": "uint256"
            }
          ],
          "name": "getFoot",
          "outputs": [
            {
              "internalType": "string",
              "name": "",
              "type": "string"
            }
          ],
          "stateMutability": "view",
          "type": "function"
        },
        {
          "inputs": [
            {
              "internalType": "uint256",
              "name": "tokenId",
              "type": "uint256"
            }
          ],
          "name": "getHand",
          "outputs": [
            {
              "internalType": "string",
              "name": "",
              "type": "string"
            }
          ],
          "stateMutability": "view",
          "type": "function"
        },
        {
          "inputs": [
            {
              "internalType": "uint256",
              "name": "tokenId",
              "type": "uint256"
            }
          ],
          "name": "getHead",
          "outputs": [
            {
              "internalType": "string",
              "name": "",
              "type": "string"
            }
          ],
          "stateMutability": "view",
          "type": "function"
        },
        {
          "inputs": [
            {
              "internalType": "uint256",
              "name": "tokenId",
              "type": "uint256"
            }
          ],
          "name": "getNeck",
          "outputs": [
            {
              "internalType": "string",
              "name": "",
              "type": "string"
            }
          ],
          "stateMutability": "view",
          "type": "function"
        },
        {
          "inputs": [
            {
              "internalType": "uint256",
              "name": "tokenId",
              "type": "uint256"
            }
          ],
          "name": "getRing",
          "outputs": [
            {
              "internalType": "string",
              "name": "",
              "type": "string"
            }
          ],
          "stateMutability": "view",
          "type": "function"
        },
        {
          "inputs": [
            {
              "internalType": "uint256",
              "name": "tokenId",
              "type": "uint256"
            }
          ],
          "name": "getWaist",
          "outputs": [
            {
              "internalType": "string",
              "name": "",
              "type": "string"
            }
          ],
          "stateMutability": "view",
          "type": "function"
        },
        {
          "inputs": [
            {
              "internalType": "uint256",
              "name": "tokenId",
              "type": "uint256"
            }
          ],
          "name": "getWeapon",
          "outputs": [
            {
              "internalType": "string",
              "name": "",
              "type": "string"
            }
          ],
          "stateMutability": "view",
          "type": "function"
        },
        {
          "inputs": [
            {
              "internalType": "address",
              "name": "owner",
              "type": "address"
            },
            {
              "internalType": "address",
              "name": "operator",
              "type": "address"
            }
          ],
          "name": "isApprovedForAll",
          "outputs": [
            {
              "internalType": "bool",
              "name": "",
              "type": "bool"
            }
          ],
          "stateMutability": "view",
          "type": "function"
        },
        {
          "inputs": [],
          "name": "name",
          "outputs": [
            {
              "internalType": "string",
              "name": "",
              "type": "string"
            }
          ],
          "stateMutability": "view",
          "type": "function"
        },
        {
          "inputs": [],
          "name": "owner",
          "outputs": [
            {
              "internalType": "address",
              "name": "",
              "type": "address"
            }
          ],
          "stateMutability": "view",
          "type": "function"
        },
        {
          "inputs": [
            {
              "internalType": "uint256",
              "name": "tokenId",
              "type": "uint256"
            }
          ],
          "name": "ownerClaim",
          "outputs": [],
          "stateMutability": "nonpayable",
          "type": "function"
        },
        {
          "inputs": [
            {
              "internalType": "uint256",
              "name": "tokenId",
              "type": "uint256"
            }
          ],
          "name": "ownerOf",
          "outputs": [
            {
              "internalType": "address",
              "name": "",
              "type": "address"
            }
          ],
          "stateMutability": "view",
          "type": "function"
        },
        {
          "inputs": [],
          "name": "renounceOwnership",
          "outputs": [],
          "stateMutability": "nonpayable",
          "type": "function"
        },
        {
          "inputs": [
            {
              "internalType": "address",
              "name": "from",
              "type": "address"
            },
            {
              "internalType": "address",
              "name": "to",
              "type": "address"
            },
            {
              "internalType": "uint256",
              "name": "tokenId",
              "type": "uint256"
            }
          ],
          "name": "safeTransferFrom",
          "outputs": [],
          "stateMutability": "nonpayable",
          "type": "function"
        },
        {
          "inputs": [
            {
              "internalType": "address",
              "name": "from",
              "type": "address"
            },
            {
              "internalType": "address",
              "name": "to",
              "type": "address"
            },
            {
              "internalType": "uint256",
              "name": "tokenId",
              "type": "uint256"
            },
            {
              "internalType": "bytes",
              "name": "_data",
              "type": "bytes"
            }
          ],
          "name": "safeTransferFrom",
          "outputs": [],
          "stateMutability": "nonpayable",
          "type": "function"
        },
        {
          "inputs": [
            {
              "internalType": "address",
              "name": "operator",
              "type": "address"
            },
            {
              "internalType": "bool",
              "name": "approved",
              "type": "bool"
            }
          ],
          "name": "setApprovalForAll",
          "outputs": [],
          "stateMutability": "nonpayable",
          "type": "function"
        },
        {
          "inputs": [
            {
              "internalType": "bytes4",
              "name": "interfaceId",
              "type": "bytes4"
            }
          ],
          "name": "supportsInterface",
          "outputs": [
            {
              "internalType": "bool",
              "name": "",
              "type": "bool"
            }
          ],
          "stateMutability": "view",
          "type": "function"
        },
        {
          "inputs": [],
          "name": "symbol",
          "outputs": [
            {
              "internalType": "string",
              "name": "",
              "type": "string"
            }
          ],
          "stateMutability": "view",
          "type": "function"
        },
        {
          "inputs": [
            {
              "internalType": "uint256",
              "name": "index",
              "type": "uint256"
            }
          ],
          "name": "tokenByIndex",
          "outputs": [
            {
              "internalType": "uint256",
              "name": "",
              "type": "uint256"
            }
          ],
          "stateMutability": "view",
          "type": "function"
        },
        {
          "inputs": [
            {
              "internalType": "address",
              "name": "owner",
              "type": "address"
            },
            {
              "internalType": "uint256",
              "name": "index",
              "type": "uint256"
            }
          ],
          "name": "tokenOfOwnerByIndex",
          "outputs": [
            {
              "internalType": "uint256",
              "name": "",
              "type": "uint256"
            }
          ],
          "stateMutability": "view",
          "type": "function"
        },
        {
          "inputs": [
            {
              "internalType": "uint256",
              "name": "tokenId",
              "type": "uint256"
            }
          ],
          "name": "tokenURI",
          "outputs": [
            {
              "internalType": "string",
              "name": "",
              "type": "string"
            }
          ],
          "stateMutability": "view",
          "type": "function"
        },
        {
          "inputs": [],
          "name": "totalSupply",
          "outputs": [
            {
              "internalType": "uint256",
              "name": "",
              "type": "uint256"
            }
          ],
          "stateMutability": "view",
          "type": "function"
        },
        {
          "inputs": [
            {
              "internalType": "address",
              "name": "from",
              "type": "address"
            },
            {
              "internalType": "address",
              "name": "to",
              "type": "address"
            },
            {
              "internalType": "uint256",
              "name": "tokenId",
              "type": "uint256"
            }
          ],
          "name": "transferFrom",
          "outputs": [],
          "stateMutability": "nonpayable",
          "type": "function"
        },
        {
          "inputs": [
            {
              "internalType": "address",
              "name": "newOwner",
              "type": "address"
            }
          ],
          "name": "transferOwnership",
          "outputs": [],
          "stateMutability": "nonpayable",
          "type": "function"
        }
      ],
      "evm": {
        "bytecode": {
          "linkReferences": {},
          "object": "60096102c0818152682bb0b93430b6b6b2b960b91b6102e0526080908152600c6103008181526b28bab0b93a32b939ba30b33360a11b6103205260a05260046103408181526313585d5b60e21b6103605260c052610380818152634d61636560e01b6103a05260e0526103c08181526321b63ab160e11b6103e052610100526006610400908152654b6174616e6160d01b61042052610120526008610440818152672330b631b434b7b760c11b61046052610140526104808181526729b1b4b6b4ba30b960c11b6104a05261016052600a6104c081815269131bdb99c814dddbdc9960b21b6104e05261018052600b6105009081526a14da1bdc9d0814dddbdc9960aa1b610520526101a0526105408181526911da1bdcdd0815d85b9960b21b610560526101c0526105809081526911dc985d994815d85b9960b21b6105a0526101e0526105c085815268109bdb994815d85b9960ba1b6105e052610200526106008281526315d85b9960e21b6106205261022052610640908152674772696d6f69726560c01b6106605261024052610680938452684368726f6e69636c6560b81b6106a052610260939093526106c083815263546f6d6560e01b6106e0526102805261074060405261070092835263426f6f6b60e01b610720526102a092909252620001ef9190601262001d2d565b506040805161022081018252600b6101e082019081526a446976696e6520526f626560a81b61020083015281528151808301835260098082526853696c6b20526f626560b81b6020838101919091528084019290925283518085018552600a808252694c696e656e20526f626560b01b8285015284860191909152845180860186526004815263526f626560e01b81850152606085015284518086018652600581526414da1a5c9d60da1b818501526080850152845180860186528181526944656d6f6e204875736b60b01b8185015260a085015284518086018652601081526f223930b3b7b739b5b4b71020b936b7b960811b8185015260c085015284518086018652601581527f53747564646564204c6561746865722041726d6f7200000000000000000000008185015260e08501528451808601865260128152712430b932102632b0ba3432b91020b936b7b960711b8185015261010085015284518086018652600d8082526c2632b0ba3432b91020b936b7b960991b8286015261012086019190915285518087018752600f8082526e486f6c79204368657374706c61746560881b828701526101408701919091528651808801885260118152704f726e617465204368657374706c61746560781b818701526101608701528651808801885283815269141b185d194813585a5b60b21b81870152610180870152865180880188529283526910da185a5b8813585a5b60b21b838601526101a0860192909252855180870190965291855268149a5b99c813585a5b60ba1b928501929092526101c08301939093526200044892919062001d91565b50604051806101e001604052806040518060400160405280600c81526020016b416e6369656e742048656c6d60a01b81525081526020016040518060400160405280600b81526020016a4f726e6174652048656c6d60a81b81525081526020016040518060400160405280600a81526020016947726561742048656c6d60b01b81525081526020016040518060400160405280600981526020016846756c6c2048656c6d60b81b81525081526020016040518060400160405280600481526020016348656c6d60e01b81525081526020016040518060400160405280600b81526020016a2232b6b7b71021b937bbb760a91b81525081526020016040518060400160405280600e81526020016d223930b3b7b713b99021b937bbb760911b8152508152602001604051806040016040528060078152602001660576172204361760cc1b81525081526020016040518060400160405280600b81526020016a04c656174686572204361760ac1b81525081526020016040518060400160405280600381526020016204361760ec1b81525081526020016040518060400160405280600581526020016421b937bbb760d91b81525081526020016040518060400160405280600b81526020016a111a5d9a5b9948121bdbd960aa1b81525081526020016040518060400160405280600981526020016814da5b1ac8121bdbd960ba1b81525081526020016040518060400160405280600a815260200169131a5b995b88121bdbd960b21b815250815260200160405180604001604052806004815260200163121bdbd960e21b815250815250600e90600f620006aa92919062001d91565b506040805161022081018252600b6101e082018181526a13dc9b985d194810995b1d60aa1b610200840152825282518084018452600881526715d85c8810995b1d60c21b60208281019190915280840191909152835180850185529182526a141b185d19590810995b1d60aa1b82820152828401919091528251808401845260098082526813595cda0810995b1d60ba1b82840152606084019190915283518085018552600a808252691219585d9e4810995b1d60b21b82850152608085019190915284518086018652600e81526d11195b5bdb9a1a59194810995b1d60921b8185015260a085015284518086018652600f8082526e111c9859dbdb9cdada5b8810995b1d608a1b8286015260c086019190915285518087018752601481527f53747564646564204c6561746865722042656c740000000000000000000000008186015260e086015285518087018752601181527012185c99081319585d1a195c8810995b1d607a1b8186015261010086015285518087018752600c81526b1319585d1a195c8810995b1d60a21b81860152610120860152855180870187528181526e084e4d2ced0e8e6d2d8d640a6c2e6d608b1b8186015261014086015285518087018752838152680a6d2d8d640a6c2e6d60bb1b8186015261016086015285518087018752928352680aededed840a6c2e6d60bb1b838501526101808501929092528451808601865290815269098d2dccadc40a6c2e6d60b31b818401526101a0840152835180850190945260048452630a6c2e6d60e31b918401919091526101c08201929092526200090191908162001d91565b506040805161022081018252600c6101e082019081526b486f6c79204772656176657360a01b610200830152815281518083018352600e81526d4f726e617465204772656176657360901b602082810191909152808301919091528251808401845260078152664772656176657360c81b818301528284015282518084018452600b8082526a436861696e20426f6f747360a81b828401526060840191909152835180850185528181526a486561767920426f6f747360a81b81840152608084015283518085018552600f8082526e44656d6f6e6869646520426f6f747360881b8285015260a08501919091528451808601865260108082526f447261676f6e736b696e20426f6f747360801b8286015260c086019190915285518087018752601581527f53747564646564204c65617468657220426f6f747300000000000000000000008186015260e086015285518087018752601281527148617264204c65617468657220426f6f747360701b8186015261010086015285518087018752600d8082526c4c65617468657220426f6f747360981b82870152610120870191909152865180880188528381526e446976696e6520536c69707065727360881b81870152610140870152865180880188529081526c53696c6b20536c69707065727360981b8186015261016086015285518087018752600a815269576f6f6c2053686f657360b01b81860152610180860152855180870187529283526a4c696e656e2053686f657360a81b838501526101a08501929092528451808601909552600585526453686f657360d81b928501929092526101c083019390935262000b6b92919062001d91565b506040805161022081018252600e6101e082018181526d486f6c79204761756e746c65747360901b610200840152825282518084018452601081526f4f726e617465204761756e746c65747360801b602082810191909152808401919091528351808501855260098152684761756e746c65747360b81b818301528385015283518085018552600c8082526b436861696e20476c6f76657360a01b828401526060850191909152845180860186528181526b486561767920476c6f76657360a01b81840152608085015284518086018652600d8082526c44656d6f6e27732048616e647360981b8285015260a086019190915285518087018752601180825270447261676f6e736b696e20476c6f76657360781b8286015260c087019190915286518088018852601681527f53747564646564204c65617468657220476c6f766573000000000000000000008186015260e087015286518088018852601381527f48617264204c65617468657220476c6f7665730000000000000000000000000081860152610100870152865180880188529485526d4c65617468657220476c6f76657360901b85850152610120860194909452855180870187529081526c446976696e6520476c6f76657360981b8184015261014085015284518086018652600b8082526a53696c6b20476c6f76657360a81b82850152610160860191909152855180870187529081526a576f6f6c20476c6f76657360a81b81840152610180850152845180860186529081526b4c696e656e20476c6f76657360a01b818301526101a084015283518085019094526006845265476c6f76657360d01b908401526101c082019290925262000de49190600f62001d91565b506040518060600160405280604051806040016040528060088152602001674e65636b6c61636560c01b815250815260200160405180604001604052806006815260200165105b5d5b195d60d21b81525081526020016040518060400160405280600781526020016614195b99185b9d60ca1b815250815250601290600362000e6f92919062001de3565b506040805160e081018252600960a0820190815268476f6c642052696e6760b81b60c0830152815281518083018352600b8082526a53696c7665722052696e6760a81b60208381019190915280840192909252835180850185529081526a42726f6e7a652052696e6760a81b818301528284015282518084018452600d8082526c506c6174696e756d2052696e6760981b828401526060840191909152835180850190945283526c546974616e69756d2052696e6760981b90830152608081019190915262000f4390601390600562001e35565b506040805161024081018252600861020082018181526737b3102837bbb2b960c11b6102208401528252825180840184526009808252686f66204769616e747360b81b6020838101919091528085019290925284518086018652908152686f6620546974616e7360b81b818301528385015283518085018552828152671bd98814dada5b1b60c21b81830152606084015283518085018552600d8082526c37b3102832b93332b1ba34b7b760991b828401526080850191909152845180860186528181526c6f66204272696c6c69616e636560981b8184015260a08501528451808601865260108082526f1bd988115b9b1a59da1d195b9b595b9d60821b8285015260c0860191909152855180870187528281526c37b310283937ba32b1ba34b7b760991b8185015260e0860152855180870187529384526737b31020b733b2b960c11b84840152610100850193909352845180860186526007808252666f66205261676560c81b8285015261012086019190915285518087018752908152666f66204675727960c81b8184015261014085015284518086018652600a808252691bd988159a5d1c9a5bdb60b21b8285015261016086019190915285518087018752908152690decc40e8d0ca408cdef60b31b8184015261018085015284518086018652600c8082526b37b3102232ba32b1ba34b7b760a11b828501526101a0860191909152855180870187529182526c37b3102932b33632b1ba34b7b760991b828401526101c0850191909152845180860190955284526b6f6620746865205477696e7360a01b908401526101e0820192909252620011a7916014919062001e87565b50604080516108e08101825260056108a082018181526441676f6e7960d81b6108c0840152825282518084018452600a8082526941706f63616c7970736560b01b60208381019190915280850192909252845180860186528181526920b936b0b3b2b23237b760b11b818401528486015284518086018652838152641099585cdd60da1b81840152606085015284518086018652600880825267084cad0cadadee8d60c31b82850152608086019190915285518087018752600680825265109b1a59da1d60d21b8286015260a08701919091528651808801885285815264109b1bdbd960da1b8186015260c0870152865180880188526007808252664272616d626c6560c81b8287015260e0880191909152875180890189526009808252684272696d73746f6e6560b81b828801526101008901919091528851808a018a5287815264109c9bdbd960da1b818801526101208901528851808a018a528281526621b0b93934b7b760c91b818801526101408901528851808a018a528181526843617461636c79736d60b81b818801526101608901528851808a018a52848152674368696d6572696360c01b818801526101808901528851808a018a5283815265436f7270736560d01b818801526101a08901528851808a018a528581526921b7b9393ab83a34b7b760b11b818801526101c08901528851808a018a52818152682230b6b730ba34b7b760b91b818801526101e08901528851808a018a5287815264088cac2e8d60db1b818801526102008901528851808a018a52878152642232b6b7b760d91b818801526102208901528851808a018a526004808252634469726560e01b828901526102408a01919091528951808b018b5284815265223930b3b7b760d11b818901526102608a01528951808b018b5288815264111c99585960da1b818901526102808a01528951808b018b5281815263446f6f6d60e01b818901526102a08a01528951808b018b52818152634475736b60e01b818901526102c08a01528951808b018b52888152644561676c6560d81b818901526102e08a01528951808b018b528581526722b6b83cb932b0b760c11b818901526103008a01528951808b018b52818152634661746560e01b818901526103208a01528951808b018b52600380825262466f6560e81b828a01526103408b01919091528a51808c018c528281526347616c6560e01b818a01526103608b01528a51808c018c528981526411da1bdd5b60da1b818a01526103808b01528a51808c018c5289815264476c6f6f6d60d81b818a01526103a08b01528a51808c018c528981526408ed8f2e0d60db1b818a01526103c08b01528a51808c018c5289815264476f6c656d60d81b818a01526103e08b01528a51808c018c52828152634772696d60e01b818a01526104008b01528a51808c018c52828152634861746560e01b818a01526104208b01528a51808c018c52898152644861766f6360d81b818a01526104408b01528a51808c018c52858152652437b737bab960d11b818a01526104608b01528a51808c018c52858152652437b93937b960d11b818a01526104808b01528a51808c018c52868152674879706e6f74696360c01b818a01526104a08b01528a51808c018c528581526525b930b5b2b760d11b818a01526104c08b01528a51808c018c5289815264098dec2e8d60db1b818a01526104e08b01528a51808c018c52838152684d61656c7374726f6d60b81b818a01526105008b01528a51808c018c5282815263135a5b9960e21b818a01526105208b01528a51808c018c52848152664d697261636c6560c81b818a01526105408b01528a51808c018c5285815265135bdc989a5960d21b818a01526105608b01528a51808c018c529586526727b13634bb34b7b760c11b868901526105808a01959095528951808b018b528281526813db9cdb185d59da1d60ba1b818901526105a08a01528951808b018b52818152632830b4b760e11b818901526105c08a01528951808b018b52600b81526a50616e64656d6f6e69756d60a81b818901526105e08a01528951808b018b52838152660a0d0decadcd2f60cb1b818901526106008a01528951808b018b5284815265506c6167756560d01b818901526106208a01528951808b018b52818152635261676560e01b818901526106408a01528951808b018b52838152665261707475726560c81b818901526106608a01528951808b018b528181526352756e6560e01b818901526106808a01528951808b018b528881526414dadd5b1b60da1b818901526106a08a01528951808b018b528581526214dbdb60ea1b818901526106c08a01528951808b018b529081526314dbdd5b60e21b818801526106e08901528851808a018a5283815265536f72726f7760d01b818801526107008901528851808a018a528381526514dc1a5c9a5d60d21b818801526107208901528851808a018a528781526453746f726d60d81b818801526107408901528851808a018a528281526615195b5c195cdd60ca1b818801526107608901528851808a018a5282815266151bdc9b595b9d60ca1b818801526107808901528851808a018a529081526856656e6765616e636560b81b818701526107a08801528751808901895281815266566963746f727960c81b818701526107c088015287518089018952868152642b34b832b960d91b818701526107e088015287518089018952918252650acdee4e8caf60d31b828601526108008701919091528651808801885291825262576f6560e81b8285015261082086019190915285518087018752938452640aee4c2e8d60db1b8484015261084085019390935284518086018652928352664c69676874277360c81b838301526108608401929092528351808501909452908352695368696d6d6572696e6760b01b9083015261088081019190915262001a1190601590604562001ed9565b506040805161028081018252600461024082018181526342616e6560e01b61026084015282528251808401845281815263149bdbdd60e21b6020828101919091528084019190915283518085018552828152634269746560e01b81830152838501528351808501855282815263536f6e6760e01b81830152606084015283518085018552828152632937b0b960e11b81830152608084015283518085018552600580825264047726173760dc1b8284015260a085019190915284518086018652600a815269125b9cdd1c9d5b595b9d60b21b8184015260c08501528451808601865283815263476c6f7760e01b8184015260e0850152845180860186526006808252652132b73232b960d11b828501526101008601919091528551808701875290815265536861646f7760d01b818401526101208501528451808601865260078152662bb434b9b832b960c91b81840152610140850152845180860186528181526414da1bdd5d60da1b81840152610160850152845180860186529081526411dc9bdddb60da1b8183015261018084015283518085018552828152632a32b0b960e11b818301526101a084015283518085018552828152635065616b60e01b818301526101c08401528351808501855282815263466f726d60e01b818301526101e084015283518085018552600381526229bab760e91b8183015261020084015283518085019094529083526326b7b7b760e11b9083015261022081019190915262001c4290601690601262001d2d565b5034801562001c5057600080fd5b50604080518082018252600981526811985ad948131bdbdd60ba1b602080830191825283518085019094526005845264119313d3d560da1b90840152815191929162001c9f9160009162001f2b565b50805162001cb590600190602084019062001f2b565b50506001600a555062001cd162001ccb62001cd7565b62001cdb565b6200207a565b3390565b600b80546001600160a01b038381166001600160a01b0319831681179093556040519116919082907f8be0079c531659141344cd1fd0a4f28419497f9722a3daafe3b4186f6b6457e090600090a35050565b82805482825590600052602060002090810192821562001d7f579160200282015b8281111562001d7f578251805162001d6e91849160209091019062001f2b565b509160200191906001019062001d4e565b5062001d8d92915062001fb6565b5090565b82805482825590600052602060002090810192821562001d7f579160200282015b8281111562001d7f578251805162001dd291849160209091019062001f2b565b509160200191906001019062001db2565b82805482825590600052602060002090810192821562001d7f579160200282015b8281111562001d7f578251805162001e2491849160209091019062001f2b565b509160200191906001019062001e04565b82805482825590600052602060002090810192821562001d7f579160200282015b8281111562001d7f578251805162001e7691849160209091019062001f2b565b509160200191906001019062001e56565b82805482825590600052602060002090810192821562001d7f579160200282015b8281111562001d7f578251805162001ec891849160209091019062001f2b565b509160200191906001019062001ea8565b82805482825590600052602060002090810192821562001d7f579160200282015b8281111562001d7f578251805162001f1a91849160209091019062001f2b565b509160200191906001019062001efa565b82805462001f399062002033565b90600052602060002090601f01602090048101928262001f5d576000855562001fa8565b82601f1062001f7857805160ff191683800117855562001fa8565b8280016001018555821562001fa8579182015b8281111562001fa857825182559160200191906001019062001f8b565b5062001d8d92915062001fd7565b8082111562001d8d57600062001fcd828262001fee565b5060010162001fb6565b5b8082111562001d8d576000815560010162001fd8565b50805462001ffc9062002033565b6000825580601f1062002010575062002030565b601f01602090049060005260206000209081019062002030919062001fd7565b50565b6002810460018216806200204857607f821691505b602082108114156200205e576200205e62002064565b50919050565b634e487b7160e01b600052602260045260246000fd5b613622806200208a6000396000f3fe608060405234801561001057600080fd5b50600436106101cf5760003560e01c806370a0823111610104578063a22cb465116100a2578063d47f269e11610071578063d47f269e146103b7578063e985e9c5146103ca578063ef68075a146103dd578063f2fde38b146103f0576101cf565b8063a22cb4651461036b578063b88d4fde1461037e578063c08a5dd514610391578063c87b56dd146103a4576101cf565b806395d89b41116100de57806395d89b411461032a5780639720c969146103325780639bdc1b69146103455780639e41b73f14610358576101cf565b806370a0823114610307578063715018a61461031a5780638da5cb5b14610322576101cf565b80632f745c5911610171578063434f48c41161014b578063434f48c4146102bb5780634f6ccce7146102ce5780636352211e146102e157806367209aa8146102f4576101cf565b80632f745c5914610282578063379607f51461029557806342842e0e146102a8576101cf565b8063095ea7b3116101ad578063095ea7b3146102325780630e99990d1461024757806318160ddd1461025a57806323b872dd1461026f576101cf565b806301ffc9a7146101d457806306fdde03146101fd578063081812fc14610212575b600080fd5b6101e76101e23660046124c0565b610403565b6040516101f49190612f9c565b60405180910390f35b610205610430565b6040516101f49190612faa565b6102256102203660046124fc565b6104c2565b6040516101f49190612f4a565b610245610240366004612490565b61050e565b005b6102056102553660046124fc565b6105a6565b6102626106a0565b6040516101f491906130eb565b61024561027d36600461239a565b6106a6565b610262610290366004612490565b6106de565b6102456102a33660046124fc565b610733565b6102456102b636600461239a565b6107a0565b6102456102c93660046124fc565b6107bb565b6102626102dc3660046124fc565b61085b565b6102256102ef3660046124fc565b6108b6565b6102056103023660046124fc565b6108eb565b610262610315366004612342565b6109dc565b610245610a20565b610225610a6b565b610205610a7a565b6102056103403660046124fc565b610a89565b6102056103533660046124fc565b610b7a565b6102056103663660046124fc565b610c6c565b610245610379366004612460565b610d5f565b61024561038c3660046123e7565b610e2d565b61020561039f3660046124fc565b610e6c565b6102056103b23660046124fc565b610f5d565b6102056103c53660046124fc565b611205565b6101e76103d8366004612360565b6112f6565b6102056103eb3660046124fc565b611324565b6102456103fe366004612342565b611416565b60006001600160e01b0319821663780e9d6360e01b1480610428575061042882611487565b90505b919050565b60606000805461043f90613285565b80601f016020809104026020016040519081016040528092919081815260200182805461046b90613285565b80156104b85780601f1061048d576101008083540402835291602001916104b8565b820191906000526020600020905b81548152906001019060200180831161049b57829003601f168201915b5050505050905090565b60006104cd826114c7565b6104f25760405162461bcd60e51b81526004016104e99061306b565b60405180910390fd5b506000908152600460205260409020546001600160a01b031690565b6000610519826108b6565b9050806001600160a01b0316836001600160a01b0316141561054d5760405162461bcd60e51b81526004016104e9906130ab565b806001600160a01b031661055f6114e4565b6001600160a01b0316148061057b575061057b816103d86114e4565b6105975760405162461bcd60e51b81526004016104e99061302b565b6105a183836114e8565b505050565b606061042882604051806040016040528060048152602001631193d3d560e21b8152506010805480602002602001604051908101604052809291908181526020016000905b8282101561069757838290600052602060002001805461060a90613285565b80601f016020809104026020016040519081016040528092919081815260200182805461063690613285565b80156106835780601f1061065857610100808354040283529160200191610683565b820191906000526020600020905b81548152906001019060200180831161066657829003601f168201915b5050505050815260200190600101906105eb565b50505050611556565b60085490565b6106b76106b16114e4565b82611883565b6106d35760405162461bcd60e51b81526004016104e9906130bb565b6105a1838383611908565b60006106e9836109dc565b82106107075760405162461bcd60e51b81526004016104e990612fbb565b506001600160a01b03821660009081526006602090815260408083208484529091529020545b92915050565b6002600a5414156107565760405162461bcd60e51b81526004016104e9906130db565b6002600a55801580159061076b5750611e6281105b6107875760405162461bcd60e51b81526004016104e99061308b565b6107986107926114e4565b82611a35565b506001600a55565b6105a183838360405180602001604052806000815250610e2d565b6002600a5414156107de5760405162461bcd60e51b81526004016104e9906130db565b6002600a556107eb6114e4565b6001600160a01b03166107fc610a6b565b6001600160a01b0316146108225760405162461bcd60e51b81526004016104e99061307b565b611e61811180156108345750611f4181105b6108505760405162461bcd60e51b81526004016104e99061308b565b610798610792610a6b565b60006108656106a0565b82106108835760405162461bcd60e51b81526004016104e9906130cb565b600882815481106108a457634e487b7160e01b600052603260045260246000fd5b90600052602060002001549050919050565b6000818152600260205260408120546001600160a01b0316806104285760405162461bcd60e51b81526004016104e99061304b565b606061042882604051806040016040528060048152602001634e45434b60e01b8152506012805480602002602001604051908101604052809291908181526020016000905b8282101561069757838290600052602060002001805461094f90613285565b80601f016020809104026020016040519081016040528092919081815260200182805461097b90613285565b80156109c85780601f1061099d576101008083540402835291602001916109c8565b820191906000526020600020905b8154815290600101906020018083116109ab57829003601f168201915b505050505081526020019060010190610930565b60006001600160a01b038216610a045760405162461bcd60e51b81526004016104e99061303b565b506001600160a01b031660009081526003602052604090205490565b610a286114e4565b6001600160a01b0316610a39610a6b565b6001600160a01b031614610a5f5760405162461bcd60e51b81526004016104e99061307b565b610a696000611a53565b565b600b546001600160a01b031690565b60606001805461043f90613285565b606061042882604051806040016040528060048152602001631211505160e21b815250600e805480602002602001604051908101604052809291908181526020016000905b82821015610697578382906000526020600020018054610aed90613285565b80601f0160208091040260200160405190810160405280929190818152602001828054610b1990613285565b8015610b665780601f10610b3b57610100808354040283529160200191610b66565b820191906000526020600020905b815481529060010190602001808311610b4957829003601f168201915b505050505081526020019060010190610ace565b6060610428826040518060400160405280600581526020016415d05254d560da1b815250600f805480602002602001604051908101604052809291908181526020016000905b82821015610697578382906000526020600020018054610bdf90613285565b80601f0160208091040260200160405190810160405280929190818152602001828054610c0b90613285565b8015610c585780601f10610c2d57610100808354040283529160200191610c58565b820191906000526020600020905b815481529060010190602001808311610c3b57829003601f168201915b505050505081526020019060010190610bc0565b606061042882604051806040016040528060068152602001652ba2a0a827a760d11b815250600c805480602002602001604051908101604052809291908181526020016000905b82821015610697578382906000526020600020018054610cd290613285565b80601f0160208091040260200160405190810160405280929190818152602001828054610cfe90613285565b8015610d4b5780601f10610d2057610100808354040283529160200191610d4b565b820191906000526020600020905b815481529060010190602001808311610d2e57829003601f168201915b505050505081526020019060010190610cb3565b610d676114e4565b6001600160a01b0316826001600160a01b03161415610d985760405162461bcd60e51b81526004016104e99061300b565b8060056000610da56114e4565b6001600160a01b03908116825260208083019390935260409182016000908120918716808252919093529120805460ff191692151592909217909155610de96114e4565b6001600160a01b03167f17307eab39ab6107e8899845ad3d59bd9653f200f220920489ca2b5937696c3183604051610e219190612f9c565b60405180910390a35050565b610e3e610e386114e4565b83611883565b610e5a5760405162461bcd60e51b81526004016104e9906130bb565b610e6684848484611aa5565b50505050565b6060610428826040518060400160405280600481526020016352494e4760e01b8152506013805480602002602001604051908101604052809291908181526020016000905b82821015610697578382906000526020600020018054610ed090613285565b80601f0160208091040260200160405190810160405280929190818152602001828054610efc90613285565b8015610f495780601f10610f1e57610100808354040283529160200191610f49565b820191906000526020600020905b815481529060010190602001808311610f2c57829003601f168201915b505050505081526020019060010190610eb1565b6060610f6761226b565b60405180610120016040528060fd815260200161345f60fd91398152610f8c83610c6c565b81600160200201819052506040518060600160405280602881526020016135c5602891396040820152610fbe83611324565b606080830191909152604080519182019052602880825261339460208301396080820152610feb83610a89565b60a08201526040805160608101909152602880825261340e602083013960c082015261101683610b7a565b60e0820152604080516060810190915260298082526134366020830139610100820152611042836105a6565b610120820152604080516060810190915260298082526133e5602083013961014082015261106f83611205565b6101608201526040805160608101909152602980825261355c602083013961018082015261109c836108eb565b6101a0820152604080516060810190915260298082526133bc60208301396101c08201526110c983610e6c565b6101e0820152604080518082018252600d81526c1e17ba32bc3a1f1e17b9bb339f60991b602080830191909152610200840191909152825181840151838501516060860151608087015160a088015160c089015160e08a01516101008b0151995160009a6111399a909101612dbe565b60408051808303601f19018152908290526101208401516101408501516101608601516101808701516101a08801516101c08901516101e08a01516102008b015197995061118c988a9890602001612dbe565b604051602081830303815290604052905060006111d96111ab86611ad8565b6111b484611bf3565b6040516020016111c5929190612efa565b604051602081830303815290604052611bf3565b9050806040516020016111ec9190612f33565b60408051808303601f1901815291905295945050505050565b606061042882604051806040016040528060048152602001631210539160e21b8152506011805480602002602001604051908101604052809291908181526020016000905b8282101561069757838290600052602060002001805461126990613285565b80601f016020809104026020016040519081016040528092919081815260200182805461129590613285565b80156112e25780601f106112b7576101008083540402835291602001916112e2565b820191906000526020600020905b8154815290600101906020018083116112c557829003601f168201915b50505050508152602001906001019061124a565b6001600160a01b03918216600090815260056020908152604080832093909416825291909152205460ff1690565b6060610428826040518060400160405280600581526020016410d21154d560da1b815250600d805480602002602001604051908101604052809291908181526020016000905b8282101561069757838290600052602060002001805461138990613285565b80601f01602080910402602001604051908101604052809291908181526020018280546113b590613285565b80156114025780601f106113d757610100808354040283529160200191611402565b820191906000526020600020905b8154815290600101906020018083116113e557829003601f168201915b50505050508152602001906001019061136a565b61141e6114e4565b6001600160a01b031661142f610a6b565b6001600160a01b0316146114555760405162461bcd60e51b81526004016104e99061307b565b6001600160a01b03811661147b5760405162461bcd60e51b81526004016104e990612fdb565b61148481611a53565b50565b60006001600160e01b031982166380ac58cd60e01b14806114b857506001600160e01b03198216635b5e139f60e01b145b80610428575061042882611d67565b6000908152600260205260409020546001600160a01b0316151590565b3390565b600081815260046020526040902080546001600160a01b0319166001600160a01b038416908117909155819061151d826108b6565b6001600160a01b03167f8c5be1e5ebec7d5bd14f71427d1e84f3dd0314c0f7b2291e5b200ac8c7c3b92560405160405180910390a45050565b6060600061158c8461156787611ad8565b604051602001611578929190612da6565b604051602081830303815290604052611d80565b905060008384518361159e91906132d8565b815181106115bc57634e487b7160e01b600052603260045260246000fd5b6020026020010151905060006015836115d591906132d8565b9050600e81111561163c57601480548391906115f190866132d8565b8154811061160f57634e487b7160e01b600052603260045260246000fd5b9060005260206000200160405160200161162a929190612e39565b60405160208183030381529060405291505b601381106118795761164c612293565b6015805461165a90866132d8565b8154811061167857634e487b7160e01b600052603260045260246000fd5b90600052602060002001805461168d90613285565b80601f01602080910402602001604051908101604052809291908181526020018280546116b990613285565b80156117065780601f106116db57610100808354040283529160200191611706565b820191906000526020600020905b8154815290600101906020018083116116e957829003601f168201915b50505050508160006002811061172c57634e487b7160e01b600052603260045260246000fd5b60200201526016805461173f90866132d8565b8154811061175d57634e487b7160e01b600052603260045260246000fd5b90600052602060002001805461177290613285565b80601f016020809104026020016040519081016040528092919081815260200182805461179e90613285565b80156117eb5780601f106117c0576101008083540402835291602001916117eb565b820191906000526020600020905b8154815290600101906020018083116117ce57829003601f168201915b50505050508160016002811061181157634e487b7160e01b600052603260045260246000fd5b6020020152601382141561184d5780516020808301516040516118379392879101612e5c565b6040516020818303038152906040529250611877565b80516020808301516040516118659392879101612eaa565b60405160208183030381529060405292505b505b5095945050505050565b600061188e826114c7565b6118aa5760405162461bcd60e51b81526004016104e99061301b565b60006118b5836108b6565b9050806001600160a01b0316846001600160a01b031614806118f05750836001600160a01b03166118e5846104c2565b6001600160a01b0316145b80611900575061190081856112f6565b949350505050565b826001600160a01b031661191b826108b6565b6001600160a01b0316146119415760405162461bcd60e51b81526004016104e99061309b565b6001600160a01b0382166119675760405162461bcd60e51b81526004016104e990612ffb565b611972838383611db1565b61197d6000826114e8565b6001600160a01b03831660009081526003602052604081208054600192906119a69084906131f4565b90915550506001600160a01b03821660009081526003602052604081208054600192906119d4908490613167565b909155505060008181526002602052604080822080546001600160a01b0319166001600160a01b0386811691821790925591518493918716917fddf252ad1be2c89b69c2b068fc378daa952ba7f163c4a11628f55a4df523b3ef91a4505050565b611a4f828260405180602001604052806000815250611e3a565b5050565b600b80546001600160a01b038381166001600160a01b0319831681179093556040519116919082907f8be0079c531659141344cd1fd0a4f28419497f9722a3daafe3b4186f6b6457e090600090a35050565b611ab0848484611908565b611abc84848484611e6d565b610e665760405162461bcd60e51b81526004016104e990612fcb565b606081611afd57506040805180820190915260018152600360fc1b602082015261042b565b8160005b8115611b275780611b11816132b2565b9150611b209050600a83613195565b9150611b01565b60008167ffffffffffffffff811115611b5057634e487b7160e01b600052604160045260246000fd5b6040519080825280601f01601f191660200182016040528015611b7a576020820181803683370190505b5090505b841561190057611b8f6001836131f4565b9150611b9c600a866132d8565b611ba7906030613167565b60f81b818381518110611bca57634e487b7160e01b600052603260045260246000fd5b60200101906001600160f81b031916908160001a905350611bec600a86613195565b9450611b7e565b805160609080611c1357505060408051602081019091526000815261042b565b60006003611c22836002613167565b611c2c9190613195565b611c379060046131bf565b90506000611c46826020613167565b67ffffffffffffffff811115611c6c57634e487b7160e01b600052604160045260246000fd5b6040519080825280601f01601f191660200182016040528015611c96576020820181803683370190505b5090506000604051806060016040528060408152602001613585604091399050600181016020830160005b86811015611d22576003818a01810151603f601282901c8116860151600c83901c8216870151600684901c831688015192909316870151600891821b60ff94851601821b92841692909201901b91160160e01b835260049092019101611cc1565b506003860660018114611d3c5760028114611d4d57611d59565b613d3d60f01b600119830152611d59565b603d60f81b6000198301525b505050918152949350505050565b6001600160e01b031981166301ffc9a760e01b14919050565b600081604051602001611d939190612d93565b60408051601f19818403018152919052805160209091012092915050565b611dbc8383836105a1565b6001600160a01b038316611dd857611dd381611f88565b611dfb565b816001600160a01b0316836001600160a01b031614611dfb57611dfb8382611fcc565b6001600160a01b038216611e1757611e1281612069565b6105a1565b826001600160a01b0316826001600160a01b0316146105a1576105a18282612142565b611e448383612186565b611e516000848484611e6d565b6105a15760405162461bcd60e51b81526004016104e990612fcb565b6000611e81846001600160a01b0316612265565b15611f7d57836001600160a01b031663150b7a02611e9d6114e4565b8786866040518563ffffffff1660e01b8152600401611ebf9493929190612f58565b602060405180830381600087803b158015611ed957600080fd5b505af1925050508015611f09575060408051601f3d908101601f19168201909252611f06918101906124de565b60015b611f63573d808015611f37576040519150601f19603f3d011682016040523d82523d6000602084013e611f3c565b606091505b508051611f5b5760405162461bcd60e51b81526004016104e990612fcb565b805181602001fd5b6001600160e01b031916630a85bd0160e11b149050611900565b506001949350505050565b600880546000838152600960205260408120829055600182018355919091527ff3f7a9fe364faab93b216da50a3214154f22a0a2b415b23a84c8169e8b636ee30155565b60006001611fd9846109dc565b611fe391906131f4565b600083815260076020526040902054909150808214612036576001600160a01b03841660009081526006602090815260408083208584528252808320548484528184208190558352600790915290208190555b5060009182526007602090815260408084208490556001600160a01b039094168352600681528383209183525290812055565b60085460009061207b906001906131f4565b600083815260096020526040812054600880549394509092849081106120b157634e487b7160e01b600052603260045260246000fd5b9060005260206000200154905080600883815481106120e057634e487b7160e01b600052603260045260246000fd5b600091825260208083209091019290925582815260099091526040808220849055858252812055600880548061212657634e487b7160e01b600052603160045260246000fd5b6001900381819060005260206000200160009055905550505050565b600061214d836109dc565b6001600160a01b039093166000908152600660209081526040808320868452825280832085905593825260079052919091209190915550565b6001600160a01b0382166121ac5760405162461bcd60e51b81526004016104e99061305b565b6121b5816114c7565b156121d25760405162461bcd60e51b81526004016104e990612feb565b6121de60008383611db1565b6001600160a01b0382166000908152600360205260408120805460019290612207908490613167565b909155505060008181526002602052604080822080546001600160a01b0319166001600160a01b03861690811790915590518392907fddf252ad1be2c89b69c2b068fc378daa952ba7f163c4a11628f55a4df523b3ef908290a45050565b3b151590565b6040518061022001604052806011905b606081526020019060019003908161227b5790505090565b604080518082019091526060815260016020820161227b565b60006122bf6122ba84613123565b6130f9565b9050828152602081018484840111156122d757600080fd5b6122e284828561324d565b509392505050565b803561072d81613364565b803561072d81613378565b803561072d81613381565b805161072d81613381565b600082601f83011261232757600080fd5b81356119008482602086016122ac565b803561072d8161338a565b60006020828403121561235457600080fd5b600061190084846122ea565b6000806040838503121561237357600080fd5b600061237f85856122ea565b9250506020612390858286016122ea565b9150509250929050565b6000806000606084860312156123af57600080fd5b60006123bb86866122ea565b93505060206123cc868287016122ea565b92505060406123dd86828701612337565b9150509250925092565b600080600080608085870312156123fd57600080fd5b600061240987876122ea565b945050602061241a878288016122ea565b935050604061242b87828801612337565b925050606085013567ffffffffffffffff81111561244857600080fd5b61245487828801612316565b91505092959194509250565b6000806040838503121561247357600080fd5b600061247f85856122ea565b9250506020612390858286016122f5565b600080604083850312156124a357600080fd5b60006124af85856122ea565b925050602061239085828601612337565b6000602082840312156124d257600080fd5b60006119008484612300565b6000602082840312156124f057600080fd5b6000611900848461230b565b60006020828403121561250e57600080fd5b60006119008484612337565b61252381613221565b82525050565b6125238161322c565b600061253d8261315a565b612547818561315e565b9350612557818560208601613259565b6125608161335a565b9093019392505050565b60006125758261315a565b61257f818561042b565b935061258f818560208601613259565b9290920192915050565b600081546125a681613285565b6125b0818661042b565b94506001821680156125c957600181146125da5761260a565b60ff1983168652818601935061260a565b6125e38561314e565b60005b83811015612602578154888201526001909101906020016125e6565b838801955050505b50505092915050565b6000612620602b8361315e565b7f455243373231456e756d657261626c653a206f776e657220696e646578206f7581526a74206f6620626f756e647360a81b602082015260400192915050565b600061266d60328361315e565b7f4552433732313a207472616e7366657220746f206e6f6e20455243373231526581527131b2b4bb32b91034b6b83632b6b2b73a32b960711b602082015260400192915050565b60006126c160268361315e565b7f4f776e61626c653a206e6577206f776e657220697320746865207a65726f206181526564647265737360d01b602082015260400192915050565b6000612709601c8361315e565b7f4552433732313a20746f6b656e20616c7265616479206d696e74656400000000815260200192915050565b600061274260248361315e565b7f4552433732313a207472616e7366657220746f20746865207a65726f206164648152637265737360e01b602082015260400192915050565b600061278860198361315e565b7f4552433732313a20617070726f766520746f2063616c6c657200000000000000815260200192915050565b60006127c160028361042b565b61011160f51b815260020192915050565b60006127df602c8361315e565b7f4552433732313a206f70657261746f7220717565727920666f72206e6f6e657881526b34b9ba32b73a103a37b5b2b760a11b602082015260400192915050565b600061282d60018361042b565b600160fd1b815260010192915050565b600061284a60388361315e565b7f4552433732313a20617070726f76652063616c6c6572206973206e6f74206f7781527f6e6572206e6f7220617070726f76656420666f7220616c6c0000000000000000602082015260400192915050565b60006128a960018361042b565b601160f91b815260010192915050565b60006128c6602a8361315e565b7f4552433732313a2062616c616e636520717565727920666f7220746865207a65815269726f206164647265737360b01b602082015260400192915050565b600061291260298361315e565b7f4552433732313a206f776e657220717565727920666f72206e6f6e657869737481526832b73a103a37b5b2b760b91b602082015260400192915050565b600061295d60028361042b565b61227d60f01b815260020192915050565b600061297b600f8361042b565b6e7b226e616d65223a2022426167202360881b8152600f0192915050565b60006129a660208361315e565b7f4552433732313a206d696e7420746f20746865207a65726f2061646472657373815260200192915050565b60006129df602c8361315e565b7f4552433732313a20617070726f76656420717565727920666f72206e6f6e657881526b34b9ba32b73a103a37b5b2b760a11b602082015260400192915050565b6000612a2d60208361315e565b7f4f776e61626c653a2063616c6c6572206973206e6f7420746865206f776e6572815260200192915050565b6000612a6660108361315e565b6f151bdad95b881251081a5b9d985b1a5960821b815260200192915050565b6000612a9260298361315e565b7f4552433732313a207472616e73666572206f6620746f6b656e2074686174206981526839903737ba1037bbb760b91b602082015260400192915050565b6000612ade6101008361042b565b7f222c20226465736372697074696f6e223a20224c6f6f742069732072616e646f81527f6d697a656420616476656e747572657220676561722067656e6572617465642060208201527f616e642073746f726564206f6e20636861696e2e2053746174732c20696d616760408201527f65732c20616e64206f746865722066756e6374696f6e616c697479206172652060608201527f696e74656e74696f6e616c6c79206f6d697474656420666f72206f746865727360808201527f20746f20696e746572707265742e204665656c206672656520746f207573652060a08201527f4c6f6f7420696e20616e792077617920796f752077616e742e222c2022696d6160c08201527f6765223a2022646174613a696d6167652f7376672b786d6c3b6261736536342c60e08201526101000192915050565b6000612c2260218361315e565b7f4552433732313a20617070726f76616c20746f2063757272656e74206f776e658152603960f91b602082015260400192915050565b6000612c65601d8361042b565b7f646174613a6170706c69636174696f6e2f6a736f6e3b6261736536342c0000008152601d0192915050565b6000612c9e60038361042b565b62202b3160e81b815260030192915050565b6000612cbd60318361315e565b7f4552433732313a207472616e736665722063616c6c6572206973206e6f74206f8152701ddb995c881b9bdc88185c1c1c9bdd9959607a1b602082015260400192915050565b6000612d10602c8361315e565b7f455243373231456e756d657261626c653a20676c6f62616c20696e646578206f81526b7574206f6620626f756e647360a01b602082015260400192915050565b6000612d5e601f8361315e565b7f5265656e7472616e637947756172643a207265656e7472616e742063616c6c00815260200192915050565b6125238161324a565b6000612d9f828461256a565b9392505050565b6000612db2828561256a565b9150611900828461256a565b6000612dca828c61256a565b9150612dd6828b61256a565b9150612de2828a61256a565b9150612dee828961256a565b9150612dfa828861256a565b9150612e06828761256a565b9150612e12828661256a565b9150612e1e828561256a565b9150612e2a828461256a565b9b9a5050505050505050505050565b6000612e45828561256a565b9150612e5082612820565b91506119008284612599565b6000612e678261289c565b9150612e73828661256a565b9150612e7e82612820565b9150612e8a828561256a565b9150612e95826127b4565b9150612ea1828461256a565b95945050505050565b6000612eb58261289c565b9150612ec1828661256a565b9150612ecc82612820565b9150612ed8828561256a565b9150612ee3826127b4565b9150612eef828461256a565b9150612ea182612c91565b6000612f058261296e565b9150612f11828561256a565b9150612f1c82612ad0565b9150612f28828461256a565b915061190082612950565b6000612f3e82612c58565b9150612d9f828461256a565b6020810161072d828461251a565b60808101612f66828761251a565b612f73602083018661251a565b612f806040830185612d8a565b8181036060830152612f928184612532565b9695505050505050565b6020810161072d8284612529565b60208082528101612d9f8184612532565b6020808252810161042881612613565b6020808252810161042881612660565b60208082528101610428816126b4565b60208082528101610428816126fc565b6020808252810161042881612735565b602080825281016104288161277b565b60208082528101610428816127d2565b602080825281016104288161283d565b60208082528101610428816128b9565b6020808252810161042881612905565b6020808252810161042881612999565b60208082528101610428816129d2565b6020808252810161042881612a20565b6020808252810161042881612a59565b6020808252810161042881612a85565b6020808252810161042881612c15565b6020808252810161042881612cb0565b6020808252810161042881612d03565b6020808252810161042881612d51565b6020810161072d8284612d8a565b60405181810167ffffffffffffffff8111828210171561311b5761311b613344565b604052919050565b600067ffffffffffffffff82111561313d5761313d613344565b506020601f91909101601f19160190565b60009081526020902090565b5190565b90815260200190565b60006131728261324a565b915061317d8361324a565b9250821982111561319057613190613302565b500190565b60006131a08261324a565b91506131ab8361324a565b9250826131ba576131ba613318565b500490565b60006131ca8261324a565b91506131d58361324a565b92508160001904831182151516156131ef576131ef613302565b500290565b60006131ff8261324a565b915061320a8361324a565b92508282101561321c5761321c613302565b500390565b60006104288261323e565b151590565b6001600160e01b03191690565b6001600160a01b031690565b90565b82818337506000910152565b60005b8381101561327457818101518382015260200161325c565b83811115610e665750506000910152565b60028104600182168061329957607f821691505b602082108114156132ac576132ac61332e565b50919050565b60006132bd8261324a565b91506000198214156132d1576132d1613302565b5060010190565b60006132e38261324a565b91506132ee8361324a565b9250826132fd576132fd613318565b500690565b634e487b7160e01b600052601160045260246000fd5b634e487b7160e01b600052601260045260246000fd5b634e487b7160e01b600052602260045260246000fd5b634e487b7160e01b600052604160045260246000fd5b601f01601f191690565b61336d81613221565b811461148457600080fd5b61336d8161322c565b61336d81613231565b61336d8161324a56fe3c2f746578743e3c7465787420783d2231302220793d2236302220636c6173733d2262617365223e3c2f746578743e3c7465787420783d2231302220793d223136302220636c6173733d2262617365223e3c2f746578743e3c7465787420783d2231302220793d223132302220636c6173733d2262617365223e3c2f746578743e3c7465787420783d2231302220793d2238302220636c6173733d2262617365223e3c2f746578743e3c7465787420783d2231302220793d223130302220636c6173733d2262617365223e3c73766720786d6c6e733d22687474703a2f2f7777772e77332e6f72672f323030302f73766722207072657365727665417370656374526174696f3d22784d696e594d696e206d656574222076696577426f783d223020302033353020333530223e3c7374796c653e2e62617365207b2066696c6c3a2077686974653b20666f6e742d66616d696c793a2073657269663b20666f6e742d73697a653a20313470783b207d3c2f7374796c653e3c726563742077696474683d223130302522206865696768743d2231303025222066696c6c3d22626c61636b22202f3e3c7465787420783d2231302220793d2232302220636c6173733d2262617365223e3c2f746578743e3c7465787420783d2231302220793d223134302220636c6173733d2262617365223e4142434445464748494a4b4c4d4e4f505152535455565758595a6162636465666768696a6b6c6d6e6f707172737475767778797a303132333435363738392b2f3c2f746578743e3c7465787420783d2231302220793d2234302220636c6173733d2262617365223ea2646970667358221220e5ae0831b14ab63b8dc6286576ab06f670862dd1c70a4a44da040470a9eded4564736f6c63430008000033",
          "opcodes": "PUSH1 0x9 PUSH2 0x2C0 DUP2 DUP2 MSTORE PUSH9 0x2BB0B93430B6B6B2B9 PUSH1 0xB9 SHL PUSH2 0x2E0 MSTORE PUSH1 0x80 SWAP1 DUP2 MSTORE PUSH1 0xC PUSH2 0x300 DUP2 DUP2 MSTORE PUSH12 0x28BAB0B93A32B939BA30B333 PUSH1 0xA1 SHL PUSH2 0x320 MSTORE PUSH1 0xA0 MSTORE PUSH1 0x4 PUSH2 0x340 DUP2 DUP2 MSTORE PUSH4 0x13585D5B PUSH1 0xE2 SHL PUSH2 0x360 MSTORE PUSH1 0xC0 MSTORE PUSH2 0x380 DUP2 DUP2 MSTORE PUSH4 0x4D616365 PUSH1 0xE0 SHL PUSH2 0x3A0 MSTORE PUSH1 0xE0 MSTORE PUSH2 0x3C0 DUP2 DUP2 MSTORE PUSH4 0x21B63AB1 PUSH1 0xE1 SHL PUSH2 0x3E0 MSTORE PUSH2 0x100 MSTORE PUSH1 0x6 PUSH2 0x400 SWAP1 DUP2 MSTORE PUSH6 0x4B6174616E61 PUSH1 0xD0 SHL PUSH2 0x420 MSTORE PUSH2 0x120 MSTORE PUSH1 0x8 PUSH2 0x440 DUP2 DUP2 MSTORE PUSH8 0x2330B631B434B7B7 PUSH1 0xC1 SHL PUSH2 0x460 MSTORE PUSH2 0x140 MSTORE PUSH2 0x480 DUP2 DUP2 MSTORE PUSH8 0x29B1B4B6B4BA30B9 PUSH1 0xC1 SHL PUSH2 0x4A0 MSTORE PUSH2 0x160 MSTORE PUSH1 0xA PUSH2 0x4C0 DUP2 DUP2 MSTORE PUSH10 0x131BDB99C814DDDBDC99 PUSH1 0xB2 SHL PUSH2 0x4E0 MSTORE PUSH2 0x180 MSTORE PUSH1 0xB PUSH2 0x500 SWAP1 DUP2 MSTORE PUSH11 0x14DA1BDC9D0814DDDBDC99 PUSH1 0xAA SHL PUSH2 0x520 MSTORE PUSH2 0x1A0 MSTORE PUSH2 0x540 DUP2 DUP2 MSTORE PUSH10 0x11DA1BDCDD0815D85B99 PUSH1 0xB2 SHL PUSH2 0x560 MSTORE PUSH2 0x1C0 MSTORE PUSH2 0x580 SWAP1 DUP2 MSTORE PUSH10 0x11DC985D994815D85B99 PUSH1 0xB2 SHL PUSH2 0x5A0 MSTORE PUSH2 0x1E0 MSTORE PUSH2 0x5C0 DUP6 DUP2 MSTORE PUSH9 0x109BDB994815D85B99 PUSH1 0xBA SHL PUSH2 0x5E0 MSTORE PUSH2 0x200 MSTORE PUSH2 0x600 DUP3 DUP2 MSTORE PUSH4 0x15D85B99 PUSH1 0xE2 SHL PUSH2 0x620 MSTORE PUSH2 0x220 MSTORE PUSH2 0x640 SWAP1 DUP2 MSTORE PUSH8 0x4772696D6F697265 PUSH1 0xC0 SHL PUSH2 0x660 MSTORE PUSH2 0x240 MSTORE PUSH2 0x680 SWAP4 DUP5 MSTORE PUSH9 0x4368726F6E69636C65 PUSH1 0xB8 SHL PUSH2 0x6A0 MSTORE PUSH2 0x260 SWAP4 SWAP1 SWAP4 MSTORE PUSH2 0x6C0 DUP4 DUP2 MSTORE PUSH4 0x546F6D65 PUSH1 0xE0 SHL PUSH2 0x6E0 MSTORE PUSH2 0x280 MSTORE PUSH2 0x740 PUSH1 0x40 MSTORE PUSH2 0x700 SWAP3 DUP4 MSTORE PUSH4 0x426F6F6B PUSH1 0xE0 SHL PUSH2 0x720 MSTORE PUSH2 0x2A0 SWAP3 SWAP1 SWAP3 MSTORE PUSH3 0x1EF SWAP2 SWAP1 PUSH1 0x12 PUSH3 0x1D2D JUMP JUMPDEST POP PUSH1 0x40 DUP1 MLOAD PUSH2 0x220 DUP2 ADD DUP3 MSTORE PUSH1 0xB PUSH2 0x1E0 DUP3 ADD SWAP1 DUP2 MSTORE PUSH11 0x446976696E6520526F6265 PUSH1 0xA8 SHL PUSH2 0x200 DUP4 ADD MSTORE DUP2 MSTORE DUP2 MLOAD DUP1 DUP4 ADD DUP4 MSTORE PUSH1 0x9 DUP1 DUP3 MSTORE PUSH9 0x53696C6B20526F6265 PUSH1 0xB8 SHL PUSH1 0x20 DUP4 DUP2 ADD SWAP2 SWAP1 SWAP2 MSTORE DUP1 DUP5 ADD SWAP3 SWAP1 SWAP3 MSTORE DUP4 MLOAD DUP1 DUP6 ADD DUP6 MSTORE PUSH1 0xA DUP1 DUP3 MSTORE PUSH10 0x4C696E656E20526F6265 PUSH1 0xB0 SHL DUP3 DUP6 ADD MSTORE DUP5 DUP7 ADD SWAP2 SWAP1 SWAP2 MSTORE DUP5 MLOAD DUP1 DUP7 ADD DUP7 MSTORE PUSH1 0x4 DUP2 MSTORE PUSH4 0x526F6265 PUSH1 0xE0 SHL DUP2 DUP6 ADD MSTORE PUSH1 0x60 DUP6 ADD MSTORE DUP5 MLOAD DUP1 DUP7 ADD DUP7 MSTORE PUSH1 0x5 DUP2 MSTORE PUSH5 0x14DA1A5C9D PUSH1 0xDA SHL DUP2 DUP6 ADD MSTORE PUSH1 0x80 DUP6 ADD MSTORE DUP5 MLOAD DUP1 DUP7 ADD DUP7 MSTORE DUP2 DUP2 MSTORE PUSH10 0x44656D6F6E204875736B PUSH1 0xB0 SHL DUP2 DUP6 ADD MSTORE PUSH1 0xA0 DUP6 ADD MSTORE DUP5 MLOAD DUP1 DUP7 ADD DUP7 MSTORE PUSH1 0x10 DUP2 MSTORE PUSH16 0x223930B3B7B739B5B4B71020B936B7B9 PUSH1 0x81 SHL DUP2 DUP6 ADD MSTORE PUSH1 0xC0 DUP6 ADD MSTORE DUP5 MLOAD DUP1 DUP7 ADD DUP7 MSTORE PUSH1 0x15 DUP2 MSTORE PUSH32 0x53747564646564204C6561746865722041726D6F720000000000000000000000 DUP2 DUP6 ADD MSTORE PUSH1 0xE0 DUP6 ADD MSTORE DUP5 MLOAD DUP1 DUP7 ADD DUP7 MSTORE PUSH1 0x12 DUP2 MSTORE PUSH18 0x2430B932102632B0BA3432B91020B936B7B9 PUSH1 0x71 SHL DUP2 DUP6 ADD MSTORE PUSH2 0x100 DUP6 ADD MSTORE DUP5 MLOAD DUP1 DUP7 ADD DUP7 MSTORE PUSH1 0xD DUP1 DUP3 MSTORE PUSH13 0x2632B0BA3432B91020B936B7B9 PUSH1 0x99 SHL DUP3 DUP7 ADD MSTORE PUSH2 0x120 DUP7 ADD SWAP2 SWAP1 SWAP2 MSTORE DUP6 MLOAD DUP1 DUP8 ADD DUP8 MSTORE PUSH1 0xF DUP1 DUP3 MSTORE PUSH15 0x486F6C79204368657374706C617465 PUSH1 0x88 SHL DUP3 DUP8 ADD MSTORE PUSH2 0x140 DUP8 ADD SWAP2 SWAP1 SWAP2 MSTORE DUP7 MLOAD DUP1 DUP9 ADD DUP9 MSTORE PUSH1 0x11 DUP2 MSTORE PUSH17 0x4F726E617465204368657374706C617465 PUSH1 0x78 SHL DUP2 DUP8 ADD MSTORE PUSH2 0x160 DUP8 ADD MSTORE DUP7 MLOAD DUP1 DUP9 ADD DUP9 MSTORE DUP4 DUP2 MSTORE PUSH10 0x141B185D194813585A5B PUSH1 0xB2 SHL DUP2 DUP8 ADD MSTORE PUSH2 0x180 DUP8 ADD MSTORE DUP7 MLOAD DUP1 DUP9 ADD DUP9 MSTORE SWAP3 DUP4 MSTORE PUSH10 0x10DA185A5B8813585A5B PUSH1 0xB2 SHL DUP4 DUP7 ADD MSTORE PUSH2 0x1A0 DUP7 ADD SWAP3 SWAP1 SWAP3 MSTORE DUP6 MLOAD DUP1 DUP8 ADD SWAP1 SWAP7 MSTORE SWAP2 DUP6 MSTORE PUSH9 0x149A5B99C813585A5B PUSH1 0xBA SHL SWAP3 DUP6 ADD SWAP3 SWAP1 SWAP3 MSTORE PUSH2 0x1C0 DUP4 ADD SWAP4 SWAP1 SWAP4 MSTORE PUSH3 0x448 SWAP3 SWAP2 SWAP1 PUSH3 0x1D91 JUMP JUMPDEST POP PUSH1 0x40 MLOAD DUP1 PUSH2 0x1E0 ADD PUSH1 0x40 MSTORE DUP1 PUSH1 0x40 MLOAD DUP1 PUSH1 0x40 ADD PUSH1 0x40 MSTORE DUP1 PUSH1 0xC DUP2 MSTORE PUSH1 0x20 ADD PUSH12 0x416E6369656E742048656C6D PUSH1 0xA0 SHL DUP2 MSTORE POP DUP2 MSTORE PUSH1 0x20 ADD PUSH1 0x40 MLOAD DUP1 PUSH1 0x40 ADD PUSH1 0x40 MSTORE DUP1 PUSH1 0xB DUP2 MSTORE PUSH1 0x20 ADD PUSH11 0x4F726E6174652048656C6D PUSH1 0xA8 SHL DUP2 MSTORE POP DUP2 MSTORE PUSH1 0x20 ADD PUSH1 0x40 MLOAD DUP1 PUSH1 0x40 ADD PUSH1 0x40 MSTORE DUP1 PUSH1 0xA DUP2 MSTORE PUSH1 0x20 ADD PUSH10 0x47726561742048656C6D PUSH1 0xB0 SHL DUP2 MSTORE POP DUP2 MSTORE PUSH1 0x20 ADD PUSH1 0x40 MLOAD DUP1 PUSH1 0x40 ADD PUSH1 0x40 MSTORE DUP1 PUSH1 0x9 DUP2 MSTORE PUSH1 0x20 ADD PUSH9 0x46756C6C2048656C6D PUSH1 0xB8 SHL DUP2 MSTORE POP DUP2 MSTORE PUSH1 0x20 ADD PUSH1 0x40 MLOAD DUP1 PUSH1 0x40 ADD PUSH1 0x40 MSTORE DUP1 PUSH1 0x4 DUP2 MSTORE PUSH1 0x20 ADD PUSH4 0x48656C6D PUSH1 0xE0 SHL DUP2 MSTORE POP DUP2 MSTORE PUSH1 0x20 ADD PUSH1 0x40 MLOAD DUP1 PUSH1 0x40 ADD PUSH1 0x40 MSTORE DUP1 PUSH1 0xB DUP2 MSTORE PUSH1 0x20 ADD PUSH11 0x2232B6B7B71021B937BBB7 PUSH1 0xA9 SHL DUP2 MSTORE POP DUP2 MSTORE PUSH1 0x20 ADD PUSH1 0x40 MLOAD DUP1 PUSH1 0x40 ADD PUSH1 0x40 MSTORE DUP1 PUSH1 0xE DUP2 MSTORE PUSH1 0x20 ADD PUSH14 0x223930B3B7B713B99021B937BBB7 PUSH1 0x91 SHL DUP2 MSTORE POP DUP2 MSTORE PUSH1 0x20 ADD PUSH1 0x40 MLOAD DUP1 PUSH1 0x40 ADD PUSH1 0x40 MSTORE DUP1 PUSH1 0x7 DUP2 MSTORE PUSH1 0x20 ADD PUSH7 0x5761722043617 PUSH1 0xCC SHL DUP2 MSTORE POP DUP2 MSTORE PUSH1 0x20 ADD PUSH1 0x40 MLOAD DUP1 PUSH1 0x40 ADD PUSH1 0x40 MSTORE DUP1 PUSH1 0xB DUP2 MSTORE PUSH1 0x20 ADD PUSH11 0x4C6561746865722043617 PUSH1 0xAC SHL DUP2 MSTORE POP DUP2 MSTORE PUSH1 0x20 ADD PUSH1 0x40 MLOAD DUP1 PUSH1 0x40 ADD PUSH1 0x40 MSTORE DUP1 PUSH1 0x3 DUP2 MSTORE PUSH1 0x20 ADD PUSH3 0x43617 PUSH1 0xEC SHL DUP2 MSTORE POP DUP2 MSTORE PUSH1 0x20 ADD PUSH1 0x40 MLOAD DUP1 PUSH1 0x40 ADD PUSH1 0x40 MSTORE DUP1 PUSH1 0x5 DUP2 MSTORE PUSH1 0x20 ADD PUSH5 0x21B937BBB7 PUSH1 0xD9 SHL DUP2 MSTORE POP DUP2 MSTORE PUSH1 0x20 ADD PUSH1 0x40 MLOAD DUP1 PUSH1 0x40 ADD PUSH1 0x40 MSTORE DUP1 PUSH1 0xB DUP2 MSTORE PUSH1 0x20 ADD PUSH11 0x111A5D9A5B9948121BDBD9 PUSH1 0xAA SHL DUP2 MSTORE POP DUP2 MSTORE PUSH1 0x20 ADD PUSH1 0x40 MLOAD DUP1 PUSH1 0x40 ADD PUSH1 0x40 MSTORE DUP1 PUSH1 0x9 DUP2 MSTORE PUSH1 0x20 ADD PUSH9 0x14DA5B1AC8121BDBD9 PUSH1 0xBA SHL DUP2 MSTORE POP DUP2 MSTORE PUSH1 0x20 ADD PUSH1 0x40 MLOAD DUP1 PUSH1 0x40 ADD PUSH1 0x40 MSTORE DUP1 PUSH1 0xA DUP2 MSTORE PUSH1 0x20 ADD PUSH10 0x131A5B995B88121BDBD9 PUSH1 0xB2 SHL DUP2 MSTORE POP DUP2 MSTORE PUSH1 0x20 ADD PUSH1 0x40 MLOAD DUP1 PUSH1 0x40 ADD PUSH1 0x40 MSTORE DUP1 PUSH1 0x4 DUP2 MSTORE PUSH1 0x20 ADD PUSH4 0x121BDBD9 PUSH1 0xE2 SHL DUP2 MSTORE POP DUP2 MSTORE POP PUSH1 0xE SWAP1 PUSH1 0xF PUSH3 0x6AA SWAP3 SWAP2 SWAP1 PUSH3 0x1D91 JUMP JUMPDEST POP PUSH1 0x40 DUP1 MLOAD PUSH2 0x220 DUP2 ADD DUP3 MSTORE PUSH1 0xB PUSH2 0x1E0 DUP3 ADD DUP2 DUP2 MSTORE PUSH11 0x13DC9B985D194810995B1D PUSH1 0xAA SHL PUSH2 0x200 DUP5 ADD MSTORE DUP3 MSTORE DUP3 MLOAD DUP1 DUP5 ADD DUP5 MSTORE PUSH1 0x8 DUP2 MSTORE PUSH8 0x15D85C8810995B1D PUSH1 0xC2 SHL PUSH1 0x20 DUP3 DUP2 ADD SWAP2 SWAP1 SWAP2 MSTORE DUP1 DUP5 ADD SWAP2 SWAP1 SWAP2 MSTORE DUP4 MLOAD DUP1 DUP6 ADD DUP6 MSTORE SWAP2 DUP3 MSTORE PUSH11 0x141B185D19590810995B1D PUSH1 0xAA SHL DUP3 DUP3 ADD MSTORE DUP3 DUP5 ADD SWAP2 SWAP1 SWAP2 MSTORE DUP3 MLOAD DUP1 DUP5 ADD DUP5 MSTORE PUSH1 0x9 DUP1 DUP3 MSTORE PUSH9 0x13595CDA0810995B1D PUSH1 0xBA SHL DUP3 DUP5 ADD MSTORE PUSH1 0x60 DUP5 ADD SWAP2 SWAP1 SWAP2 MSTORE DUP4 MLOAD DUP1 DUP6 ADD DUP6 MSTORE PUSH1 0xA DUP1 DUP3 MSTORE PUSH10 0x1219585D9E4810995B1D PUSH1 0xB2 SHL DUP3 DUP6 ADD MSTORE PUSH1 0x80 DUP6 ADD SWAP2 SWAP1 SWAP2 MSTORE DUP5 MLOAD DUP1 DUP7 ADD DUP7 MSTORE PUSH1 0xE DUP2 MSTORE PUSH14 0x11195B5BDB9A1A59194810995B1D PUSH1 0x92 SHL DUP2 DUP6 ADD MSTORE PUSH1 0xA0 DUP6 ADD MSTORE DUP5 MLOAD DUP1 DUP7 ADD DUP7 MSTORE PUSH1 0xF DUP1 DUP3 MSTORE PUSH15 0x111C9859DBDB9CDADA5B8810995B1D PUSH1 0x8A SHL DUP3 DUP7 ADD MSTORE PUSH1 0xC0 DUP7 ADD SWAP2 SWAP1 SWAP2 MSTORE DUP6 MLOAD DUP1 DUP8 ADD DUP8 MSTORE PUSH1 0x14 DUP2 MSTORE PUSH32 0x53747564646564204C6561746865722042656C74000000000000000000000000 DUP2 DUP7 ADD MSTORE PUSH1 0xE0 DUP7 ADD MSTORE DUP6 MLOAD DUP1 DUP8 ADD DUP8 MSTORE PUSH1 0x11 DUP2 MSTORE PUSH17 0x12185C99081319585D1A195C8810995B1D PUSH1 0x7A SHL DUP2 DUP7 ADD MSTORE PUSH2 0x100 DUP7 ADD MSTORE DUP6 MLOAD DUP1 DUP8 ADD DUP8 MSTORE PUSH1 0xC DUP2 MSTORE PUSH12 0x1319585D1A195C8810995B1D PUSH1 0xA2 SHL DUP2 DUP7 ADD MSTORE PUSH2 0x120 DUP7 ADD MSTORE DUP6 MLOAD DUP1 DUP8 ADD DUP8 MSTORE DUP2 DUP2 MSTORE PUSH15 0x84E4D2CED0E8E6D2D8D640A6C2E6D PUSH1 0x8B SHL DUP2 DUP7 ADD MSTORE PUSH2 0x140 DUP7 ADD MSTORE DUP6 MLOAD DUP1 DUP8 ADD DUP8 MSTORE DUP4 DUP2 MSTORE PUSH9 0xA6D2D8D640A6C2E6D PUSH1 0xBB SHL DUP2 DUP7 ADD MSTORE PUSH2 0x160 DUP7 ADD MSTORE DUP6 MLOAD DUP1 DUP8 ADD DUP8 MSTORE SWAP3 DUP4 MSTORE PUSH9 0xAEDEDED840A6C2E6D PUSH1 0xBB SHL DUP4 DUP6 ADD MSTORE PUSH2 0x180 DUP6 ADD SWAP3 SWAP1 SWAP3 MSTORE DUP5 MLOAD DUP1 DUP7 ADD DUP7 MSTORE SWAP1 DUP2 MSTORE PUSH10 0x98D2DCCADC40A6C2E6D PUSH1 0xB3 SHL DUP2 DUP5 ADD MSTORE PUSH2 0x1A0 DUP5 ADD MSTORE DUP4 MLOAD DUP1 DUP6 ADD SWAP1 SWAP5 MSTORE PUSH1 0x4 DUP5 MSTORE PUSH4 0xA6C2E6D PUSH1 0xE3 SHL SWAP2 DUP5 ADD SWAP2 SWAP1 SWAP2 MSTORE PUSH2 0x1C0 DUP3 ADD SWAP3 SWAP1 SWAP3 MSTORE PUSH3 0x901 SWAP2 SWAP1 DUP2 PUSH3 0x1D91 JUMP JUMPDEST POP PUSH1 0x40 DUP1 MLOAD PUSH2 0x220 DUP2 ADD DUP3 MSTORE PUSH1 0xC PUSH2 0x1E0 DUP3 ADD SWAP1 DUP2 MSTORE PUSH12 0x486F6C792047726561766573 PUSH1 0xA0 SHL PUSH2 0x200 DUP4 ADD MSTORE DUP2 MSTORE DUP2 MLOAD DUP1 DUP4 ADD DUP4 MSTORE PUSH1 0xE DUP2 MSTORE PUSH14 0x4F726E6174652047726561766573 PUSH1 0x90 SHL PUSH1 0x20 DUP3 DUP2 ADD SWAP2 SWAP1 SWAP2 MSTORE DUP1 DUP4 ADD SWAP2 SWAP1 SWAP2 MSTORE DUP3 MLOAD DUP1 DUP5 ADD DUP5 MSTORE PUSH1 0x7 DUP2 MSTORE PUSH7 0x47726561766573 PUSH1 0xC8 SHL DUP2 DUP4 ADD MSTORE DUP3 DUP5 ADD MSTORE DUP3 MLOAD DUP1 DUP5 ADD DUP5 MSTORE PUSH1 0xB DUP1 DUP3 MSTORE PUSH11 0x436861696E20426F6F7473 PUSH1 0xA8 SHL DUP3 DUP5 ADD MSTORE PUSH1 0x60 DUP5 ADD SWAP2 SWAP1 SWAP2 MSTORE DUP4 MLOAD DUP1 DUP6 ADD DUP6 MSTORE DUP2 DUP2 MSTORE PUSH11 0x486561767920426F6F7473 PUSH1 0xA8 SHL DUP2 DUP5 ADD MSTORE PUSH1 0x80 DUP5 ADD MSTORE DUP4 MLOAD DUP1 DUP6 ADD DUP6 MSTORE PUSH1 0xF DUP1 DUP3 MSTORE PUSH15 0x44656D6F6E6869646520426F6F7473 PUSH1 0x88 SHL DUP3 DUP6 ADD MSTORE PUSH1 0xA0 DUP6 ADD SWAP2 SWAP1 SWAP2 MSTORE DUP5 MLOAD DUP1 DUP7 ADD DUP7 MSTORE PUSH1 0x10 DUP1 DUP3 MSTORE PUSH16 0x447261676F6E736B696E20426F6F7473 PUSH1 0x80 SHL DUP3 DUP7 ADD MSTORE PUSH1 0xC0 DUP7 ADD SWAP2 SWAP1 SWAP2 MSTORE DUP6 MLOAD DUP1 DUP8 ADD DUP8 MSTORE PUSH1 0x15 DUP2 MSTORE PUSH32 0x53747564646564204C65617468657220426F6F74730000000000000000000000 DUP2 DUP7 ADD MSTORE PUSH1 0xE0 DUP7 ADD MSTORE DUP6 MLOAD DUP1 DUP8 ADD DUP8 MSTORE PUSH1 0x12 DUP2 MSTORE PUSH18 0x48617264204C65617468657220426F6F7473 PUSH1 0x70 SHL DUP2 DUP7 ADD MSTORE PUSH2 0x100 DUP7 ADD MSTORE DUP6 MLOAD DUP1 DUP8 ADD DUP8 MSTORE PUSH1 0xD DUP1 DUP3 MSTORE PUSH13 0x4C65617468657220426F6F7473 PUSH1 0x98 SHL DUP3 DUP8 ADD MSTORE PUSH2 0x120 DUP8 ADD SWAP2 SWAP1 SWAP2 MSTORE DUP7 MLOAD DUP1 DUP9 ADD DUP9 MSTORE DUP4 DUP2 MSTORE PUSH15 0x446976696E6520536C697070657273 PUSH1 0x88 SHL DUP2 DUP8 ADD MSTORE PUSH2 0x140 DUP8 ADD MSTORE DUP7 MLOAD DUP1 DUP9 ADD DUP9 MSTORE SWAP1 DUP2 MSTORE PUSH13 0x53696C6B20536C697070657273 PUSH1 0x98 SHL DUP2 DUP7 ADD MSTORE PUSH2 0x160 DUP7 ADD MSTORE DUP6 MLOAD DUP1 DUP8 ADD DUP8 MSTORE PUSH1 0xA DUP2 MSTORE PUSH10 0x576F6F6C2053686F6573 PUSH1 0xB0 SHL DUP2 DUP7 ADD MSTORE PUSH2 0x180 DUP7 ADD MSTORE DUP6 MLOAD DUP1 DUP8 ADD DUP8 MSTORE SWAP3 DUP4 MSTORE PUSH11 0x4C696E656E2053686F6573 PUSH1 0xA8 SHL DUP4 DUP6 ADD MSTORE PUSH2 0x1A0 DUP6 ADD SWAP3 SWAP1 SWAP3 MSTORE DUP5 MLOAD DUP1 DUP7 ADD SWAP1 SWAP6 MSTORE PUSH1 0x5 DUP6 MSTORE PUSH5 0x53686F6573 PUSH1 0xD8 SHL SWAP3 DUP6 ADD SWAP3 SWAP1 SWAP3 MSTORE PUSH2 0x1C0 DUP4 ADD SWAP4 SWAP1 SWAP4 MSTORE PUSH3 0xB6B SWAP3 SWAP2 SWAP1 PUSH3 0x1D91 JUMP JUMPDEST POP PUSH1 0x40 DUP1 MLOAD PUSH2 0x220 DUP2 ADD DUP3 MSTORE PUSH1 0xE PUSH2 0x1E0 DUP3 ADD DUP2 DUP2 MSTORE PUSH14 0x486F6C79204761756E746C657473 PUSH1 0x90 SHL PUSH2 0x200 DUP5 ADD MSTORE DUP3 MSTORE DUP3 MLOAD DUP1 DUP5 ADD DUP5 MSTORE PUSH1 0x10 DUP2 MSTORE PUSH16 0x4F726E617465204761756E746C657473 PUSH1 0x80 SHL PUSH1 0x20 DUP3 DUP2 ADD SWAP2 SWAP1 SWAP2 MSTORE DUP1 DUP5 ADD SWAP2 SWAP1 SWAP2 MSTORE DUP4 MLOAD DUP1 DUP6 ADD DUP6 MSTORE PUSH1 0x9 DUP2 MSTORE PUSH9 0x4761756E746C657473 PUSH1 0xB8 SHL DUP2 DUP4 ADD MSTORE DUP4 DUP6 ADD MSTORE DUP4 MLOAD DUP1 DUP6 ADD DUP6 MSTORE PUSH1 0xC DUP1 DUP3 MSTORE PUSH12 0x436861696E20476C6F766573 PUSH1 0xA0 SHL DUP3 DUP5 ADD MSTORE PUSH1 0x60 DUP6 ADD SWAP2 SWAP1 SWAP2 MSTORE DUP5 MLOAD DUP1 DUP7 ADD DUP7 MSTORE DUP2 DUP2 MSTORE PUSH12 0x486561767920476C6F766573 PUSH1 0xA0 SHL DUP2 DUP5 ADD MSTORE PUSH1 0x80 DUP6 ADD MSTORE DUP5 MLOAD DUP1 DUP7 ADD DUP7 MSTORE PUSH1 0xD DUP1 DUP3 MSTORE PUSH13 0x44656D6F6E27732048616E6473 PUSH1 0x98 SHL DUP3 DUP6 ADD MSTORE PUSH1 0xA0 DUP7 ADD SWAP2 SWAP1 SWAP2 MSTORE DUP6 MLOAD DUP1 DUP8 ADD DUP8 MSTORE PUSH1 0x11 DUP1 DUP3 MSTORE PUSH17 0x447261676F6E736B696E20476C6F766573 PUSH1 0x78 SHL DUP3 DUP7 ADD MSTORE PUSH1 0xC0 DUP8 ADD SWAP2 SWAP1 SWAP2 MSTORE DUP7 MLOAD DUP1 DUP9 ADD DUP9 MSTORE PUSH1 0x16 DUP2 MSTORE PUSH32 0x53747564646564204C65617468657220476C6F76657300000000000000000000 DUP2 DUP7 ADD MSTORE PUSH1 0xE0 DUP8 ADD MSTORE DUP7 MLOAD DUP1 DUP9 ADD DUP9 MSTORE PUSH1 0x13 DUP2 MSTORE PUSH32 0x48617264204C65617468657220476C6F76657300000000000000000000000000 DUP2 DUP7 ADD MSTORE PUSH2 0x100 DUP8 ADD MSTORE DUP7 MLOAD DUP1 DUP9 ADD DUP9 MSTORE SWAP5 DUP6 MSTORE PUSH14 0x4C65617468657220476C6F766573 PUSH1 0x90 SHL DUP6 DUP6 ADD MSTORE PUSH2 0x120 DUP7 ADD SWAP5 SWAP1 SWAP5 MSTORE DUP6 MLOAD DUP1 DUP8 ADD DUP8 MSTORE SWAP1 DUP2 MSTORE PUSH13 0x446976696E6520476C6F766573 PUSH1 0x98 SHL DUP2 DUP5 ADD MSTORE PUSH2 0x140 DUP6 ADD MSTORE DUP5 MLOAD DUP1 DUP7 ADD DUP7 MSTORE PUSH1 0xB DUP1 DUP3 MSTORE PUSH11 0x53696C6B20476C6F766573 PUSH1 0xA8 SHL DUP3 DUP6 ADD MSTORE PUSH2 0x160 DUP7 ADD SWAP2 SWAP1 SWAP2 MSTORE DUP6 MLOAD DUP1 DUP8 ADD DUP8 MSTORE SWAP1 DUP2 MSTORE PUSH11 0x576F6F6C20476C6F766573 PUSH1 0xA8 SHL DUP2 DUP5 ADD MSTORE PUSH2 0x180 DUP6 ADD MSTORE DUP5 MLOAD DUP1 DUP7 ADD DUP7 MSTORE SWAP1 DUP2 MSTORE PUSH12 0x4C696E656E20476C6F766573 PUSH1 0xA0 SHL DUP2 DUP4 ADD MSTORE PUSH2 0x1A0 DUP5 ADD MSTORE DUP4 MLOAD DUP1 DUP6 ADD SWAP1 SWAP5 MSTORE PUSH1 0x6 DUP5 MSTORE PUSH6 0x476C6F766573 PUSH1 0xD0 SHL SWAP1 DUP5 ADD MSTORE PUSH2 0x1C0 DUP3 ADD SWAP3 SWAP1 SWAP3 MSTORE PUSH3 0xDE4 SWAP2 SWAP1 PUSH1 0xF PUSH3 0x1D91 JUMP JUMPDEST POP PUSH1 0x40 MLOAD DUP1 PUSH1 0x60 ADD PUSH1 0x40 MSTORE DUP1 PUSH1 0x40 MLOAD DUP1 PUSH1 0x40 ADD PUSH1 0x40 MSTORE DUP1 PUSH1 0x8 DUP2 MSTORE PUSH1 0x20 ADD PUSH8 0x4E65636B6C616365 PUSH1 0xC0 SHL DUP2 MSTORE POP DUP2 MSTORE PUSH1 0x20 ADD PUSH1 0x40 MLOAD DUP1 PUSH1 0x40 ADD PUSH1 0x40 MSTORE DUP1 PUSH1 0x6 DUP2 MSTORE PUSH1 0x20 ADD PUSH6 0x105B5D5B195D PUSH1 0xD2 SHL DUP2 MSTORE POP DUP2 MSTORE PUSH1 0x20 ADD PUSH1 0x40 MLOAD DUP1 PUSH1 0x40 ADD PUSH1 0x40 MSTORE DUP1 PUSH1 0x7 DUP2 MSTORE PUSH1 0x20 ADD PUSH7 0x14195B99185B9D PUSH1 0xCA SHL DUP2 MSTORE POP DUP2 MSTORE POP PUSH1 0x12 SWAP1 PUSH1 0x3 PUSH3 0xE6F SWAP3 SWAP2 SWAP1 PUSH3 0x1DE3 JUMP JUMPDEST POP PUSH1 0x40 DUP1 MLOAD PUSH1 0xE0 DUP2 ADD DUP3 MSTORE PUSH1 0x9 PUSH1 0xA0 DUP3 ADD SWAP1 DUP2 MSTORE PUSH9 0x476F6C642052696E67 PUSH1 0xB8 SHL PUSH1 0xC0 DUP4 ADD MSTORE DUP2 MSTORE DUP2 MLOAD DUP1 DUP4 ADD DUP4 MSTORE PUSH1 0xB DUP1 DUP3 MSTORE PUSH11 0x53696C7665722052696E67 PUSH1 0xA8 SHL PUSH1 0x20 DUP4 DUP2 ADD SWAP2 SWAP1 SWAP2 MSTORE DUP1 DUP5 ADD SWAP3 SWAP1 SWAP3 MSTORE DUP4 MLOAD DUP1 DUP6 ADD DUP6 MSTORE SWAP1 DUP2 MSTORE PUSH11 0x42726F6E7A652052696E67 PUSH1 0xA8 SHL DUP2 DUP4 ADD MSTORE DUP3 DUP5 ADD MSTORE DUP3 MLOAD DUP1 DUP5 ADD DUP5 MSTORE PUSH1 0xD DUP1 DUP3 MSTORE PUSH13 0x506C6174696E756D2052696E67 PUSH1 0x98 SHL DUP3 DUP5 ADD MSTORE PUSH1 0x60 DUP5 ADD SWAP2 SWAP1 SWAP2 MSTORE DUP4 MLOAD DUP1 DUP6 ADD SWAP1 SWAP5 MSTORE DUP4 MSTORE PUSH13 0x546974616E69756D2052696E67 PUSH1 0x98 SHL SWAP1 DUP4 ADD MSTORE PUSH1 0x80 DUP2 ADD SWAP2 SWAP1 SWAP2 MSTORE PUSH3 0xF43 SWAP1 PUSH1 0x13 SWAP1 PUSH1 0x5 PUSH3 0x1E35 JUMP JUMPDEST POP PUSH1 0x40 DUP1 MLOAD PUSH2 0x240 DUP2 ADD DUP3 MSTORE PUSH1 0x8 PUSH2 0x200 DUP3 ADD DUP2 DUP2 MSTORE PUSH8 0x37B3102837BBB2B9 PUSH1 0xC1 SHL PUSH2 0x220 DUP5 ADD MSTORE DUP3 MSTORE DUP3 MLOAD DUP1 DUP5 ADD DUP5 MSTORE PUSH1 0x9 DUP1 DUP3 MSTORE PUSH9 0x6F66204769616E7473 PUSH1 0xB8 SHL PUSH1 0x20 DUP4 DUP2 ADD SWAP2 SWAP1 SWAP2 MSTORE DUP1 DUP6 ADD SWAP3 SWAP1 SWAP3 MSTORE DUP5 MLOAD DUP1 DUP7 ADD DUP7 MSTORE SWAP1 DUP2 MSTORE PUSH9 0x6F6620546974616E73 PUSH1 0xB8 SHL DUP2 DUP4 ADD MSTORE DUP4 DUP6 ADD MSTORE DUP4 MLOAD DUP1 DUP6 ADD DUP6 MSTORE DUP3 DUP2 MSTORE PUSH8 0x1BD98814DADA5B1B PUSH1 0xC2 SHL DUP2 DUP4 ADD MSTORE PUSH1 0x60 DUP5 ADD MSTORE DUP4 MLOAD DUP1 DUP6 ADD DUP6 MSTORE PUSH1 0xD DUP1 DUP3 MSTORE PUSH13 0x37B3102832B93332B1BA34B7B7 PUSH1 0x99 SHL DUP3 DUP5 ADD MSTORE PUSH1 0x80 DUP6 ADD SWAP2 SWAP1 SWAP2 MSTORE DUP5 MLOAD DUP1 DUP7 ADD DUP7 MSTORE DUP2 DUP2 MSTORE PUSH13 0x6F66204272696C6C69616E6365 PUSH1 0x98 SHL DUP2 DUP5 ADD MSTORE PUSH1 0xA0 DUP6 ADD MSTORE DUP5 MLOAD DUP1 DUP7 ADD DUP7 MSTORE PUSH1 0x10 DUP1 DUP3 MSTORE PUSH16 0x1BD988115B9B1A59DA1D195B9B595B9D PUSH1 0x82 SHL DUP3 DUP6 ADD MSTORE PUSH1 0xC0 DUP7 ADD SWAP2 SWAP1 SWAP2 MSTORE DUP6 MLOAD DUP1 DUP8 ADD DUP8 MSTORE DUP3 DUP2 MSTORE PUSH13 0x37B310283937BA32B1BA34B7B7 PUSH1 0x99 SHL DUP2 DUP6 ADD MSTORE PUSH1 0xE0 DUP7 ADD MSTORE DUP6 MLOAD DUP1 DUP8 ADD DUP8 MSTORE SWAP4 DUP5 MSTORE PUSH8 0x37B31020B733B2B9 PUSH1 0xC1 SHL DUP5 DUP5 ADD MSTORE PUSH2 0x100 DUP6 ADD SWAP4 SWAP1 SWAP4 MSTORE DUP5 MLOAD DUP1 DUP7 ADD DUP7 MSTORE PUSH1 0x7 DUP1 DUP3 MSTORE PUSH7 0x6F662052616765 PUSH1 0xC8 SHL DUP3 DUP6 ADD MSTORE PUSH2 0x120 DUP7 ADD SWAP2 SWAP1 SWAP2 MSTORE DUP6 MLOAD DUP1 DUP8 ADD DUP8 MSTORE SWAP1 DUP2 MSTORE PUSH7 0x6F662046757279 PUSH1 0xC8 SHL DUP2 DUP5 ADD MSTORE PUSH2 0x140 DUP6 ADD MSTORE DUP5 MLOAD DUP1 DUP7 ADD DUP7 MSTORE PUSH1 0xA DUP1 DUP3 MSTORE PUSH10 0x1BD988159A5D1C9A5BDB PUSH1 0xB2 SHL DUP3 DUP6 ADD MSTORE PUSH2 0x160 DUP7 ADD SWAP2 SWAP1 SWAP2 MSTORE DUP6 MLOAD DUP1 DUP8 ADD DUP8 MSTORE SWAP1 DUP2 MSTORE PUSH10 0xDECC40E8D0CA408CDEF PUSH1 0xB3 SHL DUP2 DUP5 ADD MSTORE PUSH2 0x180 DUP6 ADD MSTORE DUP5 MLOAD DUP1 DUP7 ADD DUP7 MSTORE PUSH1 0xC DUP1 DUP3 MSTORE PUSH12 0x37B3102232BA32B1BA34B7B7 PUSH1 0xA1 SHL DUP3 DUP6 ADD MSTORE PUSH2 0x1A0 DUP7 ADD SWAP2 SWAP1 SWAP2 MSTORE DUP6 MLOAD DUP1 DUP8 ADD DUP8 MSTORE SWAP2 DUP3 MSTORE PUSH13 0x37B3102932B33632B1BA34B7B7 PUSH1 0x99 SHL DUP3 DUP5 ADD MSTORE PUSH2 0x1C0 DUP6 ADD SWAP2 SWAP1 SWAP2 MSTORE DUP5 MLOAD DUP1 DUP7 ADD SWAP1 SWAP6 MSTORE DUP5 MSTORE PUSH12 0x6F6620746865205477696E73 PUSH1 0xA0 SHL SWAP1 DUP5 ADD MSTORE PUSH2 0x1E0 DUP3 ADD SWAP3 SWAP1 SWAP3 MSTORE PUSH3 0x11A7 SWAP2 PUSH1 0x14 SWAP2 SWAP1 PUSH3 0x1E87 JUMP JUMPDEST POP PUSH1 0x40 DUP1 MLOAD PUSH2 0x8E0 DUP2 ADD DUP3 MSTORE PUSH1 0x5 PUSH2 0x8A0 DUP3 ADD DUP2 DUP2 MSTORE PUSH5 0x41676F6E79 PUSH1 0xD8 SHL PUSH2 0x8C0 DUP5 ADD MSTORE DUP3 MSTORE DUP3 MLOAD DUP1 DUP5 ADD DUP5 MSTORE PUSH1 0xA DUP1 DUP3 MSTORE PUSH10 0x41706F63616C79707365 PUSH1 0xB0 SHL PUSH1 0x20 DUP4 DUP2 ADD SWAP2 SWAP1 SWAP2 MSTORE DUP1 DUP6 ADD SWAP3 SWAP1 SWAP3 MSTORE DUP5 MLOAD DUP1 DUP7 ADD DUP7 MSTORE DUP2 DUP2 MSTORE PUSH10 0x20B936B0B3B2B23237B7 PUSH1 0xB1 SHL DUP2 DUP5 ADD MSTORE DUP5 DUP7 ADD MSTORE DUP5 MLOAD DUP1 DUP7 ADD DUP7 MSTORE DUP4 DUP2 MSTORE PUSH5 0x1099585CDD PUSH1 0xDA SHL DUP2 DUP5 ADD MSTORE PUSH1 0x60 DUP6 ADD MSTORE DUP5 MLOAD DUP1 DUP7 ADD DUP7 MSTORE PUSH1 0x8 DUP1 DUP3 MSTORE PUSH8 0x84CAD0CADADEE8D PUSH1 0xC3 SHL DUP3 DUP6 ADD MSTORE PUSH1 0x80 DUP7 ADD SWAP2 SWAP1 SWAP2 MSTORE DUP6 MLOAD DUP1 DUP8 ADD DUP8 MSTORE PUSH1 0x6 DUP1 DUP3 MSTORE PUSH6 0x109B1A59DA1D PUSH1 0xD2 SHL DUP3 DUP7 ADD MSTORE PUSH1 0xA0 DUP8 ADD SWAP2 SWAP1 SWAP2 MSTORE DUP7 MLOAD DUP1 DUP9 ADD DUP9 MSTORE DUP6 DUP2 MSTORE PUSH5 0x109B1BDBD9 PUSH1 0xDA SHL DUP2 DUP7 ADD MSTORE PUSH1 0xC0 DUP8 ADD MSTORE DUP7 MLOAD DUP1 DUP9 ADD DUP9 MSTORE PUSH1 0x7 DUP1 DUP3 MSTORE PUSH7 0x4272616D626C65 PUSH1 0xC8 SHL DUP3 DUP8 ADD MSTORE PUSH1 0xE0 DUP9 ADD SWAP2 SWAP1 SWAP2 MSTORE DUP8 MLOAD DUP1 DUP10 ADD DUP10 MSTORE PUSH1 0x9 DUP1 DUP3 MSTORE PUSH9 0x4272696D73746F6E65 PUSH1 0xB8 SHL DUP3 DUP9 ADD MSTORE PUSH2 0x100 DUP10 ADD SWAP2 SWAP1 SWAP2 MSTORE DUP9 MLOAD DUP1 DUP11 ADD DUP11 MSTORE DUP8 DUP2 MSTORE PUSH5 0x109C9BDBD9 PUSH1 0xDA SHL DUP2 DUP9 ADD MSTORE PUSH2 0x120 DUP10 ADD MSTORE DUP9 MLOAD DUP1 DUP11 ADD DUP11 MSTORE DUP3 DUP2 MSTORE PUSH7 0x21B0B93934B7B7 PUSH1 0xC9 SHL DUP2 DUP9 ADD MSTORE PUSH2 0x140 DUP10 ADD MSTORE DUP9 MLOAD DUP1 DUP11 ADD DUP11 MSTORE DUP2 DUP2 MSTORE PUSH9 0x43617461636C79736D PUSH1 0xB8 SHL DUP2 DUP9 ADD MSTORE PUSH2 0x160 DUP10 ADD MSTORE DUP9 MLOAD DUP1 DUP11 ADD DUP11 MSTORE DUP5 DUP2 MSTORE PUSH8 0x4368696D65726963 PUSH1 0xC0 SHL DUP2 DUP9 ADD MSTORE PUSH2 0x180 DUP10 ADD MSTORE DUP9 MLOAD DUP1 DUP11 ADD DUP11 MSTORE DUP4 DUP2 MSTORE PUSH6 0x436F72707365 PUSH1 0xD0 SHL DUP2 DUP9 ADD MSTORE PUSH2 0x1A0 DUP10 ADD MSTORE DUP9 MLOAD DUP1 DUP11 ADD DUP11 MSTORE DUP6 DUP2 MSTORE PUSH10 0x21B7B9393AB83A34B7B7 PUSH1 0xB1 SHL DUP2 DUP9 ADD MSTORE PUSH2 0x1C0 DUP10 ADD MSTORE DUP9 MLOAD DUP1 DUP11 ADD DUP11 MSTORE DUP2 DUP2 MSTORE PUSH9 0x2230B6B730BA34B7B7 PUSH1 0xB9 SHL DUP2 DUP9 ADD MSTORE PUSH2 0x1E0 DUP10 ADD MSTORE DUP9 MLOAD DUP1 DUP11 ADD DUP11 MSTORE DUP8 DUP2 MSTORE PUSH5 0x88CAC2E8D PUSH1 0xDB SHL DUP2 DUP9 ADD MSTORE PUSH2 0x200 DUP10 ADD MSTORE DUP9 MLOAD DUP1 DUP11 ADD DUP11 MSTORE DUP8 DUP2 MSTORE PUSH5 0x2232B6B7B7 PUSH1 0xD9 SHL DUP2 DUP9 ADD MSTORE PUSH2 0x220 DUP10 ADD MSTORE DUP9 MLOAD DUP1 DUP11 ADD DUP11 MSTORE PUSH1 0x4 DUP1 DUP3 MSTORE PUSH4 0x44697265 PUSH1 0xE0 SHL DUP3 DUP10 ADD MSTORE PUSH2 0x240 DUP11 ADD SWAP2 SWAP1 SWAP2 MSTORE DUP10 MLOAD DUP1 DUP12 ADD DUP12 MSTORE DUP5 DUP2 MSTORE PUSH6 0x223930B3B7B7 PUSH1 0xD1 SHL DUP2 DUP10 ADD MSTORE PUSH2 0x260 DUP11 ADD MSTORE DUP10 MLOAD DUP1 DUP12 ADD DUP12 MSTORE DUP9 DUP2 MSTORE PUSH5 0x111C995859 PUSH1 0xDA SHL DUP2 DUP10 ADD MSTORE PUSH2 0x280 DUP11 ADD MSTORE DUP10 MLOAD DUP1 DUP12 ADD DUP12 MSTORE DUP2 DUP2 MSTORE PUSH4 0x446F6F6D PUSH1 0xE0 SHL DUP2 DUP10 ADD MSTORE PUSH2 0x2A0 DUP11 ADD MSTORE DUP10 MLOAD DUP1 DUP12 ADD DUP12 MSTORE DUP2 DUP2 MSTORE PUSH4 0x4475736B PUSH1 0xE0 SHL DUP2 DUP10 ADD MSTORE PUSH2 0x2C0 DUP11 ADD MSTORE DUP10 MLOAD DUP1 DUP12 ADD DUP12 MSTORE DUP9 DUP2 MSTORE PUSH5 0x4561676C65 PUSH1 0xD8 SHL DUP2 DUP10 ADD MSTORE PUSH2 0x2E0 DUP11 ADD MSTORE DUP10 MLOAD DUP1 DUP12 ADD DUP12 MSTORE DUP6 DUP2 MSTORE PUSH8 0x22B6B83CB932B0B7 PUSH1 0xC1 SHL DUP2 DUP10 ADD MSTORE PUSH2 0x300 DUP11 ADD MSTORE DUP10 MLOAD DUP1 DUP12 ADD DUP12 MSTORE DUP2 DUP2 MSTORE PUSH4 0x46617465 PUSH1 0xE0 SHL DUP2 DUP10 ADD MSTORE PUSH2 0x320 DUP11 ADD MSTORE DUP10 MLOAD DUP1 DUP12 ADD DUP12 MSTORE PUSH1 0x3 DUP1 DUP3 MSTORE PUSH3 0x466F65 PUSH1 0xE8 SHL DUP3 DUP11 ADD MSTORE PUSH2 0x340 DUP12 ADD SWAP2 SWAP1 SWAP2 MSTORE DUP11 MLOAD DUP1 DUP13 ADD DUP13 MSTORE DUP3 DUP2 MSTORE PUSH4 0x47616C65 PUSH1 0xE0 SHL DUP2 DUP11 ADD MSTORE PUSH2 0x360 DUP12 ADD MSTORE DUP11 MLOAD DUP1 DUP13 ADD DUP13 MSTORE DUP10 DUP2 MSTORE PUSH5 0x11DA1BDD5B PUSH1 0xDA SHL DUP2 DUP11 ADD MSTORE PUSH2 0x380 DUP12 ADD MSTORE DUP11 MLOAD DUP1 DUP13 ADD DUP13 MSTORE DUP10 DUP2 MSTORE PUSH5 0x476C6F6F6D PUSH1 0xD8 SHL DUP2 DUP11 ADD MSTORE PUSH2 0x3A0 DUP12 ADD MSTORE DUP11 MLOAD DUP1 DUP13 ADD DUP13 MSTORE DUP10 DUP2 MSTORE PUSH5 0x8ED8F2E0D PUSH1 0xDB SHL DUP2 DUP11 ADD MSTORE PUSH2 0x3C0 DUP12 ADD MSTORE DUP11 MLOAD DUP1 DUP13 ADD DUP13 MSTORE DUP10 DUP2 MSTORE PUSH5 0x476F6C656D PUSH1 0xD8 SHL DUP2 DUP11 ADD MSTORE PUSH2 0x3E0 DUP12 ADD MSTORE DUP11 MLOAD DUP1 DUP13 ADD DUP13 MSTORE DUP3 DUP2 MSTORE PUSH4 0x4772696D PUSH1 0xE0 SHL DUP2 DUP11 ADD MSTORE PUSH2 0x400 DUP12 ADD MSTORE DUP11 MLOAD DUP1 DUP13 ADD DUP13 MSTORE DUP3 DUP2 MSTORE PUSH4 0x48617465 PUSH1 0xE0 SHL DUP2 DUP11 ADD MSTORE PUSH2 0x420 DUP12 ADD MSTORE DUP11 MLOAD DUP1 DUP13 ADD DUP13 MSTORE DUP10 DUP2 MSTORE PUSH5 0x4861766F63 PUSH1 0xD8 SHL DUP2 DUP11 ADD MSTORE PUSH2 0x440 DUP12 ADD MSTORE DUP11 MLOAD DUP1 DUP13 ADD DUP13 MSTORE DUP6 DUP2 MSTORE PUSH6 0x2437B737BAB9 PUSH1 0xD1 SHL DUP2 DUP11 ADD MSTORE PUSH2 0x460 DUP12 ADD MSTORE DUP11 MLOAD DUP1 DUP13 ADD DUP13 MSTORE DUP6 DUP2 MSTORE PUSH6 0x2437B93937B9 PUSH1 0xD1 SHL DUP2 DUP11 ADD MSTORE PUSH2 0x480 DUP12 ADD MSTORE DUP11 MLOAD DUP1 DUP13 ADD DUP13 MSTORE DUP7 DUP2 MSTORE PUSH8 0x4879706E6F746963 PUSH1 0xC0 SHL DUP2 DUP11 ADD MSTORE PUSH2 0x4A0 DUP12 ADD MSTORE DUP11 MLOAD DUP1 DUP13 ADD DUP13 MSTORE DUP6 DUP2 MSTORE PUSH6 0x25B930B5B2B7 PUSH1 0xD1 SHL DUP2 DUP11 ADD MSTORE PUSH2 0x4C0 DUP12 ADD MSTORE DUP11 MLOAD DUP1 DUP13 ADD DUP13 MSTORE DUP10 DUP2 MSTORE PUSH5 0x98DEC2E8D PUSH1 0xDB SHL DUP2 DUP11 ADD MSTORE PUSH2 0x4E0 DUP12 ADD MSTORE DUP11 MLOAD DUP1 DUP13 ADD DUP13 MSTORE DUP4 DUP2 MSTORE PUSH9 0x4D61656C7374726F6D PUSH1 0xB8 SHL DUP2 DUP11 ADD MSTORE PUSH2 0x500 DUP12 ADD MSTORE DUP11 MLOAD DUP1 DUP13 ADD DUP13 MSTORE DUP3 DUP2 MSTORE PUSH4 0x135A5B99 PUSH1 0xE2 SHL DUP2 DUP11 ADD MSTORE PUSH2 0x520 DUP12 ADD MSTORE DUP11 MLOAD DUP1 DUP13 ADD DUP13 MSTORE DUP5 DUP2 MSTORE PUSH7 0x4D697261636C65 PUSH1 0xC8 SHL DUP2 DUP11 ADD MSTORE PUSH2 0x540 DUP12 ADD MSTORE DUP11 MLOAD DUP1 DUP13 ADD DUP13 MSTORE DUP6 DUP2 MSTORE PUSH6 0x135BDC989A59 PUSH1 0xD2 SHL DUP2 DUP11 ADD MSTORE PUSH2 0x560 DUP12 ADD MSTORE DUP11 MLOAD DUP1 DUP13 ADD DUP13 MSTORE SWAP6 DUP7 MSTORE PUSH8 0x27B13634BB34B7B7 PUSH1 0xC1 SHL DUP7 DUP10 ADD MSTORE PUSH2 0x580 DUP11 ADD SWAP6 SWAP1 SWAP6 MSTORE DUP10 MLOAD DUP1 DUP12 ADD DUP12 MSTORE DUP3 DUP2 MSTORE PUSH9 0x13DB9CDB185D59DA1D PUSH1 0xBA SHL DUP2 DUP10 ADD MSTORE PUSH2 0x5A0 DUP11 ADD MSTORE DUP10 MLOAD DUP1 DUP12 ADD DUP12 MSTORE DUP2 DUP2 MSTORE PUSH4 0x2830B4B7 PUSH1 0xE1 SHL DUP2 DUP10 ADD MSTORE PUSH2 0x5C0 DUP11 ADD MSTORE DUP10 MLOAD DUP1 DUP12 ADD DUP12 MSTORE PUSH1 0xB DUP2 MSTORE PUSH11 0x50616E64656D6F6E69756D PUSH1 0xA8 SHL DUP2 DUP10 ADD MSTORE PUSH2 0x5E0 DUP11 ADD MSTORE DUP10 MLOAD DUP1 DUP12 ADD DUP12 MSTORE DUP4 DUP2 MSTORE PUSH7 0xA0D0DECADCD2F PUSH1 0xCB SHL DUP2 DUP10 ADD MSTORE PUSH2 0x600 DUP11 ADD MSTORE DUP10 MLOAD DUP1 DUP12 ADD DUP12 MSTORE DUP5 DUP2 MSTORE PUSH6 0x506C61677565 PUSH1 0xD0 SHL DUP2 DUP10 ADD MSTORE PUSH2 0x620 DUP11 ADD MSTORE DUP10 MLOAD DUP1 DUP12 ADD DUP12 MSTORE DUP2 DUP2 MSTORE PUSH4 0x52616765 PUSH1 0xE0 SHL DUP2 DUP10 ADD MSTORE PUSH2 0x640 DUP11 ADD MSTORE DUP10 MLOAD DUP1 DUP12 ADD DUP12 MSTORE DUP4 DUP2 MSTORE PUSH7 0x52617074757265 PUSH1 0xC8 SHL DUP2 DUP10 ADD MSTORE PUSH2 0x660 DUP11 ADD MSTORE DUP10 MLOAD DUP1 DUP12 ADD DUP12 MSTORE DUP2 DUP2 MSTORE PUSH4 0x52756E65 PUSH1 0xE0 SHL DUP2 DUP10 ADD MSTORE PUSH2 0x680 DUP11 ADD MSTORE DUP10 MLOAD DUP1 DUP12 ADD DUP12 MSTORE DUP9 DUP2 MSTORE PUSH5 0x14DADD5B1B PUSH1 0xDA SHL DUP2 DUP10 ADD MSTORE PUSH2 0x6A0 DUP11 ADD MSTORE DUP10 MLOAD DUP1 DUP12 ADD DUP12 MSTORE DUP6 DUP2 MSTORE PUSH3 0x14DBDB PUSH1 0xEA SHL DUP2 DUP10 ADD MSTORE PUSH2 0x6C0 DUP11 ADD MSTORE DUP10 MLOAD DUP1 DUP12 ADD DUP12 MSTORE SWAP1 DUP2 MSTORE PUSH4 0x14DBDD5B PUSH1 0xE2 SHL DUP2 DUP9 ADD MSTORE PUSH2 0x6E0 DUP10 ADD MSTORE DUP9 MLOAD DUP1 DUP11 ADD DUP11 MSTORE DUP4 DUP2 MSTORE PUSH6 0x536F72726F77 PUSH1 0xD0 SHL DUP2 DUP9 ADD MSTORE PUSH2 0x700 DUP10 ADD MSTORE DUP9 MLOAD DUP1 DUP11 ADD DUP11 MSTORE DUP4 DUP2 MSTORE PUSH6 0x14DC1A5C9A5D PUSH1 0xD2 SHL DUP2 DUP9 ADD MSTORE PUSH2 0x720 DUP10 ADD MSTORE DUP9 MLOAD DUP1 DUP11 ADD DUP11 MSTORE DUP8 DUP2 MSTORE PUSH5 0x53746F726D PUSH1 0xD8 SHL DUP2 DUP9 ADD MSTORE PUSH2 0x740 DUP10 ADD MSTORE DUP9 MLOAD DUP1 DUP11 ADD DUP11 MSTORE DUP3 DUP2 MSTORE PUSH7 0x15195B5C195CDD PUSH1 0xCA SHL DUP2 DUP9 ADD MSTORE PUSH2 0x760 DUP10 ADD MSTORE DUP9 MLOAD DUP1 DUP11 ADD DUP11 MSTORE DUP3 DUP2 MSTORE PUSH7 0x151BDC9B595B9D PUSH1 0xCA SHL DUP2 DUP9 ADD MSTORE PUSH2 0x780 DUP10 ADD MSTORE DUP9 MLOAD DUP1 DUP11 ADD DUP11 MSTORE SWAP1 DUP2 MSTORE PUSH9 0x56656E6765616E6365 PUSH1 0xB8 SHL DUP2 DUP8 ADD MSTORE PUSH2 0x7A0 DUP9 ADD MSTORE DUP8 MLOAD DUP1 DUP10 ADD DUP10 MSTORE DUP2 DUP2 MSTORE PUSH7 0x566963746F7279 PUSH1 0xC8 SHL DUP2 DUP8 ADD MSTORE PUSH2 0x7C0 DUP9 ADD MSTORE DUP8 MLOAD DUP1 DUP10 ADD DUP10 MSTORE DUP7 DUP2 MSTORE PUSH5 0x2B34B832B9 PUSH1 0xD9 SHL DUP2 DUP8 ADD MSTORE PUSH2 0x7E0 DUP9 ADD MSTORE DUP8 MLOAD DUP1 DUP10 ADD DUP10 MSTORE SWAP2 DUP3 MSTORE PUSH6 0xACDEE4E8CAF PUSH1 0xD3 SHL DUP3 DUP7 ADD MSTORE PUSH2 0x800 DUP8 ADD SWAP2 SWAP1 SWAP2 MSTORE DUP7 MLOAD DUP1 DUP9 ADD DUP9 MSTORE SWAP2 DUP3 MSTORE PUSH3 0x576F65 PUSH1 0xE8 SHL DUP3 DUP6 ADD MSTORE PUSH2 0x820 DUP7 ADD SWAP2 SWAP1 SWAP2 MSTORE DUP6 MLOAD DUP1 DUP8 ADD DUP8 MSTORE SWAP4 DUP5 MSTORE PUSH5 0xAEE4C2E8D PUSH1 0xDB SHL DUP5 DUP5 ADD MSTORE PUSH2 0x840 DUP6 ADD SWAP4 SWAP1 SWAP4 MSTORE DUP5 MLOAD DUP1 DUP7 ADD DUP7 MSTORE SWAP3 DUP4 MSTORE PUSH7 0x4C696768742773 PUSH1 0xC8 SHL DUP4 DUP4 ADD MSTORE PUSH2 0x860 DUP5 ADD SWAP3 SWAP1 SWAP3 MSTORE DUP4 MLOAD DUP1 DUP6 ADD SWAP1 SWAP5 MSTORE SWAP1 DUP4 MSTORE PUSH10 0x5368696D6D6572696E67 PUSH1 0xB0 SHL SWAP1 DUP4 ADD MSTORE PUSH2 0x880 DUP2 ADD SWAP2 SWAP1 SWAP2 MSTORE PUSH3 0x1A11 SWAP1 PUSH1 0x15 SWAP1 PUSH1 0x45 PUSH3 0x1ED9 JUMP JUMPDEST POP PUSH1 0x40 DUP1 MLOAD PUSH2 0x280 DUP2 ADD DUP3 MSTORE PUSH1 0x4 PUSH2 0x240 DUP3 ADD DUP2 DUP2 MSTORE PUSH4 0x42616E65 PUSH1 0xE0 SHL PUSH2 0x260 DUP5 ADD MSTORE DUP3 MSTORE DUP3 MLOAD DUP1 DUP5 ADD DUP5 MSTORE DUP2 DUP2 MSTORE PUSH4 0x149BDBDD PUSH1 0xE2 SHL PUSH1 0x20 DUP3 DUP2 ADD SWAP2 SWAP1 SWAP2 MSTORE DUP1 DUP5 ADD SWAP2 SWAP1 SWAP2 MSTORE DUP4 MLOAD DUP1 DUP6 ADD DUP6 MSTORE DUP3 DUP2 MSTORE PUSH4 0x42697465 PUSH1 0xE0 SHL DUP2 DUP4 ADD MSTORE DUP4 DUP6 ADD MSTORE DUP4 MLOAD DUP1 DUP6 ADD DUP6 MSTORE DUP3 DUP2 MSTORE PUSH4 0x536F6E67 PUSH1 0xE0 SHL DUP2 DUP4 ADD MSTORE PUSH1 0x60 DUP5 ADD MSTORE DUP4 MLOAD DUP1 DUP6 ADD DUP6 MSTORE DUP3 DUP2 MSTORE PUSH4 0x2937B0B9 PUSH1 0xE1 SHL DUP2 DUP4 ADD MSTORE PUSH1 0x80 DUP5 ADD MSTORE DUP4 MLOAD DUP1 DUP6 ADD DUP6 MSTORE PUSH1 0x5 DUP1 DUP3 MSTORE PUSH5 0x477261737 PUSH1 0xDC SHL DUP3 DUP5 ADD MSTORE PUSH1 0xA0 DUP6 ADD SWAP2 SWAP1 SWAP2 MSTORE DUP5 MLOAD DUP1 DUP7 ADD DUP7 MSTORE PUSH1 0xA DUP2 MSTORE PUSH10 0x125B9CDD1C9D5B595B9D PUSH1 0xB2 SHL DUP2 DUP5 ADD MSTORE PUSH1 0xC0 DUP6 ADD MSTORE DUP5 MLOAD DUP1 DUP7 ADD DUP7 MSTORE DUP4 DUP2 MSTORE PUSH4 0x476C6F77 PUSH1 0xE0 SHL DUP2 DUP5 ADD MSTORE PUSH1 0xE0 DUP6 ADD MSTORE DUP5 MLOAD DUP1 DUP7 ADD DUP7 MSTORE PUSH1 0x6 DUP1 DUP3 MSTORE PUSH6 0x2132B73232B9 PUSH1 0xD1 SHL DUP3 DUP6 ADD MSTORE PUSH2 0x100 DUP7 ADD SWAP2 SWAP1 SWAP2 MSTORE DUP6 MLOAD DUP1 DUP8 ADD DUP8 MSTORE SWAP1 DUP2 MSTORE PUSH6 0x536861646F77 PUSH1 0xD0 SHL DUP2 DUP5 ADD MSTORE PUSH2 0x120 DUP6 ADD MSTORE DUP5 MLOAD DUP1 DUP7 ADD DUP7 MSTORE PUSH1 0x7 DUP2 MSTORE PUSH7 0x2BB434B9B832B9 PUSH1 0xC9 SHL DUP2 DUP5 ADD MSTORE PUSH2 0x140 DUP6 ADD MSTORE DUP5 MLOAD DUP1 DUP7 ADD DUP7 MSTORE DUP2 DUP2 MSTORE PUSH5 0x14DA1BDD5D PUSH1 0xDA SHL DUP2 DUP5 ADD MSTORE PUSH2 0x160 DUP6 ADD MSTORE DUP5 MLOAD DUP1 DUP7 ADD DUP7 MSTORE SWAP1 DUP2 MSTORE PUSH5 0x11DC9BDDDB PUSH1 0xDA SHL DUP2 DUP4 ADD MSTORE PUSH2 0x180 DUP5 ADD MSTORE DUP4 MLOAD DUP1 DUP6 ADD DUP6 MSTORE DUP3 DUP2 MSTORE PUSH4 0x2A32B0B9 PUSH1 0xE1 SHL DUP2 DUP4 ADD MSTORE PUSH2 0x1A0 DUP5 ADD MSTORE DUP4 MLOAD DUP1 DUP6 ADD DUP6 MSTORE DUP3 DUP2 MSTORE PUSH4 0x5065616B PUSH1 0xE0 SHL DUP2 DUP4 ADD MSTORE PUSH2 0x1C0 DUP5 ADD MSTORE DUP4 MLOAD DUP1 DUP6 ADD DUP6 MSTORE DUP3 DUP2 MSTORE PUSH4 0x466F726D PUSH1 0xE0 SHL DUP2 DUP4 ADD MSTORE PUSH2 0x1E0 DUP5 ADD MSTORE DUP4 MLOAD DUP1 DUP6 ADD DUP6 MSTORE PUSH1 0x3 DUP2 MSTORE PUSH3 0x29BAB7 PUSH1 0xE9 SHL DUP2 DUP4 ADD MSTORE PUSH2 0x200 DUP5 ADD MSTORE DUP4 MLOAD DUP1 DUP6 ADD SWAP1 SWAP5 MSTORE SWAP1 DUP4 MSTORE PUSH4 0x26B7B7B7 PUSH1 0xE1 SHL SWAP1 DUP4 ADD MSTORE PUSH2 0x220 DUP2 ADD SWAP2 SWAP1 SWAP2 MSTORE PUSH3 0x1C42 SWAP1 PUSH1 0x16 SWAP1 PUSH1 0x12 PUSH3 0x1D2D JUMP JUMPDEST POP CALLVALUE DUP1 ISZERO PUSH3 0x1C50 JUMPI PUSH1 0x0 DUP1 REVERT JUMPDEST POP PUSH1 0x40 DUP1 MLOAD DUP1 DUP3 ADD DUP3 MSTORE PUSH1 0x9 DUP2 MSTORE PUSH9 0x11985AD948131BDBDD PUSH1 0xBA SHL PUSH1 0x20 DUP1 DUP4 ADD SWAP2 DUP3 MSTORE DUP4 MLOAD DUP1 DUP6 ADD SWAP1 SWAP5 MSTORE PUSH1 0x5 DUP5 MSTORE PUSH5 0x119313D3D5 PUSH1 0xDA SHL SWAP1 DUP5 ADD MSTORE DUP2 MLOAD SWAP2 SWAP3 SWAP2 PUSH3 0x1C9F SWAP2 PUSH1 0x0 SWAP2 PUSH3 0x1F2B JUMP JUMPDEST POP DUP1 MLOAD PUSH3 0x1CB5 SWAP1 PUSH1 0x1 SWAP1 PUSH1 0x20 DUP5 ADD SWAP1 PUSH3 0x1F2B JUMP JUMPDEST POP POP PUSH1 0x1 PUSH1 0xA SSTORE POP PUSH3 0x1CD1 PUSH3 0x1CCB PUSH3 0x1CD7 JUMP JUMPDEST PUSH3 0x1CDB JUMP JUMPDEST PUSH3 0x207A JUMP JUMPDEST CALLER SWAP1 JUMP JUMPDEST PUSH1 0xB DUP1 SLOAD PUSH1 0x1 PUSH1 0x1 PUSH1 0xA0 SHL SUB DUP4 DUP2 AND PUSH1 0x1 PUSH1 0x1 PUSH1 0xA0 SHL SUB NOT DUP4 AND DUP2 OR SWAP1 SWAP4 SSTORE PUSH1 0x40 MLOAD SWAP2 AND SWAP2 SWAP1 DUP3 SWAP1 PUSH32 0x8BE0079C531659141344CD1FD0A4F28419497F9722A3DAAFE3B4186F6B6457E0 SWAP1 PUSH1 0x0 SWAP1 LOG3 POP POP JUMP JUMPDEST DUP3 DUP1 SLOAD DUP3 DUP3 SSTORE SWAP1 PUSH1 0x0 MSTORE PUSH1 0x20 PUSH1 0x0 KECCAK256 SWAP1 DUP2 ADD SWAP3 DUP3 ISZERO PUSH3 0x1D7F JUMPI SWAP2 PUSH1 0x20 MUL DUP3 ADD JUMPDEST DUP3 DUP2 GT ISZERO PUSH3 0x1D7F JUMPI DUP3 MLOAD DUP1 MLOAD PUSH3 0x1D6E SWAP2 DUP5 SWAP2 PUSH1 0x20 SWAP1 SWAP2 ADD SWAP1 PUSH3 0x1F2B JUMP JUMPDEST POP SWAP2 PUSH1 0x20 ADD SWAP2 SWAP1 PUSH1 0x1 ADD SWAP1 PUSH3 0x1D4E JUMP JUMPDEST POP PUSH3 0x1D8D SWAP3 SWAP2 POP PUSH3 0x1FB6 JUMP JUMPDEST POP SWAP1 JUMP JUMPDEST DUP3 DUP1 SLOAD DUP3 DUP3 SSTORE SWAP1 PUSH1 0x0 MSTORE PUSH1 0x20 PUSH1 0x0 KECCAK256 SWAP1 DUP2 ADD SWAP3 DUP3 ISZERO PUSH3 0x1D7F JUMPI SWAP2 PUSH1 0x20 MUL DUP3 ADD JUMPDEST DUP3 DUP2 GT ISZERO PUSH3 0x1D7F JUMPI DUP3 MLOAD DUP1 MLOAD PUSH3 0x1DD2 SWAP2 DUP5 SWAP2 PUSH1 0x20 SWAP1 SWAP2 ADD SWAP1 PUSH3 0x1F2B JUMP JUMPDEST POP SWAP2 PUSH1 0x20 ADD SWAP2 SWAP1 PUSH1 0x1 ADD SWAP1 PUSH3 0x1DB2 JUMP JUMPDEST DUP3 DUP1 SLOAD DUP3 DUP3 SSTORE SWAP1 PUSH1 0x0 MSTORE PUSH1 0x20 PUSH1 0x0 KECCAK256 SWAP1 DUP2 ADD SWAP3 DUP3 ISZERO PUSH3 0x1D7F JUMPI SWAP2 PUSH1 0x20 MUL DUP3 ADD JUMPDEST DUP3 DUP2 GT ISZERO PUSH3 0x1D7F JUMPI DUP3 MLOAD DUP1 MLOAD PUSH3 0x1E24 SWAP2 DUP5 SWAP2 PUSH1 0x20 SWAP1 SWAP2 ADD SWAP1 PUSH3 0x1F2B JUMP JUMPDEST POP SWAP2 PUSH1 0x20 ADD SWAP2 SWAP1 PUSH1 0x1 ADD SWAP1 PUSH3 0x1E04 JUMP JUMPDEST DUP3 DUP1 SLOAD DUP3 DUP3 SSTORE SWAP1 PUSH1 0x0 MSTORE PUSH1 0x20 PUSH1 0x0 KECCAK256 SWAP1 DUP2 ADD SWAP3 DUP3 ISZERO PUSH3 0x1D7F JUMPI SWAP2 PUSH1 0x20 MUL DUP3 ADD JUMPDEST DUP3 DUP2 GT ISZERO PUSH3 0x1D7F JUMPI DUP3 MLOAD DUP1 MLOAD PUSH3 0x1E76 SWAP2 DUP5 SWAP2 PUSH1 0x20 SWAP1 SWAP2 ADD SWAP1 PUSH3 0x1F2B JUMP JUMPDEST POP SWAP2 PUSH1 0x20 ADD SWAP2 SWAP1 PUSH1 0x1 ADD SWAP1 PUSH3 0x1E56 JUMP JUMPDEST DUP3 DUP1 SLOAD DUP3 DUP3 SSTORE SWAP1 PUSH1 0x0 MSTORE PUSH1 0x20 PUSH1 0x0 KECCAK256 SWAP1 DUP2 ADD SWAP3 DUP3 ISZERO PUSH3 0x1D7F JUMPI SWAP2 PUSH1 0x20 MUL DUP3 ADD JUMPDEST DUP3 DUP2 GT ISZERO PUSH3 0x1D7F JUMPI DUP3 MLOAD DUP1 MLOAD PUSH3 0x1EC8 SWAP2 DUP5 SWAP2 PUSH1 0x20 SWAP1 SWAP2 ADD SWAP1 PUSH3 0x1F2B JUMP JUMPDEST POP SWAP2 PUSH1 0x20 ADD SWAP2 SWAP1 PUSH1 0x1 ADD SWAP1 PUSH3 0x1EA8 JUMP JUMPDEST DUP3 DUP1 SLOAD DUP3 DUP3 SSTORE SWAP1 PUSH1 0x0 MSTORE PUSH1 0x20 PUSH1 0x0 KECCAK256 SWAP1 DUP2 ADD SWAP3 DUP3 ISZERO PUSH3 0x1D7F JUMPI SWAP2 PUSH1 0x20 MUL DUP3 ADD JUMPDEST DUP3 DUP2 GT ISZERO PUSH3 0x1D7F JUMPI DUP3 MLOAD DUP1 MLOAD PUSH3 0x1F1A SWAP2 DUP5 SWAP2 PUSH1 0x20 SWAP1 SWAP2 ADD SWAP1 PUSH3 0x1F2B JUMP JUMPDEST POP SWAP2 PUSH1 0x20 ADD SWAP2 SWAP1 PUSH1 0x1 ADD SWAP1 PUSH3 0x1EFA JUMP JUMPDEST DUP3 DUP1 SLOAD PUSH3 0x1F39 SWAP1 PUSH3 0x2033 JUMP JUMPDEST SWAP1 PUSH1 0x0 MSTORE PUSH1 0x20 PUSH1 0x0 KECCAK256 SWAP1 PUSH1 0x1F ADD PUSH1 0x20 SWAP1 DIV DUP2 ADD SWAP3 DUP3 PUSH3 0x1F5D JUMPI PUSH1 0x0 DUP6 SSTORE PUSH3 0x1FA8 JUMP JUMPDEST DUP3 PUSH1 0x1F LT PUSH3 0x1F78 JUMPI DUP1 MLOAD PUSH1 0xFF NOT AND DUP4 DUP1 ADD OR DUP6 SSTORE PUSH3 0x1FA8 JUMP JUMPDEST DUP3 DUP1 ADD PUSH1 0x1 ADD DUP6 SSTORE DUP3 ISZERO PUSH3 0x1FA8 JUMPI SWAP2 DUP3 ADD JUMPDEST DUP3 DUP2 GT ISZERO PUSH3 0x1FA8 JUMPI DUP3 MLOAD DUP3 SSTORE SWAP2 PUSH1 0x20 ADD SWAP2 SWAP1 PUSH1 0x1 ADD SWAP1 PUSH3 0x1F8B JUMP JUMPDEST POP PUSH3 0x1D8D SWAP3 SWAP2 POP PUSH3 0x1FD7 JUMP JUMPDEST DUP1 DUP3 GT ISZERO PUSH3 0x1D8D JUMPI PUSH1 0x0 PUSH3 0x1FCD DUP3 DUP3 PUSH3 0x1FEE JUMP JUMPDEST POP PUSH1 0x1 ADD PUSH3 0x1FB6 JUMP JUMPDEST JUMPDEST DUP1 DUP3 GT ISZERO PUSH3 0x1D8D JUMPI PUSH1 0x0 DUP2 SSTORE PUSH1 0x1 ADD PUSH3 0x1FD8 JUMP JUMPDEST POP DUP1 SLOAD PUSH3 0x1FFC SWAP1 PUSH3 0x2033 JUMP JUMPDEST PUSH1 0x0 DUP3 SSTORE DUP1 PUSH1 0x1F LT PUSH3 0x2010 JUMPI POP PUSH3 0x2030 JUMP JUMPDEST PUSH1 0x1F ADD PUSH1 0x20 SWAP1 DIV SWAP1 PUSH1 0x0 MSTORE PUSH1 0x20 PUSH1 0x0 KECCAK256 SWAP1 DUP2 ADD SWAP1 PUSH3 0x2030 SWAP2 SWAP1 PUSH3 0x1FD7 JUMP JUMPDEST POP JUMP JUMPDEST PUSH1 0x2 DUP2 DIV PUSH1 0x1 DUP3 AND DUP1 PUSH3 0x2048 JUMPI PUSH1 0x7F DUP3 AND SWAP2 POP JUMPDEST PUSH1 0x20 DUP3 LT DUP2 EQ ISZERO PUSH3 0x205E JUMPI PUSH3 0x205E PUSH3 0x2064 JUMP JUMPDEST POP SWAP2 SWAP1 POP JUMP JUMPDEST PUSH4 0x4E487B71 PUSH1 0xE0 SHL PUSH1 0x0 MSTORE PUSH1 0x22 PUSH1 0x4 MSTORE PUSH1 0x24 PUSH1 0x0 REVERT JUMPDEST PUSH2 0x3622 DUP1 PUSH3 0x208A PUSH1 0x0 CODECOPY PUSH1 0x0 RETURN INVALID PUSH1 0x80 PUSH1 0x40 MSTORE CALLVALUE DUP1 ISZERO PUSH2 0x10 JUMPI PUSH1 0x0 DUP1 REVERT JUMPDEST POP PUSH1 0x4 CALLDATASIZE LT PUSH2 0x1CF JUMPI PUSH1 0x0 CALLDATALOAD PUSH1 0xE0 SHR DUP1 PUSH4 0x70A08231 GT PUSH2 0x104 JUMPI DUP1 PUSH4 0xA22CB465 GT PUSH2 0xA2 JUMPI DUP1 PUSH4 0xD47F269E GT PUSH2 0x71 JUMPI DUP1 PUSH4 0xD47F269E EQ PUSH2 0x3B7 JUMPI DUP1 PUSH4 0xE985E9C5 EQ PUSH2 0x3CA JUMPI DUP1 PUSH4 0xEF68075A EQ PUSH2 0x3DD JUMPI DUP1 PUSH4 0xF2FDE38B EQ PUSH2 0x3F0 JUMPI PUSH2 0x1CF JUMP JUMPDEST DUP1 PUSH4 0xA22CB465 EQ PUSH2 0x36B JUMPI DUP1 PUSH4 0xB88D4FDE EQ PUSH2 0x37E JUMPI DUP1 PUSH4 0xC08A5DD5 EQ PUSH2 0x391 JUMPI DUP1 PUSH4 0xC87B56DD EQ PUSH2 0x3A4 JUMPI PUSH2 0x1CF JUMP JUMPDEST DUP1 PUSH4 0x95D89B41 GT PUSH2 0xDE JUMPI DUP1 PUSH4 0x95D89B41 EQ PUSH2 0x32A JUMPI DUP1 PUSH4 0x9720C969 EQ PUSH2 0x332 JUMPI DUP1 PUSH4 0x9BDC1B69 EQ PUSH2 0x345 JUMPI DUP1 PUSH4 0x9E41B73F EQ PUSH2 0x358 JUMPI PUSH2 0x1CF JUMP JUMPDEST DUP1 PUSH4 0x70A08231 EQ PUSH2 0x307 JUMPI DUP1 PUSH4 0x715018A6 EQ PUSH2 0x31A JUMPI DUP1 PUSH4 0x8DA5CB5B EQ PUSH2 0x322 JUMPI PUSH2 0x1CF JUMP JUMPDEST DUP1 PUSH4 0x2F745C59 GT PUSH2 0x171 JUMPI DUP1 PUSH4 0x434F48C4 GT PUSH2 0x14B JUMPI DUP1 PUSH4 0x434F48C4 EQ PUSH2 0x2BB JUMPI DUP1 PUSH4 0x4F6CCCE7 EQ PUSH2 0x2CE JUMPI DUP1 PUSH4 0x6352211E EQ PUSH2 0x2E1 JUMPI DUP1 PUSH4 0x67209AA8 EQ PUSH2 0x2F4 JUMPI PUSH2 0x1CF JUMP JUMPDEST DUP1 PUSH4 0x2F745C59 EQ PUSH2 0x282 JUMPI DUP1 PUSH4 0x379607F5 EQ PUSH2 0x295 JUMPI DUP1 PUSH4 0x42842E0E EQ PUSH2 0x2A8 JUMPI PUSH2 0x1CF JUMP JUMPDEST DUP1 PUSH4 0x95EA7B3 GT PUSH2 0x1AD JUMPI DUP1 PUSH4 0x95EA7B3 EQ PUSH2 0x232 JUMPI DUP1 PUSH4 0xE99990D EQ PUSH2 0x247 JUMPI DUP1 PUSH4 0x18160DDD EQ PUSH2 0x25A JUMPI DUP1 PUSH4 0x23B872DD EQ PUSH2 0x26F JUMPI PUSH2 0x1CF JUMP JUMPDEST DUP1 PUSH4 0x1FFC9A7 EQ PUSH2 0x1D4 JUMPI DUP1 PUSH4 0x6FDDE03 EQ PUSH2 0x1FD JUMPI DUP1 PUSH4 0x81812FC EQ PUSH2 0x212 JUMPI JUMPDEST PUSH1 0x0 DUP1 REVERT JUMPDEST PUSH2 0x1E7 PUSH2 0x1E2 CALLDATASIZE PUSH1 0x4 PUSH2 0x24C0 JUMP JUMPDEST PUSH2 0x403 JUMP JUMPDEST PUSH1 0x40 MLOAD PUSH2 0x1F4 SWAP2 SWAP1 PUSH2 0x2F9C JUMP JUMPDEST PUSH1 0x40 MLOAD DUP1 SWAP2 SUB SWAP1 RETURN JUMPDEST PUSH2 0x205 PUSH2 0x430 JUMP JUMPDEST PUSH1 0x40 MLOAD PUSH2 0x1F4 SWAP2 SWAP1 PUSH2 0x2FAA JUMP JUMPDEST PUSH2 0x225 PUSH2 0x220 CALLDATASIZE PUSH1 0x4 PUSH2 0x24FC JUMP JUMPDEST PUSH2 0x4C2 JUMP JUMPDEST PUSH1 0x40 MLOAD PUSH2 0x1F4 SWAP2 SWAP1 PUSH2 0x2F4A JUMP JUMPDEST PUSH2 0x245 PUSH2 0x240 CALLDATASIZE PUSH1 0x4 PUSH2 0x2490 JUMP JUMPDEST PUSH2 0x50E JUMP JUMPDEST STOP JUMPDEST PUSH2 0x205 PUSH2 0x255 CALLDATASIZE PUSH1 0x4 PUSH2 0x24FC JUMP JUMPDEST PUSH2 0x5A6 JUMP JUMPDEST PUSH2 0x262 PUSH2 0x6A0 JUMP JUMPDEST PUSH1 0x40 MLOAD PUSH2 0x1F4 SWAP2 SWAP1 PUSH2 0x30EB JUMP JUMPDEST PUSH2 0x245 PUSH2 0x27D CALLDATASIZE PUSH1 0x4 PUSH2 0x239A JUMP JUMPDEST PUSH2 0x6A6 JUMP JUMPDEST PUSH2 0x262 PUSH2 0x290 CALLDATASIZE PUSH1 0x4 PUSH2 0x2490 JUMP JUMPDEST PUSH2 0x6DE JUMP JUMPDEST PUSH2 0x245 PUSH2 0x2A3 CALLDATASIZE PUSH1 0x4 PUSH2 0x24FC JUMP JUMPDEST PUSH2 0x733 JUMP JUMPDEST PUSH2 0x245 PUSH2 0x2B6 CALLDATASIZE PUSH1 0x4 PUSH2 0x239A JUMP JUMPDEST PUSH2 0x7A0 JUMP JUMPDEST PUSH2 0x245 PUSH2 0x2C9 CALLDATASIZE PUSH1 0x4 PUSH2 0x24FC JUMP JUMPDEST PUSH2 0x7BB JUMP JUMPDEST PUSH2 0x262 PUSH2 0x2DC CALLDATASIZE PUSH1 0x4 PUSH2 0x24FC JUMP JUMPDEST PUSH2 0x85B JUMP JUMPDEST PUSH2 0x225 PUSH2 0x2EF CALLDATASIZE PUSH1 0x4 PUSH2 0x24FC JUMP JUMPDEST PUSH2 0x8B6 JUMP JUMPDEST PUSH2 0x205 PUSH2 0x302 CALLDATASIZE PUSH1 0x4 PUSH2 0x24FC JUMP JUMPDEST PUSH2 0x8EB JUMP JUMPDEST PUSH2 0x262 PUSH2 0x315 CALLDATASIZE PUSH1 0x4 PUSH2 0x2342 JUMP JUMPDEST PUSH2 0x9DC JUMP JUMPDEST PUSH2 0x245 PUSH2 0xA20 JUMP JUMPDEST PUSH2 0x225 PUSH2 0xA6B JUMP JUMPDEST PUSH2 0x205 PUSH2 0xA7A JUMP JUMPDEST PUSH2 0x205 PUSH2 0x340 CALLDATASIZE PUSH1 0x4 PUSH2 0x24FC JUMP JUMPDEST PUSH2 0xA89 JUMP JUMPDEST PUSH2 0x205 PUSH2 0x353 CALLDATASIZE PUSH1 0x4 PUSH2 0x24FC JUMP JUMPDEST PUSH2 0xB7A JUMP JUMPDEST PUSH2 0x205 PUSH2 0x366 CALLDATASIZE PUSH1 0x4 PUSH2 0x24FC JUMP JUMPDEST PUSH2 0xC6C JUMP JUMPDEST PUSH2 0x245 PUSH2 0x379 CALLDATASIZE PUSH1 0x4 PUSH2 0x2460 JUMP JUMPDEST PUSH2 0xD5F JUMP JUMPDEST PUSH2 0x245 PUSH2 0x38C CALLDATASIZE PUSH1 0x4 PUSH2 0x23E7 JUMP JUMPDEST PUSH2 0xE2D JUMP JUMPDEST PUSH2 0x205 PUSH2 0x39F CALLDATASIZE PUSH1 0x4 PUSH2 0x24FC JUMP JUMPDEST PUSH2 0xE6C JUMP JUMPDEST PUSH2 0x205 PUSH2 0x3B2 CALLDATASIZE PUSH1 0x4 PUSH2 0x24FC JUMP JUMPDEST PUSH2 0xF5D JUMP JUMPDEST PUSH2 0x205 PUSH2 0x3C5 CALLDATASIZE PUSH1 0x4 PUSH2 0x24FC JUMP JUMPDEST PUSH2 0x1205 JUMP JUMPDEST PUSH2 0x1E7 PUSH2 0x3D8 CALLDATASIZE PUSH1 0x4 PUSH2 0x2360 JUMP JUMPDEST PUSH2 0x12F6 JUMP JUMPDEST PUSH2 0x205 PUSH2 0x3EB CALLDATASIZE PUSH1 0x4 PUSH2 0x24FC JUMP JUMPDEST PUSH2 0x1324 JUMP JUMPDEST PUSH2 0x245 PUSH2 0x3FE CALLDATASIZE PUSH1 0x4 PUSH2 0x2342 JUMP JUMPDEST PUSH2 0x1416 JUMP JUMPDEST PUSH1 0x0 PUSH1 0x1 PUSH1 0x1 PUSH1 0xE0 SHL SUB NOT DUP3 AND PUSH4 0x780E9D63 PUSH1 0xE0 SHL EQ DUP1 PUSH2 0x428 JUMPI POP PUSH2 0x428 DUP3 PUSH2 0x1487 JUMP JUMPDEST SWAP1 POP JUMPDEST SWAP2 SWAP1 POP JUMP JUMPDEST PUSH1 0x60 PUSH1 0x0 DUP1 SLOAD PUSH2 0x43F SWAP1 PUSH2 0x3285 JUMP JUMPDEST DUP1 PUSH1 0x1F ADD PUSH1 0x20 DUP1 SWAP2 DIV MUL PUSH1 0x20 ADD PUSH1 0x40 MLOAD SWAP1 DUP2 ADD PUSH1 0x40 MSTORE DUP1 SWAP3 SWAP2 SWAP1 DUP2 DUP2 MSTORE PUSH1 0x20 ADD DUP3 DUP1 SLOAD PUSH2 0x46B SWAP1 PUSH2 0x3285 JUMP JUMPDEST DUP1 ISZERO PUSH2 0x4B8 JUMPI DUP1 PUSH1 0x1F LT PUSH2 0x48D JUMPI PUSH2 0x100 DUP1 DUP4 SLOAD DIV MUL DUP4 MSTORE SWAP2 PUSH1 0x20 ADD SWAP2 PUSH2 0x4B8 JUMP JUMPDEST DUP3 ADD SWAP2 SWAP1 PUSH1 0x0 MSTORE PUSH1 0x20 PUSH1 0x0 KECCAK256 SWAP1 JUMPDEST DUP2 SLOAD DUP2 MSTORE SWAP1 PUSH1 0x1 ADD SWAP1 PUSH1 0x20 ADD DUP1 DUP4 GT PUSH2 0x49B JUMPI DUP3 SWAP1 SUB PUSH1 0x1F AND DUP3 ADD SWAP2 JUMPDEST POP POP POP POP POP SWAP1 POP SWAP1 JUMP JUMPDEST PUSH1 0x0 PUSH2 0x4CD DUP3 PUSH2 0x14C7 JUMP JUMPDEST PUSH2 0x4F2 JUMPI PUSH1 0x40 MLOAD PUSH3 0x461BCD PUSH1 0xE5 SHL DUP2 MSTORE PUSH1 0x4 ADD PUSH2 0x4E9 SWAP1 PUSH2 0x306B JUMP JUMPDEST PUSH1 0x40 MLOAD DUP1 SWAP2 SUB SWAP1 REVERT JUMPDEST POP PUSH1 0x0 SWAP1 DUP2 MSTORE PUSH1 0x4 PUSH1 0x20 MSTORE PUSH1 0x40 SWAP1 KECCAK256 SLOAD PUSH1 0x1 PUSH1 0x1 PUSH1 0xA0 SHL SUB AND SWAP1 JUMP JUMPDEST PUSH1 0x0 PUSH2 0x519 DUP3 PUSH2 0x8B6 JUMP JUMPDEST SWAP1 POP DUP1 PUSH1 0x1 PUSH1 0x1 PUSH1 0xA0 SHL SUB AND DUP4 PUSH1 0x1 PUSH1 0x1 PUSH1 0xA0 SHL SUB AND EQ ISZERO PUSH2 0x54D JUMPI PUSH1 0x40 MLOAD PUSH3 0x461BCD PUSH1 0xE5 SHL DUP2 MSTORE PUSH1 0x4 ADD PUSH2 0x4E9 SWAP1 PUSH2 0x30AB JUMP JUMPDEST DUP1 PUSH1 0x1 PUSH1 0x1 PUSH1 0xA0 SHL SUB AND PUSH2 0x55F PUSH2 0x14E4 JUMP JUMPDEST PUSH1 0x1 PUSH1 0x1 PUSH1 0xA0 SHL SUB AND EQ DUP1 PUSH2 0x57B JUMPI POP PUSH2 0x57B DUP2 PUSH2 0x3D8 PUSH2 0x14E4 JUMP JUMPDEST PUSH2 0x597 JUMPI PUSH1 0x40 MLOAD PUSH3 0x461BCD PUSH1 0xE5 SHL DUP2 MSTORE PUSH1 0x4 ADD PUSH2 0x4E9 SWAP1 PUSH2 0x302B JUMP JUMPDEST PUSH2 0x5A1 DUP4 DUP4 PUSH2 0x14E8 JUMP JUMPDEST POP POP POP JUMP JUMPDEST PUSH1 0x60 PUSH2 0x428 DUP3 PUSH1 0x40 MLOAD DUP1 PUSH1 0x40 ADD PUSH1 0x40 MSTORE DUP1 PUSH1 0x4 DUP2 MSTORE PUSH1 0x20 ADD PUSH4 0x1193D3D5 PUSH1 0xE2 SHL DUP2 MSTORE POP PUSH1 0x10 DUP1 SLOAD DUP1 PUSH1 0x20 MUL PUSH1 0x20 ADD PUSH1 0x40 MLOAD SWAP1 DUP2 ADD PUSH1 0x40 MSTORE DUP1 SWAP3 SWAP2 SWAP1 DUP2 DUP2 MSTORE PUSH1 0x20 ADD PUSH1 0x0 SWAP1 JUMPDEST DUP3 DUP3 LT ISZERO PUSH2 0x697 JUMPI DUP4 DUP3 SWAP1 PUSH1 0x0 MSTORE PUSH1 0x20 PUSH1 0x0 KECCAK256 ADD DUP1 SLOAD PUSH2 0x60A SWAP1 PUSH2 0x3285 JUMP JUMPDEST DUP1 PUSH1 0x1F ADD PUSH1 0x20 DUP1 SWAP2 DIV MUL PUSH1 0x20 ADD PUSH1 0x40 MLOAD SWAP1 DUP2 ADD PUSH1 0x40 MSTORE DUP1 SWAP3 SWAP2 SWAP1 DUP2 DUP2 MSTORE PUSH1 0x20 ADD DUP3 DUP1 SLOAD PUSH2 0x636 SWAP1 PUSH2 0x3285 JUMP JUMPDEST DUP1 ISZERO PUSH2 0x683 JUMPI DUP1 PUSH1 0x1F LT PUSH2 0x658 JUMPI PUSH2 0x100 DUP1 DUP4 SLOAD DIV MUL DUP4 MSTORE SWAP2 PUSH1 0x20 ADD SWAP2 PUSH2 0x683 JUMP JUMPDEST DUP3 ADD SWAP2 SWAP1 PUSH1 0x0 MSTORE PUSH1 0x20 PUSH1 0x0 KECCAK256 SWAP1 JUMPDEST DUP2 SLOAD DUP2 MSTORE SWAP1 PUSH1 0x1 ADD SWAP1 PUSH1 0x20 ADD DUP1 DUP4 GT PUSH2 0x666 JUMPI DUP3 SWAP1 SUB PUSH1 0x1F AND DUP3 ADD SWAP2 JUMPDEST POP POP POP POP POP DUP2 MSTORE PUSH1 0x20 ADD SWAP1 PUSH1 0x1 ADD SWAP1 PUSH2 0x5EB JUMP JUMPDEST POP POP POP POP PUSH2 0x1556 JUMP JUMPDEST PUSH1 0x8 SLOAD SWAP1 JUMP JUMPDEST PUSH2 0x6B7 PUSH2 0x6B1 PUSH2 0x14E4 JUMP JUMPDEST DUP3 PUSH2 0x1883 JUMP JUMPDEST PUSH2 0x6D3 JUMPI PUSH1 0x40 MLOAD PUSH3 0x461BCD PUSH1 0xE5 SHL DUP2 MSTORE PUSH1 0x4 ADD PUSH2 0x4E9 SWAP1 PUSH2 0x30BB JUMP JUMPDEST PUSH2 0x5A1 DUP4 DUP4 DUP4 PUSH2 0x1908 JUMP JUMPDEST PUSH1 0x0 PUSH2 0x6E9 DUP4 PUSH2 0x9DC JUMP JUMPDEST DUP3 LT PUSH2 0x707 JUMPI PUSH1 0x40 MLOAD PUSH3 0x461BCD PUSH1 0xE5 SHL DUP2 MSTORE PUSH1 0x4 ADD PUSH2 0x4E9 SWAP1 PUSH2 0x2FBB JUMP JUMPDEST POP PUSH1 0x1 PUSH1 0x1 PUSH1 0xA0 SHL SUB DUP3 AND PUSH1 0x0 SWAP1 DUP2 MSTORE PUSH1 0x6 PUSH1 0x20 SWAP1 DUP2 MSTORE PUSH1 0x40 DUP1 DUP4 KECCAK256 DUP5 DUP5 MSTORE SWAP1 SWAP2 MSTORE SWAP1 KECCAK256 SLOAD JUMPDEST SWAP3 SWAP2 POP POP JUMP JUMPDEST PUSH1 0x2 PUSH1 0xA SLOAD EQ ISZERO PUSH2 0x756 JUMPI PUSH1 0x40 MLOAD PUSH3 0x461BCD PUSH1 0xE5 SHL DUP2 MSTORE PUSH1 0x4 ADD PUSH2 0x4E9 SWAP1 PUSH2 0x30DB JUMP JUMPDEST PUSH1 0x2 PUSH1 0xA SSTORE DUP1 ISZERO DUP1 ISZERO SWAP1 PUSH2 0x76B JUMPI POP PUSH2 0x1E62 DUP2 LT JUMPDEST PUSH2 0x787 JUMPI PUSH1 0x40 MLOAD PUSH3 0x461BCD PUSH1 0xE5 SHL DUP2 MSTORE PUSH1 0x4 ADD PUSH2 0x4E9 SWAP1 PUSH2 0x308B JUMP JUMPDEST PUSH2 0x798 PUSH2 0x792 PUSH2 0x14E4 JUMP JUMPDEST DUP3 PUSH2 0x1A35 JUMP JUMPDEST POP PUSH1 0x1 PUSH1 0xA SSTORE JUMP JUMPDEST PUSH2 0x5A1 DUP4 DUP4 DUP4 PUSH1 0x40 MLOAD DUP1 PUSH1 0x20 ADD PUSH1 0x40 MSTORE DUP1 PUSH1 0x0 DUP2 MSTORE POP PUSH2 0xE2D JUMP JUMPDEST PUSH1 0x2 PUSH1 0xA SLOAD EQ ISZERO PUSH2 0x7DE JUMPI PUSH1 0x40 MLOAD PUSH3 0x461BCD PUSH1 0xE5 SHL DUP2 MSTORE PUSH1 0x4 ADD PUSH2 0x4E9 SWAP1 PUSH2 0x30DB JUMP JUMPDEST PUSH1 0x2 PUSH1 0xA SSTORE PUSH2 0x7EB PUSH2 0x14E4 JUMP JUMPDEST PUSH1 0x1 PUSH1 0x1 PUSH1 0xA0 SHL SUB AND PUSH2 0x7FC PUSH2 0xA6B JUMP JUMPDEST PUSH1 0x1 PUSH1 0x1 PUSH1 0xA0 SHL SUB AND EQ PUSH2 0x822 JUMPI PUSH1 0x40 MLOAD PUSH3 0x461BCD PUSH1 0xE5 SHL DUP2 MSTORE PUSH1 0x4 ADD PUSH2 0x4E9 SWAP1 PUSH2 0x307B JUMP JUMPDEST PUSH2 0x1E61 DUP2 GT DUP1 ISZERO PUSH2 0x834 JUMPI POP PUSH2 0x1F41 DUP2 LT JUMPDEST PUSH2 0x850 JUMPI PUSH1 0x40 MLOAD PUSH3 0x461BCD PUSH1 0xE5 SHL DUP2 MSTORE PUSH1 0x4 ADD PUSH2 0x4E9 SWAP1 PUSH2 0x308B JUMP JUMPDEST PUSH2 0x798 PUSH2 0x792 PUSH2 0xA6B JUMP JUMPDEST PUSH1 0x0 PUSH2 0x865 PUSH2 0x6A0 JUMP JUMPDEST DUP3 LT PUSH2 0x883 JUMPI PUSH1 0x40 MLOAD PUSH3 0x461BCD PUSH1 0xE5 SHL DUP2 MSTORE PUSH1 0x4 ADD PUSH2 0x4E9 SWAP1 PUSH2 0x30CB JUMP JUMPDEST PUSH1 0x8 DUP3 DUP2 SLOAD DUP2 LT PUSH2 0x8A4 JUMPI PUSH4 0x4E487B71 PUSH1 0xE0 SHL PUSH1 0x0 MSTORE PUSH1 0x32 PUSH1 0x4 MSTORE PUSH1 0x24 PUSH1 0x0 REVERT JUMPDEST SWAP1 PUSH1 0x0 MSTORE PUSH1 0x20 PUSH1 0x0 KECCAK256 ADD SLOAD SWAP1 POP SWAP2 SWAP1 POP JUMP JUMPDEST PUSH1 0x0 DUP2 DUP2 MSTORE PUSH1 0x2 PUSH1 0x20 MSTORE PUSH1 0x40 DUP2 KECCAK256 SLOAD PUSH1 0x1 PUSH1 0x1 PUSH1 0xA0 SHL SUB AND DUP1 PUSH2 0x428 JUMPI PUSH1 0x40 MLOAD PUSH3 0x461BCD PUSH1 0xE5 SHL DUP2 MSTORE PUSH1 0x4 ADD PUSH2 0x4E9 SWAP1 PUSH2 0x304B JUMP JUMPDEST PUSH1 0x60 PUSH2 0x428 DUP3 PUSH1 0x40 MLOAD DUP1 PUSH1 0x40 ADD PUSH1 0x40 MSTORE DUP1 PUSH1 0x4 DUP2 MSTORE PUSH1 0x20 ADD PUSH4 0x4E45434B PUSH1 0xE0 SHL DUP2 MSTORE POP PUSH1 0x12 DUP1 SLOAD DUP1 PUSH1 0x20 MUL PUSH1 0x20 ADD PUSH1 0x40 MLOAD SWAP1 DUP2 ADD PUSH1 0x40 MSTORE DUP1 SWAP3 SWAP2 SWAP1 DUP2 DUP2 MSTORE PUSH1 0x20 ADD PUSH1 0x0 SWAP1 JUMPDEST DUP3 DUP3 LT ISZERO PUSH2 0x697 JUMPI DUP4 DUP3 SWAP1 PUSH1 0x0 MSTORE PUSH1 0x20 PUSH1 0x0 KECCAK256 ADD DUP1 SLOAD PUSH2 0x94F SWAP1 PUSH2 0x3285 JUMP JUMPDEST DUP1 PUSH1 0x1F ADD PUSH1 0x20 DUP1 SWAP2 DIV MUL PUSH1 0x20 ADD PUSH1 0x40 MLOAD SWAP1 DUP2 ADD PUSH1 0x40 MSTORE DUP1 SWAP3 SWAP2 SWAP1 DUP2 DUP2 MSTORE PUSH1 0x20 ADD DUP3 DUP1 SLOAD PUSH2 0x97B SWAP1 PUSH2 0x3285 JUMP JUMPDEST DUP1 ISZERO PUSH2 0x9C8 JUMPI DUP1 PUSH1 0x1F LT PUSH2 0x99D JUMPI PUSH2 0x100 DUP1 DUP4 SLOAD DIV MUL DUP4 MSTORE SWAP2 PUSH1 0x20 ADD SWAP2 PUSH2 0x9C8 JUMP JUMPDEST DUP3 ADD SWAP2 SWAP1 PUSH1 0x0 MSTORE PUSH1 0x20 PUSH1 0x0 KECCAK256 SWAP1 JUMPDEST DUP2 SLOAD DUP2 MSTORE SWAP1 PUSH1 0x1 ADD SWAP1 PUSH1 0x20 ADD DUP1 DUP4 GT PUSH2 0x9AB JUMPI DUP3 SWAP1 SUB PUSH1 0x1F AND DUP3 ADD SWAP2 JUMPDEST POP POP POP POP POP DUP2 MSTORE PUSH1 0x20 ADD SWAP1 PUSH1 0x1 ADD SWAP1 PUSH2 0x930 JUMP JUMPDEST PUSH1 0x0 PUSH1 0x1 PUSH1 0x1 PUSH1 0xA0 SHL SUB DUP3 AND PUSH2 0xA04 JUMPI PUSH1 0x40 MLOAD PUSH3 0x461BCD PUSH1 0xE5 SHL DUP2 MSTORE PUSH1 0x4 ADD PUSH2 0x4E9 SWAP1 PUSH2 0x303B JUMP JUMPDEST POP PUSH1 0x1 PUSH1 0x1 PUSH1 0xA0 SHL SUB AND PUSH1 0x0 SWAP1 DUP2 MSTORE PUSH1 0x3 PUSH1 0x20 MSTORE PUSH1 0x40 SWAP1 KECCAK256 SLOAD SWAP1 JUMP JUMPDEST PUSH2 0xA28 PUSH2 0x14E4 JUMP JUMPDEST PUSH1 0x1 PUSH1 0x1 PUSH1 0xA0 SHL SUB AND PUSH2 0xA39 PUSH2 0xA6B JUMP JUMPDEST PUSH1 0x1 PUSH1 0x1 PUSH1 0xA0 SHL SUB AND EQ PUSH2 0xA5F JUMPI PUSH1 0x40 MLOAD PUSH3 0x461BCD PUSH1 0xE5 SHL DUP2 MSTORE PUSH1 0x4 ADD PUSH2 0x4E9 SWAP1 PUSH2 0x307B JUMP JUMPDEST PUSH2 0xA69 PUSH1 0x0 PUSH2 0x1A53 JUMP JUMPDEST JUMP JUMPDEST PUSH1 0xB SLOAD PUSH1 0x1 PUSH1 0x1 PUSH1 0xA0 SHL SUB AND SWAP1 JUMP JUMPDEST PUSH1 0x60 PUSH1 0x1 DUP1 SLOAD PUSH2 0x43F SWAP1 PUSH2 0x3285 JUMP JUMPDEST PUSH1 0x60 PUSH2 0x428 DUP3 PUSH1 0x40 MLOAD DUP1 PUSH1 0x40 ADD PUSH1 0x40 MSTORE DUP1 PUSH1 0x4 DUP2 MSTORE PUSH1 0x20 ADD PUSH4 0x12115051 PUSH1 0xE2 SHL DUP2 MSTORE POP PUSH1 0xE DUP1 SLOAD DUP1 PUSH1 0x20 MUL PUSH1 0x20 ADD PUSH1 0x40 MLOAD SWAP1 DUP2 ADD PUSH1 0x40 MSTORE DUP1 SWAP3 SWAP2 SWAP1 DUP2 DUP2 MSTORE PUSH1 0x20 ADD PUSH1 0x0 SWAP1 JUMPDEST DUP3 DUP3 LT ISZERO PUSH2 0x697 JUMPI DUP4 DUP3 SWAP1 PUSH1 0x0 MSTORE PUSH1 0x20 PUSH1 0x0 KECCAK256 ADD DUP1 SLOAD PUSH2 0xAED SWAP1 PUSH2 0x3285 JUMP JUMPDEST DUP1 PUSH1 0x1F ADD PUSH1 0x20 DUP1 SWAP2 DIV MUL PUSH1 0x20 ADD PUSH1 0x40 MLOAD SWAP1 DUP2 ADD PUSH1 0x40 MSTORE DUP1 SWAP3 SWAP2 SWAP1 DUP2 DUP2 MSTORE PUSH1 0x20 ADD DUP3 DUP1 SLOAD PUSH2 0xB19 SWAP1 PUSH2 0x3285 JUMP JUMPDEST DUP1 ISZERO PUSH2 0xB66 JUMPI DUP1 PUSH1 0x1F LT PUSH2 0xB3B JUMPI PUSH2 0x100 DUP1 DUP4 SLOAD DIV MUL DUP4 MSTORE SWAP2 PUSH1 0x20 ADD SWAP2 PUSH2 0xB66 JUMP JUMPDEST DUP3 ADD SWAP2 SWAP1 PUSH1 0x0 MSTORE PUSH1 0x20 PUSH1 0x0 KECCAK256 SWAP1 JUMPDEST DUP2 SLOAD DUP2 MSTORE SWAP1 PUSH1 0x1 ADD SWAP1 PUSH1 0x20 ADD DUP1 DUP4 GT PUSH2 0xB49 JUMPI DUP3 SWAP1 SUB PUSH1 0x1F AND DUP3 ADD SWAP2 JUMPDEST POP POP POP POP POP DUP2 MSTORE PUSH1 0x20 ADD SWAP1 PUSH1 0x1 ADD SWAP1 PUSH2 0xACE JUMP JUMPDEST PUSH1 0x60 PUSH2 0x428 DUP3 PUSH1 0x40 MLOAD DUP1 PUSH1 0x40 ADD PUSH1 0x40 MSTORE DUP1 PUSH1 0x5 DUP2 MSTORE PUSH1 0x20 ADD PUSH5 0x15D05254D5 PUSH1 0xDA SHL DUP2 MSTORE POP PUSH1 0xF DUP1 SLOAD DUP1 PUSH1 0x20 MUL PUSH1 0x20 ADD PUSH1 0x40 MLOAD SWAP1 DUP2 ADD PUSH1 0x40 MSTORE DUP1 SWAP3 SWAP2 SWAP1 DUP2 DUP2 MSTORE PUSH1 0x20 ADD PUSH1 0x0 SWAP1 JUMPDEST DUP3 DUP3 LT ISZERO PUSH2 0x697 JUMPI DUP4 DUP3 SWAP1 PUSH1 0x0 MSTORE PUSH1 0x20 PUSH1 0x0 KECCAK256 ADD DUP1 SLOAD PUSH2 0xBDF SWAP1 PUSH2 0x3285 JUMP JUMPDEST DUP1 PUSH1 0x1F ADD PUSH1 0x20 DUP1 SWAP2 DIV MUL PUSH1 0x20 ADD PUSH1 0x40 MLOAD SWAP1 DUP2 ADD PUSH1 0x40 MSTORE DUP1 SWAP3 SWAP2 SWAP1 DUP2 DUP2 MSTORE PUSH1 0x20 ADD DUP3 DUP1 SLOAD PUSH2 0xC0B SWAP1 PUSH2 0x3285 JUMP JUMPDEST DUP1 ISZERO PUSH2 0xC58 JUMPI DUP1 PUSH1 0x1F LT PUSH2 0xC2D JUMPI PUSH2 0x100 DUP1 DUP4 SLOAD DIV MUL DUP4 MSTORE SWAP2 PUSH1 0x20 ADD SWAP2 PUSH2 0xC58 JUMP JUMPDEST DUP3 ADD SWAP2 SWAP1 PUSH1 0x0 MSTORE PUSH1 0x20 PUSH1 0x0 KECCAK256 SWAP1 JUMPDEST DUP2 SLOAD DUP2 MSTORE SWAP1 PUSH1 0x1 ADD SWAP1 PUSH1 0x20 ADD DUP1 DUP4 GT PUSH2 0xC3B JUMPI DUP3 SWAP1 SUB PUSH1 0x1F AND DUP3 ADD SWAP2 JUMPDEST POP POP POP POP POP DUP2 MSTORE PUSH1 0x20 ADD SWAP1 PUSH1 0x1 ADD SWAP1 PUSH2 0xBC0 JUMP JUMPDEST PUSH1 0x60 PUSH2 0x428 DUP3 PUSH1 0x40 MLOAD DUP1 PUSH1 0x40 ADD PUSH1 0x40 MSTORE DUP1 PUSH1 0x6 DUP2 MSTORE PUSH1 0x20 ADD PUSH6 0x2BA2A0A827A7 PUSH1 0xD1 SHL DUP2 MSTORE POP PUSH1 0xC DUP1 SLOAD DUP1 PUSH1 0x20 MUL PUSH1 0x20 ADD PUSH1 0x40 MLOAD SWAP1 DUP2 ADD PUSH1 0x40 MSTORE DUP1 SWAP3 SWAP2 SWAP1 DUP2 DUP2 MSTORE PUSH1 0x20 ADD PUSH1 0x0 SWAP1 JUMPDEST DUP3 DUP3 LT ISZERO PUSH2 0x697 JUMPI DUP4 DUP3 SWAP1 PUSH1 0x0 MSTORE PUSH1 0x20 PUSH1 0x0 KECCAK256 ADD DUP1 SLOAD PUSH2 0xCD2 SWAP1 PUSH2 0x3285 JUMP JUMPDEST DUP1 PUSH1 0x1F ADD PUSH1 0x20 DUP1 SWAP2 DIV MUL PUSH1 0x20 ADD PUSH1 0x40 MLOAD SWAP1 DUP2 ADD PUSH1 0x40 MSTORE DUP1 SWAP3 SWAP2 SWAP1 DUP2 DUP2 MSTORE PUSH1 0x20 ADD DUP3 DUP1 SLOAD PUSH2 0xCFE SWAP1 PUSH2 0x3285 JUMP JUMPDEST DUP1 ISZERO PUSH2 0xD4B JUMPI DUP1 PUSH1 0x1F LT PUSH2 0xD20 JUMPI PUSH2 0x100 DUP1 DUP4 SLOAD DIV MUL DUP4 MSTORE SWAP2 PUSH1 0x20 ADD SWAP2 PUSH2 0xD4B JUMP JUMPDEST DUP3 ADD SWAP2 SWAP1 PUSH1 0x0 MSTORE PUSH1 0x20 PUSH1 0x0 KECCAK256 SWAP1 JUMPDEST DUP2 SLOAD DUP2 MSTORE SWAP1 PUSH1 0x1 ADD SWAP1 PUSH1 0x20 ADD DUP1 DUP4 GT PUSH2 0xD2E JUMPI DUP3 SWAP1 SUB PUSH1 0x1F AND DUP3 ADD SWAP2 JUMPDEST POP POP POP POP POP DUP2 MSTORE PUSH1 0x20 ADD SWAP1 PUSH1 0x1 ADD SWAP1 PUSH2 0xCB3 JUMP JUMPDEST PUSH2 0xD67 PUSH2 0x14E4 JUMP JUMPDEST PUSH1 0x1 PUSH1 0x1 PUSH1 0xA0 SHL SUB AND DUP3 PUSH1 0x1 PUSH1 0x1 PUSH1 0xA0 SHL SUB AND EQ ISZERO PUSH2 0xD98 JUMPI PUSH1 0x40 MLOAD PUSH3 0x461BCD PUSH1 0xE5 SHL DUP2 MSTORE PUSH1 0x4 ADD PUSH2 0x4E9 SWAP1 PUSH2 0x300B JUMP JUMPDEST DUP1 PUSH1 0x5 PUSH1 0x0 PUSH2 0xDA5 PUSH2 0x14E4 JUMP JUMPDEST PUSH1 0x1 PUSH1 0x1 PUSH1 0xA0 SHL SUB SWAP1 DUP2 AND DUP3 MSTORE PUSH1 0x20 DUP1 DUP4 ADD SWAP4 SWAP1 SWAP4 MSTORE PUSH1 0x40 SWAP2 DUP3 ADD PUSH1 0x0 SWAP1 DUP2 KECCAK256 SWAP2 DUP8 AND DUP1 DUP3 MSTORE SWAP2 SWAP1 SWAP4 MSTORE SWAP2 KECCAK256 DUP1 SLOAD PUSH1 0xFF NOT AND SWAP3 ISZERO ISZERO SWAP3 SWAP1 SWAP3 OR SWAP1 SWAP2 SSTORE PUSH2 0xDE9 PUSH2 0x14E4 JUMP JUMPDEST PUSH1 0x1 PUSH1 0x1 PUSH1 0xA0 SHL SUB AND PUSH32 0x17307EAB39AB6107E8899845AD3D59BD9653F200F220920489CA2B5937696C31 DUP4 PUSH1 0x40 MLOAD PUSH2 0xE21 SWAP2 SWAP1 PUSH2 0x2F9C JUMP JUMPDEST PUSH1 0x40 MLOAD DUP1 SWAP2 SUB SWAP1 LOG3 POP POP JUMP JUMPDEST PUSH2 0xE3E PUSH2 0xE38 PUSH2 0x14E4 JUMP JUMPDEST DUP4 PUSH2 0x1883 JUMP JUMPDEST PUSH2 0xE5A JUMPI PUSH1 0x40 MLOAD PUSH3 0x461BCD PUSH1 0xE5 SHL DUP2 MSTORE PUSH1 0x4 ADD PUSH2 0x4E9 SWAP1 PUSH2 0x30BB JUMP JUMPDEST PUSH2 0xE66 DUP5 DUP5 DUP5 DUP5 PUSH2 0x1AA5 JUMP JUMPDEST POP POP POP POP JUMP JUMPDEST PUSH1 0x60 PUSH2 0x428 DUP3 PUSH1 0x40 MLOAD DUP1 PUSH1 0x40 ADD PUSH1 0x40 MSTORE DUP1 PUSH1 0x4 DUP2 MSTORE PUSH1 0x20 ADD PUSH4 0x52494E47 PUSH1 0xE0 SHL DUP2 MSTORE POP PUSH1 0x13 DUP1 SLOAD DUP1 PUSH1 0x20 MUL PUSH1 0x20 ADD PUSH1 0x40 MLOAD SWAP1 DUP2 ADD PUSH1 0x40 MSTORE DUP1 SWAP3 SWAP2 SWAP1 DUP2 DUP2 MSTORE PUSH1 0x20 ADD PUSH1 0x0 SWAP1 JUMPDEST DUP3 DUP3 LT ISZERO PUSH2 0x697 JUMPI DUP4 DUP3 SWAP1 PUSH1 0x0 MSTORE PUSH1 0x20 PUSH1 0x0 KECCAK256 ADD DUP1 SLOAD PUSH2 0xED0 SWAP1 PUSH2 0x3285 JUMP JUMPDEST DUP1 PUSH1 0x1F ADD PUSH1 0x20 DUP1 SWAP2 DIV MUL PUSH1 0x20 ADD PUSH1 0x40 MLOAD SWAP1 DUP2 ADD PUSH1 0x40 MSTORE DUP1 SWAP3 SWAP2 SWAP1 DUP2 DUP2 MSTORE PUSH1 0x20 ADD DUP3 DUP1 SLOAD PUSH2 0xEFC SWAP1 PUSH2 0x3285 JUMP JUMPDEST DUP1 ISZERO PUSH2 0xF49 JUMPI DUP1 PUSH1 0x1F LT PUSH2 0xF1E JUMPI PUSH2 0x100 DUP1 DUP4 SLOAD DIV MUL DUP4 MSTORE SWAP2 PUSH1 0x20 ADD SWAP2 PUSH2 0xF49 JUMP JUMPDEST DUP3 ADD SWAP2 SWAP1 PUSH1 0x0 MSTORE PUSH1 0x20 PUSH1 0x0 KECCAK256 SWAP1 JUMPDEST DUP2 SLOAD DUP2 MSTORE SWAP1 PUSH1 0x1 ADD SWAP1 PUSH1 0x20 ADD DUP1 DUP4 GT PUSH2 0xF2C JUMPI DUP3 SWAP1 SUB PUSH1 0x1F AND DUP3 ADD SWAP2 JUMPDEST POP POP POP POP POP DUP2 MSTORE PUSH1 0x20 ADD SWAP1 PUSH1 0x1 ADD SWAP1 PUSH2 0xEB1 JUMP JUMPDEST PUSH1 0x60 PUSH2 0xF67 PUSH2 0x226B JUMP JUMPDEST PUSH1 0x40 MLOAD DUP1 PUSH2 0x120 ADD PUSH1 0x40 MSTORE DUP1 PUSH1 0xFD DUP2 MSTORE PUSH1 0x20 ADD PUSH2 0x345F PUSH1 0xFD SWAP2 CODECOPY DUP2 MSTORE PUSH2 0xF8C DUP4 PUSH2 0xC6C JUMP JUMPDEST DUP2 PUSH1 0x1 PUSH1 0x20 MUL ADD DUP2 SWAP1 MSTORE POP PUSH1 0x40 MLOAD DUP1 PUSH1 0x60 ADD PUSH1 0x40 MSTORE DUP1 PUSH1 0x28 DUP2 MSTORE PUSH1 0x20 ADD PUSH2 0x35C5 PUSH1 0x28 SWAP2 CODECOPY PUSH1 0x40 DUP3 ADD MSTORE PUSH2 0xFBE DUP4 PUSH2 0x1324 JUMP JUMPDEST PUSH1 0x60 DUP1 DUP4 ADD SWAP2 SWAP1 SWAP2 MSTORE PUSH1 0x40 DUP1 MLOAD SWAP2 DUP3 ADD SWAP1 MSTORE PUSH1 0x28 DUP1 DUP3 MSTORE PUSH2 0x3394 PUSH1 0x20 DUP4 ADD CODECOPY PUSH1 0x80 DUP3 ADD MSTORE PUSH2 0xFEB DUP4 PUSH2 0xA89 JUMP JUMPDEST PUSH1 0xA0 DUP3 ADD MSTORE PUSH1 0x40 DUP1 MLOAD PUSH1 0x60 DUP2 ADD SWAP1 SWAP2 MSTORE PUSH1 0x28 DUP1 DUP3 MSTORE PUSH2 0x340E PUSH1 0x20 DUP4 ADD CODECOPY PUSH1 0xC0 DUP3 ADD MSTORE PUSH2 0x1016 DUP4 PUSH2 0xB7A JUMP JUMPDEST PUSH1 0xE0 DUP3 ADD MSTORE PUSH1 0x40 DUP1 MLOAD PUSH1 0x60 DUP2 ADD SWAP1 SWAP2 MSTORE PUSH1 0x29 DUP1 DUP3 MSTORE PUSH2 0x3436 PUSH1 0x20 DUP4 ADD CODECOPY PUSH2 0x100 DUP3 ADD MSTORE PUSH2 0x1042 DUP4 PUSH2 0x5A6 JUMP JUMPDEST PUSH2 0x120 DUP3 ADD MSTORE PUSH1 0x40 DUP1 MLOAD PUSH1 0x60 DUP2 ADD SWAP1 SWAP2 MSTORE PUSH1 0x29 DUP1 DUP3 MSTORE PUSH2 0x33E5 PUSH1 0x20 DUP4 ADD CODECOPY PUSH2 0x140 DUP3 ADD MSTORE PUSH2 0x106F DUP4 PUSH2 0x1205 JUMP JUMPDEST PUSH2 0x160 DUP3 ADD MSTORE PUSH1 0x40 DUP1 MLOAD PUSH1 0x60 DUP2 ADD SWAP1 SWAP2 MSTORE PUSH1 0x29 DUP1 DUP3 MSTORE PUSH2 0x355C PUSH1 0x20 DUP4 ADD CODECOPY PUSH2 0x180 DUP3 ADD MSTORE PUSH2 0x109C DUP4 PUSH2 0x8EB JUMP JUMPDEST PUSH2 0x1A0 DUP3 ADD MSTORE PUSH1 0x40 DUP1 MLOAD PUSH1 0x60 DUP2 ADD SWAP1 SWAP2 MSTORE PUSH1 0x29 DUP1 DUP3 MSTORE PUSH2 0x33BC PUSH1 0x20 DUP4 ADD CODECOPY PUSH2 0x1C0 DUP3 ADD MSTORE PUSH2 0x10C9 DUP4 PUSH2 0xE6C JUMP JUMPDEST PUSH2 0x1E0 DUP3 ADD MSTORE PUSH1 0x40 DUP1 MLOAD DUP1 DUP3 ADD DUP3 MSTORE PUSH1 0xD DUP2 MSTORE PUSH13 0x1E17BA32BC3A1F1E17B9BB339F PUSH1 0x99 SHL PUSH1 0x20 DUP1 DUP4 ADD SWAP2 SWAP1 SWAP2 MSTORE PUSH2 0x200 DUP5 ADD SWAP2 SWAP1 SWAP2 MSTORE DUP3 MLOAD DUP2 DUP5 ADD MLOAD DUP4 DUP6 ADD MLOAD PUSH1 0x60 DUP7 ADD MLOAD PUSH1 0x80 DUP8 ADD MLOAD PUSH1 0xA0 DUP9 ADD MLOAD PUSH1 0xC0 DUP10 ADD MLOAD PUSH1 0xE0 DUP11 ADD MLOAD PUSH2 0x100 DUP12 ADD MLOAD SWAP10 MLOAD PUSH1 0x0 SWAP11 PUSH2 0x1139 SWAP11 SWAP1 SWAP2 ADD PUSH2 0x2DBE JUMP JUMPDEST PUSH1 0x40 DUP1 MLOAD DUP1 DUP4 SUB PUSH1 0x1F NOT ADD DUP2 MSTORE SWAP1 DUP3 SWAP1 MSTORE PUSH2 0x120 DUP5 ADD MLOAD PUSH2 0x140 DUP6 ADD MLOAD PUSH2 0x160 DUP7 ADD MLOAD PUSH2 0x180 DUP8 ADD MLOAD PUSH2 0x1A0 DUP9 ADD MLOAD PUSH2 0x1C0 DUP10 ADD MLOAD PUSH2 0x1E0 DUP11 ADD MLOAD PUSH2 0x200 DUP12 ADD MLOAD SWAP8 SWAP10 POP PUSH2 0x118C SWAP9 DUP11 SWAP9 SWAP1 PUSH1 0x20 ADD PUSH2 0x2DBE JUMP JUMPDEST PUSH1 0x40 MLOAD PUSH1 0x20 DUP2 DUP4 SUB SUB DUP2 MSTORE SWAP1 PUSH1 0x40 MSTORE SWAP1 POP PUSH1 0x0 PUSH2 0x11D9 PUSH2 0x11AB DUP7 PUSH2 0x1AD8 JUMP JUMPDEST PUSH2 0x11B4 DUP5 PUSH2 0x1BF3 JUMP JUMPDEST PUSH1 0x40 MLOAD PUSH1 0x20 ADD PUSH2 0x11C5 SWAP3 SWAP2 SWAP1 PUSH2 0x2EFA JUMP JUMPDEST PUSH1 0x40 MLOAD PUSH1 0x20 DUP2 DUP4 SUB SUB DUP2 MSTORE SWAP1 PUSH1 0x40 MSTORE PUSH2 0x1BF3 JUMP JUMPDEST SWAP1 POP DUP1 PUSH1 0x40 MLOAD PUSH1 0x20 ADD PUSH2 0x11EC SWAP2 SWAP1 PUSH2 0x2F33 JUMP JUMPDEST PUSH1 0x40 DUP1 MLOAD DUP1 DUP4 SUB PUSH1 0x1F NOT ADD DUP2 MSTORE SWAP2 SWAP1 MSTORE SWAP6 SWAP5 POP POP POP POP POP JUMP JUMPDEST PUSH1 0x60 PUSH2 0x428 DUP3 PUSH1 0x40 MLOAD DUP1 PUSH1 0x40 ADD PUSH1 0x40 MSTORE DUP1 PUSH1 0x4 DUP2 MSTORE PUSH1 0x20 ADD PUSH4 0x12105391 PUSH1 0xE2 SHL DUP2 MSTORE POP PUSH1 0x11 DUP1 SLOAD DUP1 PUSH1 0x20 MUL PUSH1 0x20 ADD PUSH1 0x40 MLOAD SWAP1 DUP2 ADD PUSH1 0x40 MSTORE DUP1 SWAP3 SWAP2 SWAP1 DUP2 DUP2 MSTORE PUSH1 0x20 ADD PUSH1 0x0 SWAP1 JUMPDEST DUP3 DUP3 LT ISZERO PUSH2 0x697 JUMPI DUP4 DUP3 SWAP1 PUSH1 0x0 MSTORE PUSH1 0x20 PUSH1 0x0 KECCAK256 ADD DUP1 SLOAD PUSH2 0x1269 SWAP1 PUSH2 0x3285 JUMP JUMPDEST DUP1 PUSH1 0x1F ADD PUSH1 0x20 DUP1 SWAP2 DIV MUL PUSH1 0x20 ADD PUSH1 0x40 MLOAD SWAP1 DUP2 ADD PUSH1 0x40 MSTORE DUP1 SWAP3 SWAP2 SWAP1 DUP2 DUP2 MSTORE PUSH1 0x20 ADD DUP3 DUP1 SLOAD PUSH2 0x1295 SWAP1 PUSH2 0x3285 JUMP JUMPDEST DUP1 ISZERO PUSH2 0x12E2 JUMPI DUP1 PUSH1 0x1F LT PUSH2 0x12B7 JUMPI PUSH2 0x100 DUP1 DUP4 SLOAD DIV MUL DUP4 MSTORE SWAP2 PUSH1 0x20 ADD SWAP2 PUSH2 0x12E2 JUMP JUMPDEST DUP3 ADD SWAP2 SWAP1 PUSH1 0x0 MSTORE PUSH1 0x20 PUSH1 0x0 KECCAK256 SWAP1 JUMPDEST DUP2 SLOAD DUP2 MSTORE SWAP1 PUSH1 0x1 ADD SWAP1 PUSH1 0x20 ADD DUP1 DUP4 GT PUSH2 0x12C5 JUMPI DUP3 SWAP1 SUB PUSH1 0x1F AND DUP3 ADD SWAP2 JUMPDEST POP POP POP POP POP DUP2 MSTORE PUSH1 0x20 ADD SWAP1 PUSH1 0x1 ADD SWAP1 PUSH2 0x124A JUMP JUMPDEST PUSH1 0x1 PUSH1 0x1 PUSH1 0xA0 SHL SUB SWAP2 DUP3 AND PUSH1 0x0 SWAP1 DUP2 MSTORE PUSH1 0x5 PUSH1 0x20 SWAP1 DUP2 MSTORE PUSH1 0x40 DUP1 DUP4 KECCAK256 SWAP4 SWAP1 SWAP5 AND DUP3 MSTORE SWAP2 SWAP1 SWAP2 MSTORE KECCAK256 SLOAD PUSH1 0xFF AND SWAP1 JUMP JUMPDEST PUSH1 0x60 PUSH2 0x428 DUP3 PUSH1 0x40 MLOAD DUP1 PUSH1 0x40 ADD PUSH1 0x40 MSTORE DUP1 PUSH1 0x5 DUP2 MSTORE PUSH1 0x20 ADD PUSH5 0x10D21154D5 PUSH1 0xDA SHL DUP2 MSTORE POP PUSH1 0xD DUP1 SLOAD DUP1 PUSH1 0x20 MUL PUSH1 0x20 ADD PUSH1 0x40 MLOAD SWAP1 DUP2 ADD PUSH1 0x40 MSTORE DUP1 SWAP3 SWAP2 SWAP1 DUP2 DUP2 MSTORE PUSH1 0x20 ADD PUSH1 0x0 SWAP1 JUMPDEST DUP3 DUP3 LT ISZERO PUSH2 0x697 JUMPI DUP4 DUP3 SWAP1 PUSH1 0x0 MSTORE PUSH1 0x20 PUSH1 0x0 KECCAK256 ADD DUP1 SLOAD PUSH2 0x1389 SWAP1 PUSH2 0x3285 JUMP JUMPDEST DUP1 PUSH1 0x1F ADD PUSH1 0x20 DUP1 SWAP2 DIV MUL PUSH1 0x20 ADD PUSH1 0x40 MLOAD SWAP1 DUP2 ADD PUSH1 0x40 MSTORE DUP1 SWAP3 SWAP2 SWAP1 DUP2 DUP2 MSTORE PUSH1 0x20 ADD DUP3 DUP1 SLOAD PUSH2 0x13B5 SWAP1 PUSH2 0x3285 JUMP JUMPDEST DUP1 ISZERO PUSH2 0x1402 JUMPI DUP1 PUSH1 0x1F LT PUSH2 0x13D7 JUMPI PUSH2 0x100 DUP1 DUP4 SLOAD DIV MUL DUP4 MSTORE SWAP2 PUSH1 0x20 ADD SWAP2 PUSH2 0x1402 JUMP JUMPDEST DUP3 ADD SWAP2 SWAP1 PUSH1 0x0 MSTORE PUSH1 0x20 PUSH1 0x0 KECCAK256 SWAP1 JUMPDEST DUP2 SLOAD DUP2 MSTORE SWAP1 PUSH1 0x1 ADD SWAP1 PUSH1 0x20 ADD DUP1 DUP4 GT PUSH2 0x13E5 JUMPI DUP3 SWAP1 SUB PUSH1 0x1F AND DUP3 ADD SWAP2 JUMPDEST POP POP POP POP POP DUP2 MSTORE PUSH1 0x20 ADD SWAP1 PUSH1 0x1 ADD SWAP1 PUSH2 0x136A JUMP JUMPDEST PUSH2 0x141E PUSH2 0x14E4 JUMP JUMPDEST PUSH1 0x1 PUSH1 0x1 PUSH1 0xA0 SHL SUB AND PUSH2 0x142F PUSH2 0xA6B JUMP JUMPDEST PUSH1 0x1 PUSH1 0x1 PUSH1 0xA0 SHL SUB AND EQ PUSH2 0x1455 JUMPI PUSH1 0x40 MLOAD PUSH3 0x461BCD PUSH1 0xE5 SHL DUP2 MSTORE PUSH1 0x4 ADD PUSH2 0x4E9 SWAP1 PUSH2 0x307B JUMP JUMPDEST PUSH1 0x1 PUSH1 0x1 PUSH1 0xA0 SHL SUB DUP2 AND PUSH2 0x147B JUMPI PUSH1 0x40 MLOAD PUSH3 0x461BCD PUSH1 0xE5 SHL DUP2 MSTORE PUSH1 0x4 ADD PUSH2 0x4E9 SWAP1 PUSH2 0x2FDB JUMP JUMPDEST PUSH2 0x1484 DUP2 PUSH2 0x1A53 JUMP JUMPDEST POP JUMP JUMPDEST PUSH1 0x0 PUSH1 0x1 PUSH1 0x1 PUSH1 0xE0 SHL SUB NOT DUP3 AND PUSH4 0x80AC58CD PUSH1 0xE0 SHL EQ DUP1 PUSH2 0x14B8 JUMPI POP PUSH1 0x1 PUSH1 0x1 PUSH1 0xE0 SHL SUB NOT DUP3 AND PUSH4 0x5B5E139F PUSH1 0xE0 SHL EQ JUMPDEST DUP1 PUSH2 0x428 JUMPI POP PUSH2 0x428 DUP3 PUSH2 0x1D67 JUMP JUMPDEST PUSH1 0x0 SWAP1 DUP2 MSTORE PUSH1 0x2 PUSH1 0x20 MSTORE PUSH1 0x40 SWAP1 KECCAK256 SLOAD PUSH1 0x1 PUSH1 0x1 PUSH1 0xA0 SHL SUB AND ISZERO ISZERO SWAP1 JUMP JUMPDEST CALLER SWAP1 JUMP JUMPDEST PUSH1 0x0 DUP2 DUP2 MSTORE PUSH1 0x4 PUSH1 0x20 MSTORE PUSH1 0x40 SWAP1 KECCAK256 DUP1 SLOAD PUSH1 0x1 PUSH1 0x1 PUSH1 0xA0 SHL SUB NOT AND PUSH1 0x1 PUSH1 0x1 PUSH1 0xA0 SHL SUB DUP5 AND SWAP1 DUP2 OR SWAP1 SWAP2 SSTORE DUP2 SWAP1 PUSH2 0x151D DUP3 PUSH2 0x8B6 JUMP JUMPDEST PUSH1 0x1 PUSH1 0x1 PUSH1 0xA0 SHL SUB AND PUSH32 0x8C5BE1E5EBEC7D5BD14F71427D1E84F3DD0314C0F7B2291E5B200AC8C7C3B925 PUSH1 0x40 MLOAD PUSH1 0x40 MLOAD DUP1 SWAP2 SUB SWAP1 LOG4 POP POP JUMP JUMPDEST PUSH1 0x60 PUSH1 0x0 PUSH2 0x158C DUP5 PUSH2 0x1567 DUP8 PUSH2 0x1AD8 JUMP JUMPDEST PUSH1 0x40 MLOAD PUSH1 0x20 ADD PUSH2 0x1578 SWAP3 SWAP2 SWAP1 PUSH2 0x2DA6 JUMP JUMPDEST PUSH1 0x40 MLOAD PUSH1 0x20 DUP2 DUP4 SUB SUB DUP2 MSTORE SWAP1 PUSH1 0x40 MSTORE PUSH2 0x1D80 JUMP JUMPDEST SWAP1 POP PUSH1 0x0 DUP4 DUP5 MLOAD DUP4 PUSH2 0x159E SWAP2 SWAP1 PUSH2 0x32D8 JUMP JUMPDEST DUP2 MLOAD DUP2 LT PUSH2 0x15BC JUMPI PUSH4 0x4E487B71 PUSH1 0xE0 SHL PUSH1 0x0 MSTORE PUSH1 0x32 PUSH1 0x4 MSTORE PUSH1 0x24 PUSH1 0x0 REVERT JUMPDEST PUSH1 0x20 MUL PUSH1 0x20 ADD ADD MLOAD SWAP1 POP PUSH1 0x0 PUSH1 0x15 DUP4 PUSH2 0x15D5 SWAP2 SWAP1 PUSH2 0x32D8 JUMP JUMPDEST SWAP1 POP PUSH1 0xE DUP2 GT ISZERO PUSH2 0x163C JUMPI PUSH1 0x14 DUP1 SLOAD DUP4 SWAP2 SWAP1 PUSH2 0x15F1 SWAP1 DUP7 PUSH2 0x32D8 JUMP JUMPDEST DUP2 SLOAD DUP2 LT PUSH2 0x160F JUMPI PUSH4 0x4E487B71 PUSH1 0xE0 SHL PUSH1 0x0 MSTORE PUSH1 0x32 PUSH1 0x4 MSTORE PUSH1 0x24 PUSH1 0x0 REVERT JUMPDEST SWAP1 PUSH1 0x0 MSTORE PUSH1 0x20 PUSH1 0x0 KECCAK256 ADD PUSH1 0x40 MLOAD PUSH1 0x20 ADD PUSH2 0x162A SWAP3 SWAP2 SWAP1 PUSH2 0x2E39 JUMP JUMPDEST PUSH1 0x40 MLOAD PUSH1 0x20 DUP2 DUP4 SUB SUB DUP2 MSTORE SWAP1 PUSH1 0x40 MSTORE SWAP2 POP JUMPDEST PUSH1 0x13 DUP2 LT PUSH2 0x1879 JUMPI PUSH2 0x164C PUSH2 0x2293 JUMP JUMPDEST PUSH1 0x15 DUP1 SLOAD PUSH2 0x165A SWAP1 DUP7 PUSH2 0x32D8 JUMP JUMPDEST DUP2 SLOAD DUP2 LT PUSH2 0x1678 JUMPI PUSH4 0x4E487B71 PUSH1 0xE0 SHL PUSH1 0x0 MSTORE PUSH1 0x32 PUSH1 0x4 MSTORE PUSH1 0x24 PUSH1 0x0 REVERT JUMPDEST SWAP1 PUSH1 0x0 MSTORE PUSH1 0x20 PUSH1 0x0 KECCAK256 ADD DUP1 SLOAD PUSH2 0x168D SWAP1 PUSH2 0x3285 JUMP JUMPDEST DUP1 PUSH1 0x1F ADD PUSH1 0x20 DUP1 SWAP2 DIV MUL PUSH1 0x20 ADD PUSH1 0x40 MLOAD SWAP1 DUP2 ADD PUSH1 0x40 MSTORE DUP1 SWAP3 SWAP2 SWAP1 DUP2 DUP2 MSTORE PUSH1 0x20 ADD DUP3 DUP1 SLOAD PUSH2 0x16B9 SWAP1 PUSH2 0x3285 JUMP JUMPDEST DUP1 ISZERO PUSH2 0x1706 JUMPI DUP1 PUSH1 0x1F LT PUSH2 0x16DB JUMPI PUSH2 0x100 DUP1 DUP4 SLOAD DIV MUL DUP4 MSTORE SWAP2 PUSH1 0x20 ADD SWAP2 PUSH2 0x1706 JUMP JUMPDEST DUP3 ADD SWAP2 SWAP1 PUSH1 0x0 MSTORE PUSH1 0x20 PUSH1 0x0 KECCAK256 SWAP1 JUMPDEST DUP2 SLOAD DUP2 MSTORE SWAP1 PUSH1 0x1 ADD SWAP1 PUSH1 0x20 ADD DUP1 DUP4 GT PUSH2 0x16E9 JUMPI DUP3 SWAP1 SUB PUSH1 0x1F AND DUP3 ADD SWAP2 JUMPDEST POP POP POP POP POP DUP2 PUSH1 0x0 PUSH1 0x2 DUP2 LT PUSH2 0x172C JUMPI PUSH4 0x4E487B71 PUSH1 0xE0 SHL PUSH1 0x0 MSTORE PUSH1 0x32 PUSH1 0x4 MSTORE PUSH1 0x24 PUSH1 0x0 REVERT JUMPDEST PUSH1 0x20 MUL ADD MSTORE PUSH1 0x16 DUP1 SLOAD PUSH2 0x173F SWAP1 DUP7 PUSH2 0x32D8 JUMP JUMPDEST DUP2 SLOAD DUP2 LT PUSH2 0x175D JUMPI PUSH4 0x4E487B71 PUSH1 0xE0 SHL PUSH1 0x0 MSTORE PUSH1 0x32 PUSH1 0x4 MSTORE PUSH1 0x24 PUSH1 0x0 REVERT JUMPDEST SWAP1 PUSH1 0x0 MSTORE PUSH1 0x20 PUSH1 0x0 KECCAK256 ADD DUP1 SLOAD PUSH2 0x1772 SWAP1 PUSH2 0x3285 JUMP JUMPDEST DUP1 PUSH1 0x1F ADD PUSH1 0x20 DUP1 SWAP2 DIV MUL PUSH1 0x20 ADD PUSH1 0x40 MLOAD SWAP1 DUP2 ADD PUSH1 0x40 MSTORE DUP1 SWAP3 SWAP2 SWAP1 DUP2 DUP2 MSTORE PUSH1 0x20 ADD DUP3 DUP1 SLOAD PUSH2 0x179E SWAP1 PUSH2 0x3285 JUMP JUMPDEST DUP1 ISZERO PUSH2 0x17EB JUMPI DUP1 PUSH1 0x1F LT PUSH2 0x17C0 JUMPI PUSH2 0x100 DUP1 DUP4 SLOAD DIV MUL DUP4 MSTORE SWAP2 PUSH1 0x20 ADD SWAP2 PUSH2 0x17EB JUMP JUMPDEST DUP3 ADD SWAP2 SWAP1 PUSH1 0x0 MSTORE PUSH1 0x20 PUSH1 0x0 KECCAK256 SWAP1 JUMPDEST DUP2 SLOAD DUP2 MSTORE SWAP1 PUSH1 0x1 ADD SWAP1 PUSH1 0x20 ADD DUP1 DUP4 GT PUSH2 0x17CE JUMPI DUP3 SWAP1 SUB PUSH1 0x1F AND DUP3 ADD SWAP2 JUMPDEST POP POP POP POP POP DUP2 PUSH1 0x1 PUSH1 0x2 DUP2 LT PUSH2 0x1811 JUMPI PUSH4 0x4E487B71 PUSH1 0xE0 SHL PUSH1 0x0 MSTORE PUSH1 0x32 PUSH1 0x4 MSTORE PUSH1 0x24 PUSH1 0x0 REVERT JUMPDEST PUSH1 0x20 MUL ADD MSTORE PUSH1 0x13 DUP3 EQ ISZERO PUSH2 0x184D JUMPI DUP1 MLOAD PUSH1 0x20 DUP1 DUP4 ADD MLOAD PUSH1 0x40 MLOAD PUSH2 0x1837 SWAP4 SWAP3 DUP8 SWAP2 ADD PUSH2 0x2E5C JUMP JUMPDEST PUSH1 0x40 MLOAD PUSH1 0x20 DUP2 DUP4 SUB SUB DUP2 MSTORE SWAP1 PUSH1 0x40 MSTORE SWAP3 POP PUSH2 0x1877 JUMP JUMPDEST DUP1 MLOAD PUSH1 0x20 DUP1 DUP4 ADD MLOAD PUSH1 0x40 MLOAD PUSH2 0x1865 SWAP4 SWAP3 DUP8 SWAP2 ADD PUSH2 0x2EAA JUMP JUMPDEST PUSH1 0x40 MLOAD PUSH1 0x20 DUP2 DUP4 SUB SUB DUP2 MSTORE SWAP1 PUSH1 0x40 MSTORE SWAP3 POP JUMPDEST POP JUMPDEST POP SWAP6 SWAP5 POP POP POP POP POP JUMP JUMPDEST PUSH1 0x0 PUSH2 0x188E DUP3 PUSH2 0x14C7 JUMP JUMPDEST PUSH2 0x18AA JUMPI PUSH1 0x40 MLOAD PUSH3 0x461BCD PUSH1 0xE5 SHL DUP2 MSTORE PUSH1 0x4 ADD PUSH2 0x4E9 SWAP1 PUSH2 0x301B JUMP JUMPDEST PUSH1 0x0 PUSH2 0x18B5 DUP4 PUSH2 0x8B6 JUMP JUMPDEST SWAP1 POP DUP1 PUSH1 0x1 PUSH1 0x1 PUSH1 0xA0 SHL SUB AND DUP5 PUSH1 0x1 PUSH1 0x1 PUSH1 0xA0 SHL SUB AND EQ DUP1 PUSH2 0x18F0 JUMPI POP DUP4 PUSH1 0x1 PUSH1 0x1 PUSH1 0xA0 SHL SUB AND PUSH2 0x18E5 DUP5 PUSH2 0x4C2 JUMP JUMPDEST PUSH1 0x1 PUSH1 0x1 PUSH1 0xA0 SHL SUB AND EQ JUMPDEST DUP1 PUSH2 0x1900 JUMPI POP PUSH2 0x1900 DUP2 DUP6 PUSH2 0x12F6 JUMP JUMPDEST SWAP5 SWAP4 POP POP POP POP JUMP JUMPDEST DUP3 PUSH1 0x1 PUSH1 0x1 PUSH1 0xA0 SHL SUB AND PUSH2 0x191B DUP3 PUSH2 0x8B6 JUMP JUMPDEST PUSH1 0x1 PUSH1 0x1 PUSH1 0xA0 SHL SUB AND EQ PUSH2 0x1941 JUMPI PUSH1 0x40 MLOAD PUSH3 0x461BCD PUSH1 0xE5 SHL DUP2 MSTORE PUSH1 0x4 ADD PUSH2 0x4E9 SWAP1 PUSH2 0x309B JUMP JUMPDEST PUSH1 0x1 PUSH1 0x1 PUSH1 0xA0 SHL SUB DUP3 AND PUSH2 0x1967 JUMPI PUSH1 0x40 MLOAD PUSH3 0x461BCD PUSH1 0xE5 SHL DUP2 MSTORE PUSH1 0x4 ADD PUSH2 0x4E9 SWAP1 PUSH2 0x2FFB JUMP JUMPDEST PUSH2 0x1972 DUP4 DUP4 DUP4 PUSH2 0x1DB1 JUMP JUMPDEST PUSH2 0x197D PUSH1 0x0 DUP3 PUSH2 0x14E8 JUMP JUMPDEST PUSH1 0x1 PUSH1 0x1 PUSH1 0xA0 SHL SUB DUP4 AND PUSH1 0x0 SWAP1 DUP2 MSTORE PUSH1 0x3 PUSH1 0x20 MSTORE PUSH1 0x40 DUP2 KECCAK256 DUP1 SLOAD PUSH1 0x1 SWAP3 SWAP1 PUSH2 0x19A6 SWAP1 DUP5 SWAP1 PUSH2 0x31F4 JUMP JUMPDEST SWAP1 SWAP2 SSTORE POP POP PUSH1 0x1 PUSH1 0x1 PUSH1 0xA0 SHL SUB DUP3 AND PUSH1 0x0 SWAP1 DUP2 MSTORE PUSH1 0x3 PUSH1 0x20 MSTORE PUSH1 0x40 DUP2 KECCAK256 DUP1 SLOAD PUSH1 0x1 SWAP3 SWAP1 PUSH2 0x19D4 SWAP1 DUP5 SWAP1 PUSH2 0x3167 JUMP JUMPDEST SWAP1 SWAP2 SSTORE POP POP PUSH1 0x0 DUP2 DUP2 MSTORE PUSH1 0x2 PUSH1 0x20 MSTORE PUSH1 0x40 DUP1 DUP3 KECCAK256 DUP1 SLOAD PUSH1 0x1 PUSH1 0x1 PUSH1 0xA0 SHL SUB NOT AND PUSH1 0x1 PUSH1 0x1 PUSH1 0xA0 SHL SUB DUP7 DUP2 AND SWAP2 DUP3 OR SWAP1 SWAP3 SSTORE SWAP2 MLOAD DUP5 SWAP4 SWAP2 DUP8 AND SWAP2 PUSH32 0xDDF252AD1BE2C89B69C2B068FC378DAA952BA7F163C4A11628F55A4DF523B3EF SWAP2 LOG4 POP POP POP JUMP JUMPDEST PUSH2 0x1A4F DUP3 DUP3 PUSH1 0x40 MLOAD DUP1 PUSH1 0x20 ADD PUSH1 0x40 MSTORE DUP1 PUSH1 0x0 DUP2 MSTORE POP PUSH2 0x1E3A JUMP JUMPDEST POP POP JUMP JUMPDEST PUSH1 0xB DUP1 SLOAD PUSH1 0x1 PUSH1 0x1 PUSH1 0xA0 SHL SUB DUP4 DUP2 AND PUSH1 0x1 PUSH1 0x1 PUSH1 0xA0 SHL SUB NOT DUP4 AND DUP2 OR SWAP1 SWAP4 SSTORE PUSH1 0x40 MLOAD SWAP2 AND SWAP2 SWAP1 DUP3 SWAP1 PUSH32 0x8BE0079C531659141344CD1FD0A4F28419497F9722A3DAAFE3B4186F6B6457E0 SWAP1 PUSH1 0x0 SWAP1 LOG3 POP POP JUMP JUMPDEST PUSH2 0x1AB0 DUP5 DUP5 DUP5 PUSH2 0x1908 JUMP JUMPDEST PUSH2 0x1ABC DUP5 DUP5 DUP5 DUP5 PUSH2 0x1E6D JUMP JUMPDEST PUSH2 0xE66 JUMPI PUSH1 0x40 MLOAD PUSH3 0x461BCD PUSH1 0xE5 SHL DUP2 MSTORE PUSH1 0x4 ADD PUSH2 0x4E9 SWAP1 PUSH2 0x2FCB JUMP JUMPDEST PUSH1 0x60 DUP2 PUSH2 0x1AFD JUMPI POP PUSH1 0x40 DUP1 MLOAD DUP1 DUP3 ADD SWAP1 SWAP2 MSTORE PUSH1 0x1 DUP2 MSTORE PUSH1 0x3 PUSH1 0xFC SHL PUSH1 0x20 DUP3 ADD MSTORE PUSH2 0x42B JUMP JUMPDEST DUP2 PUSH1 0x0 JUMPDEST DUP2 ISZERO PUSH2 0x1B27 JUMPI DUP1 PUSH2 0x1B11 DUP2 PUSH2 0x32B2 JUMP JUMPDEST SWAP2 POP PUSH2 0x1B20 SWAP1 POP PUSH1 0xA DUP4 PUSH2 0x3195 JUMP JUMPDEST SWAP2 POP PUSH2 0x1B01 JUMP JUMPDEST PUSH1 0x0 DUP2 PUSH8 0xFFFFFFFFFFFFFFFF DUP2 GT ISZERO PUSH2 0x1B50 JUMPI PUSH4 0x4E487B71 PUSH1 0xE0 SHL PUSH1 0x0 MSTORE PUSH1 0x41 PUSH1 0x4 MSTORE PUSH1 0x24 PUSH1 0x0 REVERT JUMPDEST PUSH1 0x40 MLOAD SWAP1 DUP1 DUP3 MSTORE DUP1 PUSH1 0x1F ADD PUSH1 0x1F NOT AND PUSH1 0x20 ADD DUP3 ADD PUSH1 0x40 MSTORE DUP1 ISZERO PUSH2 0x1B7A JUMPI PUSH1 0x20 DUP3 ADD DUP2 DUP1 CALLDATASIZE DUP4 CALLDATACOPY ADD SWAP1 POP JUMPDEST POP SWAP1 POP JUMPDEST DUP5 ISZERO PUSH2 0x1900 JUMPI PUSH2 0x1B8F PUSH1 0x1 DUP4 PUSH2 0x31F4 JUMP JUMPDEST SWAP2 POP PUSH2 0x1B9C PUSH1 0xA DUP7 PUSH2 0x32D8 JUMP JUMPDEST PUSH2 0x1BA7 SWAP1 PUSH1 0x30 PUSH2 0x3167 JUMP JUMPDEST PUSH1 0xF8 SHL DUP2 DUP4 DUP2 MLOAD DUP2 LT PUSH2 0x1BCA JUMPI PUSH4 0x4E487B71 PUSH1 0xE0 SHL PUSH1 0x0 MSTORE PUSH1 0x32 PUSH1 0x4 MSTORE PUSH1 0x24 PUSH1 0x0 REVERT JUMPDEST PUSH1 0x20 ADD ADD SWAP1 PUSH1 0x1 PUSH1 0x1 PUSH1 0xF8 SHL SUB NOT AND SWAP1 DUP2 PUSH1 0x0 BYTE SWAP1 MSTORE8 POP PUSH2 0x1BEC PUSH1 0xA DUP7 PUSH2 0x3195 JUMP JUMPDEST SWAP5 POP PUSH2 0x1B7E JUMP JUMPDEST DUP1 MLOAD PUSH1 0x60 SWAP1 DUP1 PUSH2 0x1C13 JUMPI POP POP PUSH1 0x40 DUP1 MLOAD PUSH1 0x20 DUP2 ADD SWAP1 SWAP2 MSTORE PUSH1 0x0 DUP2 MSTORE PUSH2 0x42B JUMP JUMPDEST PUSH1 0x0 PUSH1 0x3 PUSH2 0x1C22 DUP4 PUSH1 0x2 PUSH2 0x3167 JUMP JUMPDEST PUSH2 0x1C2C SWAP2 SWAP1 PUSH2 0x3195 JUMP JUMPDEST PUSH2 0x1C37 SWAP1 PUSH1 0x4 PUSH2 0x31BF JUMP JUMPDEST SWAP1 POP PUSH1 0x0 PUSH2 0x1C46 DUP3 PUSH1 0x20 PUSH2 0x3167 JUMP JUMPDEST PUSH8 0xFFFFFFFFFFFFFFFF DUP2 GT ISZERO PUSH2 0x1C6C JUMPI PUSH4 0x4E487B71 PUSH1 0xE0 SHL PUSH1 0x0 MSTORE PUSH1 0x41 PUSH1 0x4 MSTORE PUSH1 0x24 PUSH1 0x0 REVERT JUMPDEST PUSH1 0x40 MLOAD SWAP1 DUP1 DUP3 MSTORE DUP1 PUSH1 0x1F ADD PUSH1 0x1F NOT AND PUSH1 0x20 ADD DUP3 ADD PUSH1 0x40 MSTORE DUP1 ISZERO PUSH2 0x1C96 JUMPI PUSH1 0x20 DUP3 ADD DUP2 DUP1 CALLDATASIZE DUP4 CALLDATACOPY ADD SWAP1 POP JUMPDEST POP SWAP1 POP PUSH1 0x0 PUSH1 0x40 MLOAD DUP1 PUSH1 0x60 ADD PUSH1 0x40 MSTORE DUP1 PUSH1 0x40 DUP2 MSTORE PUSH1 0x20 ADD PUSH2 0x3585 PUSH1 0x40 SWAP2 CODECOPY SWAP1 POP PUSH1 0x1 DUP2 ADD PUSH1 0x20 DUP4 ADD PUSH1 0x0 JUMPDEST DUP7 DUP2 LT ISZERO PUSH2 0x1D22 JUMPI PUSH1 0x3 DUP2 DUP11 ADD DUP2 ADD MLOAD PUSH1 0x3F PUSH1 0x12 DUP3 SWAP1 SHR DUP2 AND DUP7 ADD MLOAD PUSH1 0xC DUP4 SWAP1 SHR DUP3 AND DUP8 ADD MLOAD PUSH1 0x6 DUP5 SWAP1 SHR DUP4 AND DUP9 ADD MLOAD SWAP3 SWAP1 SWAP4 AND DUP8 ADD MLOAD PUSH1 0x8 SWAP2 DUP3 SHL PUSH1 0xFF SWAP5 DUP6 AND ADD DUP3 SHL SWAP3 DUP5 AND SWAP3 SWAP1 SWAP3 ADD SWAP1 SHL SWAP2 AND ADD PUSH1 0xE0 SHL DUP4 MSTORE PUSH1 0x4 SWAP1 SWAP3 ADD SWAP2 ADD PUSH2 0x1CC1 JUMP JUMPDEST POP PUSH1 0x3 DUP7 MOD PUSH1 0x1 DUP2 EQ PUSH2 0x1D3C JUMPI PUSH1 0x2 DUP2 EQ PUSH2 0x1D4D JUMPI PUSH2 0x1D59 JUMP JUMPDEST PUSH2 0x3D3D PUSH1 0xF0 SHL PUSH1 0x1 NOT DUP4 ADD MSTORE PUSH2 0x1D59 JUMP JUMPDEST PUSH1 0x3D PUSH1 0xF8 SHL PUSH1 0x0 NOT DUP4 ADD MSTORE JUMPDEST POP POP POP SWAP2 DUP2 MSTORE SWAP5 SWAP4 POP POP POP POP JUMP JUMPDEST PUSH1 0x1 PUSH1 0x1 PUSH1 0xE0 SHL SUB NOT DUP2 AND PUSH4 0x1FFC9A7 PUSH1 0xE0 SHL EQ SWAP2 SWAP1 POP JUMP JUMPDEST PUSH1 0x0 DUP2 PUSH1 0x40 MLOAD PUSH1 0x20 ADD PUSH2 0x1D93 SWAP2 SWAP1 PUSH2 0x2D93 JUMP JUMPDEST PUSH1 0x40 DUP1 MLOAD PUSH1 0x1F NOT DUP2 DUP5 SUB ADD DUP2 MSTORE SWAP2 SWAP1 MSTORE DUP1 MLOAD PUSH1 0x20 SWAP1 SWAP2 ADD KECCAK256 SWAP3 SWAP2 POP POP JUMP JUMPDEST PUSH2 0x1DBC DUP4 DUP4 DUP4 PUSH2 0x5A1 JUMP JUMPDEST PUSH1 0x1 PUSH1 0x1 PUSH1 0xA0 SHL SUB DUP4 AND PUSH2 0x1DD8 JUMPI PUSH2 0x1DD3 DUP2 PUSH2 0x1F88 JUMP JUMPDEST PUSH2 0x1DFB JUMP JUMPDEST DUP2 PUSH1 0x1 PUSH1 0x1 PUSH1 0xA0 SHL SUB AND DUP4 PUSH1 0x1 PUSH1 0x1 PUSH1 0xA0 SHL SUB AND EQ PUSH2 0x1DFB JUMPI PUSH2 0x1DFB DUP4 DUP3 PUSH2 0x1FCC JUMP JUMPDEST PUSH1 0x1 PUSH1 0x1 PUSH1 0xA0 SHL SUB DUP3 AND PUSH2 0x1E17 JUMPI PUSH2 0x1E12 DUP2 PUSH2 0x2069 JUMP JUMPDEST PUSH2 0x5A1 JUMP JUMPDEST DUP3 PUSH1 0x1 PUSH1 0x1 PUSH1 0xA0 SHL SUB AND DUP3 PUSH1 0x1 PUSH1 0x1 PUSH1 0xA0 SHL SUB AND EQ PUSH2 0x5A1 JUMPI PUSH2 0x5A1 DUP3 DUP3 PUSH2 0x2142 JUMP JUMPDEST PUSH2 0x1E44 DUP4 DUP4 PUSH2 0x2186 JUMP JUMPDEST PUSH2 0x1E51 PUSH1 0x0 DUP5 DUP5 DUP5 PUSH2 0x1E6D JUMP JUMPDEST PUSH2 0x5A1 JUMPI PUSH1 0x40 MLOAD PUSH3 0x461BCD PUSH1 0xE5 SHL DUP2 MSTORE PUSH1 0x4 ADD PUSH2 0x4E9 SWAP1 PUSH2 0x2FCB JUMP JUMPDEST PUSH1 0x0 PUSH2 0x1E81 DUP5 PUSH1 0x1 PUSH1 0x1 PUSH1 0xA0 SHL SUB AND PUSH2 0x2265 JUMP JUMPDEST ISZERO PUSH2 0x1F7D JUMPI DUP4 PUSH1 0x1 PUSH1 0x1 PUSH1 0xA0 SHL SUB AND PUSH4 0x150B7A02 PUSH2 0x1E9D PUSH2 0x14E4 JUMP JUMPDEST DUP8 DUP7 DUP7 PUSH1 0x40 MLOAD DUP6 PUSH4 0xFFFFFFFF AND PUSH1 0xE0 SHL DUP2 MSTORE PUSH1 0x4 ADD PUSH2 0x1EBF SWAP5 SWAP4 SWAP3 SWAP2 SWAP1 PUSH2 0x2F58 JUMP JUMPDEST PUSH1 0x20 PUSH1 0x40 MLOAD DUP1 DUP4 SUB DUP2 PUSH1 0x0 DUP8 DUP1 EXTCODESIZE ISZERO DUP1 ISZERO PUSH2 0x1ED9 JUMPI PUSH1 0x0 DUP1 REVERT JUMPDEST POP GAS CALL SWAP3 POP POP POP DUP1 ISZERO PUSH2 0x1F09 JUMPI POP PUSH1 0x40 DUP1 MLOAD PUSH1 0x1F RETURNDATASIZE SWAP1 DUP2 ADD PUSH1 0x1F NOT AND DUP3 ADD SWAP1 SWAP3 MSTORE PUSH2 0x1F06 SWAP2 DUP2 ADD SWAP1 PUSH2 0x24DE JUMP JUMPDEST PUSH1 0x1 JUMPDEST PUSH2 0x1F63 JUMPI RETURNDATASIZE DUP1 DUP1 ISZERO PUSH2 0x1F37 JUMPI PUSH1 0x40 MLOAD SWAP2 POP PUSH1 0x1F NOT PUSH1 0x3F RETURNDATASIZE ADD AND DUP3 ADD PUSH1 0x40 MSTORE RETURNDATASIZE DUP3 MSTORE RETURNDATASIZE PUSH1 0x0 PUSH1 0x20 DUP5 ADD RETURNDATACOPY PUSH2 0x1F3C JUMP JUMPDEST PUSH1 0x60 SWAP2 POP JUMPDEST POP DUP1 MLOAD PUSH2 0x1F5B JUMPI PUSH1 0x40 MLOAD PUSH3 0x461BCD PUSH1 0xE5 SHL DUP2 MSTORE PUSH1 0x4 ADD PUSH2 0x4E9 SWAP1 PUSH2 0x2FCB JUMP JUMPDEST DUP1 MLOAD DUP2 PUSH1 0x20 ADD REVERT JUMPDEST PUSH1 0x1 PUSH1 0x1 PUSH1 0xE0 SHL SUB NOT AND PUSH4 0xA85BD01 PUSH1 0xE1 SHL EQ SWAP1 POP PUSH2 0x1900 JUMP JUMPDEST POP PUSH1 0x1 SWAP5 SWAP4 POP POP POP POP JUMP JUMPDEST PUSH1 0x8 DUP1 SLOAD PUSH1 0x0 DUP4 DUP2 MSTORE PUSH1 0x9 PUSH1 0x20 MSTORE PUSH1 0x40 DUP2 KECCAK256 DUP3 SWAP1 SSTORE PUSH1 0x1 DUP3 ADD DUP4 SSTORE SWAP2 SWAP1 SWAP2 MSTORE PUSH32 0xF3F7A9FE364FAAB93B216DA50A3214154F22A0A2B415B23A84C8169E8B636EE3 ADD SSTORE JUMP JUMPDEST PUSH1 0x0 PUSH1 0x1 PUSH2 0x1FD9 DUP5 PUSH2 0x9DC JUMP JUMPDEST PUSH2 0x1FE3 SWAP2 SWAP1 PUSH2 0x31F4 JUMP JUMPDEST PUSH1 0x0 DUP4 DUP2 MSTORE PUSH1 0x7 PUSH1 0x20 MSTORE PUSH1 0x40 SWAP1 KECCAK256 SLOAD SWAP1 SWAP2 POP DUP1 DUP3 EQ PUSH2 0x2036 JUMPI PUSH1 0x1 PUSH1 0x1 PUSH1 0xA0 SHL SUB DUP5 AND PUSH1 0x0 SWAP1 DUP2 MSTORE PUSH1 0x6 PUSH1 0x20 SWAP1 DUP2 MSTORE PUSH1 0x40 DUP1 DUP4 KECCAK256 DUP6 DUP5 MSTORE DUP3 MSTORE DUP1 DUP4 KECCAK256 SLOAD DUP5 DUP5 MSTORE DUP2 DUP5 KECCAK256 DUP2 SWAP1 SSTORE DUP4 MSTORE PUSH1 0x7 SWAP1 SWAP2 MSTORE SWAP1 KECCAK256 DUP2 SWAP1 SSTORE JUMPDEST POP PUSH1 0x0 SWAP2 DUP3 MSTORE PUSH1 0x7 PUSH1 0x20 SWAP1 DUP2 MSTORE PUSH1 0x40 DUP1 DUP5 KECCAK256 DUP5 SWAP1 SSTORE PUSH1 0x1 PUSH1 0x1 PUSH1 0xA0 SHL SUB SWAP1 SWAP5 AND DUP4 MSTORE PUSH1 0x6 DUP2 MSTORE DUP4 DUP4 KECCAK256 SWAP2 DUP4 MSTORE MSTORE SWAP1 DUP2 KECCAK256 SSTORE JUMP JUMPDEST PUSH1 0x8 SLOAD PUSH1 0x0 SWAP1 PUSH2 0x207B SWAP1 PUSH1 0x1 SWAP1 PUSH2 0x31F4 JUMP JUMPDEST PUSH1 0x0 DUP4 DUP2 MSTORE PUSH1 0x9 PUSH1 0x20 MSTORE PUSH1 0x40 DUP2 KECCAK256 SLOAD PUSH1 0x8 DUP1 SLOAD SWAP4 SWAP5 POP SWAP1 SWAP3 DUP5 SWAP1 DUP2 LT PUSH2 0x20B1 JUMPI PUSH4 0x4E487B71 PUSH1 0xE0 SHL PUSH1 0x0 MSTORE PUSH1 0x32 PUSH1 0x4 MSTORE PUSH1 0x24 PUSH1 0x0 REVERT JUMPDEST SWAP1 PUSH1 0x0 MSTORE PUSH1 0x20 PUSH1 0x0 KECCAK256 ADD SLOAD SWAP1 POP DUP1 PUSH1 0x8 DUP4 DUP2 SLOAD DUP2 LT PUSH2 0x20E0 JUMPI PUSH4 0x4E487B71 PUSH1 0xE0 SHL PUSH1 0x0 MSTORE PUSH1 0x32 PUSH1 0x4 MSTORE PUSH1 0x24 PUSH1 0x0 REVERT JUMPDEST PUSH1 0x0 SWAP2 DUP3 MSTORE PUSH1 0x20 DUP1 DUP4 KECCAK256 SWAP1 SWAP2 ADD SWAP3 SWAP1 SWAP3 SSTORE DUP3 DUP2 MSTORE PUSH1 0x9 SWAP1 SWAP2 MSTORE PUSH1 0x40 DUP1 DUP3 KECCAK256 DUP5 SWAP1 SSTORE DUP6 DUP3 MSTORE DUP2 KECCAK256 SSTORE PUSH1 0x8 DUP1 SLOAD DUP1 PUSH2 0x2126 JUMPI PUSH4 0x4E487B71 PUSH1 0xE0 SHL PUSH1 0x0 MSTORE PUSH1 0x31 PUSH1 0x4 MSTORE PUSH1 0x24 PUSH1 0x0 REVERT JUMPDEST PUSH1 0x1 SWAP1 SUB DUP2 DUP2 SWAP1 PUSH1 0x0 MSTORE PUSH1 0x20 PUSH1 0x0 KECCAK256 ADD PUSH1 0x0 SWAP1 SSTORE SWAP1 SSTORE POP POP POP POP JUMP JUMPDEST PUSH1 0x0 PUSH2 0x214D DUP4 PUSH2 0x9DC JUMP JUMPDEST PUSH1 0x1 PUSH1 0x1 PUSH1 0xA0 SHL SUB SWAP1 SWAP4 AND PUSH1 0x0 SWAP1 DUP2 MSTORE PUSH1 0x6 PUSH1 0x20 SWAP1 DUP2 MSTORE PUSH1 0x40 DUP1 DUP4 KECCAK256 DUP7 DUP5 MSTORE DUP3 MSTORE DUP1 DUP4 KECCAK256 DUP6 SWAP1 SSTORE SWAP4 DUP3 MSTORE PUSH1 0x7 SWAP1 MSTORE SWAP2 SWAP1 SWAP2 KECCAK256 SWAP2 SWAP1 SWAP2 SSTORE POP JUMP JUMPDEST PUSH1 0x1 PUSH1 0x1 PUSH1 0xA0 SHL SUB DUP3 AND PUSH2 0x21AC JUMPI PUSH1 0x40 MLOAD PUSH3 0x461BCD PUSH1 0xE5 SHL DUP2 MSTORE PUSH1 0x4 ADD PUSH2 0x4E9 SWAP1 PUSH2 0x305B JUMP JUMPDEST PUSH2 0x21B5 DUP2 PUSH2 0x14C7 JUMP JUMPDEST ISZERO PUSH2 0x21D2 JUMPI PUSH1 0x40 MLOAD PUSH3 0x461BCD PUSH1 0xE5 SHL DUP2 MSTORE PUSH1 0x4 ADD PUSH2 0x4E9 SWAP1 PUSH2 0x2FEB JUMP JUMPDEST PUSH2 0x21DE PUSH1 0x0 DUP4 DUP4 PUSH2 0x1DB1 JUMP JUMPDEST PUSH1 0x1 PUSH1 0x1 PUSH1 0xA0 SHL SUB DUP3 AND PUSH1 0x0 SWAP1 DUP2 MSTORE PUSH1 0x3 PUSH1 0x20 MSTORE PUSH1 0x40 DUP2 KECCAK256 DUP1 SLOAD PUSH1 0x1 SWAP3 SWAP1 PUSH2 0x2207 SWAP1 DUP5 SWAP1 PUSH2 0x3167 JUMP JUMPDEST SWAP1 SWAP2 SSTORE POP POP PUSH1 0x0 DUP2 DUP2 MSTORE PUSH1 0x2 PUSH1 0x20 MSTORE PUSH1 0x40 DUP1 DUP3 KECCAK256 DUP1 SLOAD PUSH1 0x1 PUSH1 0x1 PUSH1 0xA0 SHL SUB NOT AND PUSH1 0x1 PUSH1 0x1 PUSH1 0xA0 SHL SUB DUP7 AND SWAP1 DUP2 OR SWAP1 SWAP2 SSTORE SWAP1 MLOAD DUP4 SWAP3 SWAP1 PUSH32 0xDDF252AD1BE2C89B69C2B068FC378DAA952BA7F163C4A11628F55A4DF523B3EF SWAP1 DUP3 SWAP1 LOG4 POP POP JUMP JUMPDEST EXTCODESIZE ISZERO ISZERO SWAP1 JUMP JUMPDEST PUSH1 0x40 MLOAD DUP1 PUSH2 0x220 ADD PUSH1 0x40 MSTORE DUP1 PUSH1 0x11 SWAP1 JUMPDEST PUSH1 0x60 DUP2 MSTORE PUSH1 0x20 ADD SWAP1 PUSH1 0x1 SWAP1 SUB SWAP1 DUP2 PUSH2 0x227B JUMPI SWAP1 POP POP SWAP1 JUMP JUMPDEST PUSH1 0x40 DUP1 MLOAD DUP1 DUP3 ADD SWAP1 SWAP2 MSTORE PUSH1 0x60 DUP2 MSTORE PUSH1 0x1 PUSH1 0x20 DUP3 ADD PUSH2 0x227B JUMP JUMPDEST PUSH1 0x0 PUSH2 0x22BF PUSH2 0x22BA DUP5 PUSH2 0x3123 JUMP JUMPDEST PUSH2 0x30F9 JUMP JUMPDEST SWAP1 POP DUP3 DUP2 MSTORE PUSH1 0x20 DUP2 ADD DUP5 DUP5 DUP5 ADD GT ISZERO PUSH2 0x22D7 JUMPI PUSH1 0x0 DUP1 REVERT JUMPDEST PUSH2 0x22E2 DUP5 DUP3 DUP6 PUSH2 0x324D JUMP JUMPDEST POP SWAP4 SWAP3 POP POP POP JUMP JUMPDEST DUP1 CALLDATALOAD PUSH2 0x72D DUP2 PUSH2 0x3364 JUMP JUMPDEST DUP1 CALLDATALOAD PUSH2 0x72D DUP2 PUSH2 0x3378 JUMP JUMPDEST DUP1 CALLDATALOAD PUSH2 0x72D DUP2 PUSH2 0x3381 JUMP JUMPDEST DUP1 MLOAD PUSH2 0x72D DUP2 PUSH2 0x3381 JUMP JUMPDEST PUSH1 0x0 DUP3 PUSH1 0x1F DUP4 ADD SLT PUSH2 0x2327 JUMPI PUSH1 0x0 DUP1 REVERT JUMPDEST DUP2 CALLDATALOAD PUSH2 0x1900 DUP5 DUP3 PUSH1 0x20 DUP7 ADD PUSH2 0x22AC JUMP JUMPDEST DUP1 CALLDATALOAD PUSH2 0x72D DUP2 PUSH2 0x338A JUMP JUMPDEST PUSH1 0x0 PUSH1 0x20 DUP3 DUP5 SUB SLT ISZERO PUSH2 0x2354 JUMPI PUSH1 0x0 DUP1 REVERT JUMPDEST PUSH1 0x0 PUSH2 0x1900 DUP5 DUP5 PUSH2 0x22EA JUMP JUMPDEST PUSH1 0x0 DUP1 PUSH1 0x40 DUP4 DUP6 SUB SLT ISZERO PUSH2 0x2373 JUMPI PUSH1 0x0 DUP1 REVERT JUMPDEST PUSH1 0x0 PUSH2 0x237F DUP6 DUP6 PUSH2 0x22EA JUMP JUMPDEST SWAP3 POP POP PUSH1 0x20 PUSH2 0x2390 DUP6 DUP3 DUP7 ADD PUSH2 0x22EA JUMP JUMPDEST SWAP2 POP POP SWAP3 POP SWAP3 SWAP1 POP JUMP JUMPDEST PUSH1 0x0 DUP1 PUSH1 0x0 PUSH1 0x60 DUP5 DUP7 SUB SLT ISZERO PUSH2 0x23AF JUMPI PUSH1 0x0 DUP1 REVERT JUMPDEST PUSH1 0x0 PUSH2 0x23BB DUP7 DUP7 PUSH2 0x22EA JUMP JUMPDEST SWAP4 POP POP PUSH1 0x20 PUSH2 0x23CC DUP7 DUP3 DUP8 ADD PUSH2 0x22EA JUMP JUMPDEST SWAP3 POP POP PUSH1 0x40 PUSH2 0x23DD DUP7 DUP3 DUP8 ADD PUSH2 0x2337 JUMP JUMPDEST SWAP2 POP POP SWAP3 POP SWAP3 POP SWAP3 JUMP JUMPDEST PUSH1 0x0 DUP1 PUSH1 0x0 DUP1 PUSH1 0x80 DUP6 DUP8 SUB SLT ISZERO PUSH2 0x23FD JUMPI PUSH1 0x0 DUP1 REVERT JUMPDEST PUSH1 0x0 PUSH2 0x2409 DUP8 DUP8 PUSH2 0x22EA JUMP JUMPDEST SWAP5 POP POP PUSH1 0x20 PUSH2 0x241A DUP8 DUP3 DUP9 ADD PUSH2 0x22EA JUMP JUMPDEST SWAP4 POP POP PUSH1 0x40 PUSH2 0x242B DUP8 DUP3 DUP9 ADD PUSH2 0x2337 JUMP JUMPDEST SWAP3 POP POP PUSH1 0x60 DUP6 ADD CALLDATALOAD PUSH8 0xFFFFFFFFFFFFFFFF DUP2 GT ISZERO PUSH2 0x2448 JUMPI PUSH1 0x0 DUP1 REVERT JUMPDEST PUSH2 0x2454 DUP8 DUP3 DUP9 ADD PUSH2 0x2316 JUMP JUMPDEST SWAP2 POP POP SWAP3 SWAP6 SWAP2 SWAP5 POP SWAP3 POP JUMP JUMPDEST PUSH1 0x0 DUP1 PUSH1 0x40 DUP4 DUP6 SUB SLT ISZERO PUSH2 0x2473 JUMPI PUSH1 0x0 DUP1 REVERT JUMPDEST PUSH1 0x0 PUSH2 0x247F DUP6 DUP6 PUSH2 0x22EA JUMP JUMPDEST SWAP3 POP POP PUSH1 0x20 PUSH2 0x2390 DUP6 DUP3 DUP7 ADD PUSH2 0x22F5 JUMP JUMPDEST PUSH1 0x0 DUP1 PUSH1 0x40 DUP4 DUP6 SUB SLT ISZERO PUSH2 0x24A3 JUMPI PUSH1 0x0 DUP1 REVERT JUMPDEST PUSH1 0x0 PUSH2 0x24AF DUP6 DUP6 PUSH2 0x22EA JUMP JUMPDEST SWAP3 POP POP PUSH1 0x20 PUSH2 0x2390 DUP6 DUP3 DUP7 ADD PUSH2 0x2337 JUMP JUMPDEST PUSH1 0x0 PUSH1 0x20 DUP3 DUP5 SUB SLT ISZERO PUSH2 0x24D2 JUMPI PUSH1 0x0 DUP1 REVERT JUMPDEST PUSH1 0x0 PUSH2 0x1900 DUP5 DUP5 PUSH2 0x2300 JUMP JUMPDEST PUSH1 0x0 PUSH1 0x20 DUP3 DUP5 SUB SLT ISZERO PUSH2 0x24F0 JUMPI PUSH1 0x0 DUP1 REVERT JUMPDEST PUSH1 0x0 PUSH2 0x1900 DUP5 DUP5 PUSH2 0x230B JUMP JUMPDEST PUSH1 0x0 PUSH1 0x20 DUP3 DUP5 SUB SLT ISZERO PUSH2 0x250E JUMPI PUSH1 0x0 DUP1 REVERT JUMPDEST PUSH1 0x0 PUSH2 0x1900 DUP5 DUP5 PUSH2 0x2337 JUMP JUMPDEST PUSH2 0x2523 DUP2 PUSH2 0x3221 JUMP JUMPDEST DUP3 MSTORE POP POP JUMP JUMPDEST PUSH2 0x2523 DUP2 PUSH2 0x322C JUMP JUMPDEST PUSH1 0x0 PUSH2 0x253D DUP3 PUSH2 0x315A JUMP JUMPDEST PUSH2 0x2547 DUP2 DUP6 PUSH2 0x315E JUMP JUMPDEST SWAP4 POP PUSH2 0x2557 DUP2 DUP6 PUSH1 0x20 DUP7 ADD PUSH2 0x3259 JUMP JUMPDEST PUSH2 0x2560 DUP2 PUSH2 0x335A JUMP JUMPDEST SWAP1 SWAP4 ADD SWAP4 SWAP3 POP POP POP JUMP JUMPDEST PUSH1 0x0 PUSH2 0x2575 DUP3 PUSH2 0x315A JUMP JUMPDEST PUSH2 0x257F DUP2 DUP6 PUSH2 0x42B JUMP JUMPDEST SWAP4 POP PUSH2 0x258F DUP2 DUP6 PUSH1 0x20 DUP7 ADD PUSH2 0x3259 JUMP JUMPDEST SWAP3 SWAP1 SWAP3 ADD SWAP3 SWAP2 POP POP JUMP JUMPDEST PUSH1 0x0 DUP2 SLOAD PUSH2 0x25A6 DUP2 PUSH2 0x3285 JUMP JUMPDEST PUSH2 0x25B0 DUP2 DUP7 PUSH2 0x42B JUMP JUMPDEST SWAP5 POP PUSH1 0x1 DUP3 AND DUP1 ISZERO PUSH2 0x25C9 JUMPI PUSH1 0x1 DUP2 EQ PUSH2 0x25DA JUMPI PUSH2 0x260A JUMP JUMPDEST PUSH1 0xFF NOT DUP4 AND DUP7 MSTORE DUP2 DUP7 ADD SWAP4 POP PUSH2 0x260A JUMP JUMPDEST PUSH2 0x25E3 DUP6 PUSH2 0x314E JUMP JUMPDEST PUSH1 0x0 JUMPDEST DUP4 DUP2 LT ISZERO PUSH2 0x2602 JUMPI DUP2 SLOAD DUP9 DUP3 ADD MSTORE PUSH1 0x1 SWAP1 SWAP2 ADD SWAP1 PUSH1 0x20 ADD PUSH2 0x25E6 JUMP JUMPDEST DUP4 DUP9 ADD SWAP6 POP POP POP JUMPDEST POP POP POP SWAP3 SWAP2 POP POP JUMP JUMPDEST PUSH1 0x0 PUSH2 0x2620 PUSH1 0x2B DUP4 PUSH2 0x315E JUMP JUMPDEST PUSH32 0x455243373231456E756D657261626C653A206F776E657220696E646578206F75 DUP2 MSTORE PUSH11 0x74206F6620626F756E6473 PUSH1 0xA8 SHL PUSH1 0x20 DUP3 ADD MSTORE PUSH1 0x40 ADD SWAP3 SWAP2 POP POP JUMP JUMPDEST PUSH1 0x0 PUSH2 0x266D PUSH1 0x32 DUP4 PUSH2 0x315E JUMP JUMPDEST PUSH32 0x4552433732313A207472616E7366657220746F206E6F6E204552433732315265 DUP2 MSTORE PUSH18 0x31B2B4BB32B91034B6B83632B6B2B73A32B9 PUSH1 0x71 SHL PUSH1 0x20 DUP3 ADD MSTORE PUSH1 0x40 ADD SWAP3 SWAP2 POP POP JUMP JUMPDEST PUSH1 0x0 PUSH2 0x26C1 PUSH1 0x26 DUP4 PUSH2 0x315E JUMP JUMPDEST PUSH32 0x4F776E61626C653A206E6577206F776E657220697320746865207A65726F2061 DUP2 MSTORE PUSH6 0x646472657373 PUSH1 0xD0 SHL PUSH1 0x20 DUP3 ADD MSTORE PUSH1 0x40 ADD SWAP3 SWAP2 POP POP JUMP JUMPDEST PUSH1 0x0 PUSH2 0x2709 PUSH1 0x1C DUP4 PUSH2 0x315E JUMP JUMPDEST PUSH32 0x4552433732313A20746F6B656E20616C7265616479206D696E74656400000000 DUP2 MSTORE PUSH1 0x20 ADD SWAP3 SWAP2 POP POP JUMP JUMPDEST PUSH1 0x0 PUSH2 0x2742 PUSH1 0x24 DUP4 PUSH2 0x315E JUMP JUMPDEST PUSH32 0x4552433732313A207472616E7366657220746F20746865207A65726F20616464 DUP2 MSTORE PUSH4 0x72657373 PUSH1 0xE0 SHL PUSH1 0x20 DUP3 ADD MSTORE PUSH1 0x40 ADD SWAP3 SWAP2 POP POP JUMP JUMPDEST PUSH1 0x0 PUSH2 0x2788 PUSH1 0x19 DUP4 PUSH2 0x315E JUMP JUMPDEST PUSH32 0x4552433732313A20617070726F766520746F2063616C6C657200000000000000 DUP2 MSTORE PUSH1 0x20 ADD SWAP3 SWAP2 POP POP JUMP JUMPDEST PUSH1 0x0 PUSH2 0x27C1 PUSH1 0x2 DUP4 PUSH2 0x42B JUMP JUMPDEST PUSH2 0x111 PUSH1 0xF5 SHL DUP2 MSTORE PUSH1 0x2 ADD SWAP3 SWAP2 POP POP JUMP JUMPDEST PUSH1 0x0 PUSH2 0x27DF PUSH1 0x2C DUP4 PUSH2 0x315E JUMP JUMPDEST PUSH32 0x4552433732313A206F70657261746F7220717565727920666F72206E6F6E6578 DUP2 MSTORE PUSH12 0x34B9BA32B73A103A37B5B2B7 PUSH1 0xA1 SHL PUSH1 0x20 DUP3 ADD MSTORE PUSH1 0x40 ADD SWAP3 SWAP2 POP POP JUMP JUMPDEST PUSH1 0x0 PUSH2 0x282D PUSH1 0x1 DUP4 PUSH2 0x42B JUMP JUMPDEST PUSH1 0x1 PUSH1 0xFD SHL DUP2 MSTORE PUSH1 0x1 ADD SWAP3 SWAP2 POP POP JUMP JUMPDEST PUSH1 0x0 PUSH2 0x284A PUSH1 0x38 DUP4 PUSH2 0x315E JUMP JUMPDEST PUSH32 0x4552433732313A20617070726F76652063616C6C6572206973206E6F74206F77 DUP2 MSTORE PUSH32 0x6E6572206E6F7220617070726F76656420666F7220616C6C0000000000000000 PUSH1 0x20 DUP3 ADD MSTORE PUSH1 0x40 ADD SWAP3 SWAP2 POP POP JUMP JUMPDEST PUSH1 0x0 PUSH2 0x28A9 PUSH1 0x1 DUP4 PUSH2 0x42B JUMP JUMPDEST PUSH1 0x11 PUSH1 0xF9 SHL DUP2 MSTORE PUSH1 0x1 ADD SWAP3 SWAP2 POP POP JUMP JUMPDEST PUSH1 0x0 PUSH2 0x28C6 PUSH1 0x2A DUP4 PUSH2 0x315E JUMP JUMPDEST PUSH32 0x4552433732313A2062616C616E636520717565727920666F7220746865207A65 DUP2 MSTORE PUSH10 0x726F2061646472657373 PUSH1 0xB0 SHL PUSH1 0x20 DUP3 ADD MSTORE PUSH1 0x40 ADD SWAP3 SWAP2 POP POP JUMP JUMPDEST PUSH1 0x0 PUSH2 0x2912 PUSH1 0x29 DUP4 PUSH2 0x315E JUMP JUMPDEST PUSH32 0x4552433732313A206F776E657220717565727920666F72206E6F6E6578697374 DUP2 MSTORE PUSH9 0x32B73A103A37B5B2B7 PUSH1 0xB9 SHL PUSH1 0x20 DUP3 ADD MSTORE PUSH1 0x40 ADD SWAP3 SWAP2 POP POP JUMP JUMPDEST PUSH1 0x0 PUSH2 0x295D PUSH1 0x2 DUP4 PUSH2 0x42B JUMP JUMPDEST PUSH2 0x227D PUSH1 0xF0 SHL DUP2 MSTORE PUSH1 0x2 ADD SWAP3 SWAP2 POP POP JUMP JUMPDEST PUSH1 0x0 PUSH2 0x297B PUSH1 0xF DUP4 PUSH2 0x42B JUMP JUMPDEST PUSH15 0x7B226E616D65223A20224261672023 PUSH1 0x88 SHL DUP2 MSTORE PUSH1 0xF ADD SWAP3 SWAP2 POP POP JUMP JUMPDEST PUSH1 0x0 PUSH2 0x29A6 PUSH1 0x20 DUP4 PUSH2 0x315E JUMP JUMPDEST PUSH32 0x4552433732313A206D696E7420746F20746865207A65726F2061646472657373 DUP2 MSTORE PUSH1 0x20 ADD SWAP3 SWAP2 POP POP JUMP JUMPDEST PUSH1 0x0 PUSH2 0x29DF PUSH1 0x2C DUP4 PUSH2 0x315E JUMP JUMPDEST PUSH32 0x4552433732313A20617070726F76656420717565727920666F72206E6F6E6578 DUP2 MSTORE PUSH12 0x34B9BA32B73A103A37B5B2B7 PUSH1 0xA1 SHL PUSH1 0x20 DUP3 ADD MSTORE PUSH1 0x40 ADD SWAP3 SWAP2 POP POP JUMP JUMPDEST PUSH1 0x0 PUSH2 0x2A2D PUSH1 0x20 DUP4 PUSH2 0x315E JUMP JUMPDEST PUSH32 0x4F776E61626C653A2063616C6C6572206973206E6F7420746865206F776E6572 DUP2 MSTORE PUSH1 0x20 ADD SWAP3 SWAP2 POP POP JUMP JUMPDEST PUSH1 0x0 PUSH2 0x2A66 PUSH1 0x10 DUP4 PUSH2 0x315E JUMP JUMPDEST PUSH16 0x151BDAD95B881251081A5B9D985B1A59 PUSH1 0x82 SHL DUP2 MSTORE PUSH1 0x20 ADD SWAP3 SWAP2 POP POP JUMP JUMPDEST PUSH1 0x0 PUSH2 0x2A92 PUSH1 0x29 DUP4 PUSH2 0x315E JUMP JUMPDEST PUSH32 0x4552433732313A207472616E73666572206F6620746F6B656E20746861742069 DUP2 MSTORE PUSH9 0x39903737BA1037BBB7 PUSH1 0xB9 SHL PUSH1 0x20 DUP3 ADD MSTORE PUSH1 0x40 ADD SWAP3 SWAP2 POP POP JUMP JUMPDEST PUSH1 0x0 PUSH2 0x2ADE PUSH2 0x100 DUP4 PUSH2 0x42B JUMP JUMPDEST PUSH32 0x222C20226465736372697074696F6E223A20224C6F6F742069732072616E646F DUP2 MSTORE PUSH32 0x6D697A656420616476656E747572657220676561722067656E65726174656420 PUSH1 0x20 DUP3 ADD MSTORE PUSH32 0x616E642073746F726564206F6E20636861696E2E2053746174732C20696D6167 PUSH1 0x40 DUP3 ADD MSTORE PUSH32 0x65732C20616E64206F746865722066756E6374696F6E616C6974792061726520 PUSH1 0x60 DUP3 ADD MSTORE PUSH32 0x696E74656E74696F6E616C6C79206F6D697474656420666F72206F7468657273 PUSH1 0x80 DUP3 ADD MSTORE PUSH32 0x20746F20696E746572707265742E204665656C206672656520746F2075736520 PUSH1 0xA0 DUP3 ADD MSTORE PUSH32 0x4C6F6F7420696E20616E792077617920796F752077616E742E222C2022696D61 PUSH1 0xC0 DUP3 ADD MSTORE PUSH32 0x6765223A2022646174613A696D6167652F7376672B786D6C3B6261736536342C PUSH1 0xE0 DUP3 ADD MSTORE PUSH2 0x100 ADD SWAP3 SWAP2 POP POP JUMP JUMPDEST PUSH1 0x0 PUSH2 0x2C22 PUSH1 0x21 DUP4 PUSH2 0x315E JUMP JUMPDEST PUSH32 0x4552433732313A20617070726F76616C20746F2063757272656E74206F776E65 DUP2 MSTORE PUSH1 0x39 PUSH1 0xF9 SHL PUSH1 0x20 DUP3 ADD MSTORE PUSH1 0x40 ADD SWAP3 SWAP2 POP POP JUMP JUMPDEST PUSH1 0x0 PUSH2 0x2C65 PUSH1 0x1D DUP4 PUSH2 0x42B JUMP JUMPDEST PUSH32 0x646174613A6170706C69636174696F6E2F6A736F6E3B6261736536342C000000 DUP2 MSTORE PUSH1 0x1D ADD SWAP3 SWAP2 POP POP JUMP JUMPDEST PUSH1 0x0 PUSH2 0x2C9E PUSH1 0x3 DUP4 PUSH2 0x42B JUMP JUMPDEST PUSH3 0x202B31 PUSH1 0xE8 SHL DUP2 MSTORE PUSH1 0x3 ADD SWAP3 SWAP2 POP POP JUMP JUMPDEST PUSH1 0x0 PUSH2 0x2CBD PUSH1 0x31 DUP4 PUSH2 0x315E JUMP JUMPDEST PUSH32 0x4552433732313A207472616E736665722063616C6C6572206973206E6F74206F DUP2 MSTORE PUSH17 0x1DDB995C881B9BDC88185C1C1C9BDD9959 PUSH1 0x7A SHL PUSH1 0x20 DUP3 ADD MSTORE PUSH1 0x40 ADD SWAP3 SWAP2 POP POP JUMP JUMPDEST PUSH1 0x0 PUSH2 0x2D10 PUSH1 0x2C DUP4 PUSH2 0x315E JUMP JUMPDEST PUSH32 0x455243373231456E756D657261626C653A20676C6F62616C20696E646578206F DUP2 MSTORE PUSH12 0x7574206F6620626F756E6473 PUSH1 0xA0 SHL PUSH1 0x20 DUP3 ADD MSTORE PUSH1 0x40 ADD SWAP3 SWAP2 POP POP JUMP JUMPDEST PUSH1 0x0 PUSH2 0x2D5E PUSH1 0x1F DUP4 PUSH2 0x315E JUMP JUMPDEST PUSH32 0x5265656E7472616E637947756172643A207265656E7472616E742063616C6C00 DUP2 MSTORE PUSH1 0x20 ADD SWAP3 SWAP2 POP POP JUMP JUMPDEST PUSH2 0x2523 DUP2 PUSH2 0x324A JUMP JUMPDEST PUSH1 0x0 PUSH2 0x2D9F DUP3 DUP5 PUSH2 0x256A JUMP JUMPDEST SWAP4 SWAP3 POP POP POP JUMP JUMPDEST PUSH1 0x0 PUSH2 0x2DB2 DUP3 DUP6 PUSH2 0x256A JUMP JUMPDEST SWAP2 POP PUSH2 0x1900 DUP3 DUP5 PUSH2 0x256A JUMP JUMPDEST PUSH1 0x0 PUSH2 0x2DCA DUP3 DUP13 PUSH2 0x256A JUMP JUMPDEST SWAP2 POP PUSH2 0x2DD6 DUP3 DUP12 PUSH2 0x256A JUMP JUMPDEST SWAP2 POP PUSH2 0x2DE2 DUP3 DUP11 PUSH2 0x256A JUMP JUMPDEST SWAP2 POP PUSH2 0x2DEE DUP3 DUP10 PUSH2 0x256A JUMP JUMPDEST SWAP2 POP PUSH2 0x2DFA DUP3 DUP9 PUSH2 0x256A JUMP JUMPDEST SWAP2 POP PUSH2 0x2E06 DUP3 DUP8 PUSH2 0x256A JUMP JUMPDEST SWAP2 POP PUSH2 0x2E12 DUP3 DUP7 PUSH2 0x256A JUMP JUMPDEST SWAP2 POP PUSH2 0x2E1E DUP3 DUP6 PUSH2 0x256A JUMP JUMPDEST SWAP2 POP PUSH2 0x2E2A DUP3 DUP5 PUSH2 0x256A JUMP JUMPDEST SWAP12 SWAP11 POP POP POP POP POP POP POP POP POP POP POP JUMP JUMPDEST PUSH1 0x0 PUSH2 0x2E45 DUP3 DUP6 PUSH2 0x256A JUMP JUMPDEST SWAP2 POP PUSH2 0x2E50 DUP3 PUSH2 0x2820 JUMP JUMPDEST SWAP2 POP PUSH2 0x1900 DUP3 DUP5 PUSH2 0x2599 JUMP JUMPDEST PUSH1 0x0 PUSH2 0x2E67 DUP3 PUSH2 0x289C JUMP JUMPDEST SWAP2 POP PUSH2 0x2E73 DUP3 DUP7 PUSH2 0x256A JUMP JUMPDEST SWAP2 POP PUSH2 0x2E7E DUP3 PUSH2 0x2820 JUMP JUMPDEST SWAP2 POP PUSH2 0x2E8A DUP3 DUP6 PUSH2 0x256A JUMP JUMPDEST SWAP2 POP PUSH2 0x2E95 DUP3 PUSH2 0x27B4 JUMP JUMPDEST SWAP2 POP PUSH2 0x2EA1 DUP3 DUP5 PUSH2 0x256A JUMP JUMPDEST SWAP6 SWAP5 POP POP POP POP POP JUMP JUMPDEST PUSH1 0x0 PUSH2 0x2EB5 DUP3 PUSH2 0x289C JUMP JUMPDEST SWAP2 POP PUSH2 0x2EC1 DUP3 DUP7 PUSH2 0x256A JUMP JUMPDEST SWAP2 POP PUSH2 0x2ECC DUP3 PUSH2 0x2820 JUMP JUMPDEST SWAP2 POP PUSH2 0x2ED8 DUP3 DUP6 PUSH2 0x256A JUMP JUMPDEST SWAP2 POP PUSH2 0x2EE3 DUP3 PUSH2 0x27B4 JUMP JUMPDEST SWAP2 POP PUSH2 0x2EEF DUP3 DUP5 PUSH2 0x256A JUMP JUMPDEST SWAP2 POP PUSH2 0x2EA1 DUP3 PUSH2 0x2C91 JUMP JUMPDEST PUSH1 0x0 PUSH2 0x2F05 DUP3 PUSH2 0x296E JUMP JUMPDEST SWAP2 POP PUSH2 0x2F11 DUP3 DUP6 PUSH2 0x256A JUMP JUMPDEST SWAP2 POP PUSH2 0x2F1C DUP3 PUSH2 0x2AD0 JUMP JUMPDEST SWAP2 POP PUSH2 0x2F28 DUP3 DUP5 PUSH2 0x256A JUMP JUMPDEST SWAP2 POP PUSH2 0x1900 DUP3 PUSH2 0x2950 JUMP JUMPDEST PUSH1 0x0 PUSH2 0x2F3E DUP3 PUSH2 0x2C58 JUMP JUMPDEST SWAP2 POP PUSH2 0x2D9F DUP3 DUP5 PUSH2 0x256A JUMP JUMPDEST PUSH1 0x20 DUP2 ADD PUSH2 0x72D DUP3 DUP5 PUSH2 0x251A JUMP JUMPDEST PUSH1 0x80 DUP2 ADD PUSH2 0x2F66 DUP3 DUP8 PUSH2 0x251A JUMP JUMPDEST PUSH2 0x2F73 PUSH1 0x20 DUP4 ADD DUP7 PUSH2 0x251A JUMP JUMPDEST PUSH2 0x2F80 PUSH1 0x40 DUP4 ADD DUP6 PUSH2 0x2D8A JUMP JUMPDEST DUP2 DUP2 SUB PUSH1 0x60 DUP4 ADD MSTORE PUSH2 0x2F92 DUP2 DUP5 PUSH2 0x2532 JUMP JUMPDEST SWAP7 SWAP6 POP POP POP POP POP POP JUMP JUMPDEST PUSH1 0x20 DUP2 ADD PUSH2 0x72D DUP3 DUP5 PUSH2 0x2529 JUMP JUMPDEST PUSH1 0x20 DUP1 DUP3 MSTORE DUP2 ADD PUSH2 0x2D9F DUP2 DUP5 PUSH2 0x2532 JUMP JUMPDEST PUSH1 0x20 DUP1 DUP3 MSTORE DUP2 ADD PUSH2 0x428 DUP2 PUSH2 0x2613 JUMP JUMPDEST PUSH1 0x20 DUP1 DUP3 MSTORE DUP2 ADD PUSH2 0x428 DUP2 PUSH2 0x2660 JUMP JUMPDEST PUSH1 0x20 DUP1 DUP3 MSTORE DUP2 ADD PUSH2 0x428 DUP2 PUSH2 0x26B4 JUMP JUMPDEST PUSH1 0x20 DUP1 DUP3 MSTORE DUP2 ADD PUSH2 0x428 DUP2 PUSH2 0x26FC JUMP JUMPDEST PUSH1 0x20 DUP1 DUP3 MSTORE DUP2 ADD PUSH2 0x428 DUP2 PUSH2 0x2735 JUMP JUMPDEST PUSH1 0x20 DUP1 DUP3 MSTORE DUP2 ADD PUSH2 0x428 DUP2 PUSH2 0x277B JUMP JUMPDEST PUSH1 0x20 DUP1 DUP3 MSTORE DUP2 ADD PUSH2 0x428 DUP2 PUSH2 0x27D2 JUMP JUMPDEST PUSH1 0x20 DUP1 DUP3 MSTORE DUP2 ADD PUSH2 0x428 DUP2 PUSH2 0x283D JUMP JUMPDEST PUSH1 0x20 DUP1 DUP3 MSTORE DUP2 ADD PUSH2 0x428 DUP2 PUSH2 0x28B9 JUMP JUMPDEST PUSH1 0x20 DUP1 DUP3 MSTORE DUP2 ADD PUSH2 0x428 DUP2 PUSH2 0x2905 JUMP JUMPDEST PUSH1 0x20 DUP1 DUP3 MSTORE DUP2 ADD PUSH2 0x428 DUP2 PUSH2 0x2999 JUMP JUMPDEST PUSH1 0x20 DUP1 DUP3 MSTORE DUP2 ADD PUSH2 0x428 DUP2 PUSH2 0x29D2 JUMP JUMPDEST PUSH1 0x20 DUP1 DUP3 MSTORE DUP2 ADD PUSH2 0x428 DUP2 PUSH2 0x2A20 JUMP JUMPDEST PUSH1 0x20 DUP1 DUP3 MSTORE DUP2 ADD PUSH2 0x428 DUP2 PUSH2 0x2A59 JUMP JUMPDEST PUSH1 0x20 DUP1 DUP3 MSTORE DUP2 ADD PUSH2 0x428 DUP2 PUSH2 0x2A85 JUMP JUMPDEST PUSH1 0x20 DUP1 DUP3 MSTORE DUP2 ADD PUSH2 0x428 DUP2 PUSH2 0x2C15 JUMP JUMPDEST PUSH1 0x20 DUP1 DUP3 MSTORE DUP2 ADD PUSH2 0x428 DUP2 PUSH2 0x2CB0 JUMP JUMPDEST PUSH1 0x20 DUP1 DUP3 MSTORE DUP2 ADD PUSH2 0x428 DUP2 PUSH2 0x2D03 JUMP JUMPDEST PUSH1 0x20 DUP1 DUP3 MSTORE DUP2 ADD PUSH2 0x428 DUP2 PUSH2 0x2D51 JUMP JUMPDEST PUSH1 0x20 DUP2 ADD PUSH2 0x72D DUP3 DUP5 PUSH2 0x2D8A JUMP JUMPDEST PUSH1 0x40 MLOAD DUP2 DUP2 ADD PUSH8 0xFFFFFFFFFFFFFFFF DUP2 GT DUP3 DUP3 LT OR ISZERO PUSH2 0x311B JUMPI PUSH2 0x311B PUSH2 0x3344 JUMP JUMPDEST PUSH1 0x40 MSTORE SWAP2 SWAP1 POP JUMP JUMPDEST PUSH1 0x0 PUSH8 0xFFFFFFFFFFFFFFFF DUP3 GT ISZERO PUSH2 0x313D JUMPI PUSH2 0x313D PUSH2 0x3344 JUMP JUMPDEST POP PUSH1 0x20 PUSH1 0x1F SWAP2 SWAP1 SWAP2 ADD PUSH1 0x1F NOT AND ADD SWAP1 JUMP JUMPDEST PUSH1 0x0 SWAP1 DUP2 MSTORE PUSH1 0x20 SWAP1 KECCAK256 SWAP1 JUMP JUMPDEST MLOAD SWAP1 JUMP JUMPDEST SWAP1 DUP2 MSTORE PUSH1 0x20 ADD SWAP1 JUMP JUMPDEST PUSH1 0x0 PUSH2 0x3172 DUP3 PUSH2 0x324A JUMP JUMPDEST SWAP2 POP PUSH2 0x317D DUP4 PUSH2 0x324A JUMP JUMPDEST SWAP3 POP DUP3 NOT DUP3 GT ISZERO PUSH2 0x3190 JUMPI PUSH2 0x3190 PUSH2 0x3302 JUMP JUMPDEST POP ADD SWAP1 JUMP JUMPDEST PUSH1 0x0 PUSH2 0x31A0 DUP3 PUSH2 0x324A JUMP JUMPDEST SWAP2 POP PUSH2 0x31AB DUP4 PUSH2 0x324A JUMP JUMPDEST SWAP3 POP DUP3 PUSH2 0x31BA JUMPI PUSH2 0x31BA PUSH2 0x3318 JUMP JUMPDEST POP DIV SWAP1 JUMP JUMPDEST PUSH1 0x0 PUSH2 0x31CA DUP3 PUSH2 0x324A JUMP JUMPDEST SWAP2 POP PUSH2 0x31D5 DUP4 PUSH2 0x324A JUMP JUMPDEST SWAP3 POP DUP2 PUSH1 0x0 NOT DIV DUP4 GT DUP3 ISZERO ISZERO AND ISZERO PUSH2 0x31EF JUMPI PUSH2 0x31EF PUSH2 0x3302 JUMP JUMPDEST POP MUL SWAP1 JUMP JUMPDEST PUSH1 0x0 PUSH2 0x31FF DUP3 PUSH2 0x324A JUMP JUMPDEST SWAP2 POP PUSH2 0x320A DUP4 PUSH2 0x324A JUMP JUMPDEST SWAP3 POP DUP3 DUP3 LT ISZERO PUSH2 0x321C JUMPI PUSH2 0x321C PUSH2 0x3302 JUMP JUMPDEST POP SUB SWAP1 JUMP JUMPDEST PUSH1 0x0 PUSH2 0x428 DUP3 PUSH2 0x323E JUMP JUMPDEST ISZERO ISZERO SWAP1 JUMP JUMPDEST PUSH1 0x1 PUSH1 0x1 PUSH1 0xE0 SHL SUB NOT AND SWAP1 JUMP JUMPDEST PUSH1 0x1 PUSH1 0x1 PUSH1 0xA0 SHL SUB AND SWAP1 JUMP JUMPDEST SWAP1 JUMP JUMPDEST DUP3 DUP2 DUP4 CALLDATACOPY POP PUSH1 0x0 SWAP2 ADD MSTORE JUMP JUMPDEST PUSH1 0x0 JUMPDEST DUP4 DUP2 LT ISZERO PUSH2 0x3274 JUMPI DUP2 DUP2 ADD MLOAD DUP4 DUP3 ADD MSTORE PUSH1 0x20 ADD PUSH2 0x325C JUMP JUMPDEST DUP4 DUP2 GT ISZERO PUSH2 0xE66 JUMPI POP POP PUSH1 0x0 SWAP2 ADD MSTORE JUMP JUMPDEST PUSH1 0x2 DUP2 DIV PUSH1 0x1 DUP3 AND DUP1 PUSH2 0x3299 JUMPI PUSH1 0x7F DUP3 AND SWAP2 POP JUMPDEST PUSH1 0x20 DUP3 LT DUP2 EQ ISZERO PUSH2 0x32AC JUMPI PUSH2 0x32AC PUSH2 0x332E JUMP JUMPDEST POP SWAP2 SWAP1 POP JUMP JUMPDEST PUSH1 0x0 PUSH2 0x32BD DUP3 PUSH2 0x324A JUMP JUMPDEST SWAP2 POP PUSH1 0x0 NOT DUP3 EQ ISZERO PUSH2 0x32D1 JUMPI PUSH2 0x32D1 PUSH2 0x3302 JUMP JUMPDEST POP PUSH1 0x1 ADD SWAP1 JUMP JUMPDEST PUSH1 0x0 PUSH2 0x32E3 DUP3 PUSH2 0x324A JUMP JUMPDEST SWAP2 POP PUSH2 0x32EE DUP4 PUSH2 0x324A JUMP JUMPDEST SWAP3 POP DUP3 PUSH2 0x32FD JUMPI PUSH2 0x32FD PUSH2 0x3318 JUMP JUMPDEST POP MOD SWAP1 JUMP JUMPDEST PUSH4 0x4E487B71 PUSH1 0xE0 SHL PUSH1 0x0 MSTORE PUSH1 0x11 PUSH1 0x4 MSTORE PUSH1 0x24 PUSH1 0x0 REVERT JUMPDEST PUSH4 0x4E487B71 PUSH1 0xE0 SHL PUSH1 0x0 MSTORE PUSH1 0x12 PUSH1 0x4 MSTORE PUSH1 0x24 PUSH1 0x0 REVERT JUMPDEST PUSH4 0x4E487B71 PUSH1 0xE0 SHL PUSH1 0x0 MSTORE PUSH1 0x22 PUSH1 0x4 MSTORE PUSH1 0x24 PUSH1 0x0 REVERT JUMPDEST PUSH4 0x4E487B71 PUSH1 0xE0 SHL PUSH1 0x0 MSTORE PUSH1 0x41 PUSH1 0x4 MSTORE PUSH1 0x24 PUSH1 0x0 REVERT JUMPDEST PUSH1 0x1F ADD PUSH1 0x1F NOT AND SWAP1 JUMP JUMPDEST PUSH2 0x336D DUP2 PUSH2 0x3221 JUMP JUMPDEST DUP2 EQ PUSH2 0x1484 JUMPI PUSH1 0x0 DUP1 REVERT JUMPDEST PUSH2 0x336D DUP2 PUSH2 0x322C JUMP JUMPDEST PUSH2 0x336D DUP2 PUSH2 0x3231 JUMP JUMPDEST PUSH2 0x336D DUP2 PUSH2 0x324A JUMP INVALID EXTCODECOPY 0x2F PUSH21 0x6578743E3C7465787420783D2231302220793D2236 ADDRESS 0x22 KECCAK256 PUSH4 0x6C617373 RETURNDATASIZE 0x22 PUSH3 0x617365 0x22 RETURNDATACOPY EXTCODECOPY 0x2F PUSH21 0x6578743E3C7465787420783D2231302220793D2231 CALLDATASIZE ADDRESS 0x22 KECCAK256 PUSH4 0x6C617373 RETURNDATASIZE 0x22 PUSH3 0x617365 0x22 RETURNDATACOPY EXTCODECOPY 0x2F PUSH21 0x6578743E3C7465787420783D2231302220793D2231 ORIGIN ADDRESS 0x22 KECCAK256 PUSH4 0x6C617373 RETURNDATASIZE 0x22 PUSH3 0x617365 0x22 RETURNDATACOPY EXTCODECOPY 0x2F PUSH21 0x6578743E3C7465787420783D2231302220793D2238 ADDRESS 0x22 KECCAK256 PUSH4 0x6C617373 RETURNDATASIZE 0x22 PUSH3 0x617365 0x22 RETURNDATACOPY EXTCODECOPY 0x2F PUSH21 0x6578743E3C7465787420783D2231302220793D2231 ADDRESS ADDRESS 0x22 KECCAK256 PUSH4 0x6C617373 RETURNDATASIZE 0x22 PUSH3 0x617365 0x22 RETURNDATACOPY EXTCODECOPY PUSH20 0x766720786D6C6E733D22687474703A2F2F777777 0x2E PUSH24 0x332E6F72672F323030302F73766722207072657365727665 COINBASE PUSH20 0x70656374526174696F3D22784D696E594D696E20 PUSH14 0x656574222076696577426F783D22 ADDRESS KECCAK256 ADDRESS KECCAK256 CALLER CALLDATALOAD ADDRESS KECCAK256 CALLER CALLDATALOAD ADDRESS 0x22 RETURNDATACOPY EXTCODECOPY PUSH20 0x74796C653E2E62617365207B2066696C6C3A2077 PUSH9 0x6974653B20666F6E74 0x2D PUSH7 0x616D696C793A20 PUSH20 0x657269663B20666F6E742D73697A653A20313470 PUSH25 0x3B207D3C2F7374796C653E3C726563742077696474683D2231 ADDRESS ADDRESS 0x25 0x22 KECCAK256 PUSH9 0x65696768743D223130 ADDRESS 0x25 0x22 KECCAK256 PUSH7 0x696C6C3D22626C PUSH2 0x636B 0x22 KECCAK256 0x2F RETURNDATACOPY EXTCODECOPY PUSH21 0x65787420783D2231302220793D2232302220636C61 PUSH20 0x733D2262617365223E3C2F746578743E3C746578 PUSH21 0x20783D2231302220793D223134302220636C617373 RETURNDATASIZE 0x22 PUSH3 0x617365 0x22 RETURNDATACOPY COINBASE TIMESTAMP NUMBER DIFFICULTY GASLIMIT CHAINID SELFBALANCE 0x48 0x49 0x4A 0x4B 0x4C 0x4D 0x4E 0x4F POP MLOAD MSTORE MSTORE8 SLOAD SSTORE JUMP JUMPI PC MSIZE GAS PUSH2 0x6263 PUSH5 0x6566676869 PUSH11 0x6B6C6D6E6F707172737475 PUSH23 0x7778797A303132333435363738392B2F3C2F746578743E EXTCODECOPY PUSH21 0x65787420783D2231302220793D2234302220636C61 PUSH20 0x733D2262617365223EA2646970667358221220E5 0xAE ADDMOD BALANCE 0xB1 0x4A 0xB6 EXTCODESIZE DUP14 0xC6 0x28 PUSH6 0x76AB06F67086 0x2D 0xD1 0xC7 EXP 0x4A DIFFICULTY 0xDA DIV DIV PUSH17 0xA9EDED4564736F6C634300080000330000 "
        },
        "methodIdentifiers": {
          "approve(address,uint256)": "095ea7b3",
          "balanceOf(address)": "70a08231",
          "claim(uint256)": "379607f5",
          "getApproved(uint256)": "081812fc",
          "getChest(uint256)": "ef68075a",
          "getFoot(uint256)": "0e99990d",
          "getHand(uint256)": "d47f269e",
          "getHead(uint256)": "9720c969",
          "getNeck(uint256)": "67209aa8",
          "getRing(uint256)": "c08a5dd5",
          "getWaist(uint256)": "9bdc1b69",
          "getWeapon(uint256)": "9e41b73f",
          "isApprovedForAll(address,address)": "e985e9c5",
          "name()": "06fdde03",
          "owner()": "8da5cb5b",
          "ownerClaim(uint256)": "434f48c4",
          "ownerOf(uint256)": "6352211e",
          "renounceOwnership()": "715018a6",
          "safeTransferFrom(address,address,uint256)": "42842e0e",
          "safeTransferFrom(address,address,uint256,bytes)": "b88d4fde",
          "setApprovalForAll(address,bool)": "a22cb465",
          "supportsInterface(bytes4)": "01ffc9a7",
          "symbol()": "95d89b41",
          "tokenByIndex(uint256)": "4f6ccce7",
          "tokenOfOwnerByIndex(address,uint256)": "2f745c59",
          "tokenURI(uint256)": "c87b56dd",
          "totalSupply()": "18160ddd",
          "transferFrom(address,address,uint256)": "23b872dd",
          "transferOwnership(address)": "f2fde38b"
        }
      }
    }
  }
}