{
  "contracts/dungeonsSeeder.sol": {
    "dungeonsSeeder": {
      "abi": [
        {
          "inputs": [
            {
              "internalType": "uint256",
              "name": "seed",
              "type": "uint256"
            }
          ],
          "name": "getEnvironment",
          "outputs": [
            {
              "internalType": "uint8",
              "name": "",
              "type": "uint8"
            }
          ],
          "stateMutability": "pure",
          "type": "function"
        },
        {
          "inputs": [
            {
              "internalType": "uint256",
              "name": "seed",
              "type": "uint256"
            }
          ],
          "name": "getName",
          "outputs": [
            {
              "internalType": "string",
              "name": "",
              "type": "string"
            },
            {
              "internalType": "string",
              "name": "",
              "type": "string"
            },
            {
              "internalType": "uint8",
              "name": "",
              "type": "uint8"
            }
          ],
          "stateMutability": "view",
          "type": "function"
        },
        {
          "inputs": [
            {
              "internalType": "uint256",
              "name": "tokenId",
              "type": "uint256"
            }
          ],
          "name": "getSeed",
          "outputs": [
            {
              "internalType": "uint256",
              "name": "",
              "type": "uint256"
            }
          ],
          "stateMutability": "view",
          "type": "function"
        },
        {
          "inputs": [
            {
              "internalType": "uint256",
              "name": "seed",
              "type": "uint256"
            }
          ],
          "name": "getSize",
          "outputs": [
            {
              "internalType": "uint8",
              "name": "",
              "type": "uint8"
            }
          ],
          "stateMutability": "pure",
          "type": "function"
        }
      ],
      "evm": {
        "bytecode": {
          "linkReferences": {},
          "object": "60076104208181526610589e5cdcd85b60ca1b61044052608090815261046082815266105b98da595b9d60ca1b6104805260a05260056104a081815264426c65616b60d81b6104c05260c05260066104e081815265109c9a59da1d60d21b6105005260e052610520848152664275726e696e6760c81b610540526101005260096105608181526810dbdb1b185c1cd95960ba1b61058052610120526105a09081526810dbdc9c9d5c1d195960ba1b6105c0526101405260046105e0818152634461726b60e01b6106005261016052600861062081815267111958dc995c1a5960c21b6106405261018052610660818152674465736f6c61746560c01b610680526101a0526106a0828152634469726560e01b6106c0526101c0526106e083815265446976696e6560d01b610700526101e05261072086815266115b595c985b1960ca1b61074052610200526107608181526722b6b83cb932b0b760c11b61078052610220526107a0838152652330b63632b760d11b6107c052610240526107e086815266476c6f77696e6760c81b6108005261026052610820828152634772696d60e01b61084052610280526108609081526748656176656e277360c01b610880526102a0526108a0828152652434b23232b760d11b6108c0526102c0526108e090815263486f6c7960e01b610900526102e05261092084815266486f776c696e6760c81b61094052610300526109608281526424b73732b960d91b61098052610320526109a081815265135bdc989a5960d21b6109c052610340526109e0828152644d75726b7960d81b610a005261036052610a209182526427baba32b960d91b610a405261038091909152600a610a60818152695368696d6d6572696e6760b01b610a80526103a052610aa093845266536972656e277360c81b610ac0526103c093909352610ae09081526529bab735b2b760d11b610b00526103e052610b60604052610b209182526957686973706572696e6760b01b610b405261040091909152620002f390600090601d62001379565b50604080516105008101825260066104c082018181526521b0b73cb7b760d11b6104e084015282528251808401845260098082526843617461636f6d627360b81b60208381019190915280850192909252845180860186528381526521b0bb32b93760d11b81840152848601528451808601865260078082526621b430b6b132b960c91b8285015260608601919091528551808701875260088082526721b637b4b9ba32b960c11b8286015260808701919091528651808801885260058082526410dc9e5c1d60da1b8287015260a08801919091528751808901895260038152622232b760e91b8187015260c0880152875180890189528181526444756e657360d81b8187015260e08801528751808901895281815264119a595b1960da1b818701526101008801528751808901895286815265119bdc995cdd60d21b818701526101208801528751808901895281815264476c61646560d81b818701526101408801528751808901895281815264476f72676560d81b81870152610160880152875180890189528481526811dc985d995e585c9960ba1b81870152610180880152875180890189528681526547726f74746f60d01b818701526101a0880152875180890189528181526447726f766560d81b818701526101c0880152875180890189528181526448616c6c7360d81b818701526101e08801528751808901895260048082526304b6565760e41b828801526102008901919091528851808a018a52818152632630b4b960e11b818801526102208901528851808a018a5285815268098c2c4f2e4d2dce8d60bb1b818801526102408901528851808a018a52848152664c616e64696e6760c81b818801526102608901528851808a018a52818152634d617a6560e01b818801526102808901528851808a018a529283526726b7bab73a30b4b760c11b838701526102a088019290925287518089018952600a8152694e6563726f706f6c697360b01b818701526102c088015287518089018952818152644f6173697360d81b818701526102e088015287518089018952838152665061737361676560c81b8187015261030088015287518089018952828152635065616b60e01b818701526103208801528751808901895286815265283934b9b7b760d11b81870152610340880152875180890189529182526329b1b0b960e11b82860152610360870191909152865180880188528581526553657765727360d01b818601526103808701528651808801885285815265536872696e6560d01b818601526103a0870152865180880188528181526414dbdd5b9960da1b818601526103c087015286518088018852918252665374657070657360c81b828501526103e0860191909152855180870187528481526554656d706c6560d01b81850152610400860152855180870187528481526554756e64726160d01b818501526104208601528551808701875284815265151d5b9b995b60d21b81850152610440860152855180870187529384526556616c6c657960d01b84840152610460850193909352845180860186529081526815d85d195c99985b1b60ba1b81830152610480840152835180850190945290835264576f6f647360d81b908301526104a0810191909152620007a990601d906026620013d0565b50604080516107c081018252600561078082018181526441676f6e7960d81b6107a08401528252825180840184528181526420b733b2b960d91b6020828101919091528084019190915283518085018552600680825265109b1a59da1d60d21b828401528486019190915284518086018652600480825263426f6e6560e01b82850152606086019190915285518087018752600a808252694272696c6c69616e636560b01b828601526080870191909152865180880188526009808252684272696d73746f6e6560b81b8287015260a0880191909152875180890189528281526921b7b9393ab83a34b7b760b11b8187015260c0880152875180890189526007808252662232b9b830b4b960c91b8288015260e08901919091528851808a018a5287815264111c99585960da1b818801526101008901528851808a018a52848152634475736b60e01b818801526101208901528851808a018a52600d81526c115b9b1a59da1d195b9b595b9d609a1b818801526101408901528851808a018a52848152634675727960e01b818801526101608901528851808a018a52848152634669726560e01b818801526101808901528851808a018a52858152654769616e747360d01b818801526101a08901528851808a018a5287815264476c6f6f6d60d81b818801526101c08901528851808a018a52848152634861746560e01b818801526101e08901528851808a018a52878152644861766f6360d81b818801526102008901528851808a018a52858152652437b737bab960d11b818801526102208901528851808a018a52858152652437b93937b960d11b818801526102408901528851808a018a526008808252674c6f617468696e6760c01b828901526102608a01919091528951808b018b52858152634d69726560e01b818901526102808a01528951808b018b5285815263135a5cdd60e21b818901526102a08a01528951808b018b52828152664e6565646c657360c81b818901526102c08a01528951808b018b52858152632830b4b760e11b818901526102e08a01528951808b018b52600b8082526a50616e64656d6f6e69756d60a81b828a01526103008b01919091528a51808c018c528681526350696e6560e01b818a01526103208b01528a51808c018c52868152635261676560e01b818a01526103408b01528a51808c018c52838152665261707475726560c81b818a01526103608b01528a51808c018c529586526314d85b9960e21b868901526103808a01959095528951808b018b5286815265536f72726f7760d01b818901526103a08a01528951808b018b52600e81526d7468652041706f63616c7970736560901b818901526103c08a01528951808b018b52838152681d1a19481099585cdd60ba1b818901526103e08a01528951808b018b52600c81526b0e8d0ca4084cad0cadadee8d60a31b818901526104008a01528951808b018b52838152681d1a1948109c9bdbd960ba1b818901526104208a01528951808b018b52828152660e8d0ca408cdef60cb1b818901526104408a01528951808b018b52818152677468652047616c6560c01b818901526104608a01528951808b018b528381526874686520476f6c656d60b81b818901526104808a01528951808b018b52848152693a34329025b930b5b2b760b11b818901526104a08a01528951808b018b52838152680e8d0ca4098cacac6d60bb1b818901526104c08a01528951808b018b52818152673a34329026b7b7b760c11b818901526104e08a01528951808b018b528581526a0e8d0ca40a0d0decadcd2f60ab1b818901526105008a01528951808b018b528481526974686520506c6167756560b01b818901526105208a01528951808b018b52818152671d1a1948149bdbdd60c21b818901526105408a01528951808b018b528181526774686520536f6e6760c01b818901526105608a01528951808b018b528381526874686520537461727360b81b818901526105808a01528951808b018b52838152687468652053746f726d60b81b818901526105a08a01528951808b018b52828152663a34329029bab760c91b818901526105c08a01528951808b018b52818152673a3432902a32b0b960c11b818901526105e08a01528951808b018b528481526974686520546974616e7360b01b818901526106008a01528951808b018b5283815268746865205477696e7360b81b818901526106208a01528951808b018b529485526a7468652057696c6c6f777360a81b858801526106408901949094528851808a018a5293845267074686520576973760c41b8487015261066088019390935287518089018952818152683a3432902b34b832b960b91b8187015261068088015287518089018952918252690e8d0ca40acdee4e8caf60b31b828601526106a08701919091528651808801885282815266151bdc9b595b9d60ca1b818601526106c0870152865180880188529081526856656e6765616e636560b81b818501526106e08601528551808701875290815266566963746f727960c81b81840152610700850152845180860186526003815262576f6560e81b818401526107208501528451808601865290815265576973646f6d60d01b818301526107408401528351808501909452908352640aee4c2e8d60db1b9083015261076081019190915262000f5190604390603c62001415565b506040805161026081018252600c61022082018181526b2741726d61676564646f6e2760a01b6102408401528252825180840184528181526b274d696e642773204579652760a01b6020828101919091528084019190915283518085018552600a80825269274e6f7374726f6d6f2760b01b82840152848601919091528451808601865281815269274f626c6976696f6e2760b01b81840152606085015284518086018652600b8082526a2754686520436861736d2760a81b828501526080860191909152855180870187528181526a275468652043727970742760a81b8185015260a0860152855180870187529384526b27546865204465707468732760a01b8484015260c08501939093528451808601865260098152682754686520456e642760b81b8184015260e085015284518086018652600d81526c2754686520457870616e73652760981b818401526101008501528451808601865281815269275468652047616c652760b01b8184015261012085015284518086018652818152692754686520486f6f6b2760b01b8184015261014085015284518086018652600f81526e27546865204d61656c7374726f6d2760881b81840152610160850152845180860186528381526a27546865204d6f7574682760a81b81840152610180850152845180860186528181526927546865204d75636b2760b01b818401526101a0850152845180860186528381526a27546865205368656c662760a81b818401526101c08501528451808601865290815269275468652056616c652760b01b818301526101e084015283518085019094529083526a275468652056656c64742760a81b90830152610200810191909152620011d290607f9060116200145a565b50604080516101c081018252600661018082018181526546617465277360d01b6101a084015282528251808401845281815265466f6864277360d01b60208281019190915280840191909152835180850185526007808252664772656d70277360c81b8284015284860191909152845180860186528381526548617465277360d01b81840152606085015284518086018652838152654b616c69277360d01b818401526080850152845180860186526005808252644b6976277360d81b8285015260a086019190915285518087018752828152664c69676874277360c81b8185015260c0860152855180870187528481526553687562277360d01b8185015260e08601528551808701875281815264536f6c277360d81b81850152610100860152855180870187529384526554697368277360d01b8484015261012085019390935284518086018652908152665669706572277360c81b81830152610140840152835180850190945290835264576f65277360d81b908301526101608101919091526200136490609090600c6200149f565b503480156200137257600080fd5b5062001633565b82601d8101928215620013be579160200282015b82811115620013be5782518051620013ad918491602090910190620014e4565b50916020019190600101906200138d565b50620013cc9291506200156f565b5090565b8260268101928215620013be579160200282015b82811115620013be578251805162001404918491602090910190620014e4565b5091602001919060010190620013e4565b82603c8101928215620013be579160200282015b82811115620013be578251805162001449918491602090910190620014e4565b509160200191906001019062001429565b8260118101928215620013be579160200282015b82811115620013be57825180516200148e918491602090910190620014e4565b50916020019190600101906200146e565b82600c8101928215620013be579160200282015b82811115620013be5782518051620014d3918491602090910190620014e4565b5091602001919060010190620014b3565b828054620014f290620015ec565b90600052602060002090601f01602090048101928262001516576000855562001561565b82601f106200153157805160ff191683800117855562001561565b8280016001018555821562001561579182015b828111156200156157825182559160200191906001019062001544565b50620013cc92915062001590565b80821115620013cc576000620015868282620015a7565b506001016200156f565b5b80821115620013cc576000815560010162001591565b508054620015b590620015ec565b6000825580601f10620015c95750620015e9565b601f016020900490600052602060002090810190620015e9919062001590565b50565b6002810460018216806200160157607f821691505b602082108114156200161757620016176200161d565b50919050565b634e487b7160e01b600052602260045260246000fd5b610f8e80620016436000396000f3fe608060405234801561001057600080fd5b506004361061004c5760003560e01c8063023c23db146100515780636b8ff5741461007a5780636db408001461009c578063e0d4ea37146100af575b600080fd5b61006461005f366004610c46565b6100cf565b6040516100719190610df5565b60405180910390f35b61008d610088366004610c46565b6100ea565b60405161007193929190610db3565b6100646100aa366004610c46565b610af7565b6100c26100bd366004610c46565b610b77565b6040516100719190610de7565b60006100e2600483901b60086019610bb9565b90505b919050565b6060806000606080600080610107600f89901b6000612710610bb9565b905060118110156101e75760019150604051806040016040528060048152602001636e6f6e6560e01b8152509250607f816011811061015657634e487b7160e01b600052603260045260246000fd5b01805461016290610ea4565b80601f016020809104026020016040519081016040528092919081815260200182805461018e90610ea4565b80156101db5780601f106101b0576101008083540402835291602001916101db565b820191906000526020600020905b8154815290600101906020018083116101be57829003601f168201915b50505050509350610ae9565b6101ef610c0e565b600061020260108b901b60006026610bb9565b905061012c831161045b5760009350604051806040016040528060048152602001636e6f6e6560e01b8152509450609061024360178c901b6000600c610bb9565b600c811061026157634e487b7160e01b600052603260045260246000fd5b01805461026d90610ea4565b80601f016020809104026020016040519081016040528092919081815260200182805461029990610ea4565b80156102e65780601f106102bb576101008083540402835291602001916102e6565b820191906000526020600020905b8154815290600101906020018083116102c957829003601f168201915b50505050508260006005811061030c57634e487b7160e01b600052603260045260246000fd5b6020020181905250604051806040016040528060018152602001600160fd1b8152508260016005811061034f57634e487b7160e01b600052603260045260246000fd5b6020020152601d816026811061037557634e487b7160e01b600052603260045260246000fd5b01805461038190610ea4565b80601f01602080910402602001604051908101604052809291908181526020018280546103ad90610ea4565b80156103fa5780601f106103cf576101008083540402835291602001916103fa565b820191906000526020600020905b8154815290600101906020018083116103dd57829003601f168201915b50505050508260026005811061042057634e487b7160e01b600052603260045260246000fd5b6020908102919091019190915282518382015160408086015190516104459401610d33565b6040516020818303038152906040529550610ae6565b61070883116107b55760009350600061047b602a8c901b6000601d610bb9565b601d811061049957634e487b7160e01b600052603260045260246000fd5b0180546104a590610ea4565b80601f01602080910402602001604051908101604052809291908181526020018280546104d190610ea4565b801561051e5780601f106104f35761010080835404028352916020019161051e565b820191906000526020600020905b81548152906001019060200180831161050157829003601f168201915b50505050508260006005811061054457634e487b7160e01b600052603260045260246000fd5b6020020181905250604051806040016040528060018152602001600160fd1b8152508260016005811061058757634e487b7160e01b600052603260045260246000fd5b6020020152601d81602681106105ad57634e487b7160e01b600052603260045260246000fd5b0180546105b990610ea4565b80601f01602080910402602001604051908101604052809291908181526020018280546105e590610ea4565b80156106325780601f1061060757610100808354040283529160200191610632565b820191906000526020600020905b81548152906001019060200180831161061557829003601f168201915b50505050508260026005811061065857634e487b7160e01b600052603260045260246000fd5b60200201819052506040518060400160405280600481526020016301037b3160e51b8152508260036005811061069e57634e487b7160e01b600052603260045260246000fd5b602002015260436106b6601b8c901b6000603b610bb9565b603c81106106d457634e487b7160e01b600052603260045260246000fd5b0180546106e090610ea4565b80601f016020809104026020016040519081016040528092919081815260200182805461070c90610ea4565b80156107595780601f1061072e57610100808354040283529160200191610759565b820191906000526020600020905b81548152906001019060200180831161073c57829003601f168201915b50505050509450848260046005811061078257634e487b7160e01b600052603260045260246000fd5b60209081029190910191909152825183820151604080860151606087015160808801519251610445969293919201610d57565b610fa083116109b85760009350601d81602681106107e357634e487b7160e01b600052603260045260246000fd5b0180546107ef90610ea4565b80601f016020809104026020016040519081016040528092919081815260200182805461081b90610ea4565b80156108685780601f1061083d57610100808354040283529160200191610868565b820191906000526020600020905b81548152906001019060200180831161084b57829003601f168201915b50505050508260006005811061088e57634e487b7160e01b600052603260045260246000fd5b60200201819052506040518060400160405280600481526020016301037b3160e51b815250826001600581106108d457634e487b7160e01b600052603260045260246000fd5b602002015260436108ec60338c901b6000603b610bb9565b603c811061090a57634e487b7160e01b600052603260045260246000fd5b01805461091690610ea4565b80601f016020809104026020016040519081016040528092919081815260200182805461094290610ea4565b801561098f5780601f106109645761010080835404028352916020019161098f565b820191906000526020600020905b81548152906001019060200180831161097257829003601f168201915b50505050509450848260026005811061042057634e487b7160e01b600052603260045260246000fd5b6119648311610a155760009350604051806040016040528060048152602001636e6f6e6560e01b815250945060006109f7603b8c901b6000601d610bb9565b601d811061026157634e487b7160e01b600052603260045260246000fd5b60009350604051806040016040528060048152602001636e6f6e6560e01b8152509450601d8160268110610a5957634e487b7160e01b600052603260045260246000fd5b018054610a6590610ea4565b80601f0160208091040260200160405190810160405280929190818152602001828054610a9190610ea4565b8015610ade5780601f10610ab357610100808354040283529160200191610ade565b820191906000526020600020905b815481529060010190602001808311610ac157829003601f168201915b505050505095505b50505b509196909550909350915050565b600080610b0b600884901b60006064610bb9565b905060468110610b1f5760009150506100e5565b602d8110610b315760019150506100e5565b60198110610b435760029150506100e5565b600d8110610b555760039150506100e5565b60048110610b675760049150506100e5565b60059150506100e5565b50919050565b600080610b85600143610e3e565b40833a604051602001610b9a93929190610cfc565b60408051808303601f1901815291905280516020909101209392505050565b60008083610bc78185610e3e565b86604051602001610bd89190610d9e565b6040516020818303038152906040528051906020012060001c610bfb9190610ecb565b610c059190610e10565b95945050505050565b6040518060a001604052806005905b6060815260200190600190039081610c1d5790505090565b8035610c4081610f41565b92915050565b600060208284031215610c5857600080fd5b6000610c648484610c35565b949350505050565b610c7d610c7882610e6b565b610e6b565b82525050565b6000610c8e82610e03565b610c988185610e07565b9350610ca8818560208601610e74565b610cb181610f37565b9093019392505050565b6000610cc682610e03565b610cd081856100e5565b9350610ce0818560208601610e74565b9290920192915050565b610c7d81610e6b565b610c7d81610e6e565b6000610d088286610c6c565b602082019150610d188285610c6c565b602082019150610d288284610c6c565b506020019392505050565b6000610d3f8286610cbb565b9150610d4b8285610cbb565b9150610c058284610cbb565b6000610d638288610cbb565b9150610d6f8287610cbb565b9150610d7b8286610cbb565b9150610d878285610cbb565b9150610d938284610cbb565b979650505050505050565b6000610daa8284610c6c565b50602001919050565b60608082528101610dc48186610c83565b90508181036020830152610dd88185610c83565b9050610c646040830184610cf3565b60208101610c408284610cea565b60208101610c408284610cf3565b5190565b90815260200190565b6000610e1b82610e6b565b9150610e2683610e6b565b92508219821115610e3957610e39610ef5565b500190565b6000610e4982610e6b565b9150610e5483610e6b565b925082821015610e6657610e66610ef5565b500390565b90565b60ff1690565b60005b83811015610e8f578181015183820152602001610e77565b83811115610e9e576000848401525b50505050565b600281046001821680610eb857607f821691505b60208210811415610b7157610b71610f21565b6000610ed682610e6b565b9150610ee183610e6b565b925082610ef057610ef0610f0b565b500690565b634e487b7160e01b600052601160045260246000fd5b634e487b7160e01b600052601260045260246000fd5b634e487b7160e01b600052602260045260246000fd5b601f01601f191690565b610f4a81610e6b565b8114610f5557600080fd5b5056fea2646970667358221220f6ccf250bfc73d88a1ad57397024243486e1a25b1dd306b58da7fbb4bc8becb064736f6c63430008000033",
          "opcodes": "PUSH1 0x7 PUSH2 0x420 DUP2 DUP2 MSTORE PUSH7 0x10589E5CDCD85B PUSH1 0xCA SHL PUSH2 0x440 MSTORE PUSH1 0x80 SWAP1 DUP2 MSTORE PUSH2 0x460 DUP3 DUP2 MSTORE PUSH7 0x105B98DA595B9D PUSH1 0xCA SHL PUSH2 0x480 MSTORE PUSH1 0xA0 MSTORE PUSH1 0x5 PUSH2 0x4A0 DUP2 DUP2 MSTORE PUSH5 0x426C65616B PUSH1 0xD8 SHL PUSH2 0x4C0 MSTORE PUSH1 0xC0 MSTORE PUSH1 0x6 PUSH2 0x4E0 DUP2 DUP2 MSTORE PUSH6 0x109C9A59DA1D PUSH1 0xD2 SHL PUSH2 0x500 MSTORE PUSH1 0xE0 MSTORE PUSH2 0x520 DUP5 DUP2 MSTORE PUSH7 0x4275726E696E67 PUSH1 0xC8 SHL PUSH2 0x540 MSTORE PUSH2 0x100 MSTORE PUSH1 0x9 PUSH2 0x560 DUP2 DUP2 MSTORE PUSH9 0x10DBDB1B185C1CD959 PUSH1 0xBA SHL PUSH2 0x580 MSTORE PUSH2 0x120 MSTORE PUSH2 0x5A0 SWAP1 DUP2 MSTORE PUSH9 0x10DBDC9C9D5C1D1959 PUSH1 0xBA SHL PUSH2 0x5C0 MSTORE PUSH2 0x140 MSTORE PUSH1 0x4 PUSH2 0x5E0 DUP2 DUP2 MSTORE PUSH4 0x4461726B PUSH1 0xE0 SHL PUSH2 0x600 MSTORE PUSH2 0x160 MSTORE PUSH1 0x8 PUSH2 0x620 DUP2 DUP2 MSTORE PUSH8 0x111958DC995C1A59 PUSH1 0xC2 SHL PUSH2 0x640 MSTORE PUSH2 0x180 MSTORE PUSH2 0x660 DUP2 DUP2 MSTORE PUSH8 0x4465736F6C617465 PUSH1 0xC0 SHL PUSH2 0x680 MSTORE PUSH2 0x1A0 MSTORE PUSH2 0x6A0 DUP3 DUP2 MSTORE PUSH4 0x44697265 PUSH1 0xE0 SHL PUSH2 0x6C0 MSTORE PUSH2 0x1C0 MSTORE PUSH2 0x6E0 DUP4 DUP2 MSTORE PUSH6 0x446976696E65 PUSH1 0xD0 SHL PUSH2 0x700 MSTORE PUSH2 0x1E0 MSTORE PUSH2 0x720 DUP7 DUP2 MSTORE PUSH7 0x115B595C985B19 PUSH1 0xCA SHL PUSH2 0x740 MSTORE PUSH2 0x200 MSTORE PUSH2 0x760 DUP2 DUP2 MSTORE PUSH8 0x22B6B83CB932B0B7 PUSH1 0xC1 SHL PUSH2 0x780 MSTORE PUSH2 0x220 MSTORE PUSH2 0x7A0 DUP4 DUP2 MSTORE PUSH6 0x2330B63632B7 PUSH1 0xD1 SHL PUSH2 0x7C0 MSTORE PUSH2 0x240 MSTORE PUSH2 0x7E0 DUP7 DUP2 MSTORE PUSH7 0x476C6F77696E67 PUSH1 0xC8 SHL PUSH2 0x800 MSTORE PUSH2 0x260 MSTORE PUSH2 0x820 DUP3 DUP2 MSTORE PUSH4 0x4772696D PUSH1 0xE0 SHL PUSH2 0x840 MSTORE PUSH2 0x280 MSTORE PUSH2 0x860 SWAP1 DUP2 MSTORE PUSH8 0x48656176656E2773 PUSH1 0xC0 SHL PUSH2 0x880 MSTORE PUSH2 0x2A0 MSTORE PUSH2 0x8A0 DUP3 DUP2 MSTORE PUSH6 0x2434B23232B7 PUSH1 0xD1 SHL PUSH2 0x8C0 MSTORE PUSH2 0x2C0 MSTORE PUSH2 0x8E0 SWAP1 DUP2 MSTORE PUSH4 0x486F6C79 PUSH1 0xE0 SHL PUSH2 0x900 MSTORE PUSH2 0x2E0 MSTORE PUSH2 0x920 DUP5 DUP2 MSTORE PUSH7 0x486F776C696E67 PUSH1 0xC8 SHL PUSH2 0x940 MSTORE PUSH2 0x300 MSTORE PUSH2 0x960 DUP3 DUP2 MSTORE PUSH5 0x24B73732B9 PUSH1 0xD9 SHL PUSH2 0x980 MSTORE PUSH2 0x320 MSTORE PUSH2 0x9A0 DUP2 DUP2 MSTORE PUSH6 0x135BDC989A59 PUSH1 0xD2 SHL PUSH2 0x9C0 MSTORE PUSH2 0x340 MSTORE PUSH2 0x9E0 DUP3 DUP2 MSTORE PUSH5 0x4D75726B79 PUSH1 0xD8 SHL PUSH2 0xA00 MSTORE PUSH2 0x360 MSTORE PUSH2 0xA20 SWAP2 DUP3 MSTORE PUSH5 0x27BABA32B9 PUSH1 0xD9 SHL PUSH2 0xA40 MSTORE PUSH2 0x380 SWAP2 SWAP1 SWAP2 MSTORE PUSH1 0xA PUSH2 0xA60 DUP2 DUP2 MSTORE PUSH10 0x5368696D6D6572696E67 PUSH1 0xB0 SHL PUSH2 0xA80 MSTORE PUSH2 0x3A0 MSTORE PUSH2 0xAA0 SWAP4 DUP5 MSTORE PUSH7 0x536972656E2773 PUSH1 0xC8 SHL PUSH2 0xAC0 MSTORE PUSH2 0x3C0 SWAP4 SWAP1 SWAP4 MSTORE PUSH2 0xAE0 SWAP1 DUP2 MSTORE PUSH6 0x29BAB735B2B7 PUSH1 0xD1 SHL PUSH2 0xB00 MSTORE PUSH2 0x3E0 MSTORE PUSH2 0xB60 PUSH1 0x40 MSTORE PUSH2 0xB20 SWAP2 DUP3 MSTORE PUSH10 0x57686973706572696E67 PUSH1 0xB0 SHL PUSH2 0xB40 MSTORE PUSH2 0x400 SWAP2 SWAP1 SWAP2 MSTORE PUSH3 0x2F3 SWAP1 PUSH1 0x0 SWAP1 PUSH1 0x1D PUSH3 0x1379 JUMP JUMPDEST POP PUSH1 0x40 DUP1 MLOAD PUSH2 0x500 DUP2 ADD DUP3 MSTORE PUSH1 0x6 PUSH2 0x4C0 DUP3 ADD DUP2 DUP2 MSTORE PUSH6 0x21B0B73CB7B7 PUSH1 0xD1 SHL PUSH2 0x4E0 DUP5 ADD MSTORE DUP3 MSTORE DUP3 MLOAD DUP1 DUP5 ADD DUP5 MSTORE PUSH1 0x9 DUP1 DUP3 MSTORE PUSH9 0x43617461636F6D6273 PUSH1 0xB8 SHL PUSH1 0x20 DUP4 DUP2 ADD SWAP2 SWAP1 SWAP2 MSTORE DUP1 DUP6 ADD SWAP3 SWAP1 SWAP3 MSTORE DUP5 MLOAD DUP1 DUP7 ADD DUP7 MSTORE DUP4 DUP2 MSTORE PUSH6 0x21B0BB32B937 PUSH1 0xD1 SHL DUP2 DUP5 ADD MSTORE DUP5 DUP7 ADD MSTORE DUP5 MLOAD DUP1 DUP7 ADD DUP7 MSTORE PUSH1 0x7 DUP1 DUP3 MSTORE PUSH7 0x21B430B6B132B9 PUSH1 0xC9 SHL DUP3 DUP6 ADD MSTORE PUSH1 0x60 DUP7 ADD SWAP2 SWAP1 SWAP2 MSTORE DUP6 MLOAD DUP1 DUP8 ADD DUP8 MSTORE PUSH1 0x8 DUP1 DUP3 MSTORE PUSH8 0x21B637B4B9BA32B9 PUSH1 0xC1 SHL DUP3 DUP7 ADD MSTORE PUSH1 0x80 DUP8 ADD SWAP2 SWAP1 SWAP2 MSTORE DUP7 MLOAD DUP1 DUP9 ADD DUP9 MSTORE PUSH1 0x5 DUP1 DUP3 MSTORE PUSH5 0x10DC9E5C1D PUSH1 0xDA SHL DUP3 DUP8 ADD MSTORE PUSH1 0xA0 DUP9 ADD SWAP2 SWAP1 SWAP2 MSTORE DUP8 MLOAD DUP1 DUP10 ADD DUP10 MSTORE PUSH1 0x3 DUP2 MSTORE PUSH3 0x2232B7 PUSH1 0xE9 SHL DUP2 DUP8 ADD MSTORE PUSH1 0xC0 DUP9 ADD MSTORE DUP8 MLOAD DUP1 DUP10 ADD DUP10 MSTORE DUP2 DUP2 MSTORE PUSH5 0x44756E6573 PUSH1 0xD8 SHL DUP2 DUP8 ADD MSTORE PUSH1 0xE0 DUP9 ADD MSTORE DUP8 MLOAD DUP1 DUP10 ADD DUP10 MSTORE DUP2 DUP2 MSTORE PUSH5 0x119A595B19 PUSH1 0xDA SHL DUP2 DUP8 ADD MSTORE PUSH2 0x100 DUP9 ADD MSTORE DUP8 MLOAD DUP1 DUP10 ADD DUP10 MSTORE DUP7 DUP2 MSTORE PUSH6 0x119BDC995CDD PUSH1 0xD2 SHL DUP2 DUP8 ADD MSTORE PUSH2 0x120 DUP9 ADD MSTORE DUP8 MLOAD DUP1 DUP10 ADD DUP10 MSTORE DUP2 DUP2 MSTORE PUSH5 0x476C616465 PUSH1 0xD8 SHL DUP2 DUP8 ADD MSTORE PUSH2 0x140 DUP9 ADD MSTORE DUP8 MLOAD DUP1 DUP10 ADD DUP10 MSTORE DUP2 DUP2 MSTORE PUSH5 0x476F726765 PUSH1 0xD8 SHL DUP2 DUP8 ADD MSTORE PUSH2 0x160 DUP9 ADD MSTORE DUP8 MLOAD DUP1 DUP10 ADD DUP10 MSTORE DUP5 DUP2 MSTORE PUSH9 0x11DC985D995E585C99 PUSH1 0xBA SHL DUP2 DUP8 ADD MSTORE PUSH2 0x180 DUP9 ADD MSTORE DUP8 MLOAD DUP1 DUP10 ADD DUP10 MSTORE DUP7 DUP2 MSTORE PUSH6 0x47726F74746F PUSH1 0xD0 SHL DUP2 DUP8 ADD MSTORE PUSH2 0x1A0 DUP9 ADD MSTORE DUP8 MLOAD DUP1 DUP10 ADD DUP10 MSTORE DUP2 DUP2 MSTORE PUSH5 0x47726F7665 PUSH1 0xD8 SHL DUP2 DUP8 ADD MSTORE PUSH2 0x1C0 DUP9 ADD MSTORE DUP8 MLOAD DUP1 DUP10 ADD DUP10 MSTORE DUP2 DUP2 MSTORE PUSH5 0x48616C6C73 PUSH1 0xD8 SHL DUP2 DUP8 ADD MSTORE PUSH2 0x1E0 DUP9 ADD MSTORE DUP8 MLOAD DUP1 DUP10 ADD DUP10 MSTORE PUSH1 0x4 DUP1 DUP3 MSTORE PUSH4 0x4B65657 PUSH1 0xE4 SHL DUP3 DUP9 ADD MSTORE PUSH2 0x200 DUP10 ADD SWAP2 SWAP1 SWAP2 MSTORE DUP9 MLOAD DUP1 DUP11 ADD DUP11 MSTORE DUP2 DUP2 MSTORE PUSH4 0x2630B4B9 PUSH1 0xE1 SHL DUP2 DUP9 ADD MSTORE PUSH2 0x220 DUP10 ADD MSTORE DUP9 MLOAD DUP1 DUP11 ADD DUP11 MSTORE DUP6 DUP2 MSTORE PUSH9 0x98C2C4F2E4D2DCE8D PUSH1 0xBB SHL DUP2 DUP9 ADD MSTORE PUSH2 0x240 DUP10 ADD MSTORE DUP9 MLOAD DUP1 DUP11 ADD DUP11 MSTORE DUP5 DUP2 MSTORE PUSH7 0x4C616E64696E67 PUSH1 0xC8 SHL DUP2 DUP9 ADD MSTORE PUSH2 0x260 DUP10 ADD MSTORE DUP9 MLOAD DUP1 DUP11 ADD DUP11 MSTORE DUP2 DUP2 MSTORE PUSH4 0x4D617A65 PUSH1 0xE0 SHL DUP2 DUP9 ADD MSTORE PUSH2 0x280 DUP10 ADD MSTORE DUP9 MLOAD DUP1 DUP11 ADD DUP11 MSTORE SWAP3 DUP4 MSTORE PUSH8 0x26B7BAB73A30B4B7 PUSH1 0xC1 SHL DUP4 DUP8 ADD MSTORE PUSH2 0x2A0 DUP9 ADD SWAP3 SWAP1 SWAP3 MSTORE DUP8 MLOAD DUP1 DUP10 ADD DUP10 MSTORE PUSH1 0xA DUP2 MSTORE PUSH10 0x4E6563726F706F6C6973 PUSH1 0xB0 SHL DUP2 DUP8 ADD MSTORE PUSH2 0x2C0 DUP9 ADD MSTORE DUP8 MLOAD DUP1 DUP10 ADD DUP10 MSTORE DUP2 DUP2 MSTORE PUSH5 0x4F61736973 PUSH1 0xD8 SHL DUP2 DUP8 ADD MSTORE PUSH2 0x2E0 DUP9 ADD MSTORE DUP8 MLOAD DUP1 DUP10 ADD DUP10 MSTORE DUP4 DUP2 MSTORE PUSH7 0x50617373616765 PUSH1 0xC8 SHL DUP2 DUP8 ADD MSTORE PUSH2 0x300 DUP9 ADD MSTORE DUP8 MLOAD DUP1 DUP10 ADD DUP10 MSTORE DUP3 DUP2 MSTORE PUSH4 0x5065616B PUSH1 0xE0 SHL DUP2 DUP8 ADD MSTORE PUSH2 0x320 DUP9 ADD MSTORE DUP8 MLOAD DUP1 DUP10 ADD DUP10 MSTORE DUP7 DUP2 MSTORE PUSH6 0x283934B9B7B7 PUSH1 0xD1 SHL DUP2 DUP8 ADD MSTORE PUSH2 0x340 DUP9 ADD MSTORE DUP8 MLOAD DUP1 DUP10 ADD DUP10 MSTORE SWAP2 DUP3 MSTORE PUSH4 0x29B1B0B9 PUSH1 0xE1 SHL DUP3 DUP7 ADD MSTORE PUSH2 0x360 DUP8 ADD SWAP2 SWAP1 SWAP2 MSTORE DUP7 MLOAD DUP1 DUP9 ADD DUP9 MSTORE DUP6 DUP2 MSTORE PUSH6 0x536577657273 PUSH1 0xD0 SHL DUP2 DUP7 ADD MSTORE PUSH2 0x380 DUP8 ADD MSTORE DUP7 MLOAD DUP1 DUP9 ADD DUP9 MSTORE DUP6 DUP2 MSTORE PUSH6 0x536872696E65 PUSH1 0xD0 SHL DUP2 DUP7 ADD MSTORE PUSH2 0x3A0 DUP8 ADD MSTORE DUP7 MLOAD DUP1 DUP9 ADD DUP9 MSTORE DUP2 DUP2 MSTORE PUSH5 0x14DBDD5B99 PUSH1 0xDA SHL DUP2 DUP7 ADD MSTORE PUSH2 0x3C0 DUP8 ADD MSTORE DUP7 MLOAD DUP1 DUP9 ADD DUP9 MSTORE SWAP2 DUP3 MSTORE PUSH7 0x53746570706573 PUSH1 0xC8 SHL DUP3 DUP6 ADD MSTORE PUSH2 0x3E0 DUP7 ADD SWAP2 SWAP1 SWAP2 MSTORE DUP6 MLOAD DUP1 DUP8 ADD DUP8 MSTORE DUP5 DUP2 MSTORE PUSH6 0x54656D706C65 PUSH1 0xD0 SHL DUP2 DUP6 ADD MSTORE PUSH2 0x400 DUP7 ADD MSTORE DUP6 MLOAD DUP1 DUP8 ADD DUP8 MSTORE DUP5 DUP2 MSTORE PUSH6 0x54756E647261 PUSH1 0xD0 SHL DUP2 DUP6 ADD MSTORE PUSH2 0x420 DUP7 ADD MSTORE DUP6 MLOAD DUP1 DUP8 ADD DUP8 MSTORE DUP5 DUP2 MSTORE PUSH6 0x151D5B9B995B PUSH1 0xD2 SHL DUP2 DUP6 ADD MSTORE PUSH2 0x440 DUP7 ADD MSTORE DUP6 MLOAD DUP1 DUP8 ADD DUP8 MSTORE SWAP4 DUP5 MSTORE PUSH6 0x56616C6C6579 PUSH1 0xD0 SHL DUP5 DUP5 ADD MSTORE PUSH2 0x460 DUP6 ADD SWAP4 SWAP1 SWAP4 MSTORE DUP5 MLOAD DUP1 DUP7 ADD DUP7 MSTORE SWAP1 DUP2 MSTORE PUSH9 0x15D85D195C99985B1B PUSH1 0xBA SHL DUP2 DUP4 ADD MSTORE PUSH2 0x480 DUP5 ADD MSTORE DUP4 MLOAD DUP1 DUP6 ADD SWAP1 SWAP5 MSTORE SWAP1 DUP4 MSTORE PUSH5 0x576F6F6473 PUSH1 0xD8 SHL SWAP1 DUP4 ADD MSTORE PUSH2 0x4A0 DUP2 ADD SWAP2 SWAP1 SWAP2 MSTORE PUSH3 0x7A9 SWAP1 PUSH1 0x1D SWAP1 PUSH1 0x26 PUSH3 0x13D0 JUMP JUMPDEST POP PUSH1 0x40 DUP1 MLOAD PUSH2 0x7C0 DUP2 ADD DUP3 MSTORE PUSH1 0x5 PUSH2 0x780 DUP3 ADD DUP2 DUP2 MSTORE PUSH5 0x41676F6E79 PUSH1 0xD8 SHL PUSH2 0x7A0 DUP5 ADD MSTORE DUP3 MSTORE DUP3 MLOAD DUP1 DUP5 ADD DUP5 MSTORE DUP2 DUP2 MSTORE PUSH5 0x20B733B2B9 PUSH1 0xD9 SHL PUSH1 0x20 DUP3 DUP2 ADD SWAP2 SWAP1 SWAP2 MSTORE DUP1 DUP5 ADD SWAP2 SWAP1 SWAP2 MSTORE DUP4 MLOAD DUP1 DUP6 ADD DUP6 MSTORE PUSH1 0x6 DUP1 DUP3 MSTORE PUSH6 0x109B1A59DA1D PUSH1 0xD2 SHL DUP3 DUP5 ADD MSTORE DUP5 DUP7 ADD SWAP2 SWAP1 SWAP2 MSTORE DUP5 MLOAD DUP1 DUP7 ADD DUP7 MSTORE PUSH1 0x4 DUP1 DUP3 MSTORE PUSH4 0x426F6E65 PUSH1 0xE0 SHL DUP3 DUP6 ADD MSTORE PUSH1 0x60 DUP7 ADD SWAP2 SWAP1 SWAP2 MSTORE DUP6 MLOAD DUP1 DUP8 ADD DUP8 MSTORE PUSH1 0xA DUP1 DUP3 MSTORE PUSH10 0x4272696C6C69616E6365 PUSH1 0xB0 SHL DUP3 DUP7 ADD MSTORE PUSH1 0x80 DUP8 ADD SWAP2 SWAP1 SWAP2 MSTORE DUP7 MLOAD DUP1 DUP9 ADD DUP9 MSTORE PUSH1 0x9 DUP1 DUP3 MSTORE PUSH9 0x4272696D73746F6E65 PUSH1 0xB8 SHL DUP3 DUP8 ADD MSTORE PUSH1 0xA0 DUP9 ADD SWAP2 SWAP1 SWAP2 MSTORE DUP8 MLOAD DUP1 DUP10 ADD DUP10 MSTORE DUP3 DUP2 MSTORE PUSH10 0x21B7B9393AB83A34B7B7 PUSH1 0xB1 SHL DUP2 DUP8 ADD MSTORE PUSH1 0xC0 DUP9 ADD MSTORE DUP8 MLOAD DUP1 DUP10 ADD DUP10 MSTORE PUSH1 0x7 DUP1 DUP3 MSTORE PUSH7 0x2232B9B830B4B9 PUSH1 0xC9 SHL DUP3 DUP9 ADD MSTORE PUSH1 0xE0 DUP10 ADD SWAP2 SWAP1 SWAP2 MSTORE DUP9 MLOAD DUP1 DUP11 ADD DUP11 MSTORE DUP8 DUP2 MSTORE PUSH5 0x111C995859 PUSH1 0xDA SHL DUP2 DUP9 ADD MSTORE PUSH2 0x100 DUP10 ADD MSTORE DUP9 MLOAD DUP1 DUP11 ADD DUP11 MSTORE DUP5 DUP2 MSTORE PUSH4 0x4475736B PUSH1 0xE0 SHL DUP2 DUP9 ADD MSTORE PUSH2 0x120 DUP10 ADD MSTORE DUP9 MLOAD DUP1 DUP11 ADD DUP11 MSTORE PUSH1 0xD DUP2 MSTORE PUSH13 0x115B9B1A59DA1D195B9B595B9D PUSH1 0x9A SHL DUP2 DUP9 ADD MSTORE PUSH2 0x140 DUP10 ADD MSTORE DUP9 MLOAD DUP1 DUP11 ADD DUP11 MSTORE DUP5 DUP2 MSTORE PUSH4 0x46757279 PUSH1 0xE0 SHL DUP2 DUP9 ADD MSTORE PUSH2 0x160 DUP10 ADD MSTORE DUP9 MLOAD DUP1 DUP11 ADD DUP11 MSTORE DUP5 DUP2 MSTORE PUSH4 0x46697265 PUSH1 0xE0 SHL DUP2 DUP9 ADD MSTORE PUSH2 0x180 DUP10 ADD MSTORE DUP9 MLOAD DUP1 DUP11 ADD DUP11 MSTORE DUP6 DUP2 MSTORE PUSH6 0x4769616E7473 PUSH1 0xD0 SHL DUP2 DUP9 ADD MSTORE PUSH2 0x1A0 DUP10 ADD MSTORE DUP9 MLOAD DUP1 DUP11 ADD DUP11 MSTORE DUP8 DUP2 MSTORE PUSH5 0x476C6F6F6D PUSH1 0xD8 SHL DUP2 DUP9 ADD MSTORE PUSH2 0x1C0 DUP10 ADD MSTORE DUP9 MLOAD DUP1 DUP11 ADD DUP11 MSTORE DUP5 DUP2 MSTORE PUSH4 0x48617465 PUSH1 0xE0 SHL DUP2 DUP9 ADD MSTORE PUSH2 0x1E0 DUP10 ADD MSTORE DUP9 MLOAD DUP1 DUP11 ADD DUP11 MSTORE DUP8 DUP2 MSTORE PUSH5 0x4861766F63 PUSH1 0xD8 SHL DUP2 DUP9 ADD MSTORE PUSH2 0x200 DUP10 ADD MSTORE DUP9 MLOAD DUP1 DUP11 ADD DUP11 MSTORE DUP6 DUP2 MSTORE PUSH6 0x2437B737BAB9 PUSH1 0xD1 SHL DUP2 DUP9 ADD MSTORE PUSH2 0x220 DUP10 ADD MSTORE DUP9 MLOAD DUP1 DUP11 ADD DUP11 MSTORE DUP6 DUP2 MSTORE PUSH6 0x2437B93937B9 PUSH1 0xD1 SHL DUP2 DUP9 ADD MSTORE PUSH2 0x240 DUP10 ADD MSTORE DUP9 MLOAD DUP1 DUP11 ADD DUP11 MSTORE PUSH1 0x8 DUP1 DUP3 MSTORE PUSH8 0x4C6F617468696E67 PUSH1 0xC0 SHL DUP3 DUP10 ADD MSTORE PUSH2 0x260 DUP11 ADD SWAP2 SWAP1 SWAP2 MSTORE DUP10 MLOAD DUP1 DUP12 ADD DUP12 MSTORE DUP6 DUP2 MSTORE PUSH4 0x4D697265 PUSH1 0xE0 SHL DUP2 DUP10 ADD MSTORE PUSH2 0x280 DUP11 ADD MSTORE DUP10 MLOAD DUP1 DUP12 ADD DUP12 MSTORE DUP6 DUP2 MSTORE PUSH4 0x135A5CDD PUSH1 0xE2 SHL DUP2 DUP10 ADD MSTORE PUSH2 0x2A0 DUP11 ADD MSTORE DUP10 MLOAD DUP1 DUP12 ADD DUP12 MSTORE DUP3 DUP2 MSTORE PUSH7 0x4E6565646C6573 PUSH1 0xC8 SHL DUP2 DUP10 ADD MSTORE PUSH2 0x2C0 DUP11 ADD MSTORE DUP10 MLOAD DUP1 DUP12 ADD DUP12 MSTORE DUP6 DUP2 MSTORE PUSH4 0x2830B4B7 PUSH1 0xE1 SHL DUP2 DUP10 ADD MSTORE PUSH2 0x2E0 DUP11 ADD MSTORE DUP10 MLOAD DUP1 DUP12 ADD DUP12 MSTORE PUSH1 0xB DUP1 DUP3 MSTORE PUSH11 0x50616E64656D6F6E69756D PUSH1 0xA8 SHL DUP3 DUP11 ADD MSTORE PUSH2 0x300 DUP12 ADD SWAP2 SWAP1 SWAP2 MSTORE DUP11 MLOAD DUP1 DUP13 ADD DUP13 MSTORE DUP7 DUP2 MSTORE PUSH4 0x50696E65 PUSH1 0xE0 SHL DUP2 DUP11 ADD MSTORE PUSH2 0x320 DUP12 ADD MSTORE DUP11 MLOAD DUP1 DUP13 ADD DUP13 MSTORE DUP7 DUP2 MSTORE PUSH4 0x52616765 PUSH1 0xE0 SHL DUP2 DUP11 ADD MSTORE PUSH2 0x340 DUP12 ADD MSTORE DUP11 MLOAD DUP1 DUP13 ADD DUP13 MSTORE DUP4 DUP2 MSTORE PUSH7 0x52617074757265 PUSH1 0xC8 SHL DUP2 DUP11 ADD MSTORE PUSH2 0x360 DUP12 ADD MSTORE DUP11 MLOAD DUP1 DUP13 ADD DUP13 MSTORE SWAP6 DUP7 MSTORE PUSH4 0x14D85B99 PUSH1 0xE2 SHL DUP7 DUP10 ADD MSTORE PUSH2 0x380 DUP11 ADD SWAP6 SWAP1 SWAP6 MSTORE DUP10 MLOAD DUP1 DUP12 ADD DUP12 MSTORE DUP7 DUP2 MSTORE PUSH6 0x536F72726F77 PUSH1 0xD0 SHL DUP2 DUP10 ADD MSTORE PUSH2 0x3A0 DUP11 ADD MSTORE DUP10 MLOAD DUP1 DUP12 ADD DUP12 MSTORE PUSH1 0xE DUP2 MSTORE PUSH14 0x7468652041706F63616C79707365 PUSH1 0x90 SHL DUP2 DUP10 ADD MSTORE PUSH2 0x3C0 DUP11 ADD MSTORE DUP10 MLOAD DUP1 DUP12 ADD DUP12 MSTORE DUP4 DUP2 MSTORE PUSH9 0x1D1A19481099585CDD PUSH1 0xBA SHL DUP2 DUP10 ADD MSTORE PUSH2 0x3E0 DUP11 ADD MSTORE DUP10 MLOAD DUP1 DUP12 ADD DUP12 MSTORE PUSH1 0xC DUP2 MSTORE PUSH12 0xE8D0CA4084CAD0CADADEE8D PUSH1 0xA3 SHL DUP2 DUP10 ADD MSTORE PUSH2 0x400 DUP11 ADD MSTORE DUP10 MLOAD DUP1 DUP12 ADD DUP12 MSTORE DUP4 DUP2 MSTORE PUSH9 0x1D1A1948109C9BDBD9 PUSH1 0xBA SHL DUP2 DUP10 ADD MSTORE PUSH2 0x420 DUP11 ADD MSTORE DUP10 MLOAD DUP1 DUP12 ADD DUP12 MSTORE DUP3 DUP2 MSTORE PUSH7 0xE8D0CA408CDEF PUSH1 0xCB SHL DUP2 DUP10 ADD MSTORE PUSH2 0x440 DUP11 ADD MSTORE DUP10 MLOAD DUP1 DUP12 ADD DUP12 MSTORE DUP2 DUP2 MSTORE PUSH8 0x7468652047616C65 PUSH1 0xC0 SHL DUP2 DUP10 ADD MSTORE PUSH2 0x460 DUP11 ADD MSTORE DUP10 MLOAD DUP1 DUP12 ADD DUP12 MSTORE DUP4 DUP2 MSTORE PUSH9 0x74686520476F6C656D PUSH1 0xB8 SHL DUP2 DUP10 ADD MSTORE PUSH2 0x480 DUP11 ADD MSTORE DUP10 MLOAD DUP1 DUP12 ADD DUP12 MSTORE DUP5 DUP2 MSTORE PUSH10 0x3A34329025B930B5B2B7 PUSH1 0xB1 SHL DUP2 DUP10 ADD MSTORE PUSH2 0x4A0 DUP11 ADD MSTORE DUP10 MLOAD DUP1 DUP12 ADD DUP12 MSTORE DUP4 DUP2 MSTORE PUSH9 0xE8D0CA4098CACAC6D PUSH1 0xBB SHL DUP2 DUP10 ADD MSTORE PUSH2 0x4C0 DUP11 ADD MSTORE DUP10 MLOAD DUP1 DUP12 ADD DUP12 MSTORE DUP2 DUP2 MSTORE PUSH8 0x3A34329026B7B7B7 PUSH1 0xC1 SHL DUP2 DUP10 ADD MSTORE PUSH2 0x4E0 DUP11 ADD MSTORE DUP10 MLOAD DUP1 DUP12 ADD DUP12 MSTORE DUP6 DUP2 MSTORE PUSH11 0xE8D0CA40A0D0DECADCD2F PUSH1 0xAB SHL DUP2 DUP10 ADD MSTORE PUSH2 0x500 DUP11 ADD MSTORE DUP10 MLOAD DUP1 DUP12 ADD DUP12 MSTORE DUP5 DUP2 MSTORE PUSH10 0x74686520506C61677565 PUSH1 0xB0 SHL DUP2 DUP10 ADD MSTORE PUSH2 0x520 DUP11 ADD MSTORE DUP10 MLOAD DUP1 DUP12 ADD DUP12 MSTORE DUP2 DUP2 MSTORE PUSH8 0x1D1A1948149BDBDD PUSH1 0xC2 SHL DUP2 DUP10 ADD MSTORE PUSH2 0x540 DUP11 ADD MSTORE DUP10 MLOAD DUP1 DUP12 ADD DUP12 MSTORE DUP2 DUP2 MSTORE PUSH8 0x74686520536F6E67 PUSH1 0xC0 SHL DUP2 DUP10 ADD MSTORE PUSH2 0x560 DUP11 ADD MSTORE DUP10 MLOAD DUP1 DUP12 ADD DUP12 MSTORE DUP4 DUP2 MSTORE PUSH9 0x746865205374617273 PUSH1 0xB8 SHL DUP2 DUP10 ADD MSTORE PUSH2 0x580 DUP11 ADD MSTORE DUP10 MLOAD DUP1 DUP12 ADD DUP12 MSTORE DUP4 DUP2 MSTORE PUSH9 0x7468652053746F726D PUSH1 0xB8 SHL DUP2 DUP10 ADD MSTORE PUSH2 0x5A0 DUP11 ADD MSTORE DUP10 MLOAD DUP1 DUP12 ADD DUP12 MSTORE DUP3 DUP2 MSTORE PUSH7 0x3A34329029BAB7 PUSH1 0xC9 SHL DUP2 DUP10 ADD MSTORE PUSH2 0x5C0 DUP11 ADD MSTORE DUP10 MLOAD DUP1 DUP12 ADD DUP12 MSTORE DUP2 DUP2 MSTORE PUSH8 0x3A3432902A32B0B9 PUSH1 0xC1 SHL DUP2 DUP10 ADD MSTORE PUSH2 0x5E0 DUP11 ADD MSTORE DUP10 MLOAD DUP1 DUP12 ADD DUP12 MSTORE DUP5 DUP2 MSTORE PUSH10 0x74686520546974616E73 PUSH1 0xB0 SHL DUP2 DUP10 ADD MSTORE PUSH2 0x600 DUP11 ADD MSTORE DUP10 MLOAD DUP1 DUP12 ADD DUP12 MSTORE DUP4 DUP2 MSTORE PUSH9 0x746865205477696E73 PUSH1 0xB8 SHL DUP2 DUP10 ADD MSTORE PUSH2 0x620 DUP11 ADD MSTORE DUP10 MLOAD DUP1 DUP12 ADD DUP12 MSTORE SWAP5 DUP6 MSTORE PUSH11 0x7468652057696C6C6F7773 PUSH1 0xA8 SHL DUP6 DUP9 ADD MSTORE PUSH2 0x640 DUP10 ADD SWAP5 SWAP1 SWAP5 MSTORE DUP9 MLOAD DUP1 DUP11 ADD DUP11 MSTORE SWAP4 DUP5 MSTORE PUSH8 0x746865205769737 PUSH1 0xC4 SHL DUP5 DUP8 ADD MSTORE PUSH2 0x660 DUP9 ADD SWAP4 SWAP1 SWAP4 MSTORE DUP8 MLOAD DUP1 DUP10 ADD DUP10 MSTORE DUP2 DUP2 MSTORE PUSH9 0x3A3432902B34B832B9 PUSH1 0xB9 SHL DUP2 DUP8 ADD MSTORE PUSH2 0x680 DUP9 ADD MSTORE DUP8 MLOAD DUP1 DUP10 ADD DUP10 MSTORE SWAP2 DUP3 MSTORE PUSH10 0xE8D0CA40ACDEE4E8CAF PUSH1 0xB3 SHL DUP3 DUP7 ADD MSTORE PUSH2 0x6A0 DUP8 ADD SWAP2 SWAP1 SWAP2 MSTORE DUP7 MLOAD DUP1 DUP9 ADD DUP9 MSTORE DUP3 DUP2 MSTORE PUSH7 0x151BDC9B595B9D PUSH1 0xCA SHL DUP2 DUP7 ADD MSTORE PUSH2 0x6C0 DUP8 ADD MSTORE DUP7 MLOAD DUP1 DUP9 ADD DUP9 MSTORE SWAP1 DUP2 MSTORE PUSH9 0x56656E6765616E6365 PUSH1 0xB8 SHL DUP2 DUP6 ADD MSTORE PUSH2 0x6E0 DUP7 ADD MSTORE DUP6 MLOAD DUP1 DUP8 ADD DUP8 MSTORE SWAP1 DUP2 MSTORE PUSH7 0x566963746F7279 PUSH1 0xC8 SHL DUP2 DUP5 ADD MSTORE PUSH2 0x700 DUP6 ADD MSTORE DUP5 MLOAD DUP1 DUP7 ADD DUP7 MSTORE PUSH1 0x3 DUP2 MSTORE PUSH3 0x576F65 PUSH1 0xE8 SHL DUP2 DUP5 ADD MSTORE PUSH2 0x720 DUP6 ADD MSTORE DUP5 MLOAD DUP1 DUP7 ADD DUP7 MSTORE SWAP1 DUP2 MSTORE PUSH6 0x576973646F6D PUSH1 0xD0 SHL DUP2 DUP4 ADD MSTORE PUSH2 0x740 DUP5 ADD MSTORE DUP4 MLOAD DUP1 DUP6 ADD SWAP1 SWAP5 MSTORE SWAP1 DUP4 MSTORE PUSH5 0xAEE4C2E8D PUSH1 0xDB SHL SWAP1 DUP4 ADD MSTORE PUSH2 0x760 DUP2 ADD SWAP2 SWAP1 SWAP2 MSTORE PUSH3 0xF51 SWAP1 PUSH1 0x43 SWAP1 PUSH1 0x3C PUSH3 0x1415 JUMP JUMPDEST POP PUSH1 0x40 DUP1 MLOAD PUSH2 0x260 DUP2 ADD DUP3 MSTORE PUSH1 0xC PUSH2 0x220 DUP3 ADD DUP2 DUP2 MSTORE PUSH12 0x2741726D61676564646F6E27 PUSH1 0xA0 SHL PUSH2 0x240 DUP5 ADD MSTORE DUP3 MSTORE DUP3 MLOAD DUP1 DUP5 ADD DUP5 MSTORE DUP2 DUP2 MSTORE PUSH12 0x274D696E6427732045796527 PUSH1 0xA0 SHL PUSH1 0x20 DUP3 DUP2 ADD SWAP2 SWAP1 SWAP2 MSTORE DUP1 DUP5 ADD SWAP2 SWAP1 SWAP2 MSTORE DUP4 MLOAD DUP1 DUP6 ADD DUP6 MSTORE PUSH1 0xA DUP1 DUP3 MSTORE PUSH10 0x274E6F7374726F6D6F27 PUSH1 0xB0 SHL DUP3 DUP5 ADD MSTORE DUP5 DUP7 ADD SWAP2 SWAP1 SWAP2 MSTORE DUP5 MLOAD DUP1 DUP7 ADD DUP7 MSTORE DUP2 DUP2 MSTORE PUSH10 0x274F626C6976696F6E27 PUSH1 0xB0 SHL DUP2 DUP5 ADD MSTORE PUSH1 0x60 DUP6 ADD MSTORE DUP5 MLOAD DUP1 DUP7 ADD DUP7 MSTORE PUSH1 0xB DUP1 DUP3 MSTORE PUSH11 0x2754686520436861736D27 PUSH1 0xA8 SHL DUP3 DUP6 ADD MSTORE PUSH1 0x80 DUP7 ADD SWAP2 SWAP1 SWAP2 MSTORE DUP6 MLOAD DUP1 DUP8 ADD DUP8 MSTORE DUP2 DUP2 MSTORE PUSH11 0x2754686520437279707427 PUSH1 0xA8 SHL DUP2 DUP6 ADD MSTORE PUSH1 0xA0 DUP7 ADD MSTORE DUP6 MLOAD DUP1 DUP8 ADD DUP8 MSTORE SWAP4 DUP5 MSTORE PUSH12 0x275468652044657074687327 PUSH1 0xA0 SHL DUP5 DUP5 ADD MSTORE PUSH1 0xC0 DUP6 ADD SWAP4 SWAP1 SWAP4 MSTORE DUP5 MLOAD DUP1 DUP7 ADD DUP7 MSTORE PUSH1 0x9 DUP2 MSTORE PUSH9 0x2754686520456E6427 PUSH1 0xB8 SHL DUP2 DUP5 ADD MSTORE PUSH1 0xE0 DUP6 ADD MSTORE DUP5 MLOAD DUP1 DUP7 ADD DUP7 MSTORE PUSH1 0xD DUP2 MSTORE PUSH13 0x2754686520457870616E736527 PUSH1 0x98 SHL DUP2 DUP5 ADD MSTORE PUSH2 0x100 DUP6 ADD MSTORE DUP5 MLOAD DUP1 DUP7 ADD DUP7 MSTORE DUP2 DUP2 MSTORE PUSH10 0x275468652047616C6527 PUSH1 0xB0 SHL DUP2 DUP5 ADD MSTORE PUSH2 0x120 DUP6 ADD MSTORE DUP5 MLOAD DUP1 DUP7 ADD DUP7 MSTORE DUP2 DUP2 MSTORE PUSH10 0x2754686520486F6F6B27 PUSH1 0xB0 SHL DUP2 DUP5 ADD MSTORE PUSH2 0x140 DUP6 ADD MSTORE DUP5 MLOAD DUP1 DUP7 ADD DUP7 MSTORE PUSH1 0xF DUP2 MSTORE PUSH15 0x27546865204D61656C7374726F6D27 PUSH1 0x88 SHL DUP2 DUP5 ADD MSTORE PUSH2 0x160 DUP6 ADD MSTORE DUP5 MLOAD DUP1 DUP7 ADD DUP7 MSTORE DUP4 DUP2 MSTORE PUSH11 0x27546865204D6F75746827 PUSH1 0xA8 SHL DUP2 DUP5 ADD MSTORE PUSH2 0x180 DUP6 ADD MSTORE DUP5 MLOAD DUP1 DUP7 ADD DUP7 MSTORE DUP2 DUP2 MSTORE PUSH10 0x27546865204D75636B27 PUSH1 0xB0 SHL DUP2 DUP5 ADD MSTORE PUSH2 0x1A0 DUP6 ADD MSTORE DUP5 MLOAD DUP1 DUP7 ADD DUP7 MSTORE DUP4 DUP2 MSTORE PUSH11 0x27546865205368656C6627 PUSH1 0xA8 SHL DUP2 DUP5 ADD MSTORE PUSH2 0x1C0 DUP6 ADD MSTORE DUP5 MLOAD DUP1 DUP7 ADD DUP7 MSTORE SWAP1 DUP2 MSTORE PUSH10 0x275468652056616C6527 PUSH1 0xB0 SHL DUP2 DUP4 ADD MSTORE PUSH2 0x1E0 DUP5 ADD MSTORE DUP4 MLOAD DUP1 DUP6 ADD SWAP1 SWAP5 MSTORE SWAP1 DUP4 MSTORE PUSH11 0x275468652056656C647427 PUSH1 0xA8 SHL SWAP1 DUP4 ADD MSTORE PUSH2 0x200 DUP2 ADD SWAP2 SWAP1 SWAP2 MSTORE PUSH3 0x11D2 SWAP1 PUSH1 0x7F SWAP1 PUSH1 0x11 PUSH3 0x145A JUMP JUMPDEST POP PUSH1 0x40 DUP1 MLOAD PUSH2 0x1C0 DUP2 ADD DUP3 MSTORE PUSH1 0x6 PUSH2 0x180 DUP3 ADD DUP2 DUP2 MSTORE PUSH6 0x466174652773 PUSH1 0xD0 SHL PUSH2 0x1A0 DUP5 ADD MSTORE DUP3 MSTORE DUP3 MLOAD DUP1 DUP5 ADD DUP5 MSTORE DUP2 DUP2 MSTORE PUSH6 0x466F68642773 PUSH1 0xD0 SHL PUSH1 0x20 DUP3 DUP2 ADD SWAP2 SWAP1 SWAP2 MSTORE DUP1 DUP5 ADD SWAP2 SWAP1 SWAP2 MSTORE DUP4 MLOAD DUP1 DUP6 ADD DUP6 MSTORE PUSH1 0x7 DUP1 DUP3 MSTORE PUSH7 0x4772656D702773 PUSH1 0xC8 SHL DUP3 DUP5 ADD MSTORE DUP5 DUP7 ADD SWAP2 SWAP1 SWAP2 MSTORE DUP5 MLOAD DUP1 DUP7 ADD DUP7 MSTORE DUP4 DUP2 MSTORE PUSH6 0x486174652773 PUSH1 0xD0 SHL DUP2 DUP5 ADD MSTORE PUSH1 0x60 DUP6 ADD MSTORE DUP5 MLOAD DUP1 DUP7 ADD DUP7 MSTORE DUP4 DUP2 MSTORE PUSH6 0x4B616C692773 PUSH1 0xD0 SHL DUP2 DUP5 ADD MSTORE PUSH1 0x80 DUP6 ADD MSTORE DUP5 MLOAD DUP1 DUP7 ADD DUP7 MSTORE PUSH1 0x5 DUP1 DUP3 MSTORE PUSH5 0x4B69762773 PUSH1 0xD8 SHL DUP3 DUP6 ADD MSTORE PUSH1 0xA0 DUP7 ADD SWAP2 SWAP1 SWAP2 MSTORE DUP6 MLOAD DUP1 DUP8 ADD DUP8 MSTORE DUP3 DUP2 MSTORE PUSH7 0x4C696768742773 PUSH1 0xC8 SHL DUP2 DUP6 ADD MSTORE PUSH1 0xC0 DUP7 ADD MSTORE DUP6 MLOAD DUP1 DUP8 ADD DUP8 MSTORE DUP5 DUP2 MSTORE PUSH6 0x536875622773 PUSH1 0xD0 SHL DUP2 DUP6 ADD MSTORE PUSH1 0xE0 DUP7 ADD MSTORE DUP6 MLOAD DUP1 DUP8 ADD DUP8 MSTORE DUP2 DUP2 MSTORE PUSH5 0x536F6C2773 PUSH1 0xD8 SHL DUP2 DUP6 ADD MSTORE PUSH2 0x100 DUP7 ADD MSTORE DUP6 MLOAD DUP1 DUP8 ADD DUP8 MSTORE SWAP4 DUP5 MSTORE PUSH6 0x546973682773 PUSH1 0xD0 SHL DUP5 DUP5 ADD MSTORE PUSH2 0x120 DUP6 ADD SWAP4 SWAP1 SWAP4 MSTORE DUP5 MLOAD DUP1 DUP7 ADD DUP7 MSTORE SWAP1 DUP2 MSTORE PUSH7 0x56697065722773 PUSH1 0xC8 SHL DUP2 DUP4 ADD MSTORE PUSH2 0x140 DUP5 ADD MSTORE DUP4 MLOAD DUP1 DUP6 ADD SWAP1 SWAP5 MSTORE SWAP1 DUP4 MSTORE PUSH5 0x576F652773 PUSH1 0xD8 SHL SWAP1 DUP4 ADD MSTORE PUSH2 0x160 DUP2 ADD SWAP2 SWAP1 SWAP2 MSTORE PUSH3 0x1364 SWAP1 PUSH1 0x90 SWAP1 PUSH1 0xC PUSH3 0x149F JUMP JUMPDEST POP CALLVALUE DUP1 ISZERO PUSH3 0x1372 JUMPI PUSH1 0x0 DUP1 REVERT JUMPDEST POP PUSH3 0x1633 JUMP JUMPDEST DUP3 PUSH1 0x1D DUP2 ADD SWAP3 DUP3 ISZERO PUSH3 0x13BE JUMPI SWAP2 PUSH1 0x20 MUL DUP3 ADD JUMPDEST DUP3 DUP2 GT ISZERO PUSH3 0x13BE JUMPI DUP3 MLOAD DUP1 MLOAD PUSH3 0x13AD SWAP2 DUP5 SWAP2 PUSH1 0x20 SWAP1 SWAP2 ADD SWAP1 PUSH3 0x14E4 JUMP JUMPDEST POP SWAP2 PUSH1 0x20 ADD SWAP2 SWAP1 PUSH1 0x1 ADD SWAP1 PUSH3 0x138D JUMP JUMPDEST POP PUSH3 0x13CC SWAP3 SWAP2 POP PUSH3 0x156F JUMP JUMPDEST POP SWAP1 JUMP JUMPDEST DUP3 PUSH1 0x26 DUP2 ADD SWAP3 DUP3 ISZERO PUSH3 0x13BE JUMPI SWAP2 PUSH1 0x20 MUL DUP3 ADD JUMPDEST DUP3 DUP2 GT ISZERO PUSH3 0x13BE JUMPI DUP3 MLOAD DUP1 MLOAD PUSH3 0x1404 SWAP2 DUP5 SWAP2 PUSH1 0x20 SWAP1 SWAP2 ADD SWAP1 PUSH3 0x14E4 JUMP JUMPDEST POP SWAP2 PUSH1 0x20 ADD SWAP2 SWAP1 PUSH1 0x1 ADD SWAP1 PUSH3 0x13E4 JUMP JUMPDEST DUP3 PUSH1 0x3C DUP2 ADD SWAP3 DUP3 ISZERO PUSH3 0x13BE JUMPI SWAP2 PUSH1 0x20 MUL DUP3 ADD JUMPDEST DUP3 DUP2 GT ISZERO PUSH3 0x13BE JUMPI DUP3 MLOAD DUP1 MLOAD PUSH3 0x1449 SWAP2 DUP5 SWAP2 PUSH1 0x20 SWAP1 SWAP2 ADD SWAP1 PUSH3 0x14E4 JUMP JUMPDEST POP SWAP2 PUSH1 0x20 ADD SWAP2 SWAP1 PUSH1 0x1 ADD SWAP1 PUSH3 0x1429 JUMP JUMPDEST DUP3 PUSH1 0x11 DUP2 ADD SWAP3 DUP3 ISZERO PUSH3 0x13BE JUMPI SWAP2 PUSH1 0x20 MUL DUP3 ADD JUMPDEST DUP3 DUP2 GT ISZERO PUSH3 0x13BE JUMPI DUP3 MLOAD DUP1 MLOAD PUSH3 0x148E SWAP2 DUP5 SWAP2 PUSH1 0x20 SWAP1 SWAP2 ADD SWAP1 PUSH3 0x14E4 JUMP JUMPDEST POP SWAP2 PUSH1 0x20 ADD SWAP2 SWAP1 PUSH1 0x1 ADD SWAP1 PUSH3 0x146E JUMP JUMPDEST DUP3 PUSH1 0xC DUP2 ADD SWAP3 DUP3 ISZERO PUSH3 0x13BE JUMPI SWAP2 PUSH1 0x20 MUL DUP3 ADD JUMPDEST DUP3 DUP2 GT ISZERO PUSH3 0x13BE JUMPI DUP3 MLOAD DUP1 MLOAD PUSH3 0x14D3 SWAP2 DUP5 SWAP2 PUSH1 0x20 SWAP1 SWAP2 ADD SWAP1 PUSH3 0x14E4 JUMP JUMPDEST POP SWAP2 PUSH1 0x20 ADD SWAP2 SWAP1 PUSH1 0x1 ADD SWAP1 PUSH3 0x14B3 JUMP JUMPDEST DUP3 DUP1 SLOAD PUSH3 0x14F2 SWAP1 PUSH3 0x15EC JUMP JUMPDEST SWAP1 PUSH1 0x0 MSTORE PUSH1 0x20 PUSH1 0x0 KECCAK256 SWAP1 PUSH1 0x1F ADD PUSH1 0x20 SWAP1 DIV DUP2 ADD SWAP3 DUP3 PUSH3 0x1516 JUMPI PUSH1 0x0 DUP6 SSTORE PUSH3 0x1561 JUMP JUMPDEST DUP3 PUSH1 0x1F LT PUSH3 0x1531 JUMPI DUP1 MLOAD PUSH1 0xFF NOT AND DUP4 DUP1 ADD OR DUP6 SSTORE PUSH3 0x1561 JUMP JUMPDEST DUP3 DUP1 ADD PUSH1 0x1 ADD DUP6 SSTORE DUP3 ISZERO PUSH3 0x1561 JUMPI SWAP2 DUP3 ADD JUMPDEST DUP3 DUP2 GT ISZERO PUSH3 0x1561 JUMPI DUP3 MLOAD DUP3 SSTORE SWAP2 PUSH1 0x20 ADD SWAP2 SWAP1 PUSH1 0x1 ADD SWAP1 PUSH3 0x1544 JUMP JUMPDEST POP PUSH3 0x13CC SWAP3 SWAP2 POP PUSH3 0x1590 JUMP JUMPDEST DUP1 DUP3 GT ISZERO PUSH3 0x13CC JUMPI PUSH1 0x0 PUSH3 0x1586 DUP3 DUP3 PUSH3 0x15A7 JUMP JUMPDEST POP PUSH1 0x1 ADD PUSH3 0x156F JUMP JUMPDEST JUMPDEST DUP1 DUP3 GT ISZERO PUSH3 0x13CC JUMPI PUSH1 0x0 DUP2 SSTORE PUSH1 0x1 ADD PUSH3 0x1591 JUMP JUMPDEST POP DUP1 SLOAD PUSH3 0x15B5 SWAP1 PUSH3 0x15EC JUMP JUMPDEST PUSH1 0x0 DUP3 SSTORE DUP1 PUSH1 0x1F LT PUSH3 0x15C9 JUMPI POP PUSH3 0x15E9 JUMP JUMPDEST PUSH1 0x1F ADD PUSH1 0x20 SWAP1 DIV SWAP1 PUSH1 0x0 MSTORE PUSH1 0x20 PUSH1 0x0 KECCAK256 SWAP1 DUP2 ADD SWAP1 PUSH3 0x15E9 SWAP2 SWAP1 PUSH3 0x1590 JUMP JUMPDEST POP JUMP JUMPDEST PUSH1 0x2 DUP2 DIV PUSH1 0x1 DUP3 AND DUP1 PUSH3 0x1601 JUMPI PUSH1 0x7F DUP3 AND SWAP2 POP JUMPDEST PUSH1 0x20 DUP3 LT DUP2 EQ ISZERO PUSH3 0x1617 JUMPI PUSH3 0x1617 PUSH3 0x161D JUMP JUMPDEST POP SWAP2 SWAP1 POP JUMP JUMPDEST PUSH4 0x4E487B71 PUSH1 0xE0 SHL PUSH1 0x0 MSTORE PUSH1 0x22 PUSH1 0x4 MSTORE PUSH1 0x24 PUSH1 0x0 REVERT JUMPDEST PUSH2 0xF8E DUP1 PUSH3 0x1643 PUSH1 0x0 CODECOPY PUSH1 0x0 RETURN INVALID PUSH1 0x80 PUSH1 0x40 MSTORE CALLVALUE DUP1 ISZERO PUSH2 0x10 JUMPI PUSH1 0x0 DUP1 REVERT JUMPDEST POP PUSH1 0x4 CALLDATASIZE LT PUSH2 0x4C JUMPI PUSH1 0x0 CALLDATALOAD PUSH1 0xE0 SHR DUP1 PUSH4 0x23C23DB EQ PUSH2 0x51 JUMPI DUP1 PUSH4 0x6B8FF574 EQ PUSH2 0x7A JUMPI DUP1 PUSH4 0x6DB40800 EQ PUSH2 0x9C JUMPI DUP1 PUSH4 0xE0D4EA37 EQ PUSH2 0xAF JUMPI JUMPDEST PUSH1 0x0 DUP1 REVERT JUMPDEST PUSH2 0x64 PUSH2 0x5F CALLDATASIZE PUSH1 0x4 PUSH2 0xC46 JUMP JUMPDEST PUSH2 0xCF JUMP JUMPDEST PUSH1 0x40 MLOAD PUSH2 0x71 SWAP2 SWAP1 PUSH2 0xDF5 JUMP JUMPDEST PUSH1 0x40 MLOAD DUP1 SWAP2 SUB SWAP1 RETURN JUMPDEST PUSH2 0x8D PUSH2 0x88 CALLDATASIZE PUSH1 0x4 PUSH2 0xC46 JUMP JUMPDEST PUSH2 0xEA JUMP JUMPDEST PUSH1 0x40 MLOAD PUSH2 0x71 SWAP4 SWAP3 SWAP2 SWAP1 PUSH2 0xDB3 JUMP JUMPDEST PUSH2 0x64 PUSH2 0xAA CALLDATASIZE PUSH1 0x4 PUSH2 0xC46 JUMP JUMPDEST PUSH2 0xAF7 JUMP JUMPDEST PUSH2 0xC2 PUSH2 0xBD CALLDATASIZE PUSH1 0x4 PUSH2 0xC46 JUMP JUMPDEST PUSH2 0xB77 JUMP JUMPDEST PUSH1 0x40 MLOAD PUSH2 0x71 SWAP2 SWAP1 PUSH2 0xDE7 JUMP JUMPDEST PUSH1 0x0 PUSH2 0xE2 PUSH1 0x4 DUP4 SWAP1 SHL PUSH1 0x8 PUSH1 0x19 PUSH2 0xBB9 JUMP JUMPDEST SWAP1 POP JUMPDEST SWAP2 SWAP1 POP JUMP JUMPDEST PUSH1 0x60 DUP1 PUSH1 0x0 PUSH1 0x60 DUP1 PUSH1 0x0 DUP1 PUSH2 0x107 PUSH1 0xF DUP10 SWAP1 SHL PUSH1 0x0 PUSH2 0x2710 PUSH2 0xBB9 JUMP JUMPDEST SWAP1 POP PUSH1 0x11 DUP2 LT ISZERO PUSH2 0x1E7 JUMPI PUSH1 0x1 SWAP2 POP PUSH1 0x40 MLOAD DUP1 PUSH1 0x40 ADD PUSH1 0x40 MSTORE DUP1 PUSH1 0x4 DUP2 MSTORE PUSH1 0x20 ADD PUSH4 0x6E6F6E65 PUSH1 0xE0 SHL DUP2 MSTORE POP SWAP3 POP PUSH1 0x7F DUP2 PUSH1 0x11 DUP2 LT PUSH2 0x156 JUMPI PUSH4 0x4E487B71 PUSH1 0xE0 SHL PUSH1 0x0 MSTORE PUSH1 0x32 PUSH1 0x4 MSTORE PUSH1 0x24 PUSH1 0x0 REVERT JUMPDEST ADD DUP1 SLOAD PUSH2 0x162 SWAP1 PUSH2 0xEA4 JUMP JUMPDEST DUP1 PUSH1 0x1F ADD PUSH1 0x20 DUP1 SWAP2 DIV MUL PUSH1 0x20 ADD PUSH1 0x40 MLOAD SWAP1 DUP2 ADD PUSH1 0x40 MSTORE DUP1 SWAP3 SWAP2 SWAP1 DUP2 DUP2 MSTORE PUSH1 0x20 ADD DUP3 DUP1 SLOAD PUSH2 0x18E SWAP1 PUSH2 0xEA4 JUMP JUMPDEST DUP1 ISZERO PUSH2 0x1DB JUMPI DUP1 PUSH1 0x1F LT PUSH2 0x1B0 JUMPI PUSH2 0x100 DUP1 DUP4 SLOAD DIV MUL DUP4 MSTORE SWAP2 PUSH1 0x20 ADD SWAP2 PUSH2 0x1DB JUMP JUMPDEST DUP3 ADD SWAP2 SWAP1 PUSH1 0x0 MSTORE PUSH1 0x20 PUSH1 0x0 KECCAK256 SWAP1 JUMPDEST DUP2 SLOAD DUP2 MSTORE SWAP1 PUSH1 0x1 ADD SWAP1 PUSH1 0x20 ADD DUP1 DUP4 GT PUSH2 0x1BE JUMPI DUP3 SWAP1 SUB PUSH1 0x1F AND DUP3 ADD SWAP2 JUMPDEST POP POP POP POP POP SWAP4 POP PUSH2 0xAE9 JUMP JUMPDEST PUSH2 0x1EF PUSH2 0xC0E JUMP JUMPDEST PUSH1 0x0 PUSH2 0x202 PUSH1 0x10 DUP12 SWAP1 SHL PUSH1 0x0 PUSH1 0x26 PUSH2 0xBB9 JUMP JUMPDEST SWAP1 POP PUSH2 0x12C DUP4 GT PUSH2 0x45B JUMPI PUSH1 0x0 SWAP4 POP PUSH1 0x40 MLOAD DUP1 PUSH1 0x40 ADD PUSH1 0x40 MSTORE DUP1 PUSH1 0x4 DUP2 MSTORE PUSH1 0x20 ADD PUSH4 0x6E6F6E65 PUSH1 0xE0 SHL DUP2 MSTORE POP SWAP5 POP PUSH1 0x90 PUSH2 0x243 PUSH1 0x17 DUP13 SWAP1 SHL PUSH1 0x0 PUSH1 0xC PUSH2 0xBB9 JUMP JUMPDEST PUSH1 0xC DUP2 LT PUSH2 0x261 JUMPI PUSH4 0x4E487B71 PUSH1 0xE0 SHL PUSH1 0x0 MSTORE PUSH1 0x32 PUSH1 0x4 MSTORE PUSH1 0x24 PUSH1 0x0 REVERT JUMPDEST ADD DUP1 SLOAD PUSH2 0x26D SWAP1 PUSH2 0xEA4 JUMP JUMPDEST DUP1 PUSH1 0x1F ADD PUSH1 0x20 DUP1 SWAP2 DIV MUL PUSH1 0x20 ADD PUSH1 0x40 MLOAD SWAP1 DUP2 ADD PUSH1 0x40 MSTORE DUP1 SWAP3 SWAP2 SWAP1 DUP2 DUP2 MSTORE PUSH1 0x20 ADD DUP3 DUP1 SLOAD PUSH2 0x299 SWAP1 PUSH2 0xEA4 JUMP JUMPDEST DUP1 ISZERO PUSH2 0x2E6 JUMPI DUP1 PUSH1 0x1F LT PUSH2 0x2BB JUMPI PUSH2 0x100 DUP1 DUP4 SLOAD DIV MUL DUP4 MSTORE SWAP2 PUSH1 0x20 ADD SWAP2 PUSH2 0x2E6 JUMP JUMPDEST DUP3 ADD SWAP2 SWAP1 PUSH1 0x0 MSTORE PUSH1 0x20 PUSH1 0x0 KECCAK256 SWAP1 JUMPDEST DUP2 SLOAD DUP2 MSTORE SWAP1 PUSH1 0x1 ADD SWAP1 PUSH1 0x20 ADD DUP1 DUP4 GT PUSH2 0x2C9 JUMPI DUP3 SWAP1 SUB PUSH1 0x1F AND DUP3 ADD SWAP2 JUMPDEST POP POP POP POP POP DUP3 PUSH1 0x0 PUSH1 0x5 DUP2 LT PUSH2 0x30C JUMPI PUSH4 0x4E487B71 PUSH1 0xE0 SHL PUSH1 0x0 MSTORE PUSH1 0x32 PUSH1 0x4 MSTORE PUSH1 0x24 PUSH1 0x0 REVERT JUMPDEST PUSH1 0x20 MUL ADD DUP2 SWAP1 MSTORE POP PUSH1 0x40 MLOAD DUP1 PUSH1 0x40 ADD PUSH1 0x40 MSTORE DUP1 PUSH1 0x1 DUP2 MSTORE PUSH1 0x20 ADD PUSH1 0x1 PUSH1 0xFD SHL DUP2 MSTORE POP DUP3 PUSH1 0x1 PUSH1 0x5 DUP2 LT PUSH2 0x34F JUMPI PUSH4 0x4E487B71 PUSH1 0xE0 SHL PUSH1 0x0 MSTORE PUSH1 0x32 PUSH1 0x4 MSTORE PUSH1 0x24 PUSH1 0x0 REVERT JUMPDEST PUSH1 0x20 MUL ADD MSTORE PUSH1 0x1D DUP2 PUSH1 0x26 DUP2 LT PUSH2 0x375 JUMPI PUSH4 0x4E487B71 PUSH1 0xE0 SHL PUSH1 0x0 MSTORE PUSH1 0x32 PUSH1 0x4 MSTORE PUSH1 0x24 PUSH1 0x0 REVERT JUMPDEST ADD DUP1 SLOAD PUSH2 0x381 SWAP1 PUSH2 0xEA4 JUMP JUMPDEST DUP1 PUSH1 0x1F ADD PUSH1 0x20 DUP1 SWAP2 DIV MUL PUSH1 0x20 ADD PUSH1 0x40 MLOAD SWAP1 DUP2 ADD PUSH1 0x40 MSTORE DUP1 SWAP3 SWAP2 SWAP1 DUP2 DUP2 MSTORE PUSH1 0x20 ADD DUP3 DUP1 SLOAD PUSH2 0x3AD SWAP1 PUSH2 0xEA4 JUMP JUMPDEST DUP1 ISZERO PUSH2 0x3FA JUMPI DUP1 PUSH1 0x1F LT PUSH2 0x3CF JUMPI PUSH2 0x100 DUP1 DUP4 SLOAD DIV MUL DUP4 MSTORE SWAP2 PUSH1 0x20 ADD SWAP2 PUSH2 0x3FA JUMP JUMPDEST DUP3 ADD SWAP2 SWAP1 PUSH1 0x0 MSTORE PUSH1 0x20 PUSH1 0x0 KECCAK256 SWAP1 JUMPDEST DUP2 SLOAD DUP2 MSTORE SWAP1 PUSH1 0x1 ADD SWAP1 PUSH1 0x20 ADD DUP1 DUP4 GT PUSH2 0x3DD JUMPI DUP3 SWAP1 SUB PUSH1 0x1F AND DUP3 ADD SWAP2 JUMPDEST POP POP POP POP POP DUP3 PUSH1 0x2 PUSH1 0x5 DUP2 LT PUSH2 0x420 JUMPI PUSH4 0x4E487B71 PUSH1 0xE0 SHL PUSH1 0x0 MSTORE PUSH1 0x32 PUSH1 0x4 MSTORE PUSH1 0x24 PUSH1 0x0 REVERT JUMPDEST PUSH1 0x20 SWAP1 DUP2 MUL SWAP2 SWAP1 SWAP2 ADD SWAP2 SWAP1 SWAP2 MSTORE DUP3 MLOAD DUP4 DUP3 ADD MLOAD PUSH1 0x40 DUP1 DUP7 ADD MLOAD SWAP1 MLOAD PUSH2 0x445 SWAP5 ADD PUSH2 0xD33 JUMP JUMPDEST PUSH1 0x40 MLOAD PUSH1 0x20 DUP2 DUP4 SUB SUB DUP2 MSTORE SWAP1 PUSH1 0x40 MSTORE SWAP6 POP PUSH2 0xAE6 JUMP JUMPDEST PUSH2 0x708 DUP4 GT PUSH2 0x7B5 JUMPI PUSH1 0x0 SWAP4 POP PUSH1 0x0 PUSH2 0x47B PUSH1 0x2A DUP13 SWAP1 SHL PUSH1 0x0 PUSH1 0x1D PUSH2 0xBB9 JUMP JUMPDEST PUSH1 0x1D DUP2 LT PUSH2 0x499 JUMPI PUSH4 0x4E487B71 PUSH1 0xE0 SHL PUSH1 0x0 MSTORE PUSH1 0x32 PUSH1 0x4 MSTORE PUSH1 0x24 PUSH1 0x0 REVERT JUMPDEST ADD DUP1 SLOAD PUSH2 0x4A5 SWAP1 PUSH2 0xEA4 JUMP JUMPDEST DUP1 PUSH1 0x1F ADD PUSH1 0x20 DUP1 SWAP2 DIV MUL PUSH1 0x20 ADD PUSH1 0x40 MLOAD SWAP1 DUP2 ADD PUSH1 0x40 MSTORE DUP1 SWAP3 SWAP2 SWAP1 DUP2 DUP2 MSTORE PUSH1 0x20 ADD DUP3 DUP1 SLOAD PUSH2 0x4D1 SWAP1 PUSH2 0xEA4 JUMP JUMPDEST DUP1 ISZERO PUSH2 0x51E JUMPI DUP1 PUSH1 0x1F LT PUSH2 0x4F3 JUMPI PUSH2 0x100 DUP1 DUP4 SLOAD DIV MUL DUP4 MSTORE SWAP2 PUSH1 0x20 ADD SWAP2 PUSH2 0x51E JUMP JUMPDEST DUP3 ADD SWAP2 SWAP1 PUSH1 0x0 MSTORE PUSH1 0x20 PUSH1 0x0 KECCAK256 SWAP1 JUMPDEST DUP2 SLOAD DUP2 MSTORE SWAP1 PUSH1 0x1 ADD SWAP1 PUSH1 0x20 ADD DUP1 DUP4 GT PUSH2 0x501 JUMPI DUP3 SWAP1 SUB PUSH1 0x1F AND DUP3 ADD SWAP2 JUMPDEST POP POP POP POP POP DUP3 PUSH1 0x0 PUSH1 0x5 DUP2 LT PUSH2 0x544 JUMPI PUSH4 0x4E487B71 PUSH1 0xE0 SHL PUSH1 0x0 MSTORE PUSH1 0x32 PUSH1 0x4 MSTORE PUSH1 0x24 PUSH1 0x0 REVERT JUMPDEST PUSH1 0x20 MUL ADD DUP2 SWAP1 MSTORE POP PUSH1 0x40 MLOAD DUP1 PUSH1 0x40 ADD PUSH1 0x40 MSTORE DUP1 PUSH1 0x1 DUP2 MSTORE PUSH1 0x20 ADD PUSH1 0x1 PUSH1 0xFD SHL DUP2 MSTORE POP DUP3 PUSH1 0x1 PUSH1 0x5 DUP2 LT PUSH2 0x587 JUMPI PUSH4 0x4E487B71 PUSH1 0xE0 SHL PUSH1 0x0 MSTORE PUSH1 0x32 PUSH1 0x4 MSTORE PUSH1 0x24 PUSH1 0x0 REVERT JUMPDEST PUSH1 0x20 MUL ADD MSTORE PUSH1 0x1D DUP2 PUSH1 0x26 DUP2 LT PUSH2 0x5AD JUMPI PUSH4 0x4E487B71 PUSH1 0xE0 SHL PUSH1 0x0 MSTORE PUSH1 0x32 PUSH1 0x4 MSTORE PUSH1 0x24 PUSH1 0x0 REVERT JUMPDEST ADD DUP1 SLOAD PUSH2 0x5B9 SWAP1 PUSH2 0xEA4 JUMP JUMPDEST DUP1 PUSH1 0x1F ADD PUSH1 0x20 DUP1 SWAP2 DIV MUL PUSH1 0x20 ADD PUSH1 0x40 MLOAD SWAP1 DUP2 ADD PUSH1 0x40 MSTORE DUP1 SWAP3 SWAP2 SWAP1 DUP2 DUP2 MSTORE PUSH1 0x20 ADD DUP3 DUP1 SLOAD PUSH2 0x5E5 SWAP1 PUSH2 0xEA4 JUMP JUMPDEST DUP1 ISZERO PUSH2 0x632 JUMPI DUP1 PUSH1 0x1F LT PUSH2 0x607 JUMPI PUSH2 0x100 DUP1 DUP4 SLOAD DIV MUL DUP4 MSTORE SWAP2 PUSH1 0x20 ADD SWAP2 PUSH2 0x632 JUMP JUMPDEST DUP3 ADD SWAP2 SWAP1 PUSH1 0x0 MSTORE PUSH1 0x20 PUSH1 0x0 KECCAK256 SWAP1 JUMPDEST DUP2 SLOAD DUP2 MSTORE SWAP1 PUSH1 0x1 ADD SWAP1 PUSH1 0x20 ADD DUP1 DUP4 GT PUSH2 0x615 JUMPI DUP3 SWAP1 SUB PUSH1 0x1F AND DUP3 ADD SWAP2 JUMPDEST POP POP POP POP POP DUP3 PUSH1 0x2 PUSH1 0x5 DUP2 LT PUSH2 0x658 JUMPI PUSH4 0x4E487B71 PUSH1 0xE0 SHL PUSH1 0x0 MSTORE PUSH1 0x32 PUSH1 0x4 MSTORE PUSH1 0x24 PUSH1 0x0 REVERT JUMPDEST PUSH1 0x20 MUL ADD DUP2 SWAP1 MSTORE POP PUSH1 0x40 MLOAD DUP1 PUSH1 0x40 ADD PUSH1 0x40 MSTORE DUP1 PUSH1 0x4 DUP2 MSTORE PUSH1 0x20 ADD PUSH4 0x1037B31 PUSH1 0xE5 SHL DUP2 MSTORE POP DUP3 PUSH1 0x3 PUSH1 0x5 DUP2 LT PUSH2 0x69E JUMPI PUSH4 0x4E487B71 PUSH1 0xE0 SHL PUSH1 0x0 MSTORE PUSH1 0x32 PUSH1 0x4 MSTORE PUSH1 0x24 PUSH1 0x0 REVERT JUMPDEST PUSH1 0x20 MUL ADD MSTORE PUSH1 0x43 PUSH2 0x6B6 PUSH1 0x1B DUP13 SWAP1 SHL PUSH1 0x0 PUSH1 0x3B PUSH2 0xBB9 JUMP JUMPDEST PUSH1 0x3C DUP2 LT PUSH2 0x6D4 JUMPI PUSH4 0x4E487B71 PUSH1 0xE0 SHL PUSH1 0x0 MSTORE PUSH1 0x32 PUSH1 0x4 MSTORE PUSH1 0x24 PUSH1 0x0 REVERT JUMPDEST ADD DUP1 SLOAD PUSH2 0x6E0 SWAP1 PUSH2 0xEA4 JUMP JUMPDEST DUP1 PUSH1 0x1F ADD PUSH1 0x20 DUP1 SWAP2 DIV MUL PUSH1 0x20 ADD PUSH1 0x40 MLOAD SWAP1 DUP2 ADD PUSH1 0x40 MSTORE DUP1 SWAP3 SWAP2 SWAP1 DUP2 DUP2 MSTORE PUSH1 0x20 ADD DUP3 DUP1 SLOAD PUSH2 0x70C SWAP1 PUSH2 0xEA4 JUMP JUMPDEST DUP1 ISZERO PUSH2 0x759 JUMPI DUP1 PUSH1 0x1F LT PUSH2 0x72E JUMPI PUSH2 0x100 DUP1 DUP4 SLOAD DIV MUL DUP4 MSTORE SWAP2 PUSH1 0x20 ADD SWAP2 PUSH2 0x759 JUMP JUMPDEST DUP3 ADD SWAP2 SWAP1 PUSH1 0x0 MSTORE PUSH1 0x20 PUSH1 0x0 KECCAK256 SWAP1 JUMPDEST DUP2 SLOAD DUP2 MSTORE SWAP1 PUSH1 0x1 ADD SWAP1 PUSH1 0x20 ADD DUP1 DUP4 GT PUSH2 0x73C JUMPI DUP3 SWAP1 SUB PUSH1 0x1F AND DUP3 ADD SWAP2 JUMPDEST POP POP POP POP POP SWAP5 POP DUP5 DUP3 PUSH1 0x4 PUSH1 0x5 DUP2 LT PUSH2 0x782 JUMPI PUSH4 0x4E487B71 PUSH1 0xE0 SHL PUSH1 0x0 MSTORE PUSH1 0x32 PUSH1 0x4 MSTORE PUSH1 0x24 PUSH1 0x0 REVERT JUMPDEST PUSH1 0x20 SWAP1 DUP2 MUL SWAP2 SWAP1 SWAP2 ADD SWAP2 SWAP1 SWAP2 MSTORE DUP3 MLOAD DUP4 DUP3 ADD MLOAD PUSH1 0x40 DUP1 DUP7 ADD MLOAD PUSH1 0x60 DUP8 ADD MLOAD PUSH1 0x80 DUP9 ADD MLOAD SWAP3 MLOAD PUSH2 0x445 SWAP7 SWAP3 SWAP4 SWAP2 SWAP3 ADD PUSH2 0xD57 JUMP JUMPDEST PUSH2 0xFA0 DUP4 GT PUSH2 0x9B8 JUMPI PUSH1 0x0 SWAP4 POP PUSH1 0x1D DUP2 PUSH1 0x26 DUP2 LT PUSH2 0x7E3 JUMPI PUSH4 0x4E487B71 PUSH1 0xE0 SHL PUSH1 0x0 MSTORE PUSH1 0x32 PUSH1 0x4 MSTORE PUSH1 0x24 PUSH1 0x0 REVERT JUMPDEST ADD DUP1 SLOAD PUSH2 0x7EF SWAP1 PUSH2 0xEA4 JUMP JUMPDEST DUP1 PUSH1 0x1F ADD PUSH1 0x20 DUP1 SWAP2 DIV MUL PUSH1 0x20 ADD PUSH1 0x40 MLOAD SWAP1 DUP2 ADD PUSH1 0x40 MSTORE DUP1 SWAP3 SWAP2 SWAP1 DUP2 DUP2 MSTORE PUSH1 0x20 ADD DUP3 DUP1 SLOAD PUSH2 0x81B SWAP1 PUSH2 0xEA4 JUMP JUMPDEST DUP1 ISZERO PUSH2 0x868 JUMPI DUP1 PUSH1 0x1F LT PUSH2 0x83D JUMPI PUSH2 0x100 DUP1 DUP4 SLOAD DIV MUL DUP4 MSTORE SWAP2 PUSH1 0x20 ADD SWAP2 PUSH2 0x868 JUMP JUMPDEST DUP3 ADD SWAP2 SWAP1 PUSH1 0x0 MSTORE PUSH1 0x20 PUSH1 0x0 KECCAK256 SWAP1 JUMPDEST DUP2 SLOAD DUP2 MSTORE SWAP1 PUSH1 0x1 ADD SWAP1 PUSH1 0x20 ADD DUP1 DUP4 GT PUSH2 0x84B JUMPI DUP3 SWAP1 SUB PUSH1 0x1F AND DUP3 ADD SWAP2 JUMPDEST POP POP POP POP POP DUP3 PUSH1 0x0 PUSH1 0x5 DUP2 LT PUSH2 0x88E JUMPI PUSH4 0x4E487B71 PUSH1 0xE0 SHL PUSH1 0x0 MSTORE PUSH1 0x32 PUSH1 0x4 MSTORE PUSH1 0x24 PUSH1 0x0 REVERT JUMPDEST PUSH1 0x20 MUL ADD DUP2 SWAP1 MSTORE POP PUSH1 0x40 MLOAD DUP1 PUSH1 0x40 ADD PUSH1 0x40 MSTORE DUP1 PUSH1 0x4 DUP2 MSTORE PUSH1 0x20 ADD PUSH4 0x1037B31 PUSH1 0xE5 SHL DUP2 MSTORE POP DUP3 PUSH1 0x1 PUSH1 0x5 DUP2 LT PUSH2 0x8D4 JUMPI PUSH4 0x4E487B71 PUSH1 0xE0 SHL PUSH1 0x0 MSTORE PUSH1 0x32 PUSH1 0x4 MSTORE PUSH1 0x24 PUSH1 0x0 REVERT JUMPDEST PUSH1 0x20 MUL ADD MSTORE PUSH1 0x43 PUSH2 0x8EC PUSH1 0x33 DUP13 SWAP1 SHL PUSH1 0x0 PUSH1 0x3B PUSH2 0xBB9 JUMP JUMPDEST PUSH1 0x3C DUP2 LT PUSH2 0x90A JUMPI PUSH4 0x4E487B71 PUSH1 0xE0 SHL PUSH1 0x0 MSTORE PUSH1 0x32 PUSH1 0x4 MSTORE PUSH1 0x24 PUSH1 0x0 REVERT JUMPDEST ADD DUP1 SLOAD PUSH2 0x916 SWAP1 PUSH2 0xEA4 JUMP JUMPDEST DUP1 PUSH1 0x1F ADD PUSH1 0x20 DUP1 SWAP2 DIV MUL PUSH1 0x20 ADD PUSH1 0x40 MLOAD SWAP1 DUP2 ADD PUSH1 0x40 MSTORE DUP1 SWAP3 SWAP2 SWAP1 DUP2 DUP2 MSTORE PUSH1 0x20 ADD DUP3 DUP1 SLOAD PUSH2 0x942 SWAP1 PUSH2 0xEA4 JUMP JUMPDEST DUP1 ISZERO PUSH2 0x98F JUMPI DUP1 PUSH1 0x1F LT PUSH2 0x964 JUMPI PUSH2 0x100 DUP1 DUP4 SLOAD DIV MUL DUP4 MSTORE SWAP2 PUSH1 0x20 ADD SWAP2 PUSH2 0x98F JUMP JUMPDEST DUP3 ADD SWAP2 SWAP1 PUSH1 0x0 MSTORE PUSH1 0x20 PUSH1 0x0 KECCAK256 SWAP1 JUMPDEST DUP2 SLOAD DUP2 MSTORE SWAP1 PUSH1 0x1 ADD SWAP1 PUSH1 0x20 ADD DUP1 DUP4 GT PUSH2 0x972 JUMPI DUP3 SWAP1 SUB PUSH1 0x1F AND DUP3 ADD SWAP2 JUMPDEST POP POP POP POP POP SWAP5 POP DUP5 DUP3 PUSH1 0x2 PUSH1 0x5 DUP2 LT PUSH2 0x420 JUMPI PUSH4 0x4E487B71 PUSH1 0xE0 SHL PUSH1 0x0 MSTORE PUSH1 0x32 PUSH1 0x4 MSTORE PUSH1 0x24 PUSH1 0x0 REVERT JUMPDEST PUSH2 0x1964 DUP4 GT PUSH2 0xA15 JUMPI PUSH1 0x0 SWAP4 POP PUSH1 0x40 MLOAD DUP1 PUSH1 0x40 ADD PUSH1 0x40 MSTORE DUP1 PUSH1 0x4 DUP2 MSTORE PUSH1 0x20 ADD PUSH4 0x6E6F6E65 PUSH1 0xE0 SHL DUP2 MSTORE POP SWAP5 POP PUSH1 0x0 PUSH2 0x9F7 PUSH1 0x3B DUP13 SWAP1 SHL PUSH1 0x0 PUSH1 0x1D PUSH2 0xBB9 JUMP JUMPDEST PUSH1 0x1D DUP2 LT PUSH2 0x261 JUMPI PUSH4 0x4E487B71 PUSH1 0xE0 SHL PUSH1 0x0 MSTORE PUSH1 0x32 PUSH1 0x4 MSTORE PUSH1 0x24 PUSH1 0x0 REVERT JUMPDEST PUSH1 0x0 SWAP4 POP PUSH1 0x40 MLOAD DUP1 PUSH1 0x40 ADD PUSH1 0x40 MSTORE DUP1 PUSH1 0x4 DUP2 MSTORE PUSH1 0x20 ADD PUSH4 0x6E6F6E65 PUSH1 0xE0 SHL DUP2 MSTORE POP SWAP5 POP PUSH1 0x1D DUP2 PUSH1 0x26 DUP2 LT PUSH2 0xA59 JUMPI PUSH4 0x4E487B71 PUSH1 0xE0 SHL PUSH1 0x0 MSTORE PUSH1 0x32 PUSH1 0x4 MSTORE PUSH1 0x24 PUSH1 0x0 REVERT JUMPDEST ADD DUP1 SLOAD PUSH2 0xA65 SWAP1 PUSH2 0xEA4 JUMP JUMPDEST DUP1 PUSH1 0x1F ADD PUSH1 0x20 DUP1 SWAP2 DIV MUL PUSH1 0x20 ADD PUSH1 0x40 MLOAD SWAP1 DUP2 ADD PUSH1 0x40 MSTORE DUP1 SWAP3 SWAP2 SWAP1 DUP2 DUP2 MSTORE PUSH1 0x20 ADD DUP3 DUP1 SLOAD PUSH2 0xA91 SWAP1 PUSH2 0xEA4 JUMP JUMPDEST DUP1 ISZERO PUSH2 0xADE JUMPI DUP1 PUSH1 0x1F LT PUSH2 0xAB3 JUMPI PUSH2 0x100 DUP1 DUP4 SLOAD DIV MUL DUP4 MSTORE SWAP2 PUSH1 0x20 ADD SWAP2 PUSH2 0xADE JUMP JUMPDEST DUP3 ADD SWAP2 SWAP1 PUSH1 0x0 MSTORE PUSH1 0x20 PUSH1 0x0 KECCAK256 SWAP1 JUMPDEST DUP2 SLOAD DUP2 MSTORE SWAP1 PUSH1 0x1 ADD SWAP1 PUSH1 0x20 ADD DUP1 DUP4 GT PUSH2 0xAC1 JUMPI DUP3 SWAP1 SUB PUSH1 0x1F AND DUP3 ADD SWAP2 JUMPDEST POP POP POP POP POP SWAP6 POP JUMPDEST POP POP JUMPDEST POP SWAP2 SWAP7 SWAP1 SWAP6 POP SWAP1 SWAP4 POP SWAP2 POP POP JUMP JUMPDEST PUSH1 0x0 DUP1 PUSH2 0xB0B PUSH1 0x8 DUP5 SWAP1 SHL PUSH1 0x0 PUSH1 0x64 PUSH2 0xBB9 JUMP JUMPDEST SWAP1 POP PUSH1 0x46 DUP2 LT PUSH2 0xB1F JUMPI PUSH1 0x0 SWAP2 POP POP PUSH2 0xE5 JUMP JUMPDEST PUSH1 0x2D DUP2 LT PUSH2 0xB31 JUMPI PUSH1 0x1 SWAP2 POP POP PUSH2 0xE5 JUMP JUMPDEST PUSH1 0x19 DUP2 LT PUSH2 0xB43 JUMPI PUSH1 0x2 SWAP2 POP POP PUSH2 0xE5 JUMP JUMPDEST PUSH1 0xD DUP2 LT PUSH2 0xB55 JUMPI PUSH1 0x3 SWAP2 POP POP PUSH2 0xE5 JUMP JUMPDEST PUSH1 0x4 DUP2 LT PUSH2 0xB67 JUMPI PUSH1 0x4 SWAP2 POP POP PUSH2 0xE5 JUMP JUMPDEST PUSH1 0x5 SWAP2 POP POP PUSH2 0xE5 JUMP JUMPDEST POP SWAP2 SWAP1 POP JUMP JUMPDEST PUSH1 0x0 DUP1 PUSH2 0xB85 PUSH1 0x1 NUMBER PUSH2 0xE3E JUMP JUMPDEST BLOCKHASH DUP4 GASPRICE PUSH1 0x40 MLOAD PUSH1 0x20 ADD PUSH2 0xB9A SWAP4 SWAP3 SWAP2 SWAP1 PUSH2 0xCFC JUMP JUMPDEST PUSH1 0x40 DUP1 MLOAD DUP1 DUP4 SUB PUSH1 0x1F NOT ADD DUP2 MSTORE SWAP2 SWAP1 MSTORE DUP1 MLOAD PUSH1 0x20 SWAP1 SWAP2 ADD KECCAK256 SWAP4 SWAP3 POP POP POP JUMP JUMPDEST PUSH1 0x0 DUP1 DUP4 PUSH2 0xBC7 DUP2 DUP6 PUSH2 0xE3E JUMP JUMPDEST DUP7 PUSH1 0x40 MLOAD PUSH1 0x20 ADD PUSH2 0xBD8 SWAP2 SWAP1 PUSH2 0xD9E JUMP JUMPDEST PUSH1 0x40 MLOAD PUSH1 0x20 DUP2 DUP4 SUB SUB DUP2 MSTORE SWAP1 PUSH1 0x40 MSTORE DUP1 MLOAD SWAP1 PUSH1 0x20 ADD KECCAK256 PUSH1 0x0 SHR PUSH2 0xBFB SWAP2 SWAP1 PUSH2 0xECB JUMP JUMPDEST PUSH2 0xC05 SWAP2 SWAP1 PUSH2 0xE10 JUMP JUMPDEST SWAP6 SWAP5 POP POP POP POP POP JUMP JUMPDEST PUSH1 0x40 MLOAD DUP1 PUSH1 0xA0 ADD PUSH1 0x40 MSTORE DUP1 PUSH1 0x5 SWAP1 JUMPDEST PUSH1 0x60 DUP2 MSTORE PUSH1 0x20 ADD SWAP1 PUSH1 0x1 SWAP1 SUB SWAP1 DUP2 PUSH2 0xC1D JUMPI SWAP1 POP POP SWAP1 JUMP JUMPDEST DUP1 CALLDATALOAD PUSH2 0xC40 DUP2 PUSH2 0xF41 JUMP JUMPDEST SWAP3 SWAP2 POP POP JUMP JUMPDEST PUSH1 0x0 PUSH1 0x20 DUP3 DUP5 SUB SLT ISZERO PUSH2 0xC58 JUMPI PUSH1 0x0 DUP1 REVERT JUMPDEST PUSH1 0x0 PUSH2 0xC64 DUP5 DUP5 PUSH2 0xC35 JUMP JUMPDEST SWAP5 SWAP4 POP POP POP POP JUMP JUMPDEST PUSH2 0xC7D PUSH2 0xC78 DUP3 PUSH2 0xE6B JUMP JUMPDEST PUSH2 0xE6B JUMP JUMPDEST DUP3 MSTORE POP POP JUMP JUMPDEST PUSH1 0x0 PUSH2 0xC8E DUP3 PUSH2 0xE03 JUMP JUMPDEST PUSH2 0xC98 DUP2 DUP6 PUSH2 0xE07 JUMP JUMPDEST SWAP4 POP PUSH2 0xCA8 DUP2 DUP6 PUSH1 0x20 DUP7 ADD PUSH2 0xE74 JUMP JUMPDEST PUSH2 0xCB1 DUP2 PUSH2 0xF37 JUMP JUMPDEST SWAP1 SWAP4 ADD SWAP4 SWAP3 POP POP POP JUMP JUMPDEST PUSH1 0x0 PUSH2 0xCC6 DUP3 PUSH2 0xE03 JUMP JUMPDEST PUSH2 0xCD0 DUP2 DUP6 PUSH2 0xE5 JUMP JUMPDEST SWAP4 POP PUSH2 0xCE0 DUP2 DUP6 PUSH1 0x20 DUP7 ADD PUSH2 0xE74 JUMP JUMPDEST SWAP3 SWAP1 SWAP3 ADD SWAP3 SWAP2 POP POP JUMP JUMPDEST PUSH2 0xC7D DUP2 PUSH2 0xE6B JUMP JUMPDEST PUSH2 0xC7D DUP2 PUSH2 0xE6E JUMP JUMPDEST PUSH1 0x0 PUSH2 0xD08 DUP3 DUP7 PUSH2 0xC6C JUMP JUMPDEST PUSH1 0x20 DUP3 ADD SWAP2 POP PUSH2 0xD18 DUP3 DUP6 PUSH2 0xC6C JUMP JUMPDEST PUSH1 0x20 DUP3 ADD SWAP2 POP PUSH2 0xD28 DUP3 DUP5 PUSH2 0xC6C JUMP JUMPDEST POP PUSH1 0x20 ADD SWAP4 SWAP3 POP POP POP JUMP JUMPDEST PUSH1 0x0 PUSH2 0xD3F DUP3 DUP7 PUSH2 0xCBB JUMP JUMPDEST SWAP2 POP PUSH2 0xD4B DUP3 DUP6 PUSH2 0xCBB JUMP JUMPDEST SWAP2 POP PUSH2 0xC05 DUP3 DUP5 PUSH2 0xCBB JUMP JUMPDEST PUSH1 0x0 PUSH2 0xD63 DUP3 DUP9 PUSH2 0xCBB JUMP JUMPDEST SWAP2 POP PUSH2 0xD6F DUP3 DUP8 PUSH2 0xCBB JUMP JUMPDEST SWAP2 POP PUSH2 0xD7B DUP3 DUP7 PUSH2 0xCBB JUMP JUMPDEST SWAP2 POP PUSH2 0xD87 DUP3 DUP6 PUSH2 0xCBB JUMP JUMPDEST SWAP2 POP PUSH2 0xD93 DUP3 DUP5 PUSH2 0xCBB JUMP JUMPDEST SWAP8 SWAP7 POP POP POP POP POP POP POP JUMP JUMPDEST PUSH1 0x0 PUSH2 0xDAA DUP3 DUP5 PUSH2 0xC6C JUMP JUMPDEST POP PUSH1 0x20 ADD SWAP2 SWAP1 POP JUMP JUMPDEST PUSH1 0x60 DUP1 DUP3 MSTORE DUP2 ADD PUSH2 0xDC4 DUP2 DUP7 PUSH2 0xC83 JUMP JUMPDEST SWAP1 POP DUP2 DUP2 SUB PUSH1 0x20 DUP4 ADD MSTORE PUSH2 0xDD8 DUP2 DUP6 PUSH2 0xC83 JUMP JUMPDEST SWAP1 POP PUSH2 0xC64 PUSH1 0x40 DUP4 ADD DUP5 PUSH2 0xCF3 JUMP JUMPDEST PUSH1 0x20 DUP2 ADD PUSH2 0xC40 DUP3 DUP5 PUSH2 0xCEA JUMP JUMPDEST PUSH1 0x20 DUP2 ADD PUSH2 0xC40 DUP3 DUP5 PUSH2 0xCF3 JUMP JUMPDEST MLOAD SWAP1 JUMP JUMPDEST SWAP1 DUP2 MSTORE PUSH1 0x20 ADD SWAP1 JUMP JUMPDEST PUSH1 0x0 PUSH2 0xE1B DUP3 PUSH2 0xE6B JUMP JUMPDEST SWAP2 POP PUSH2 0xE26 DUP4 PUSH2 0xE6B JUMP JUMPDEST SWAP3 POP DUP3 NOT DUP3 GT ISZERO PUSH2 0xE39 JUMPI PUSH2 0xE39 PUSH2 0xEF5 JUMP JUMPDEST POP ADD SWAP1 JUMP JUMPDEST PUSH1 0x0 PUSH2 0xE49 DUP3 PUSH2 0xE6B JUMP JUMPDEST SWAP2 POP PUSH2 0xE54 DUP4 PUSH2 0xE6B JUMP JUMPDEST SWAP3 POP DUP3 DUP3 LT ISZERO PUSH2 0xE66 JUMPI PUSH2 0xE66 PUSH2 0xEF5 JUMP JUMPDEST POP SUB SWAP1 JUMP JUMPDEST SWAP1 JUMP JUMPDEST PUSH1 0xFF AND SWAP1 JUMP JUMPDEST PUSH1 0x0 JUMPDEST DUP4 DUP2 LT ISZERO PUSH2 0xE8F JUMPI DUP2 DUP2 ADD MLOAD DUP4 DUP3 ADD MSTORE PUSH1 0x20 ADD PUSH2 0xE77 JUMP JUMPDEST DUP4 DUP2 GT ISZERO PUSH2 0xE9E JUMPI PUSH1 0x0 DUP5 DUP5 ADD MSTORE JUMPDEST POP POP POP POP JUMP JUMPDEST PUSH1 0x2 DUP2 DIV PUSH1 0x1 DUP3 AND DUP1 PUSH2 0xEB8 JUMPI PUSH1 0x7F DUP3 AND SWAP2 POP JUMPDEST PUSH1 0x20 DUP3 LT DUP2 EQ ISZERO PUSH2 0xB71 JUMPI PUSH2 0xB71 PUSH2 0xF21 JUMP JUMPDEST PUSH1 0x0 PUSH2 0xED6 DUP3 PUSH2 0xE6B JUMP JUMPDEST SWAP2 POP PUSH2 0xEE1 DUP4 PUSH2 0xE6B JUMP JUMPDEST SWAP3 POP DUP3 PUSH2 0xEF0 JUMPI PUSH2 0xEF0 PUSH2 0xF0B JUMP JUMPDEST POP MOD SWAP1 JUMP JUMPDEST PUSH4 0x4E487B71 PUSH1 0xE0 SHL PUSH1 0x0 MSTORE PUSH1 0x11 PUSH1 0x4 MSTORE PUSH1 0x24 PUSH1 0x0 REVERT JUMPDEST PUSH4 0x4E487B71 PUSH1 0xE0 SHL PUSH1 0x0 MSTORE PUSH1 0x12 PUSH1 0x4 MSTORE PUSH1 0x24 PUSH1 0x0 REVERT JUMPDEST PUSH4 0x4E487B71 PUSH1 0xE0 SHL PUSH1 0x0 MSTORE PUSH1 0x22 PUSH1 0x4 MSTORE PUSH1 0x24 PUSH1 0x0 REVERT JUMPDEST PUSH1 0x1F ADD PUSH1 0x1F NOT AND SWAP1 JUMP JUMPDEST PUSH2 0xF4A DUP2 PUSH2 0xE6B JUMP JUMPDEST DUP2 EQ PUSH2 0xF55 JUMPI PUSH1 0x0 DUP1 REVERT JUMPDEST POP JUMP INVALID LOG2 PUSH5 0x6970667358 0x22 SLT KECCAK256 0xF6 0xCC CALLCODE POP 0xBF 0xC7 RETURNDATASIZE DUP9 LOG1 0xAD JUMPI CODECOPY PUSH17 0x24243486E1A25B1DD306B58DA7FBB4BC8B 0xEC 0xB0 PUSH5 0x736F6C6343 STOP ADDMOD STOP STOP CALLER "
        },
        "methodIdentifiers": {
          "getEnvironment(uint256)": "6db40800",
          "getName(uint256)": "6b8ff574",
          "getSeed(uint256)": "e0d4ea37",
          "getSize(uint256)": "023c23db"
        }
      }
    }
  }
}